:0400000053EF00F0CA
:0E0008004082FACF01F0FBCF02F0A0EF99F09A
:100018004080D8CF0FF0E8CF10F0E0CF11F0FACF42
:1000280012F0FBCF13F0E9CF14F0EACF15F0E1CFCF
:1000380016F0E2CF17F0D9CF18F0DACF19F0F3CFD6
:100048001AF0F4CF1BF0F6CF1CF0F7CF1DF0F8CF65
:100058001EF0F5CF1FF01FC0F5FF1EC0F8FF1DC032
:10006800F7FF1CC0F6FF1BC0F4FF1AC0F3FF19C04E
:10007800DAFF18C0D9FF17C0E2FF16C0E1FF15C0AC
:10008800EAFF14C0E9FF13C0FBFF12C0FAFF11C05A
:10009800E0FF10C0E8FF0FC0D8FF40901000F2EF5B
:0200A8009EF0C8
:10FE9A00000000803FCDCCCC3D0AD7233C6F1283B3
:10FEAA003A17B7D138ACC52737BD37863595BFD68F
:10FEBA003377CC2B325F708930FFE6DB2E08E53CC6
:10FECA001E6042A20D0000803F000020410000C8D1
:10FEDA004200007A4400401C460050C34700247484
:10FEEA00498096184B20BCBE4C286B6E4EF9021501
:10FEFA0050EC78AD60CAF24971010000000A0000B6
:10FF0A000064000000E803000010270000A086013A
:10FF1A000040420F008096980000E1F50500CA9A59
:10FF2A003B00000000C4FF7F3F80EFFFBE90E1A9C5
:10FF3A003EEC8276BE82AD2B3E0E3CC3BD87D1130A
:10FF4A003D4178D3BB73656C657A696F6E61726582
:10FF5A002063617061636974E000202020202041E1
:10FF6A0074746573612020202020002020496E6669
:10FF7A006F726D617A696F6E6920200053746162D5
:10FF8A00696C697A7A617A696F6E652E004361726B
:10FF9A0069636120696E20636F72736F3A007465DA
:10FFAA00737420636F6D706C657461746F3A00438B
:10FFBA006172696361207465726D696E6174610052
:10FFCA006361706163697461273A00626174746580
:10FFDA007269613A0020493A252E33660074656DCC
:10FFEA00706F3A00543A252E316600563A252E3261
:06FFFA00660041680000F2
:020000040001F9
:10000000C70E0101046F000E0101056F2CEF84F093
:10001000250E01011819D8B408D0C3C0D9FFC4C037
:10002000DAFF18C1DFFF29EF84F0000E0101076F2E
:10003000000E066FC5C0F6FFC6C0F7FF000EF86ED3
:100040000800F5502E0AD8A438D00101078D000110
:10005000C54BC62B000E0101136F000E126F20D08E
:1000600012C120F013C121F0000E236E0A0E226E81
:10007000DCEC9FF0C5C0F6FFC6C0F7FF000EF86EBF
:100080000800F5502026000E2122D00E2024010168
:10009000126FFF0E21200101136F0001C54BC62B0B
:1000A000C5C0F6FFC6C0F7FF000EF86E0800F55099
:1000B00015ECA0F0D8A00CD0D3D7000E0101136F1F
:1000C000000E126F0101078903D00101078515D0C9
:1000D000C5C0F6FFC6C0F7FF0001C54BC62B000E1A
:1000E000F86E0800F5CF18F101011851000AD8B4D4
:1000F000C4D3660AD8B4E9D7AFD3070E01010715F8
:10010000D8B452D3010107A905D0000E0101136F25
:10011000060E126F04C1D9FF05C1DAFFDECF14F15C
:10012000DECF15F1DECF16F1DECF17F1040E01019F
:100130000427000E0523010117AF15D014C120F0CC
:1001400015C121F016C122F017C123F0AFEC9FF0CA
:1001500020C014F121C015F122C016F123C017F1FF
:10016000030E01010613000E01010D6F000E0C6F4E
:10017000010114510101151101011611010117119D
:10018000D8B48DD0010116351735820F01010C6FDF
:1001900001010D6BFF0E0D2301010C07D8A00D0707
:1001A0000CC120F00DC121F0000E236E030E226E53
:1001B000DCEC9FF020C00CF121C00DF10CC162F00D
:1001C0000DC163F0000E0001656F0A0E646F08EC4C
:1001D0009BF062C00CF163C00DF101010DAF04D0C2
:1001E00001010C07D8A00D0701010C51000844ECD7
:1001F00084F0B0C00EF1B1C00FF1B2C010F1B3C0C5
:1002000011F10EC197F00FC198F010C199F011C112
:100210009AF014C19BF015C19CF016C19DF017C156
:100220009EF009EC89F097C00EF198C00FF199C0CB
:1002300010F19AC011F10EC160F00FC161F010C150
:1002400062F011C163F0000E0001646F000E656F73
:10025000800E666F3F0E676FE0EC97F00001D8B03C
:1002600005D001010C07D8A00D0719D00EC160F010
:100270000FC161F010C162F011C163F0000E000106
:10028000646F000E656F200E666F410E676FE0ECC5
:1002900097F00001D8A003D001010C4B0D2B0101F8
:1002A00013BF08D00101135123E10D0E0101125DAE
:1002B000D8B01ED014C183F015C184F016C185F0EA
:1002C00017C186F00101125180EC8FF0B0C087F0A9
:1002D000B1C088F0B2C089F0B3C08AF0B5EC86F046
:1002E00083C014F184C015F185C016F186C017F1E2
:1002F00001010DBF08D001010D512EE10A0E0101CF
:100300000C5DD8B029D00101145101011511010172
:10031000161101011711D8B46DD014C1B9F015C16F
:10032000BAF016C1BBF017C1BCF01AEC99F000018D
:10033000B9510001BA110001BB110001BC11D8A4D0
:1003400059D001010DBF56D001010D5105E1020E3A
:1003500001010C5DD8A04ED00EC160F00FC161F05C
:1003600010C162F011C163F05F0E0001646F700E86
:10037000656F890E666F400E676FE0EC97F00001C5
:10038000D8B003D00101F70E02D00101F80E0C27FE
:10039000FF0E0D2301010C5144EC84F0B0C00EF1AE
:1003A000B1C00FF1B2C010F1B3C011F114C160F0CF
:1003B00015C161F016C162F017C163F00EC164F09F
:1003C0000FC165F010C166F011C167F0A3EC95F0A4
:1003D00060C008F161C009F162C00AF163C00BF1AD
:1003E000000E0101146F000E156F000E166F000E47
:1003F000176F3CD014C1B9F015C1BAF016C1BBF0EB
:1004000017C1BCF01AEC99F0B9C008F1BAC009F1F3
:10041000BBC00AF1BCC00BF114C197F015C198F034
:1004200016C199F017C19AF008C120F009C121F056
:100430000AC122F00BC123F0000EFCEC93F020C0A7
:100440009BF021C09CF022C09DF023C09EF0CEEC1A
:100450009EF097C014F198C015F199C016F19AC09A
:1004600017F1000E01010D6F000E0C6F010E01015E
:10047000186F0A0E01011819D8B421D001011851C2
:10048000040D030EF324F66EFF0EF420F76EF86AE7
:10049000000EF8220900F5500101085D0900F55031
:1004A000010109590900F55001010A590900F550E7
:1004B00001010B59D8A003D00101182BDAD7030E84
:1004C000010106150001CB6F000E010107150001A7
:1004D000CC6F0001CB510001CC11D8B458D0C3C0AF
:1004E000D9FFC4C0DAFF2D0E50D00001C34BC42B7E
:1004F0004ED008C160F009C161F00AC162F00BC1C1
:1005000063F001011851040D030EF324F66EFF0E83
:10051000F420F76EF86A000EF8220900F5CF64F0B7
:100520000900F5CF65F00900F5CF66F00A00F5CFB8
:1005300067F0C5EC9BF060C00EF161C00FF162C0C6
:1005400010F163C011F10EC160F00FC161F010C174
:1005500062F011C163F00A0E0001646F000E656F56
:10056000000E666F000E676F72EC9DF060C00EF1BA
:1005700061C00FF162C010F163C011F101010E51B1
:10058000300FC3C0D9FFC4C0DAFFDF6EAED70101A0
:10059000180701011829D8B40ED0ABD7C3C0D9FFB2
:1005A000C4C0DAFF300EDF6E0001C34BC42B010163
:1005B0000C07D8A00D0701010DBF07D001010D5197
:1005C000EDE101010C05D8B0E9D7010113BF0CD052
:1005D0000101135105E1090E0101125DD8A004D0FB
:1005E000080E0101186F02D012C118F10101185153
:1005F0000101125F000E010118BFFF0E0101135B24
:10060000010118510101D8B409D0C3C0D9FFC4C039
:10061000DAFF2E0EDF6E0001C34BC42B010118510F
:1006200044EC84F0B0C000F1B1C001F1B2C002F1FD
:10063000B3C003F114C19BF015C19CF016C19DF02D
:1006400017C19EF000C197F001C198F002C199F066
:1006500003C19AF009EC89F097C0B9F098C0BAF0DC
:1006600099C0BBF09AC0BCF01AEC99F0B9C008F17F
:10067000BAC009F1BBC00AF1BCC00BF17AD008C105
:1006800060F009C161F00AC162F00BC163F00101C1
:100690001851040D030EF324F66EFF0EF420F76ECE
:1006A000F86A000EF8220900F5CF64F00900F5CFD2
:1006B00065F00900F5CF66F00A00F5CF67F0C5ECEC
:1006C0009BF060C00EF161C00FF162C010F163C019
:1006D00011F10EC160F00FC161F010C162F011C1E3
:1006E00063F00A0E0001646F000E656F000E666F06
:1006F000000E676F72EC9DF060C00EF161C00FF1EB
:1007000062C010F163C011F101010E51300FC3C07E
:10071000D9FFC4C0DAFFDF6E0001C34BC42B08C190
:1007200060F009C161F00AC162F00BC163F0010120
:100730001851040D030EF324F66EFF0EF420F76E2D
:10074000F86A000EF8220900F5CF64F00900F5CF31
:1007500065F00900F5CF66F00A00F5CF67F072EC9E
:100760009DF060C008F161C009F162C00AF163C088
:100770000BF10101180701011829D8B40ED07FD759
:10078000C3C0D9FFC4C0DAFF300EDF6E0001C34B17
:10079000C42B01011207D8A0130701011251010156
:1007A0001311D8B459D0ECD7010112510101131122
:1007B000D8A40DD0010108510101091101010A114C
:1007C00001010B11D8A403D00101124B132B800E91
:1007D000010118BF7F0E0001CB6F01011251010111
:1007E000185D01011351800A0001CB59D8B003D024
:1007F00012C118F118D001011351800A0001CB6F0A
:10080000010118510101125D800E010118BF7F0E18
:100810000001CB59D8B007D0010118510101126F66
:10082000136B12BF1307030E010106150001CB6FF6
:10083000000E010107150001CC6F0001CB51000132
:10084000CC11D8B409D0C3C0D9FFC4C0DAFF2D0E73
:10085000DF6E0001C34BC42BC5C0F6FFC6C0F7FF57
:100860000001C54BC62B000EF86E0800F5CF18F13D
:1008700001011851D8A408EF80F0C3C0D9FFC4C04B
:10088000DAFF000EDF6E12000001B86F0001B8AF92
:1008900037D10001B86D0001B851800A120FD8A0FD
:1008A000B3D0000E0001656F0A0E646F000E236E58
:1008B000640E226E0001B851206E216A20BE21060E
:1008C000BCEC9DF020C062F021C063F008EC9BF00E
:1008D0000001D890623763370001D89062376337E0
:1008E000240E00016227000E000163239B0E00010D
:1008F0006225F66EFE0E00016321F76EF86A000EA7
:10090000F8220900F5CF9BF00900F5CF9CF0090013
:10091000F5CF9DF00A00F5CF9EF0000E0001656F47
:10092000640E646F0001B8510001626F636B62BFB7
:10093000630708EC9BF00001D89062376337000131
:10094000D89062376337480E00016227000E00011D
:1009500063239B0E00016225F66EFE0E00016321EB
:10096000F76EF86A000EF8220900F5CF97F009003B
:10097000F5CF98F00900F5CF99F00A00F5CF9AF07D
:1009800009EC89F097C0B4F098C0B5F099C0B6F002
:100990009AC0B7F0B4C097F0B5C098F0B6C099F05F
:1009A000B7C09AF0000E236E0A0E226E0001B851F5
:1009B000206E216A20BE2106BCEC9DF0D890203626
:1009C0002136D890203621369B0E2024F66EFE0E5E
:1009D0002120F76EF86A000EF8220900F5CF9BF08F
:1009E0000900F5CF9CF00900F5CF9DF00A00F5CF86
:1009F0009EF009EC89F097C0B0F098C0B1F099C0B2
:100A0000B2F09AC0B3F012000001B851800A750F1D
:100A1000D8A05DD0000E0001656F0A0E646F000162
:100A2000B8510001626F636B62BF630708EC9BF013
:100A30000001D890623763370001D890623763377E
:100A4000240E00016227000E000163239B0E0001AB
:100A50006225F66EFE0E00016321F76EF86A000E45
:100A6000F8220900F5CF97F00900F5CF98F00900BA
:100A7000F5CF99F00A00F5CF9AF0000E236E0A0E1A
:100A8000226E0001B851206E216A20BE2106BCEC06
:100A90009DF0D89020362136D890203621369B0EF6
:100AA0002024F66EFE0E2120F76EF86A000EF82262
:100AB0000900F5CF9BF00900F5CF9CF00900F5CFB8
:100AC0009DF00A00F5CF9EF009EC89F094D7000163
:100AD000B851040D9B0EF324F66EFE0EF420F76E53
:100AE000F86A000EF8220900F5CFB0F00900F5CF42
:100AF000B1F00900F5CFB2F00A00F5CFB3F0120063
:100B00000001B851800A120FD8A0B3D0000E000126
:100B1000656F0A0E646F000E236E640E226E000174
:100B2000B851206E216A20BE2106BCEC9DF020C089
:100B300062F021C063F008EC9BF00001D8906237AE
:100B400063370001D89062376337240E00016227B3
:100B5000000E00016323CF0E00016225F66EFE0E2B
:100B600000016321F76EF86A000EF8220900F5CF44
:100B70009BF00900F5CF9CF00900F5CF9DF00A002D
:100B8000F5CF9EF0000E0001656F640E646F0001EA
:100B9000B8510001626F636B62BF630708EC9BF0A2
:100BA0000001D890623763370001D890623763370D
:100BB000480E00016227000E00016323CF0E0001E2
:100BC0006225F66EFE0E00016321F76EF86A000ED4
:100BD000F8220900F5CF97F00900F5CF98F0090049
:100BE000F5CF99F00A00F5CF9AF009EC89F097C09B
:100BF000B4F098C0B5F099C0B6F09AC0B7F0B4C0E0
:100C000097F0B5C098F0B6C099F0B7C09AF0000E52
:100C1000236E0A0E226E0001B851206E216A20BE9A
:100C20002106BCEC9DF0D89020362136D890203695
:100C30002136CF0E2024F66EFE0E2120F76EF86AC4
:100C4000000EF8220900F5CF9BF00900F5CF9CF0CB
:100C50000900F5CF9DF00A00F5CF9EF009EC89F070
:100C600097C0B0F098C0B1F099C0B2F09AC0B3F09C
:100C700012000001B851800A750FD8A05DD0000E97
:100C80000001656F0A0E646F0001B8510001626FC8
:100C9000636B62BF630708EC9BF00001D89062377A
:100CA00063370001D89062376337240E0001622752
:100CB000000E00016323CF0E00016225F66EFE0ECA
:100CC00000016321F76EF86A000EF8220900F5CFE3
:100CD00097F00900F5CF98F00900F5CF99F00A00D8
:100CE000F5CF9AF0000E236E0A0E226E0001B85165
:100CF000206E216A20BE2106BCEC9DF0D8902036E3
:100D00002136D89020362136CF0E2024F66EFE0EE6
:100D10002120F76EF86A000EF8220900F5CF9BF04B
:100D20000900F5CF9CF00900F5CF9DF00A00F5CF42
:100D30009EF009EC89F094D70001B851040DCF0E54
:100D4000F324F66EFE0EF420F76EF86A000EF82219
:100D50000900F5CFB0F00900F5CFB1F00900F5CFEB
:100D6000B2F00A00F5CFB3F0120000018651800BFB
:100D70000001936F0001865186250001956F0001E7
:100D800085AF02D000019581000195510001D8B4D2
:100D900012D000019529D8A409D0000E0001836F5C
:100DA000000E846F000E856F000E866F0001858F28
:100DB000000E000108D0000E0001836F000E846F4A
:100DC000000E856F000E866F00018A51800B0001B6
:100DD000946F0001935100019419D8B402D000011E
:100DE000938D00018A518A250001946F000189AF1B
:100DF00002D000019481000194510001D8B412D0B6
:100E000000019429D8A409D0000E0001876F000EBC
:100E1000886F000E896F000E8A6F0001898F000EA7
:100E2000000108D0000E0001876F000E886F000ED1
:100E3000896F000E8A6F000195510001945DD8B052
:100E400024D0000193AD03D0800E0001931B95C008
:100E500096F094C095F096C094F083C096F087C049
:100E600083F096C087F084C096F088C084F096C066
:100E700088F085C096F089C085F096C089F086C05C
:100E800096F08AC086F096C08AF0000E0001966F38
:100E90000001955100018B6F8C6B00018B1F8C1F23
:100EA0008B4B8C2B0001945100018D6F8E6B0001D8
:100EB0008B5100018D2700018C5100018E23000110
:100EC0008EBF3DD000018E5105E11A0E00018D5DEF
:100ED000D8A035D000018351000184110001851193
:100EE00000018611D8B402D0010E01D0000E00011D
:100EF000966F000E0001836F000E846F000E856FE9
:100F0000000E866F94C095F020D0000196A107D006
:100F10000001D890963101090001966F03D00001BD
:100F2000D8909633000183A102D00001968F000172
:100F3000863586338533843383330001952B000156
:100F400094510001955DD8A0E0D7000193BD3FD03A
:100F5000000195510001D8A40AD0000E0001836F52
:100F6000000E846F000E856F000E866F1200000168
:100F7000875100018327000188510001842300016B
:100F800089510001852300018A5100018623000157
:100F900086A1CCD0000196A109D00001D89096334B
:100FA0000001965101090001966F03D00001D8900D
:100FB0009633000183A102D00001968F000186358F
:100FC00086338533843383330001952BAFD0000102
:100FD00087510001835D000188510001845900019F
:100FE00089510001855900018651800A00018B6FEB
:100FF00000018A51800A00018B59D8B050D083C0BB
:101000008BF084C08CF085C08DF086C08EF000011E
:101010008B1F8C1F8D1F8E1F8B2B000E8C238D23FF
:101020008E230001875100018B2500018F6F000185
:10103000885100018C210001906F0001895100014D
:101040008D210001916F00018A5100018E21000164
:10105000926FFF0E00018F250001836FFF0E0001CC
:1010600090210001846FFF0E000191210001856F26
:10107000FF0E000192210001866F800E0001931B7C
:101080000001966D000196510001D8A418D0010E00
:1010900000018327000E84238523862310D00001BE
:1010A00087510001835F000188510001845B0001CA
:1010B00089510001855B00018A510001865B0001B6
:1010C0008351000184110001851100018611D8A40B
:1010D0002AD0000196510001D8A425D0000E0001AD
:1010E000836F000E846F000E856F000E866F1200F6
:1010F0000001D8908337843785378637000196AF53
:1011000002D000018381000196A103D0D8800001A4
:1011100002D00001D8909637000195510001D8B453
:1011200002D000019507000185AFE2D7000E000153
:10113000946F000196AF0DD096C08BF07F0E00012A
:101140008B17D8A403D0000183A103D0010E0001A6
:10115000946F000194510001D8B426D0010E000113
:101160008327000E842385238623000186A11CD0BB
:1011700083C08BF084C08CF085C08DF086C08EF06B
:1011800000018E358E338D338C338B338BC083F0DF
:101190008CC084F08DC085F08EC086F0000195294A
:1011A000D8B402D00001952B00019529D8B405D000
:1011B000000195510001D8A411D0000E0001836FE9
:1011C000000E846F000E856F000E866F0001955132
:1011D0000001D8A403D0000E0001936F000195A177
:1011E00003D00001858F02D00001859F0001D890B7
:1011F00095310001866F000193AF02D00001868F08
:1012000083C083F084C084F085C085F086C086F0FA
:10121000120000019A51800B0001A36F00019A5146
:101220009A250001A96F000199AF02D00001A981A0
:101230000001A9510001D8B410D00001A929D8A4F7
:1012400009D0000E0001976F000E986F000E996F85
:10125000000E9A6F0001998F09D0000E0001976F60
:10126000000E986F000E996F000E9A6F00019E514C
:10127000800B0001A31B00019E519E250001A46F5D
:1012800000019DAF02D00001A4810001A451000122
:10129000D8B410D00001A429D8A409D0000E0001B0
:1012A0009B6F000E9C6F000E9D6F000E9E6F0001E5
:1012B0009D8F09D0000E00019B6F000E9C6F000EE9
:1012C0009D6F000E9E6F0001A4510001D8B405D09F
:1012D0000001A9510001D8A40AD0000E0001976FA7
:1012E000000E986F000E996F000E9A6F12000001A9
:1012F0009D5100019703F3CFAEF0F4CFAFF00001A2
:10130000AE510001A56FA66BA76BA86B0001AF5192
:101310000001AA6FAB6BAC6BAD6B00019C5100017F
:101320009803F3CFAEF0F4CFAFF00001AE5100015F
:10133000A527000EA623A723A8230001AF51000173
:10134000AA27000EAB23AC23AD2300019B51000163
:101350009903F3CFAEF0F4CFAFF00001AE5100012E
:10136000A527000EA623A723A8230001AF51000143
:10137000AA27000EAB23AC23AD23A7C0A8F0A6C0BC
:10138000A7F0A5C0A6F00001A56B00019B510001CC
:101390009803F3CFAEF0F4CFAFF00001AE510001EF
:1013A000A5270001AF510001A623000E0001A723CD
:1013B000000E0001A82300019C5100019703F3CF08
:1013C000AEF0F4CFAFF00001AE510001A52700014F
:1013D000AF510001A623000E0001A723000E00015B
:1013E000A823A7C0A8F0A6C0A7F0A5C0A6F000013A
:1013F000A56B00019B5100019703F3CFAEF0F4CF32
:10140000AFF00001AE510001A5270001AF5100016E
:10141000A623000E0001A723000E0001A82300014F
:101420009D5100019803F3CFAEF0F4CFAFF000016F
:10143000AE510001AA270001AF510001AB23000EFD
:101440000001AC23000E0001AD2300019C510001FE
:101450009903F3CFAEF0F4CFAFF00001AE5100012D
:10146000AA270001AF510001AB23000E0001AC23FD
:10147000000E0001AD2300019D5100019903F3CF3F
:10148000AEF0F4CFAFF00001AE5100019F6F00014C
:10149000AF510001A06F0001A16B0001A26BA1C0C0
:1014A000A2F0A0C0A1F09FC0A0F000019F6B0001BE
:1014B0009F510001AA270001A0510001AB230001A8
:1014C000A1510001AC230001A2510001AD23A5C030
:1014D0009FF0A6C0A0F0A7C0A1F0A8C0A2F0190E6E
:1014E00006D00001D890A233A133A0339F33E82E59
:1014F000F8D700019F510001AA270001A051000167
:10150000AB230001A1510001AC230001A251000155
:10151000AD23A7C0A8F0A6C0A7F0A5C0A6F0000103
:10152000A56B0001A451A9C09FF00001A06B0001B0
:101530009F27000EA023820E00019F250001AE6FA1
:10154000FF0E0001A0210001AF6F15D00001D8905F
:10155000AA37AB37AC37AD370001A8AF02D00001D6
:10156000AA810001D890A537A637A737A837000170
:10157000AE07D8A0AF070001ACAFE8D7000E00015E
:10158000A46F0001A8AF24D0FF0E0001A515000133
:101590009F6FFF0E0001A6150001A06FFF0E000156
:1015A000A7150001A16F7F0E0001A8150001A26F11
:1015B00000019F510001A0110001A1110001A21121
:1015C000D8A403D00001AAA103D0010E0001A46F8A
:1015D0000001A4510001D8B423D0010E0001AA27B4
:1015E000000EAB23AC23AD230001ADA119D0AAC0DE
:1015F0009FF0ABC0A0F0ACC0A1F0ADC0A2F0000164
:10160000A235A233A133A0339F339FC0AAF0A0C05C
:10161000ABF0A1C0ACF0A2C0ADF00001AE4BAF2B5F
:101620000001AFBF10D00001AF5104E10001AE29AD
:10163000D8A009D0000E0001AA6F000EAB6F800E7B
:10164000AC6F7F0E2BD00001AFBF07D00001AF51B0
:1016500011E10001AE05D8B00DD0000E0001AA6F57
:10166000000EAB6F000EAC6F000EAD6F000E0001F0
:10167000A36F15D0AEC0A9F0FF0E0001AA17FF0E90
:10168000AB177F0EAC17000EAD170001A9A102D059
:101690000001AC8F0001D890A9310001AD6F0001AD
:1016A000A3510001AD13AAC097F0ABC098F0ACC035
:1016B00099F0ADC09AF01200000E0001CC6F030E3D
:1016C0000001CC6501D04CD00001CC51010D380E89
:1016D000F324D96E000EF420DA6EDF50C26EC2829F
:1016E000C2B2FED7C4500001C66FC76B0001CC5117
:1016F000020DD60EF324D96E000EF420DA6EC6C0A9
:10170000DEFFC7C0DDFF0001CC51020DD60EF32471
:10171000D96E000EF420DA6EDECFC6F0DDCFC7F052
:10172000C6C0C7F00001C66BC3500001C613000E4F
:10173000C7130001CC51020DD60EF324D96E000E52
:10174000F420DA6EC6C0DEFFC7C0DDFF000E000168
:10175000636F010E626F96EC9FF00001CC2BAFD748
:1017600020EED8F0DECFC6F0DDCFC7F00001C61FF7
:10177000C71FC64BC72B0001DA510001C627000165
:10178000DB510001C723C6C020F0C7C021F0000E06
:1017900021BEFF0E226E236E010EFCEC93F020C0E2
:1017A000DEF021C0DFF022C0E0F023C0E1F0DEC0B7
:1017B00097F0DFC098F0E0C099F0E1C09AF0000E19
:1017C00000019B6F000E9C6FA00E9D6F400E9E6FE0
:1017D00009EC89F097C0DEF098C0DFF099C0E0F026
:1017E0009AC0E1F0DEC06AF0DFC06BF0E0C06CF0E0
:1017F000E1C06DF0000E00016E6F000E6F6F800E85
:10180000706F440E716FA0EC8DF06AC0DEF06BC09B
:10181000DFF06CC0E0F06DC0E1F0DEC06AF0DFC068
:101820006BF0E0C06CF0E1C06DF0CD0E00016E6FAA
:10183000CC0E6F6F4C0E706F3E0E716FA0EC8DF082
:101840006AC0DEF06BC0DFF06CC0E0F06DC0E1F0AC
:10185000000E0001DE6F000EDF6F400EE06F400EE5
:10186000E16FD6C020F0D7C021F0000E21BEFF0EE0
:10187000226E236E010EFCEC93F020C0EEF021C02E
:10188000EFF022C0F0F023C0F1F0000E00019B6FDA
:10189000000E9C6FA00E9D6F400E9E6FEEC097F0E5
:1018A000EFC098F0F0C099F0F1C09AF009EC89F01F
:1018B00097C06AF098C06BF099C06CF09AC06DF058
:1018C000000E00016E6F000E6F6F800E706F440E81
:1018D000716FA0EC8DF06AC0EEF06BC0EFF06CC0E1
:1018E000F0F06DC0F1F0EEC06AF0EFC06BF0F0C048
:1018F0006CF0F1C06DF0CA0E00016E6F140E6F6FC8
:10190000A90E706F3E0E716FA0EC8DF06AC0EEF004
:101910006BC0EFF06CC0F0F06DC0F1F020EEDCF0C9
:10192000DECF20F0DDCF21F0000E21BEFF0E226EB3
:10193000236E010EFCEC93F020C0FBF021C0FCF004
:1019400022C0FDF023C0FEF0000E0001876F000EE4
:10195000886F800E896FBF0E8A6FFBC06EF0FCC06F
:101960006FF0FDC070F0FEC071F0000E00016A6FF4
:10197000C00E6B6F7F0E6C6F440E6D6FA0EC8DF020
:101980006AC083F06BC084F06CC085F06DC086F0D7
:10199000B5EC86F083C0C8F084C0C9F085C0CAF039
:1019A00086C0CBF0000E00016A6F400E6B6F1C0EFC
:1019B0006C6F460E6D6FC8C06EF0C9C06FF0CAC0C4
:1019C00070F0CBC071F0A0EC8DF06AC0FBF06BC082
:1019D000FCF06CC0FDF06DC0FEF0FBC06AF0FCC016
:1019E0006BF0FDC06CF0FEC06DF0000E00016E6F7C
:1019F000400E6F6F1C0E706F460E716FA0EC8DF075
:101A00006AC0FBF06BC0FCF06CC0FDF06DC0FEF076
:101A1000FBC0C0F0FCC0C1F0FDC0C2F0FEC0C3F00E
:101A200067EC96F0C0C0FBF0C1C0FCF0C2C0FDF096
:101A3000C3C0FEF0FBC06AF0FCC06BF0FDC06CF0F0
:101A4000FEC06DF0000E00016E6F600E6F6F860EAF
:101A5000706F450E716FA0EC8DF06AC0FBF06BC02B
:101A6000FCF06CC0FDF06DC0FEF0FBC083F0FCC06C
:101A700084F0FDC085F0FEC086F00F0E0001876F78
:101A8000CF0E886F5B0E896F3B0E8A6FB5EC86F0C8
:101A900083C0FBF084C0FCF085C0FDF086C0FEF082
:101AA000000E00016A6F000E6B6F800E6C6F3F0EB0
:101AB0006D6FFBC06EF0FCC06FF0FDC070F0FEC03B
:101AC00071F0A0EC8DF06AC0FBF06BC0FCF06CC054
:101AD000FDF06DC0FEF0FBC083F0FCC084F0FDC0E3
:101AE00085F0FEC086F0330E0001876F930E886F7D
:101AF000880E896FC30E8A6FB5EC86F083C0FBF049
:101B000084C0FCF085C0FDF086C0FEF0000E000130
:101B1000606F000E616F200E626F420E636FFBC03C
:101B200064F0FCC065F0FDC066F0FEC067F0E0EC5C
:101B300097F00001D8B002D08B8412008B94120071
:101B400000016D51800B0001766F00016D516D2514
:101B50000001816F00016CAF02D0000181810001A2
:101B600081510001D8B412D000018129D8A409D034
:101B7000000E00016A6F000E6B6F000E6C6F000E9E
:101B80006D6F00016C8F000E000108D0000E000187
:101B90006A6F000E6B6F000E6C6F000E6D6F0001B0
:101BA0007151800B0001761B0001715171250001FC
:101BB000826F000170AF02D000018281000182516A
:101BC0000001D8B412D000018229D8A409D0000E97
:101BD00000016E6F000E6F6F000E706F000E716F60
:101BE0000001708F000E000108D0000E00016E6F22
:101BF000000E6F6F000E706F000E716F00016E515E
:101C000000016F110001701100017111D8A417D0EB
:101C1000000E00016A6F000E6B6F000E6C6F000EFD
:101C20006D6F0001800E6C137F0E6D136AC06AF039
:101C30006BC06BF06CC06CF06DC06DF012000001F9
:101C400081510001D8A412D0000E00016A6F000E6D
:101C50006B6F000E6C6F000E6D6F6AC06AF06BC028
:101C60006BF06CC06CF06DC06DF012000001825121
:101C70000001726F736B0001721F731F724B732B25
:101C8000000181510001746F756B000172510001F8
:101C9000742700017351000175237F0E0001742524
:101CA00000017B6F000E0001752100017C6F6AC08E
:101CB00077F06BC078F06CC079F06DC07AF0000EF0
:101CC00000016A6F000E6B6F000E6C6F000E6D6F7F
:101CD000000E00017D6F000E7E6F000E7F6F000E04
:101CE000806F000E0001826F42D00001825100011E
:101CF000D8B417D00001D8907737783779377A374A
:101D00000001D8906A376B376C376D37000180AFB0
:101D100002D000016A810001D8907D377E377F377D
:101D2000803700016E510001775D00016F510001A5
:101D30007859000170510001795900017151000179
:101D40007A59D8A012D00001808D00016E51000197
:101D5000775F00016F510001785B00017051000155
:101D6000795B0001715100017A5B0001822B190E31
:101D700000018265BAD70001775100017811000196
:101D8000791100017A11D8B418D000017D8115D0E5
:101D90000001D8906A376B376C376D37000180AF20
:101DA00002D000016A810001D8907D377E377F37ED
:101DB000803700017B07D8A07C0700016CAFE8D713
:101DC000000E0001826F000180AF24D0FF0E0001E1
:101DD0007D150001726FFF0E00017E150001736F0B
:101DE000FF0E00017F150001746F7F0E000180154A
:101DF0000001756F0001725100017311000174112F
:101E000000017511D8A403D000016AA103D0010E0E
:101E10000001826F000182510001D8B423D0010E6D
:101E200000016A27000E6B236C236D2300016DA156
:101E300019D06AC072F06BC073F06CC074F06DC0E2
:101E400075F000017535753374337333723372C0B6
:101E50006AF073C06BF074C06CF075C06DF0000177
:101E60007B4B7C2B00017CBF14D000017C5104E132
:101E700000017B29D8A00DD0000E00017C6F7B698A
:101E8000000E00016A6F000E6B6F000E6C6F000E8B
:101E90006D6F00017CBF07D000017C5115E100018E
:101EA0007B05D8B011D0000E00017C6F000E7B6F57
:101EB000000E00016A6F000E6B6F000E6C6F000E5B
:101EC0006D6F000E0001766F7BC081F0000181A173
:101ED00003D000016C8F02D000016C9F0001D890EC
:101EE000813100016D6F0001765100016D136AC0F0
:101EF0006AF06BC06BF06CC06CF06DC06DF01200DE
:101F00000001BC6F6D0E0001BC65C5D0000E000164
:101F1000656F0A0E646F000E236E640E226EBCC0E5
:101F200020F0216ABCEC9DF020C062F021C063F07B
:101F300008EC9BF00001D890623763370001D8901D
:101F400062376337240E00016227000E000163230D
:101F50009B0E00016225F66EFE0E00016321F76EF6
:101F6000F86A000EF8220900F5CF9BF00900F5CFC2
:101F70009CF00900F5CF9DF00A00F5CF9EF0000E11
:101F80000001656F640E646FBCC062F00001636B9A
:101F900008EC9BF00001D890623763370001D890BD
:101FA00062376337480E00016227000E0001632389
:101FB0009B0E00016225F66EFE0E00016321F76E96
:101FC000F86A000EF8220900F5CF97F00900F5CF66
:101FD00098F00900F5CF99F00A00F5CF9AF009ECD6
:101FE00089F097C0B8F098C0B9F099C0BAF09AC01B
:101FF000BBF0000E236E0A0E226EBCC020F0216AD8
:10200000BCEC9DF0D89020362136D8902036213671
:102010009B0E2024F66EFE0E2120F76EF86A000E4D
:10202000F8220900F5CF9BF00900F5CF9CF00900DC
:10203000F5CF9DF00A00F5CF9EF0B8C097F0B9C07B
:1020400098F0BAC099F0BBC09AF009EC89F097C03B
:10205000B4F098C0B5F099C0B6F09AC0B7F0B4C06B
:1020600097F0B5C098F0B6C099F0B7C09AF0000EDE
:1020700000019B6F000E9C6F000E9D6F3F0E9E6FC8
:1020800009EC89F097C0B0F098C0B1F099C0B2F0F7
:102090009AC0B3F012000A0E0001BC6572D0000EA7
:1020A000236E0A0E226EBCC020F0216ABCEC9DF0AB
:1020B000D89020362136D890203621369B0E202409
:1020C000F66EFE0E2120F76EF86A000EF822090067
:1020D000F5CF9BF00900F5CF9CF00900F5CF9DF0FE
:1020E0000A00F5CF9EF0000E0001656F0A0E646FC6
:1020F000BCC062F00001636B08EC9BF00001D8905B
:10210000623763370001D89062376337240E0001CD
:102110006227000E000163239B0E00016225F66E0C
:10212000FE0E00016321F76EF86A000EF822090026
:10213000F5CF97F00900F5CF98F00900F5CF99F0A9
:102140000A00F5CF9AF009EC89F097C0B8F098C072
:10215000B9F099C0BAF09AC0BBF0B8C097F0B9C056
:1021600098F0BAC099F0BBC09AF0000E00019B6FC6
:10217000000E9C6F000E9D6F3F0E9E6F09EC89F064
:1021800081D70001BC51040D9B0EF324F66EFE0EA8
:10219000F420F76EF86A000EF8220900F5CF97F0E8
:1021A0000900F5CF98F00900F5CF99F00A00F5CFB6
:1021B0009AF0000E00019B6F000E9C6F000E9D6F49
:1021C0003F0E9E6F09EC89F097C0B0F098C0B1F057
:1021D00099C0B2F09AC0B3F01200FBEC9DF05CEC39
:1021E0008BF04F0E00016D6FFF0E00016E6F31EC32
:1021F0009FF0020E24EC9AF0D50E00016D6FFF0ED9
:1022000000016E6F31EC9FF025D0020E00016B6F64
:102210000A0E24ECA0F0F2C074F0F3C075F0030EC7
:102220000001766F000E0001776F1CEC93F0FC0E3E
:1022300000016D6FFF0E00016E6F31EC9FF0000E1C
:102240000001636F0A0E626F96EC9FF081B202D0BC
:102250003F80F2983FA0D9D77BEC9CF023EC9CF018
:1022600027EC92F0040E0001FA19D8A4F3D7100E4F
:1022700029EC97F08D900001E6510001E711000173
:10228000E8110001E911D8B425D0E2C06AF0E3C03A
:102290006BF0E4C06CF0E5C06DF0E6C020F0E7C084
:1022A00021F0E8C022F0E9C023F0000EFCEC93F02E
:1022B00020C06EF021C06FF022C070F023C071F01A
:1022C000A0EC8DF06AC0E2F06BC0E3F06CC0E4F00B
:1022D0006DC0E5F0000E00016E6F000E6F6F700EA6
:1022E000706F420E716FF4C020F0F5C021F0226AC9
:1022F000236A000EFCEC93F020C06AF021C06BF062
:1023000022C06CF023C06DF0A0EC8DF06AC087F0A5
:102310006BC088F06CC089F06DC08AF0F6C020F008
:10232000F7C021F0226A236A000EFCEC93F020C073
:1023300083F021C084F022C085F023C086F0B5EC84
:1023400086F083C019F184C01AF185C01BF186C0E4
:102350001CF1000E00016E6F000E6F6F610E706F4A
:10236000450E716FF8C020F0F9C021F0226A236A8F
:10237000000EFCEC93F020C06AF021C06BF022C08C
:102380006CF023C06DF0A0EC8DF06AC087F06BC0DC
:1023900088F06CC089F06DC08AF019C183F01AC151
:1023A00084F01BC185F01CC186F0B5EC86F083C0BB
:1023B00097F084C098F085C099F086C09AF0E2C08A
:1023C0009BF0E3C09CF0E4C09DF0E5C09EF009ECFA
:1023D00089F097C0E2F098C0E3F099C0E4F09AC0A9
:1023E000E5F04BEC9FF0A80E00016D6FFF0E0001B1
:1023F0006E6F31EC9FF0020E24EC9AF0CA0E0001D1
:102400006D6FFF0E00016E6F31EC9FF0300E00011A
:10241000C36F000E0001C46FE20E0001C56FFF0E16
:102420000001C66FE2C0C7F0E3C0C8F0E4C0C9F065
:10243000E5C0CAF000EC80F0000E356E300E0001F1
:102440006D6F000E00016E6FF1EC9FF0FFD7100E64
:1024500029EC97F0020E0001FA19D8A41200000E20
:102460000001EA6F000EEB6F000EEC6F000EED6FD7
:10247000000E0001F96F000EF86F000E0001F56FFD
:10248000000EF46F000E0001F76F000EF66F850E60
:10249000D56E0B0ED76EDC0ED66E8D80000E000151
:1024A000E66F000EE76F000EE86F000EE96F100E8A
:1024B00029EC97F0A7D04BEC9FF0E70E00016D6F71
:1024C000FF0E00016E6F31EC9FF0F6C074F0F7C0A4
:1024D00075F0020E0001766F000E0001776F1CECA4
:1024E00093F0D30E00016D6FFF0E00016E6F31ECA3
:1024F0009FF0F4C074F0F5C075F0020E0001766F25
:10250000000E0001776F1CEC93F0D30E00016D6F8D
:10251000FF0E00016E6F31EC9FF0F8C074F0F9C04F
:1025200075F0020E0001766F000E0001776F1CEC53
:1025300093F0020E9AEC9AF0000E0001636F640EA5
:10254000626F96EC9FF02AC0CEF02BC0CFF02CC06B
:10255000D0F02DC0D1F00001CE1FCF1FD01FD11F52
:10256000CE2B000ECF23D023D1230001EA5100014E
:10257000CE250001D26F0001EB510001CF210001F7
:10258000D36F0001EC510001D0210001D46F000194
:10259000ED510001D1210001D56F0001D55100019D
:1025A000D4110001D31105E13B0E0001D25DD8A08A
:1025B00029D0EAC02AF0EBC02BF0ECC02CF0EDC023
:1025C0002DF0010E0001E627000EE723E823E923A2
:1025D000DEC083F0DFC084F0E0C085F0E1C086F0AB
:1025E000E2C087F0E3C088F0E4C089F0E5C08AF07B
:1025F000B5EC86F083C0E2F084C0E3F085C0E4F07F
:1026000086C0E5F0000E0001606F000E616F200EC5
:10261000626F410E636FEEC064F0EFC065F0F0C012
:1026200066F0F1C067F0E0EC97F00001D8A043D766
:10263000040E0001FA6F120020EE24F010EE7DF07F
:10264000050EDBCFE3FFE806FCE27D0E00016C6FB8
:10265000000E00016D6F74C06EF075C06FF0000E5B
:102660000001716F0A0E706F86EC9EF000017651CA
:102670000001D8B4B8D000017651010D7D0EF324CD
:10268000D96E000EF420DA6E000EDF6E70D00001FD
:1026900076050001836F000183510001D8B467D033
:1026A000FF0E0001786FFF0E0001796F000183516A
:1026B00000017A6F7B6B0001785100017A270001DD
:1026C000795100017B237D0E00017A25D96E000E21
:1026D00000017B21DA6E00018351010D7D0EF32490
:1026E000E16E000EF420E26EDFCFE7FF0001770518
:1026F000D8A41DD0FF0E0001786FFF0E0001796F86
:102700000001835100017A6F7B6B00017851000159
:102710007A270001795100017B237D0E00017A2583
:10272000D96E000E00017B21DA6E200E1CD0FF0E48
:102730000001786FFF0E0001796F000183510001E5
:102740007A6F7B6B0001785100017A270001795183
:1027500000017B237D0E00017A25D96E000E000159
:102760007B21DA6E300EDF6E0001830794D7FF0EF7
:102770000001786FFF0E0001796F000176510001B2
:102780007A6F7B6B0001785100017A270001795143
:1027900000017B237D0E00017A25D96E000E000119
:1027A0007B21DA6E3A0EDF6072D7FF0E0001786F80
:1027B000FF0E0001796F0001765100017A6F7B6B8B
:1027C0000001785100017A270001795100017B2333
:1027D0007D0E00017A25D96E000E00017B21DA6E94
:1027E0002F0EDF6454D77D0E00016D6F000E0001C7
:1027F0006E6FF1EC9FF012000001646F00016451F4
:102800000001D8A423AE1BD020C060F021C061F02D
:1028100022C062F023C063F00001601F611F621FCD
:10282000631F602B000E61236223632360C066F088
:1028300061C067F062C068F063C069F008D020C072
:1028400066F021C067F022C068F023C069F0205014
:10285000211022102310D8A409D0000E206E000EE3
:10286000216E000E226E000E236E1200960E0001E5
:10287000656F08D00001652B0001D890693368337B
:1028800067336633000E000166150001606F000EAD
:10289000000167150001616F000E0001681500015D
:1028A000626FFE0E000169150001636F0001605147
:1028B000000161110001621100016311D8B410D050
:1028C000D9D70001652B010E00016627000E672392
:1028D000682369230001D89069336833673366330E
:1028E000000E000166150001606F000E0001671503
:1028F0000001616F000E000168150001626FFF0E9C
:10290000000169150001636F000160510001611150
:102910000001621100016311D8B409D0D2D70001BF
:1029200065070001D8906637673768376937000157
:1029300068BF04D0020E00016561F1D7000165B1E6
:1029400009D0FF0E00016617FF0E67177F0E68178C
:10295000FF0E69170001D890653365C060F0000173
:10296000616B626B636B60C063F00001626B616BF3
:10297000606B0001605100016613000161510001AC
:1029800067130001625100016813000163510001E7
:102990006913000164510001D8A423AE02D00001E4
:1029A000698F66C020F067C021F068C022F069C05E
:1029B00023F0120062C020F0216A226A0001613512
:1029C000203601E32180205000016D6F00016D5120
:1029D000D8A40AD0000E0001606F000E616F000ED7
:1029E000626F000E636F120066C020F0216A226AD7
:1029F00000016535203601E32180205000016C6F15
:102A000000016C51D8A40AD0000E0001606F000EC6
:102A1000616F000E626F000E636F12000001618F24
:102A2000FF0E00016017FF0E00016117000E00018C
:102A300062170001658FFF0E00016417FF0E000191
:102A40006517000E00016617000E0001686F000E8A
:102A5000696F000E6A6F000E6B6F7F0E00016D5F75
:102A600000016C51980F00016D5F180E00016C6F32
:102A70000001D890683769376A376B3700016451B5
:102A80000001605D0001655100016159000166515E
:102A900000016259D8A00ED0000164510001605FAE
:102AA000000165510001615B000166510001625B3C
:102AB000000168810001D8906037613762370001FA
:102AC0006C2FD6D700016DAF1AD000016D51800A6E
:102AD000970FD8B00AD0000E0001606F000E616F32
:102AE000000E626F000E636F12000001D8906B330E
:102AF0006A336933683300016D3FF7D71BD0170E77
:102B000000016D6512D0000E0001606F000E616F54
:102B1000000E626F000E636F12000001D8906837DC
:102B200069376A376B3700016D0700016D5100018D
:102B3000D8A4F3D768C060F069C061F06AC062F0E1
:102B40006BC063F0120000016235633500016D6FE8
:102B500000016D51D8A40AD0000E0001606F000E74
:102B6000616F000E626F000E636F12000001663528
:102B7000673500016C6F00016C51D8A40AD0000EBB
:102B80000001606F000E616F000E626F000E636FD8
:102B900012000001628FFF0E00016017FF0E611727
:102BA000FF0E6217000E63170001668FFF0E000113
:102BB0006417FF0E6517FF0E6617000E6717000EED
:102BC0000001686F000E696F000E6A6F000E6B6F78
:102BD0007F0E00016D5F00016C51A00F00016D5F61
:102BE000200E00016C6F0001D890683769376A3792
:102BF0006B37000164510001605D00016551000107
:102C000061590001665100016259000167510001DC
:102C10006359D8A012D0000164510001605F000127
:102C200065510001615B000166510001625B0001BA
:102C300067510001635B000168810001D890603733
:102C400061376237633700016C2FCDD700016DAF5C
:102C50001AD000016D51800A9F0FD8B00AD0000E23
:102C60000001606F000E616F000E626F000E636FF7
:102C700012000001D8906B336A3369336833000166
:102C80006D3FF7D71BD01F0E00016D6512D0000EEF
:102C90000001606F000E616F000E626F000E636FC7
:102CA00012000001D890683769376A376B37000126
:102CB0006D0700016D510001D8A4F3D768C060F022
:102CC00069C061F06AC062F06BC063F0120000017D
:102CD000C3AF0ED0000E2F6E210E2E6E000E00011F
:102CE000C06F000EC16F000EC26F000EC36F1200E6
:102CF0000001C0510001C1110001C2110001C31146
:102D0000D8A40ED0000E2F6E220E2E6E000E0001E3
:102D1000C06F000EC16F000EC26F000EC36F1200B5
:102D2000000E00019B6F000E9C6F000E9D6F400E09
:102D30009E6FC40E0001646F000E0001656FC0C07D
:102D400060F0C1C061F0C2C062F0C3C063F0D1ECFA
:102D50009CF060C097F061C098F062C099F063C0C9
:102D60009AF009EC89F097C083F098C084F099C07C
:102D700085F09AC086F0000E0001876F000E886F04
:102D8000800E896FBF0E8A6FB5EC86F083C0C0F0ED
:102D900084C0C1F085C0C2F086C0C3F00001C40782
:102DA000D8A0C507C0C0B0F0C1C0B1F0C2C0B2F079
:102DB000C3C0B3F02B0E0001B46FFF0E0001B56F5E
:102DC000000E0001B76F080EB66F8EEC98F0B0C021
:102DD000C0F0B1C0C1F0B2C0C2F0B3C0C3F0180EB1
:102DE00000019B6F720E9C6F310E9D6F3F0E9E6FA8
:102DF000C4C020F0C5C021F0000E21BEFF0E226E1F
:102E0000236E010EFCEC93F020C097F021C098F0E7
:102E100022C099F023C09AF009EC89F097C083F0A2
:102E200098C084F099C085F09AC086F0C0C087F041
:102E3000C1C088F0C2C089F0C3C08AF0B5EC86F08A
:102E400083C0C0F084C0C1F085C0C2F086C0C3F0AA
:102E5000120000016A6F00016A5132ECA0F08C9000
:102E60008C948C92000E0001636F640E626F96EC7E
:102E70009FF0000E0001646F010E0001656F010EEE
:102E80000001666F000E14EC9FF0000E0001636FEE
:102E9000640E626F96EC9FF0000E0001646F010EED
:102EA0000001656F010E0001666F000E14EC9FF0CB
:102EB000000E0001636F0A0E626F96EC9FF0000E29
:102EC0000001646F010E0001656F010E0001666F65
:102ED000000E14EC9FF0000E0001646F010E000163
:102EE000656F000E0001666F000E14EC9FF0000E7F
:102EF0000001646F010E0001656F000E0001666F36
:102F0000000E14EC9FF0000E0001646F000E000133
:102F1000656F000E0001666F010E14EC9FF0000E4D
:102F20000001646F000E0001656F000E0001666F06
:102F3000000E14EC9FF0000E0001646F000E000103
:102F4000656F000E0001666F010E14EC9FF0000E1D
:102F50000001646F000E0001656F000E0001666FD6
:102F6000000E14EC9FF0000E0001646F000E0001D3
:102F7000656F010E0001666F000E14EC9FF0000EED
:102F80000001646F000E0001656F000E0001666FA6
:102F9000000E14EC9FF0010E0001646F010E0001A1
:102FA000656F000E0001666F000E14EC9FF07DEC63
:102FB0009FF0000E0001686F000E64EC9FF012009D
:102FC000000E00016015206E000E00016115216EDB
:102FD000800E00016215226E7F0E00016315236EC4
:102FE0002050211022102310D8A409D0000E000177
:102FF000606F000E616F000E626F000E636F000E57
:1030000000016415206E000E00016515216E800E12
:1030100000016615226E7F0E00016715236E205099
:10302000211022102310D8A409D0000E0001646FD3
:10303000000E656F000E666F000E676F000163AFD4
:1030400021D060C020F061C021F062C022F063C0D6
:1030500023F0201E211E221E231E202A000E2122C4
:1030600022222322000E20240001606F000E212066
:103070000001616F000E22200001626F800E23208C
:103080000001636F000167AF21D064C020F065C00C
:1030900021F066C022F067C023F0201E211E221EF0
:1030A000231E202A000E212222222322000E202469
:1030B0000001646F000E21200001656F000E2220C8
:1030C0000001666F800E23200001676F000E000173
:1030D000601B000E611B000E621B800E631B000E46
:1030E0000001641B000E651B000E661B800E671B33
:1030F000000164510001605D0001655100016159EA
:1031000000016651000162590001675100016359D5
:10311000D8B002D0D8901200D8801200B6C0B8F053
:10312000B7C0B9F00001D890B837B9370001D890CE
:10313000B837B937B4C0BAF0B5C0BBF00001B85168
:103140000001BA270001B9510001BB23BAC0F6FF44
:10315000BBC0F7FF000EF86E0900F5CFBCF0090008
:10316000F5CFBDF00900F5CFBEF00A00F5CFBFF0F6
:1031700052D0BCC09BF0BDC09CF0BEC09DF0BFC093
:103180009EF0B0C097F0B1C098F0B2C099F0B3C053
:103190009AF009EC89F097C083F098C084F099C048
:1031A00085F09AC086F00001B607D8A0B707B6C070
:1031B000B8F0B7C0B9F00001D890B837B9370001FE
:1031C000D890B837B937B4C0BAF0B5C0BBF0000179
:1031D000B8510001BA270001B9510001BB23BAC0A0
:1031E000F6FFBBC0F7FF000EF86E0900F5CF87F0C1
:1031F0000900F5CF88F00900F5CF89F00A00F5CF76
:103200008AF0B5EC86F083C0BCF084C0BDF085C008
:10321000BEF086C0BFF00001B6510001B711D8A4BE
:10322000A8D7BCC0B0F0BDC0B1F0BEC0B2F0BFC046
:10323000B3F012000001BB35BC350001C26F0001C4
:10324000C251D8A40AD0000E0001B96F000EBA6FA7
:10325000000EBB6F000EBC6F1200B9C0BDF0BAC04B
:10326000BEF0BBC0BFF0BCC0C0F0200E06D0000155
:10327000D890C033BF33BE33BD33E82EF8D700013A
:10328000BD510001C16F0001BB8FFF0E0001B917D6
:10329000FF0EBA17FF0EBB17000EBC17960E0001EB
:1032A000C25F0001C2AF1AD00001C251800A970F5D
:1032B000D8B00AD0000E0001B96F000EBA6F000E30
:1032C000BB6F000EBC6F12000001D890BC33BB3343
:1032D000BA33B9330001C23FF7D71BD01F0E00012C
:1032E000C26512D0000E0001B96F000EBA6F000E59
:1032F000BB6F000EBC6F12000001D890B937BA370F
:10330000BB37BC370001C2070001C2510001D8A47D
:10331000F3D70001C1510001D8B409D00001BC1F8E
:10332000BB1FBA1FB96D000EBA23BB23BC23B9C0A3
:10333000B9F0BAC0BAF0BBC0BBF0BCC0BCF0120060
:10334000E9CF03F0EACF04F0E1CF05F0E2CF06F0D9
:10335000D9CF07F0DACF08F0F3CF09F0F4CF0AF0B5
:10336000F6CF0BF0F7CF0CF0F8CF0DF0F5CF0EF055
:10337000F2A42DD00B0ED76EDC0ED66E010E00011E
:10338000EA27000EEB23EC23ED230001F84BF92B89
:103390003C0E0001F8190001F911D8A417D0000E55
:1033A0000001F96F000EF86F0001F44BF52B3C0E95
:1033B0000001F4190001F511D8A408D0000E000195
:1033C000F56F000EF46F0001F64BF72BF294F2A2AA
:1033D0001DD081A405D0050E0001F227000EF323B5
:1033E00081B413D00001F35105E1050E0001F25D37
:1033F000D8A006D0050E0001F25F000EF35B05D0E9
:10340000000E0001F36F000EF26FF2920EC0F5FF96
:103410000DC0F8FF0CC0F7FF0BC0F6FF0AC0F4FFA9
:1034200009C0F3FF08C0DAFF07C0D9FF06C0E2FFFA
:1034300005C0E1FF04C0EAFF03C0E9FF02C0FBFFD3
:1034400001C0FAFF409211000001686F64D0000EC5
:103450000001646F000E0001656F000E0001666FD1
:10346000010E14EC9FF0000E0001646F000E0001CD
:10347000656F000E0001666F000E14EC9FF01200E5
:10348000010E0001646F000E0001656F000E000167
:10349000666F010E14EC9FF0000E0001646F000EC9
:1034A0000001656F000E0001666F000E14EC9FF0C6
:1034B0001200000E0001646F000E0001656F010E26
:1034C0000001666F010E14EC9FF0010E0001646FA5
:1034D000000E0001656F000E0001666F000E14EC17
:1034E0009FF01200010E0001646F000E0001656F75
:1034F000010E0001666F010E14EC9FF0010E000139
:10350000646F000E0001656F000E0001666F000E13
:1035100014EC9FF0120000016851010AD8B497D74B
:10352000030AD8B4ADD7010AD8B4C3D7070AD8A4C0
:103530001200D8D70001CD6F5CEC8BF00001CD51AB
:1035400024EC9AF0CDC06BF0010E24ECA0F0300E0C
:103550000001C36F000E0001C46FF50E0001C56FBE
:10356000FF0E0001C66FEEC0C7F0EFC0C8F0F0C09C
:10357000C9F0F1C0CAF000EC80F0000E376E300EDA
:1035800000016D6F000E00016E6FF1EC9FF0300EC8
:103590000001C36F000E0001C46FDF0E0001C56F94
:1035A000FF0E0001C66FDEC0C7F0DFC0C8F0E0C08C
:1035B000C9F0E1C0CAF000EC80F0000E376E300EAA
:1035C00000016D6F000E00016E6FF1EC9FF0300E88
:1035D0000001C36F000E0001C46FEE0E0001C56F45
:1035E000FF0E0001C66FFBC0C7F0FCC0C8F0FDC0F5
:1035F000C9F0FEC0CAF000EC80F0000E346E300E50
:1036000000016D6F000E00016E6FF1EC9FF0120073
:10361000000E0001676F000165AF08D00001646D06
:10362000651FD8B0652B010E0001676F000163AF05
:1036300008D00001626D631FD8B0632B010E00013A
:10364000671B000E0001696F000E686F0001645176
:1036500000016511D8B42CD0010E0001666F06D0B0
:103660000001D890643765370001662B000165AF13
:10367000F7D70001D890683769370001645100011D
:10368000625D0001655100016359D8A00AD00001B4
:1036900064510001625F000165510001635B00013C
:1036A00068810001D890653364330001662FE1D74B
:1036B000000167510001D8B405D00001686D691F91
:1036C000D8B0692B68C062F069C063F0120065C0B1
:1036D00069F066C06AF069C020F06AC021F067C076
:1036E00022F068C023F031EC9EF020C069F021C0C8
:1036F0006AF00001634B642B0001695100016A11FB
:10370000D8A4E9D763C0D9FF64C0DAFF000EDF6E2A
:1037100000016307D8A0640765C020F066C021F0EF
:1037200067C022F068C023F0AAEC9EF02050000190
:103730006B6F65C020F066C021F067C022F068C0E2
:1037400023F031EC9EF020C065F021C066F0090E38
:1037500000016B6503D0070E00016B27300E0001DE
:103760006B2763C0D9FF64C0DAFF6BC0DFFF0001C5
:103770006307D8A064070001655100016611D8A451
:10378000CBD70001634B642B1200000E0001686F61
:10379000000E696F000E6A6F000E6B6F00016451BE
:1037A000000165110001661100016711D8B442D013
:1037B000010E00016C6F08D00001D89064376537A6
:1037C0006637673700016C2B000167AFF5D7000142
:1037D000D890683769376A376B3700016451000148
:1037E000605D0001655100016159000166510001F1
:1037F00062590001675100016359D8A012D000013D
:1038000064510001605F000165510001615B0001CE
:1038100066510001625B000167510001635B0001BA
:1038200068810001D89067336633653364330001E3
:103830006C2FCDD768C060F069C061F06AC062F0DB
:103840006BC063F01200100E29EC97F00001FA052E
:10385000D8A41200100E29EC97F033D0010E24ECFE
:103860009AF0640E00016D6FFF0E00016E6F31EC77
:103870009FF0020E24EC9AF0860E00016D6FFF0E91
:1038800000016E6F31EC9FF0030EC6EC9FF0010E4D
:1038900024EC9AF0750E00016D6FFF0E00016E6F43
:1038A00031EC9FF0020E9AEC9AF0020EC6EC9FF0FB
:1038B0008D80000E0001636F0A0E626F96EC9FF020
:1038C0008D90330E0001606F330E616F530E626F87
:1038D000410E636FEEC064F0EFC065F0F0C066F0BB
:1038E000F1C067F0E0EC97F00001D8A0B7D7020E66
:1038F0000001FA6F1200100E29EC97F014D08A8E96
:10390000010E24EC9AF0970E00016D6FFF0E00017E
:103910006E6F31EC9FF0020E9AEC9AF0010EC6EC3D
:103920009FF05CEC8BF0DEC060F0DFC061F0E0C0C7
:1039300062F0E1C063F0000E0001646F000E656F7D
:10394000000E666FBF0E676FE0EC97F00001D8A025
:10395000D6D7EEC060F0EFC061F0F0C062F0F1C009
:1039600063F0000E0001646F000E656F600E666FFD
:10397000410E676FE0EC97F00001D8A0C0D78A9E97
:103980007DEC9FF0B90E00016D6FFF0E00016E6FB0
:1039900031EC9FF0010E0001FA6F050EC6EC9FF0AE
:1039A000120000016051000161110001621100016B
:1039B0006311D8A412D064C0D9FF65C0DAFF000E2D
:1039C000DE6E000EDD6E000E0001606F000E616F96
:1039D000000E626F000E636F1200000163517F0BD7
:1039E000206E216AD8902036213664C0D9FF65C088
:1039F000DAFF20C0DEFF21C0DDFF000162AF03D08F
:103A0000206A202A01D0206A205064C0D9FF65C0F6
:103A1000DAFFDE12000EDD1264C0D9FF65C0DAFFE6
:103A2000820EDE26FF0EDD22000163816383638543
:103A300063876389638B639D0001629F60C060F050
:103A400061C061F062C062F063C063F01200000107
:103A50006C6F8C8000016C45010B0001686F0001E8
:103A60006C45E846030B010B0001696F00016C39DE
:103A7000E842070B010B00016A6F00016C390F0B64
:103A8000010B00016B6F69C064F06AC065F06BC028
:103A900066F00001685114EC9FF000016C39E846B3
:103AA0001F0B010B0001686F00016C41E8423F0BE6
:103AB000010B0001696F0001D8906C31010B00010E
:103AC0006A6F00016C51010B00016B6F69C064F0FB
:103AD0006AC065F06BC066F00001685114EC9FF09D
:103AE0008C90120000016451000165110001661103
:103AF00000016711D8B437D0010E206E07D0000145
:103B0000D8906437653766376737202A000167AF7A
:103B1000F6D7000164510001605D000165510001AC
:103B200061590001665100016259000167510001AD
:103B30006359D8A010D0000164510001605F0001FA
:103B400065510001615B000166510001625B00018B
:103B500067510001635B0001D890673366336533BA
:103B60006433202ED6D760C060F061C061F062C0BF
:103B700062F063C063F01200000E0001616F21AEBD
:103B800007D0206C211ED8B0212A010E0001616FE0
:103B900023AE04D0226C231ED8B0232A2250231037
:103BA000D8B41BD0010E0001606F05D0D89022362A
:103BB00023360001602B23AEF9D72250205C23501E
:103BC0002158D8A004D02250205E2350215AD890EA
:103BD000233222320001602FF0D700016151000131
:103BE000D8B404D0206C211ED8B0212A20C020F0E7
:103BF00021C021F01200000E0001FA6F100E32EC0D
:103C0000A0F0000E896E9268000E8A6E7F0E936E91
:103C1000000E8B6E000E946E000E8C6E000E956E74
:103C2000000E8D6E060E966E100E29EC97F0000EAB
:103C3000C26E0B0EC16EB50EC06EC29AC298C2960D
:103C4000850ED56E0B0ED76EDC0ED66EF292F28814
:103C5000F18CF184D08EF28EF28CF294F28AC280D2
:103C60001200000E0001626F000E616F22502310DF
:103C7000D8B421D0010E0001606F05D0D890223653
:103C800023360001602B23AEF9D70001D8906137AD
:103C900062372250205C23502158D8A006D02250F1
:103CA000205E2350215A00016181D89023322232B4
:103CB0000001602FEAD761C020F062C021F012003D
:103CC0000001696F000E00016A6F19D0000E00013B
:103CD000646F000E0001656F010E0001666F000E3B
:103CE00014EC9FF069C064F0000E0001656F000ED7
:103CF0000001666F000E14EC9FF000016A2B0001BA
:103D0000685100016A5DD8B01200E0D76CC072F053
:103D10006DC073F000016FAF0ED06CC0D9FF6DC0E5
:103D2000DAFF2D0EDF6E00016C4B6D2B00016E6D06
:103D30006F1FD8B06F2B6CC063F06DC064F06EC0A5
:103D400065F06FC066F070C067F071C068F067EC36
:103D50009BF0120022502310D8B41BD0010E00019A
:103D6000606F05D0D890223623360001602B23AE39
:103D7000F9D72250205C23502158D8A004D02250DB
:103D8000205E2350215AD890233222320001602F26
:103D9000F0D720C020F021C021F01200000E000159
:103DA0009B1B000E9C1B000E9D1B800E9E1B97C034
:103DB00083F098C084F099C085F09AC086F09BC0CB
:103DC00087F09CC088F09DC089F09EC08AF0B5EC59
:103DD00086F083C097F084C098F085C099F086C0C3
:103DE0009AF0120000EED6F0290EEE6AE806FDE128
:103DF0003F6A00EE24F0140EEE6AE806FDE16C0E58
:103E0000F66E400EF76E010EF86E00EE38F010EE12
:103E100005F00900F5CFEEFFE550E150FAE14090E2
:103E200040920001EDEF90F00001676F000166B174
:103E300002D08C9601D08C86000165B102D08C989E
:103E400001D08C88000164B102D08C9A01D08C8A98
:103E5000000167B102D08C9C01D08C8C04ECA0F0E6
:103E600012000DD06DC0F6FF6EC0F7FF000EF86EA9
:103E70000800F55027EC9DF000016D4B6E2B6DC0D6
:103E8000F6FF6EC0F7FF000EF86E0800F55000094F
:103E9000D8B41200E7D7000E0001646F000E0001D5
:103EA000656F000E0001666F000E14EC9FF0000EAF
:103EB0000001646F010E0001656F000E0001666F66
:103EC000000E14EC9FF012000001696F000E00015B
:103ED000646F000E0001656F000E0001666F000E3A
:103EE00014EC9FF0010E0001646F69C065F068C0BA
:103EF00066F0010E14EC9FF01200000E0001646FDA
:103F0000000E0001656F000E0001666F000E14ECDC
:103F10009FF0000E0001646F000E0001656F010E3E
:103F20000001666F000E14EC9FF012003CC020F000
:103F3000216A62C022F063C023F0DCEC9FF020C055
:103F40003DF021C03EF006D0500EE82EFED73D06D3
:103F5000D8A03E063D503E10D8B41200F5D72050F0
:103F6000211022102310D8B408D0000E201A000E01
:103F7000211A000E221A800E231A20C020F021C020
:103F800021F022C022F023C023F012000001646F50
:103F9000000E0001656F09D0030E0001636FE80E8B
:103FA000626F96EC9FF00001652B000164510001E7
:103FB000655DD8B01200F0D720502202F3CF60F038
:103FC000F4CF61F020502302F3500001612721500B
:103FD0002202F3500001612760C020F061C021F08F
:103FE00012000AD06DC0D9FF6EC0DAFFDF5027EC97
:103FF0009DF000016D4B6E2B6DC0D9FF6EC0DAFFD6
:10400000DF50D8B41200EED78C84000E0001636F2D
:10401000010E626F96EC9FF08C94000E0001636FAE
:10402000010E626F96EC9FF01200226E000E216E60
:104030003A0E226005D02F0E226402D0010E216EAE
:1040400021C020F02030120000016C6F00016B5184
:1040500024EC9AF000016C050001686F010E60EC21
:104060009EF01200206E20C03CF012000105090DE8
:01407000103F
:020000040020DA
:08000000FFFFFFFFFFFFFFFF00
:020000040030CA
:0E000000FF021F1EFF8081FF3FC03FE03F4018
:00000001FF
