:040000005CEF00F0C1
:0E0008004082FACF01F0FBCF02F033ED1CF086
:100018004080D8CF0FF0E8CF10F0E0CF11F0FACF42
:1000280012F0FBCF13F0E9CF14F0EACF15F0E1CFCF
:1000380016F0E2CF17F0D9CF18F0DACF19F0F3CFD6
:100048001AF0F4CF1BF0F6CF1CF0F7CF1DF0F8CF65
:100058001EF0F5CF1FF09EA007D03C0ECF6EB00E5D
:10006800CE6E9E90310ECD6E1FC0F5FF1EC0F8FFFC
:100078001DC0F7FF1CC0F6FF1BC0F4FF1AC0F3FF3A
:1000880019C0DAFF18C0D9FF17C0E2FF16C0E1FF98
:1000980015C0EAFF14C0E9FF13C0FBFF12C0FAFF46
:1000A80011C0E0FF10C0E8FF0FC0D8FF409010005B
:1000B80094EF20F0D80E0101046F000E0101056FC6
:1000C8007CEF04F0250E01011819D8B408D0D4C06B
:1000D800D9FFD5C0DAFF18C1DFFF79EF04F0000EB1
:1000E8000101076F000E066FD6C0F6FFD7C0F7FFF5
:1000F8000800F5502E0AD8A439D00101078D000157
:10010800D64BD72B000E0101136F000E126F23D0B0
:1001180012C160F013C161F0000E0001636F0A0E96
:10012800626FB7EC21F0D6C0F6FFD7C0F7FF080022
:10013800F55000016027000E00016123D00E000178
:1001480060250101126FFF0E000161210101136F8B
:100158000001D64BD72BD6C0F6FFD7C0F7FF080053
:10016800F55049EC22F0D8A00CD0D2D7000E0101EE
:10017800136F000E126F0101078903D00101078573
:1001880013D0D6C0F6FFD7C0F7FF0001D64BD72B48
:100198000800F5CF18F101011851000AD8B4B7D3F7
:1001A800660AD8B4EBD7A4D3070E01010715D8B453
:1001B80047D3010107A905D0000E0101136F060EF0
:1001C800126F04C1D9FF05C1DAFFDECF14F1DECF0B
:1001D80015F1DECF16F1DECF17F1040E0101042769
:1001E800000E0523010117AF15D014C160F015C129
:1001F80061F016C162F017C163F080EC21F060C0B5
:1002080014F161C015F162C016F163C017F1030E55
:1002180001010613000E01010D6F000E0C6F0101A4
:100228001451010115110101161101011711D8B45A
:100238008ED0010116351735820F01010C6F0101AF
:100248000D6BFF0E0D2301010C07D8A00D070CC183
:1002580060F00DC161F0000E0001636F030E626F64
:10026800B7EC21F060C00CF161C00DF10CC166F073
:100278000DC167F0000E0001696F0A0E686FE8ECA7
:100288001DF066C00CF167C00DF101010DAF04D07F
:1002980001010C07D8A00D0701010C51000867ECFB
:1002A80007F0C1C00EF1C2C00FF1C3C010F1C4C045
:1002B80011F10EC1A8F00FC1A9F010C1AAF011C127
:1002C800ABF014C1ACF015C1ADF016C1AEF017C15A
:1002D800AFF079EC0EF0A8C00EF1A9C00FF1AAC0DA
:1002E80010F1ABC011F10EC160F00FC161F010C187
:1002F80062F011C163F0000E0001646F000E656FBB
:10030800800E666F3F0E676F94EC17F00001D8B04F
:1003180005D001010C07D8A00D0719D00EC160F057
:100328000FC161F010C162F011C163F0000E00014D
:10033800646F000E656F200E666F410E676F94EC58
:1003480017F00001D8A003D001010C4B0D2B0101BF
:1003580013BF08D00101135123E10D0E0101125DF5
:10036800D8B01ED014C194F015C195F016C196F0FE
:1003780017C197F001011251ACEC12F0C1C098F00E
:10038800C2C099F0C3C09AF0C4C09BF025EC0CF031
:1003980094C014F195C015F196C016F197C017F1E5
:1003A80001010DBF08D001010D512EE10A0E010116
:1003B8000C5DD8B029D001011451010115110101BA
:1003C800161101011711D8B46DD014C1CAF015C1A6
:1003D800CBF016C1CCF017C1CDF0ADEC1BF000018D
:1003E800CA510001CB110001CC110001CD11D8A4D4
:1003F80059D001010DBF56D001010D5105E1020E82
:1004080001010C5DD8A04ED00EC160F00FC161F0A3
:1004180010C162F011C163F05F0E0001646F700ECD
:10042800656F890E666F400E676F94EC17F00001D8
:10043800D8B003D00101F70E02D00101F80E0C2745
:10044800FF0E0D2301010C5167EC07F0C1C00EF13E
:10045800C2C00FF1C3C010F1C4C011F114C160F0E3
:1004680015C161F016C162F017C163F00EC164F0E6
:100478000FC165F010C166F011C167F05CEC18F0AF
:1004880060C008F161C009F162C00AF163C00BF1F4
:10049800000E0101146F000E156F000E166F000E8E
:1004A800176F3CD014C1CAF015C1CBF016C1CCF0FF
:1004B80017C1CDF0ADEC1BF0CAC008F1CBC009F1F3
:1004C800CCC00AF1CDC00BF114C1A8F015C1A9F038
:1004D80016C1AAF017C1ABF008C16DF009C16EF0E2
:1004E8000AC16FF00BC170F0000EFEEC14F06DC085
:1004F800ACF06EC0ADF06FC0AEF070C0AFF03FECC6
:1005080021F0A8C014F1A9C015F1AAC016F1ABC01A
:1005180017F1000E01010D6F000E0C6F010E0101A5
:10052800186F0A0E01011819D8B41ED0010118510C
:10053800040D810EF324F66E7E0EF420F76E09008A
:10054800F5500101085D0900F5500101095909003C
:10055800F55001010A590900F55001010B59D8A0BD
:1005680003D00101182BDDD7030E01010615000188
:10057800DC6F000E010107150001DD6F0001DC5181
:100588000001DD11D8B455D0D4C0D9FFD5C0DAFFE9
:100598002D0E4DD00001D44BD52B4BD008C160F0A7
:1005A80009C161F00AC162F00BC163F00101185181
:1005B800040D810EF324F66E7E0EF420F76E09000A
:1005C800F5CF64F00900F5CF65F00900F5CF66F0C6
:1005D8000A00F5CF67F047EC1EF060C00EF161C06D
:1005E8000FF162C010F163C011F10EC160F00FC1CC
:1005F80061F010C162F011C163F00A0E0001646F6E
:10060800000E656F000E666F000E676F9CEC1FF0A2
:1006180060C00EF161C00FF162C010F163C011F14A
:1006280001010E51300FD4C0D9FFD5C0DAFFDF6EFB
:10063800B1D70101180701011829D8B40ED0AED7D7
:10064800D4C0D9FFD5C0DAFF300EDF6E0001D44B1D
:10065800D52B01010C07D8A00D0701010DBF07D04C
:1006680001010D51EDE101010C05D8B0E9D70101F7
:1006780013BF0CD00101135105E1090E0101125DF0
:10068800D8A004D0080E0101186F02D012C118F1C9
:10069800010118510101125F000E010118BFFF0E80
:1006A8000101135B010118510101D8B409D0D4C06C
:1006B800D9FFD5C0DAFF2E0EDF6E0001D44BD52B43
:1006C8000101185167EC07F0C1C000F1C2C001F187
:1006D800C3C002F1C4C003F114C1ACF015C1ADF040
:1006E80016C1AEF017C1AFF000C1A8F001C1A9F062
:1006F80002C1AAF003C1ABF079EC0EF0A8C0CAF0B1
:10070800A9C0CBF0AAC0CCF0ABC0CDF0ADEC1BF0CB
:10071800CAC008F1CBC009F1CCC00AF1CDC00BF1B9
:1007280074D008C160F009C161F00AC162F00BC160
:1007380063F001011851040D810EF324F66E7E0E4C
:10074800F420F76E0900F5CF64F00900F5CF65F0E5
:100758000900F5CF66F00A00F5CF67F047EC1EF008
:1007680060C00EF161C00FF162C010F163C011F1F9
:100778000EC160F00FC161F010C162F011C163F0E9
:100788000A0E0001646F000E656F000E666F000EA2
:10079800676F9CEC1FF060C00EF161C00FF162C082
:1007A80010F163C011F101010E51300FD4C0D9FF0F
:1007B800D5C0DAFFDF6E0001D44BD52B08C160F03D
:1007C80009C161F00AC162F00BC163F0010118515F
:1007D800040D810EF324F66E7E0EF420F76E0900E8
:1007E800F5CF64F00900F5CF65F00900F5CF66F0A4
:1007F8000A00F5CF67F09CEC1FF060C008F161C0FB
:1008080009F162C00AF163C00BF101011807010187
:100818001829D8B40ED085D7D4C0D9FFD5C0DAFFEF
:10082800300EDF6E0001D44BD52B01011207D8A082
:1008380013070101125101011311D8B459D0ECD793
:100848000101125101011311D8A40DD00101085161
:100858000101091101010A1101010B11D8A403D0EA
:100868000101124B132B800E010118BF7F0E0001EE
:10087800DC6F010112510101185D01011351800A59
:100888000001DC59D8B003D012C118F118D0010109
:100898001351800A0001DC6F010118510101125D3A
:1008A800800E010118BF7F0E0001DC59D8B007D0B7
:1008B800010118510101126F136B12BF1307030EC8
:1008C800010106150001DC6F000E0101071500018A
:1008D800DD6F0001DC510001DD11D8B409D0D4C0AE
:1008E800D9FFD5C0DAFF2D0EDF6E0001D44BD52B12
:1008F800D6C0F6FFD7C0F7FF0001D64BD72B0800AC
:10090800F5CF18F101011851D8A466EF00F0D4C052
:10091800D9FFD5C0DAFF000EDF6E12005FEC20F0C1
:10092800D0EC09F0750E0001706F7F0E0001716F39
:1009380033EC22F0020EAAEC1CF06B0E0001706F73
:100948007F0E0001716F33EC22F001D1020E00011D
:100958006E6F0A0E81EC22F0F5C07EF0F6C07FF0D3
:10096800030E0001806F010E0001816FE5EC15F0A8
:10097800FA0E0001706F7F0E0001716F33EC22F0E8
:10098800000E0001676F0A0E666F63EC21F081B2FA
:10099800DED081A2FED704EC22F024D0D2EC21F0E4
:1009A8008A0E0001706F7F0E0001716F33EC22F028
:1009B800020EAAEC1CF03EA209D0CD0E0001706F09
:1009C8007E0E0001716F33EC22F008D0E20E0001B8
:1009D800706F7E0E0001716F33EC22F081B202D08D
:1009E8003E80F2983EA0DAD7000E01012A6F000E71
:1009F800296FF5C066F0F6C067F0000E0001696F58
:100A0800090E686F23EC20F066C02BF167C02CF14B
:100A18009A0E0001AC6F990EAD6F190EAE6F3F0EB6
:100A2800AF6F000E0001696F090E686FF5C060F0C6
:100A3800F6C061F0000E0001636F640E626FB7ECE0
:100A480021F060C066F061C067F023EC20F066C05A
:100A5800E7F067C0E8F0000E0001636F640E626F94
:100A68002BC160F02CC161F0B7EC21F00001601FD0
:100A78000001611F0001604B612B00016051000102
:100A8800E727000161510001E823E7C06DF0E8C0E5
:100A98006EF000016F6B706B000EFEEC14F06DC011
:100AA800A8F06EC0A9F06FC0AAF070C0ABF079ECE6
:100AB8000EF0A8C0CAF0A9C0CBF0AAC0CCF0ABC059
:100AC800CDF0ADEC1BF0CAC029F1CBC02AF1D2ECB5
:100AD80021F00C0E0001706F7F0E0001716F33EC76
:100AE80022F0020EAAEC1CF0DA0E0001706F7E0EE6
:100AF8000001716F33EC22F02BC17EF02CC17FF026
:100B0800020E0001806F010E0001816FE5EC15F007
:100B1800DA0E0001706F7F0E0001716F33EC22F066
:100B280029C17EF02AC17FF0020E0001806F000EFD
:100B38000001816FE5EC15F0D90E0001706F7E0E93
:100B48000001716F33EC22F0020E1DEC22F03EA082
:100B5800FDD69AEC1AF0E6EC1FF015EC14F0040E32
:100B68003518D8A4F4D7100EE3EC19F08D90215065
:100B7800221023102410D8B425D0EDC07BF0EEC08D
:100B88007CF0EFC07DF0F0C07EF021C06DF022C097
:100B98006EF023C06FF024C070F0000EFEEC14F06D
:100BA8006DC07FF06EC080F06FC081F070C082F0C1
:100BB800CCEC10F07BC0EDF07CC0EEF07DC0EFF027
:100BC8007EC0F0F0000E00017F6F000E806F700E87
:100BD800816F420E826F2FC06DF030C06EF0000141
:100BE8006F6B706B000EFEEC14F06DC07BF06EC086
:100BF8007CF06FC07DF070C07EF0CCEC10F07BC054
:100C080098F07CC099F07DC09AF07EC09BF031C00E
:100C18006DF032C06EF000016F6B706B000EFEEC71
:100C280014F06DC094F06EC095F06FC096F070C06F
:100C380097F025EC0CF094C021F195C022F196C0F4
:100C480023F197C024F1000E00017F6F000E806F22
:100C5800610E816F450E826F33C06DF034C06EF047
:100C680000016F6B706B000EFEEC14F06DC07BF032
:100C78006EC07CF06FC07DF070C07EF0CCEC10F0E0
:100C88007BC098F07CC099F07DC09AF07EC09BF044
:100C980021C194F022C195F023C196F024C197F0A8
:100CA80025EC0CF094C0A8F095C0A9F096C0AAF065
:100CB80097C0ABF0EDC0ACF0EEC0ADF0EFC0AEF059
:100CC800F0C0AFF079EC0EF0A8C0EDF0A9C0EEF0DE
:100CD800AAC0EFF0ABC0F0F004EC22F0AF0E0001B8
:100CE800706F7F0E0001716F33EC22F0020EAAECD8
:100CF8001CF0D10E0001706F7F0E0001716F33EC94
:100D080022F0360E0001D46F000E0001D56FE70EF9
:100D18000001D66F7F0E0001D76FEDC0D8F0EEC08E
:100D2800D9F0EFC0DAF0F0C0DBF05EEC00F0000EB6
:100D38003B6E360E0001706F000E0001716F5DECA6
:100D480022F0050E0001676FDC0E666F63EC21F080
:100D580004EC22F0600E0001706F7F0E0001716FCD
:100D680033EC22F0000E0101256F000E266F000EF5
:100D7800276F000E286F000E0001AC6F000EAD6FDC
:100D8800C80EAE6F420EAF6FEDC0A8F0EEC0A9F06E
:100D9800EFC0AAF0F0C0ABF079EC0EF0A8C07BF081
:100DA800A9C07CF0AAC07DF0ABC07EF0F5C06DF0A4
:100DB800F6C06EF000016F6B706B000EFEEC14F065
:100DC8006DC07FF06EC080F06FC081F070C082F09F
:100DD800CCEC10F07BC025F17CC026F17DC027F15A
:100DE8007EC028F1020EAAEC1CF0360E0001D46F6A
:100DF800000E0001D56FDF0E0001D66F7F0E0001D7
:100E0800D76F25C1D8F026C1D9F027C1DAF028C19B
:100E1800DBF05EEC00F0000E3B6E360E0001706FEA
:100E2800000E0001716F5DEC22F0FD0E0001706F85
:100E38007F0E0001716F33EC22F0050E0001676F21
:100E4800DC0E666F63EC21F03EA246D7E9C060F085
:100E5800EAC061F0EBC062F0ECC063F0000E000184
:100E6800646F000E656F000E666FBF0E676F94ECBF
:100E780017F00001D8A016D0F1C060F0F2C061F000
:100E8800F3C062F0F4C063F0000E0001646F000E5E
:100E9800656F600E666F410E676F94EC17F0000186
:100EA800D8B002D08A8E18D78A9E04EC22F0F70EAA
:100EB8000001706F7E0E0001716F33EC22F0010E9D
:100EC8001DEC22F009D70001C96F0001C9AF33D169
:100ED8000001C96D0001C951800A120FD8A0B2D013
:100EE800000E0001696F0A0E686F000E0001636F43
:100EF800640E626F0001C9510001606F616B60BFD1
:100F0800610700EC1FF060C066F061C067F0E8ECB4
:100F18001DF00001D890663767370001D890663712
:100F28006737240E00016627000E00016723190E9B
:100F380000016625F66E7E0E00016721F76E090036
:100F4800F5CFACF00900F5CFADF00900F5CFAEF064
:100F58000A00F5CFAFF0000E0001696F640E686FEC
:100F68000001C9510001666F676B66BF6707E8EC4F
:100F78001DF00001D890663767370001D8906637B2
:100F88006737480E00016627000E00016723190E17
:100F980000016625F66E7E0E00016721F76E0900D6
:100FA800F5CFA8F00900F5CFA9F00900F5CFAAF010
:100FB8000A00F5CFABF079EC0EF0A8C0C5F0A9C0D7
:100FC800C6F0AAC0C7F0ABC0C8F0C5C0A8F0C6C07C
:100FD800A9F0C7C0AAF0C8C0ABF0000E0001636F4B
:100FE8000A0E626F0001C9510001606F616B60BF3A
:100FF800610700EC1FF00001D890603761370001ED
:10100800D89060376137190E00016025F66E7E0EA4
:1010180000016121F76E0900F5CFACF00900F5CFAA
:10102800ADF00900F5CFAEF00A00F5CFAFF079ECDE
:101038000EF0A8C0C1F0A9C0C2F0AAC0C3F0ABC0EE
:10104800C4F012000001C951800A750FD8A05DD004
:10105800000E0001696F0A0E686F0001C951000196
:10106800666F676B66BF6707E8EC1DF00001D890F4
:10107800663767370001D89066376737240E000156
:101088006627000E00016723190E00016625F66E1B
:101098007E0E00016721F76E0900F5CFA8F0090060
:1010A800F5CFA9F00900F5CFAAF00A00F5CFABF00B
:1010B800000E0001636F0A0E626F0001C951000142
:1010C800606F616B60BF610700EC1FF00001D89092
:1010D800603761370001D89060376137190E000119
:1010E8006025F66E7E0E00016121F76E0900F5CFCE
:1010F800ACF00900F5CFADF00900F5CFAEF00A006D
:10110800F5CFAFF079EC0EF094D70001C951040D7A
:10111800190EF324F66E7E0EF420F76E0900F5CF53
:10112800C1F00900F5CFC2F00900F5CFC3F00A00FD
:10113800F5CFC4F012000001C951800A120FD8A0DF
:10114800B2D0000E0001696F0A0E686F000E000130
:10115800636F640E626F0001C9510001606F616BBB
:1011680060BF610700EC1FF060C066F061C067F007
:10117800E8EC1DF00001D890663767370001D89079
:1011880066376737240E00016627000E00016723C3
:101198004D0E00016625F66E7E0E00016721F76E82
:1011A8000900F5CFACF00900F5CFADF00900F5CF97
:1011B800AEF00A00F5CFAFF0000E0001696F640EC3
:1011C800686F0001C9510001666F676B66BF6707EA
:1011D800E8EC1DF00001D890663767370001D89019
:1011E80066376737480E00016627000E000167233F
:1011F8004D0E00016625F66E7E0E00016721F76E22
:101208000900F5CFA8F00900F5CFA9F00900F5CF3E
:10121800AAF00A00F5CFABF079EC0EF0A8C0C5F043
:10122800A9C0C6F0AAC0C7F0ABC0C8F0C5C0A8F036
:10123800C6C0A9F0C7C0AAF0C8C0ABF0000E000134
:10124800636F0A0E626F0001C9510001606F616B24
:1012580060BF610700EC1FF00001D890603761376C
:101268000001D890603761374D0E00016025F66E99
:101278007E0E00016121F76E0900F5CFACF0090080
:10128800F5CFADF00900F5CFAEF00A00F5CFAFF01D
:1012980079EC0EF0A8C0C1F0A9C0C2F0AAC0C3F092
:1012A800ABC0C4F012000001C951800A750FD8A064
:1012B8005DD0000E0001696F0A0E686F0001C95108
:1012C8000001666F676B66BF6707E8EC1DF00001F9
:1012D800D890663767370001D89066376737240E8D
:1012E80000016627000E000167234D0E00016625E8
:1012F800F66E7E0E00016721F76E0900F5CFA8F0A3
:101308000900F5CFA9F00900F5CFAAF00A00F5CF3A
:10131800ABF0000E0001636F0A0E626F0001C95145
:101328000001606F616B60BF610700EC1FF0000196
:10133800D890603761370001D890603761374D0E1B
:1013480000016025F66E7E0E00016121F76E09002E
:10135800F5CFACF00900F5CFADF00900F5CFAEF050
:101368000A00F5CFAFF079EC0EF094D70001C9511F
:10137800040D4D0EF324F66E7E0EF420F76E090070
:10138800F5CFC1F00900F5CFC2F00900F5CFC3F0E1
:101398000A00F5CFC4F0120021EE2DF010EEDEF0B9
:1013A800070EDBCFE3FFE806FCE2000E0001DD6F6D
:1013B800030E0001DD6501D04ED0C2800001DD5171
:1013C800010D3B0EF324D96E010EF420DA6EDF50C6
:1013D800C26EC282C2B2FED7C4500001D76FD86BAA
:1013E8000001DD51020DDE0EF324D96E000EF4204B
:1013F800DA6ED7C0DEFFD8C0DDFF0001DD51020D77
:10140800DE0EF324D96E000EF420DA6EDECFD7F0AC
:10141800DDCFD8F0D7C0D8F00001D76BC35000019A
:10142800D713000ED8130001DD51020DDE0EF32490
:10143800D96E000EF420DA6ED7C0DEFFD8C0DDFF0B
:10144800C290000E0001676F050E666F63EC21F015
:101458000001DD2BADD720EEE0F0DECFD7F0DDCFF9
:10146800D8F00001D71FD81FD74BD82B0001E25165
:101478000001D7270001E3510001D823D7C06DF040
:10148800D8C06EF00001000E6EBFFF0E6F6F706F58
:10149800010EFEEC14F06DC0E9F06EC0EAF06FC00A
:1014A800EBF070C0ECF0E9C0A8F0EAC0A9F0EBC01E
:1014B800AAF0ECC0ABF0000E0001AC6F000EAD6FEF
:1014C800A00EAE6F400EAF6F79EC0EF0A8C0E9F039
:1014D800A9C0EAF0AAC0EBF0ABC0ECF0E9C07BF021
:1014E800EAC07CF0EBC07DF0ECC07EF0000E00019D
:1014F8007F6F000E806F800E816F440E826FCCEC80
:1015080010F07BC0E9F07CC0EAF07DC0EBF07EC053
:10151800ECF0E9C07BF0EAC07CF0EBC07DF0ECC0F9
:101528007EF0CD0E00017F6FCC0E806F4C0E816F68
:101538003E0E826FCCEC10F07BC0E9F07CC0EAF084
:101548007DC0EBF07EC0ECF0DEC06DF0DFC06EF069
:101558000001000E6EBFFF0E6F6F706F010EFEEC84
:1015680014F06DC0F1F06EC0F2F06FC0F3F070C00F
:10157800F4F0000E0001AC6F000EAD6FA00EAE6F60
:10158800400EAF6FF1C0A8F0F2C0A9F0F3C0AAF006
:10159800F4C0ABF079EC0EF0A8C07BF0A9C07CF0E9
:1015A800AAC07DF0ABC07EF0000E00017F6F000E78
:1015B800806F800E816F440E826FCCEC10F07BC080
:1015C800F1F07CC0F2F07DC0F3F07EC0F4F0F1C021
:1015D8007BF0F2C07CF0F3C07DF0F4C07EF0CA0E60
:1015E80000017F6F140E806FA90E816F3E0E826F0F
:1015F800CCEC10F07BC0F1F07CC0F2F07DC0F3F0D1
:101608007EC0F4F020EEE4F0DECF6DF0DDCF6EF0BA
:101618000001000E6EBFFF0E6F6F706F010EFEECC3
:1016280014F06DC0F7F06EC0F8F06FC0F9F070C03C
:10163800FAF0000E0001AC6F000EAD6FA00EAE6F99
:10164800400EAF6FF7C0A8F0F8C0A9F0F9C0AAF033
:10165800FAC0ABF079EC0EF0A8C07BF0A9C07CF022
:10166800AAC07DF0ABC07EF0000E00017F6F000EB7
:10167800806F800E816F440E826FCCEC10F07BC0BF
:10168800F7F07CC0F8F07DC0F9F07EC0FAF0F7C042
:101698007FF0F8C080F0F9C081F0FAC082F0000E47
:1016A80000017B6F500E7C6F430E7D6F470E7E6F7F
:1016B800CCEC10F07BC094F07CC095F07DC096F027
:1016C8007EC097F0000E0001986F400E996F1C0EB7
:1016D8009A6FC60E9B6F25EC0CF094C0F7F095C07E
:1016E800F8F096C0F9F097C0FAF0000E0001D96F33
:1016F800000EDA6F000EDB6F000EDC6FF7C07BF0B8
:10170800F8C07CF0F9C07DF0FAC07EF0000E000150
:101718007F6F400E806F1C0E816F460E826FCCEC7F
:1017280010F07BC0D1F07CC0D2F07DC0D3F07EC079
:10173800D4F020EC19F0D1C0D9F0D2C0DAF0D3C07F
:10174800DBF0D4C0DCF0000E00017F6F600E806F0C
:10175800860E816F450E826FD9C07BF0DAC07CF0AF
:10176800DBC07DF0DCC07EF0CCEC10F07BC094F0E8
:101778007CC095F07DC096F07EC097F00F0E0001FA
:10178800986FCF0E996F5B0E9A6F3B0E9B6F25EC8F
:101798000CF094C0F7F095C0F8F096C0F9F097C037
:1017A800FAF0000E00017B6F000E7C6F800E7D6FDB
:1017B8003F0E7E6FF7C07FF0F8C080F0F9C081F06F
:1017C800FAC082F0CCEC10F07BC0F7F07CC0F8F0E7
:1017D8007DC0F9F07EC0FAF0F7C094F0F8C095F03B
:1017E800F9C096F0FAC097F0330E0001986F930E87
:1017F800996F880E9A6FC30E9B6F25EC0CF094C0FE
:10180800F7F095C0F8F096C0F9F097C0FAF0000E1E
:101818000001606F000E616F200E626F420E636FF1
:10182800F7C064F0F8C065F0F9C066F0FAC067F078
:1018380094EC17F00001D8B002D08B8412008B947E
:10184800120000019751800B0001A46F000197510D
:1018580097250001A66F000196AF02D00001A6816E
:101868000001A6510001D8B412D00001A629D8A4BD
:1018780009D0000E0001946F000E956F000E966F50
:10188800000E976F0001968F000E000108D0000E21
:101898000001946F000E956F000E966F000E976F03
:1018A80000019B51800B0001A56F0001A4510001AC
:1018B800A519D8B402D00001A48D00019B519B2525
:1018C8000001A56F00019AAF02D00001A5810001B7
:1018D800A5510001D8B412D00001A529D8A409D077
:1018E800000E0001986F000E996F000E9A6F000E9F
:1018F8009B6F00019A8F000E000108D0000E0001B6
:10190800986F000E996F000E9A6F000E9B6F000182
:10191800A6510001A55DD8B024D00001A4AD03D024
:10192800800E0001A41BA6C0A7F0A5C0A6F0A7C002
:10193800A5F094C0A7F098C094F0A7C098F095C0FF
:10194800A7F099C095F0A7C099F096C0A7F09AC0E3
:1019580096F0A7C09AF097C0A7F09BC097F0A7C0D1
:101968009BF0000E0001A76F0001A65100019C6FBB
:101978009D6B00019C1F9D1F9C4B9D2B0001A55139
:1019880000019E6F9F6B00019C5100019E27000182
:101998009D5100019F2300019FBF3DD000019F5131
:1019A80005E11A0E00019E5DD8A035D000019451C2
:1019B800000195110001961100019711D8B402D0C9
:1019C800010E01D0000E0001A76F000E0001946FF8
:1019D800000E956F000E966F000E976FA5C0A6F0CB
:1019E80020D00001A7A107D00001D890A731010994
:1019F8000001A76F03D00001D890A733000194A17C
:101A080002D00001A78F000197359733963395339D
:101A180094330001A62B0001A5510001A65DD8A0B2
:101A2800E0D70001A4BD3FD00001A6510001D8A411
:101A38000AD0000E0001946F000E956F000E966F8D
:101A4800000E976F120000019851000194270001C1
:101A580099510001952300019A5100019623000134
:101A68009B5100019723000197A1CCD00001A7A1A9
:101A780009D00001D890A7330001A751010900013E
:101A8800A76F03D00001D890A733000194A102D01A
:101A98000001A78F00019735973396339533943318
:101AA8000001A62BAFD0000198510001945D000100
:101AB80099510001955900019A5100019659000168
:101AC8009751800A00019C6F00019B51800A000118
:101AD8009C59D8B050D094C09CF095C09DF096C049
:101AE8009EF097C09FF000019C1F9D1F9E1F9F1F87
:101AF8009C2B000E9D239E239F23000198510001DB
:101B08009C250001A06F0001995100019D21000151
:101B1800A16F00019A5100019E210001A26F0001EE
:101B28009B5100019F210001A36FFF0E0001A0251A
:101B38000001946FFF0E0001A1210001956FFF0EB7
:101B48000001A2210001966FFF0E0001A3210001F0
:101B5800976F800E0001A41B0001A76D0001A7511B
:101B68000001D8A418D0010E00019427000E952377
:101B78009623972310D0000198510001945F00012B
:101B880099510001955B00019A510001965B000193
:101B98009B510001975B00019451000195110001D0
:101BA800961100019711D8A42AD00001A75100016D
:101BB800D8A425D0000E0001946F000E956F000E7A
:101BC800966F000E976F12000001D89094379537E2
:101BD800963797370001A7AF02D000019481000122
:101BE800A7A103D0D880000102D00001D890A73760
:101BF8000001A6510001D8B402D00001A6070001D7
:101C080096AFE2D7000E0001A56F0001A7AF0DD077
:101C1800A7C09CF07F0E00019C17D8A403D0000138
:101C280094A103D0010E0001A56F0001A551000188
:101C3800D8B426D0010E00019427000E95239623D0
:101C48009723000197A11CD094C09CF095C09DF0EB
:101C580096C09EF097C09FF000019F359F339E333A
:101C68009D339C339CC094F09DC095F09EC096F027
:101C78009FC097F00001A629D8B402D00001A62B76
:101C88000001A629D8B405D00001A6510001D8A4A6
:101C980011D0000E0001946F000E956F000E966F24
:101CA800000E976F0001A6510001D8A403D0000EC2
:101CB8000001A46F0001A6A103D00001968F02D0F5
:101CC8000001969F0001D890A6310001976F00018E
:101CD800A4AF02D00001978F94C094F095C095F0FE
:101CE80096C096F097C097F012000001AB51800B98
:101CF8000001B46F0001AB51AB250001BA6F0001C0
:101D0800AAAF02D00001BA810001BA510001D8B4CB
:101D180010D00001BA29D8A409D0000E0001A86F7C
:101D2800000EA96F000EAA6F000EAB6F0001AA8FFC
:101D380009D0000E0001A86F000EA96F000EAA6F4F
:101D4800000EAB6F0001AF51800B0001B41B000106
:101D5800AF51AF250001B56F0001AEAF02D0000151
:101D6800B5810001B5510001D8B410D00001B529E2
:101D7800D8A409D0000E0001AC6F000EAD6F000EA4
:101D8800AE6F000EAF6F0001AE8F09D0000E0001DC
:101D9800AC6F000EAD6F000EAE6F000EAF6F00019E
:101DA800B5510001D8B405D00001BA510001D8A43A
:101DB8000AD0000E0001A86F000EA96F000EAA6FCE
:101DC800000EAB6F12000001AE510001A803F3CF63
:101DD800BFF0F4CFC0F00001BF510001B66FB76B80
:101DE800B86BB96B0001C0510001BB6FBC6BBD6B18
:101DF800BE6B0001AD510001A903F3CFBFF0F4CFD2
:101E0800C0F00001BF510001B627000EB723B82368
:101E1800B9230001C0510001BB27000EBC23BD231C
:101E2800BE230001AC510001AA03F3CFBFF0F4CFE9
:101E3800C0F00001BF510001B627000EB723B82338
:101E4800B9230001C0510001BB27000EBC23BD23EC
:101E5800BE23B8C0B9F0B7C0B8F0B6C0B7F000013B
:101E6800B66B0001AC510001A903F3CFBFF0F4CF6A
:101E7800C0F00001BF510001B6270001C0510001A8
:101E8800B723000E0001B823000E0001B92300019A
:101E9800AD510001A803F3CFBFF0F4CFC0F00001AB
:101EA800BF510001B6270001C0510001B723000E41
:101EB8000001B823000E0001B923B8C0B9F0B7C0BB
:101EC800B8F0B6C0B7F00001B66B0001AC51000124
:101ED800A803F3CFBFF0F4CFC0F00001BF51000159
:101EE800B6270001C0510001B723000E0001B82336
:101EF800000E0001B9230001AE510001A903F3CF80
:101F0800BFF0F4CFC0F00001BF510001BB270001B2
:101F1800C0510001BC23000E0001BD23000E0001CA
:101F2800BE230001AD510001AA03F3CFBFF0F4CFE7
:101F3800C0F00001BF510001BB270001C0510001E2
:101F4800BC23000E0001BD23000E0001BE230001CA
:101F5800AE510001AA03F3CFBFF0F4CFC0F00001E7
:101F6800BF510001B06F0001C0510001B16F000105
:101F7800B26B0001B36BB2C0B3F0B1C0B2F0B0C085
:101F8800B1F00001B06B0001B0510001BB270001A6
:101F9800B1510001BC230001B2510001BD23000171
:101FA800B3510001BE23B6C0B0F0B7C0B1F0B8C09D
:101FB800B2F0B9C0B3F0190E06D00001D890B3330F
:101FC800B233B133B033E82EF8D70001B051000175
:101FD800BB270001B1510001BC230001B25100012F
:101FE800BD230001B3510001BE23B8C0B9F0B7C08A
:101FF800B8F0B6C0B7F00001B66B0001B551BAC071
:10200800B0F00001B16B0001B027000EB123820EC1
:102018000001B0250001BF6FFF0E0001B1210001D2
:10202800C06F15D00001D890BB37BC37BD37BE375D
:102038000001B9AF02D00001BB810001D890B637CA
:10204800B737B837B9370001BF07D8A0C0070001B4
:10205800BDAFE8D7000E0001B56F0001B9AF24D0BD
:10206800FF0E0001B6150001B06FFF0E0001B71595
:102078000001B16FFF0E0001B8150001B26F7F0EAD
:102088000001B9150001B36F0001B0510001B11191
:102098000001B2110001B311D8A403D00001BBA103
:1020A80003D0010E0001B56F0001B5510001D8B48D
:1020B80023D0010E0001BB27000EBC23BD23BE2385
:1020C8000001BEA119D0BBC0B0F0BCC0B1F0BDC00A
:1020D800B2F0BEC0B3F00001B335B333B233B1339D
:1020E800B033B0C0BBF0B1C0BCF0B2C0BDF0B3C03B
:1020F800BEF00001BF4BC02B0001C0BF10D00001D3
:10210800C05104E10001BF29D8A009D0000E000188
:10211800BB6F000EBC6F800EBD6F7F0E2BD0000111
:10212800C0BF07D00001C05111E10001BF05D8B000
:102138000DD0000E0001BB6F000EBC6F000EBD6F0E
:10214800000EBE6F000E0001B46F15D0BFC0BAF00C
:10215800FF0E0001BB17FF0EBC177F0EBD17000E48
:10216800BE170001BAA102D00001BD8F0001D890AE
:10217800BA310001BE6F0001B4510001BE13BBC0EB
:10218800A8F0BCC0A9F0BDC0AAF0BEC0ABF0120058
:1021980000017E51800B0001876F00017E517E2572
:1021A8000001926F00017DAF02D000019281000111
:1021B80092510001D8B412D000019229D8A409D0B4
:1021C800000E00017B6F000E7C6F000E7D6F000E0D
:1021D8007E6F00017D8F000E000108D0000E000107
:1021E8007B6F000E7C6F000E7D6F000E7E6F00010E
:1021F8008251800B0001871B00018251822500015A
:10220800936F000181AF02D00001938100019351C7
:102218000001D8B412D000019329D8A409D0000E27
:1022280000017F6F000E806F000E816F000E826FBD
:102238000001818F000E000108D0000E00017F6FA1
:10224800000E806F000E816F000E826F00017F51BB
:10225800000180110001811100018211D8A417D05A
:10226800000E00017B6F000E7C6F000E7D6F000E6C
:102278007E6F0001800E7D137F0E7E137BC07BF086
:102288007CC07CF07DC07DF07EC07EF01200000135
:1022980092510001D8A412D0000E00017B6F000EED
:1022A8007C6F000E7D6F000E7E6F7BC07BF07CC064
:1022B8007CF07DC07DF07EC07EF01200000193515D
:1022C8000001836F846B0001831F841F834B842B61
:1022D800000192510001856F866B00018351000156
:1022E800852700018451000186237F0E0001852582
:1022F80000018C6F000E0001862100018D6F7BC0EC
:1023080088F07CC089F07DC08AF07EC08BF0000E1A
:1023180000017B6F000E7C6F000E7D6F000E7E6FDC
:10232800000E00018E6F000E8F6F000E906F000E72
:10233800916F000E0001936F42D00001935100018C
:10234800D8B417D00001D890883789378A378B37A7
:102358000001D8907B377C377D377E37000191AFFD
:1023680002D000017B810001D8908E378F379037DB
:10237800913700017F510001885D00018051000103
:1023880089590001815100018A59000182510001D7
:102398008B59D8A012D00001918D00017F51000106
:1023A800885F000180510001895B000181510001B3
:1023B8008A5B0001825100018B5B0001932B190E8F
:1023C80000019365BAD70001885100018911000105
:1023D8008A1100018B11D8B418D000018E8115D054
:1023E8000001D8907B377C377D377E37000191AF6D
:1023F80002D000017B810001D8908E378F3790374B
:10240800913700018C07D8A08D0700017DAFE8D770
:10241800000E0001936F000191AF24D0FF0E000160
:102428008E150001836FFF0E00018F150001846F68
:10243800FF0E000190150001856F7F0E00019115B8
:102448000001866F0001835100018411000185118C
:1024580000018611D8A403D000017BA103D0010E8E
:102468000001936F000193510001D8B423D0010EED
:1024780000017B27000E7C237D237E2300017EA1A3
:1024880019D07BC083F07CC084F07DC085F07EC00D
:1024980086F000018635863385338433833383C0E1
:1024A8007BF084C07CF085C07DF086C07EF00001A2
:1024B8008C4B8D2B00018DBF14D000018D5104E190
:1024C80000018C29D8A00DD0000E00018D6F8C69F9
:1024D800000E00017B6F000E7C6F000E7D6F000EFA
:1024E8007E6F00018DBF07D000018D5115E10001FD
:1024F8008C05D8B011D0000E00018D6F000E8C6FC6
:10250800000E00017B6F000E7C6F000E7D6F000EC9
:102518007E6F000E0001876F8CC092F0000192A1BF
:1025280003D000017D8F02D000017D9F0001D8906B
:10253800923100017E6F0001875100017E137BC03C
:102548007BF07CC07CF07DC07DF07EC07EF0120008
:102558000001CD6F6D0E0001CD65C4D0000E0001E5
:10256800696F0A0E686F000E0001636F640E626F78
:10257800CDC060F00001616B00EC1FF060C066F038
:1025880061C067F0E8EC1DF00001D8906637673746
:102598000001D89066376737240E00016627000EC1
:1025A80000016723190E00016625F66E7E0E0001F4
:1025B8006721F76E0900F5CFACF00900F5CFADF053
:1025C8000900F5CFAEF00A00F5CFAFF0000E00011C
:1025D800696F640E686FCDC066F00001676BE8EC48
:1025E8001DF00001D890663767370001D89066372C
:1025F8006737480E00016627000E00016723190E91
:1026080000016625F66E7E0E00016721F76E09004F
:10261800F5CFA8F00900F5CFA9F00900F5CFAAF089
:102628000A00F5CFABF079EC0EF0A8C0C9F0A9C04C
:10263800CAF0AAC0CBF0ABC0CCF0000E0001636FAB
:102648000A0E626FCDC060F00001616B00EC1FF0F4
:102658000001D890603761370001D8906037613742
:10266800190E00016025F66E7E0E00016121F76EDD
:102678000900F5CFACF00900F5CFADF00900F5CFB2
:10268800AEF00A00F5CFAFF0C9C0A8F0CAC0A9F0F3
:10269800CBC0AAF0CCC0ABF079EC0EF0A8C0C5F066
:1026A800A9C0C6F0AAC0C7F0ABC0C8F0C5C0A8F0A2
:1026B800C6C0A9F0C7C0AAF0C8C0ABF0000E0001A0
:1026C800AC6F000EAD6F000EAE6F3F0EAF6F79ECC2
:1026D8000EF0A8C0C1F0A9C0C2F0AAC0C3F0ABC038
:1026E800C4F012000A0E0001CD6572D0000E000180
:1026F800636F0A0E626FCDC060F00001616B00EC81
:102708001FF00001D890603761370001D89060371A
:102718006137190E00016025F66E7E0E00016121F9
:10272800F76E0900F5CFACF00900F5CFADF0090060
:10273800F5CFAEF00A00F5CFAFF0000E0001696FDB
:102748000A0E686FCDC066F00001676BE8EC1DF0FB
:102758000001D890663767370001D8906637673729
:10276800240E00016627000E00016723190E0001E0
:102778006625F66E7E0E00016721F76E0900F5CF1B
:10278800A8F00900F5CFA9F00900F5CFAAF00A00D2
:10279800F5CFABF079EC0EF0A8C0C9F0A9C0CAF02B
:1027A800AAC0CBF0ABC0CCF0C9C0A8F0CAC0A9F091
:1027B800CBC0AAF0CCC0ABF0000E0001AC6F000E8D
:1027C800AD6F000EAE6F3F0EAF6F79EC0EF081D794
:1027D8000001CD51040D190EF324F66E7E0EF4207F
:1027E800F76E0900F5CFA8F00900F5CFA9F00900A8
:1027F800F5CFAAF00A00F5CFABF0000E0001AC6FE0
:10280800000EAD6F000EAE6F3F0EAF6F79EC0EF09D
:10281800A8C0C1F0A9C0C2F0AAC0C3F0ABC0C4F040
:102828001200100EE3EC19F0020E3518D8A41200AD
:10283800000E256E000E266E000E276E000E286E06
:10284800000E346E000E336E000E306E000E2F6ECA
:10285800000E326E000E316E850ED56E0B0ED76EE1
:10286800DC0ED66E8D80000E216E000E226E000EDC
:10287800236E000E246E100EE3EC19F0A2D0D2ECF9
:1028880021F0EC0E0001706F7F0E0001716F33ECC8
:1028980022F031C07EF032C07FF0020E0001806F5E
:1028A800000E0001816FE5EC15F0DA0E0001706F83
:1028B8007F0E0001716F33EC22F02FC07EF030C024
:1028C8007FF0020E0001806F000E0001816FE5ECC1
:1028D80015F0DA0E0001706F7F0E0001716F33EC96
:1028E80022F033C07EF034C07FF0020E0001806F0A
:1028F800000E0001816FE5EC15F0020E20EC1DF0D2
:10290800000E0001676F640E666F63EC21F029C04A
:1029180019F12AC01AF12BC01BF12CC01CF10101BE
:10292800191F1A1F1B1F1C1F192B000E1A231B23EC
:102938001C2325500101192501011D6F2650010195
:102948001A2101011E6F275001011B2101011F6F70
:10295800285001011C210101206F010120510101B2
:102968001F1101011E1105E13B0E01011D5DD8A0DB
:1029780028D025C029F026C02AF027C02BF028C06F
:102988002CF0010E2126000E222223222422E9C047
:1029980094F0EAC095F0EBC096F0ECC097F0EDC06B
:1029A80098F0EEC099F0EFC09AF0F0C09BF025ECDB
:1029B8000CF094C0EDF095C0EEF096C0EFF097C023
:1029C800F0F0000E0001606F000E616F200E626F64
:1029D800410E636FF1C064F0F2C065F0F3C066F0B9
:1029E800F4C067F094EC17F00001D8A048D7040EA3
:1029F800356E12000001756F000175510001D8B4E1
:102A08001ED0000170AF1BD06DC071F06EC072F0A7
:102A18006FC073F070C074F00001711F721F731FD4
:102A2800741F712B000E72237323742371C077F007
:102A380072C078F073C079F074C07AF008D06DC0B5
:102A480077F06EC078F06FC079F070C07AF000014E
:102A58006D5100016E1100016F1100017011D8A4B1
:102A68000AD0000E00016D6F000E6E6F000E6F6FC2
:102A7800000E706F1200960E0001766F08D00001EC
:102A8800762B0001D8907A33793378337733000E78
:102A9800000177150001716F000E00017815000123
:102AA800726F000E000179150001736FFE0E0001B0
:102AB8007A150001746F0001715100017211000153
:102AC800731100017411D8B410D0D9D70001762B36
:102AD800010E00017727000E782379237A2300015D
:102AE800D8907A33793378337733000E000177152D
:102AF8000001716F000E000178150001726F000E61
:102B0800000179150001736FFF0E00017A150001AD
:102B1800746F0001715100017211000173110001FD
:102B28007411D8B409D0D2D7000176070001D89023
:102B38007737783779377A37000179BF04D0020EB2
:102B480000017661F1D7000176B109D0FF0E0001CE
:102B58007717FF0E78177F0E7917FF0E7A17000187
:102B6800D890763376C071F00001726B736B746B1A
:102B780071C074F00001736B726B716B000171515D
:102B8800000177130001725100017813000173519D
:102B9800000179130001745100017A130001755185
:102BA8000001D8B405D0000170AF02D000017A8FBF
:102BB80077C06DF078C06EF079C06FF07AC070F0B1
:102BC800120021EE35F010EE87F0050EDBCFE3FFA3
:102BD800E806FCE2870E0001766F000E0001776FB1
:102BE8007EC078F07FC079F0000E00017B6F0A0E7E
:102BF8007A6F1BEC21F0000180510001D8B4B8D0E5
:102C080000018051010D870EF324D96E000EF420C7
:102C1800DA6E000EDF6E70D00001800500018D6F46
:102C280000018D510001D8B467D0FF0E0001826FFA
:102C3800FF0E0001836F00018D510001846F856BC9
:102C4800000182510001842700018351000185237E
:102C5800870E00018425D96E000E00018521DA6EE9
:102C680000018D51010D870EF324E16E000EF42052
:102C7800E26EDFCFE7FF00018105D8A41DD0FF0E6B
:102C88000001826FFF0E0001836F00018D5100016A
:102C9800846F856B000182510001842700018351F4
:102CA80000018523870E00018425D96E000E0001DE
:102CB8008521DA6E200E1CD0FF0E0001826FFF0EF8
:102CC8000001836F00018D510001846F856B000145
:102CD8008251000184270001835100018523870E5A
:102CE80000018425D96E000E00018521DA6E300EB0
:102CF800DF6E00018D0794D7FF0E0001826FFF0E73
:102D08000001836F000180510001846F856B000111
:102D18008251000184270001835100018523870E19
:102D280000018425D96E000E00018521DA6E3A0E65
:102D3800DF6072D7FF0E0001826FFF0E0001836F04
:102D4800000180510001846F856B000182510001F0
:102D580084270001835100018523870E0001842503
:102D6800D96E000E00018521DA6E2F0EDF6454D76C
:102D7800870E0001706F000E0001716F5DEC22F08C
:102D8800120062C068F00001696B6A6B000161356E
:102D98000001683701E36981000168510001706F23
:102DA80000017051D8A40AD0000E0001606F000E17
:102DB800616F000E626F000E636F120066C068F0EC
:102DC8000001696B6A6B000165350001683701E332
:102DD80069810001685100016F6F00016F51D8A42B
:102DE8000AD0000E0001606F000E616F000E626F66
:102DF800000E636F12000001618FFF0E0001601763
:102E0800FF0E00016117000E000162170001658FB7
:102E1800FF0E00016417FF0E00016517000E000188
:102E28006617000E00016B6F000E6C6F000E6D6F61
:102E3800000E6E6F7F0E0001705F00016F51980FDA
:102E48000001705F180E00016F6F0001D8906B379A
:102E58006C376D376E37000164510001605D000109
:102E68006551000161590001665100016259D8A0FD
:102E78000ED0000164510001605F0001655100013E
:102E8800615B000166510001625B00016B8100011A
:102E9800D89060376137623700016F2FD6D70001AD
:102EA80070AF1AD000017051800A970FD8B00AD0BD
:102EB800000E0001606F000E616F000E626F000E61
:102EC800636F12000001D8906E336D336C336B332F
:102ED8000001703FF7D71BD0170E0001706512D0A4
:102EE800000E0001606F000E616F000E626F000E31
:102EF800636F12000001D8906B376C376D376E37EF
:102F080000017007000170510001D8A4F3D76BC00D
:102F180060F06CC061F06DC062F06EC063F01200CA
:102F2800000E000160150001686F000E00016115B8
:102F38000001696F800E0001621500016A6F7F0E43
:102F48000001631500016B6F0001685100016911F0
:102F580000016A1100016B11D8A409D0000E00010C
:102F6800606F000E616F000E626F000E636F000EDF
:102F7800000164150001686F000E0001651500016D
:102F8800696F800E0001661500016A6F7F0E0001EF
:102F9800671500016B6F000168510001691100019C
:102FA8006A1100016B11D8A409D0000E0001646FEA
:102FB800000E656F000E666F000E676F000163AF4D
:102FC80026D060C068F061C069F062C06AF063C072
:102FD8006BF00001681F691F6A1F6B1F682B000ECA
:102FE80069236A236B23000E000168250001606FC6
:102FF800000E000169210001616F000E00016A21C5
:103008000001626F800E00016B210001636F0001F7
:1030180067AF26D064C068F065C069F066C06AF022
:1030280067C06BF00001681F691F6A1F6B1F682B60
:10303800000E69236A236B23000E00016825000136
:10304800646F000E000169210001656F000E000128
:103058006A210001666F800E00016B210001676F15
:10306800000E0001601B000E611B000E621B800E2B
:10307800631B000E0001641B000E651B000E661B1F
:10308800800E671B000164510001605D00016551FD
:103098000001615900016651000162590001675140
:1030A80000016359D8B002D0D8901200D88012001D
:1030B80000016235633500016D6F00016D51D8A4C0
:1030C8000AD0000E0001606F000E616F000E626F83
:1030D800000E636F120000016635673500016C6FE2
:1030E80000016C51D8A40AD0000E0001606F000ED8
:1030F800616F000E626F000E636F12000001628F35
:10310800FF0E00016017FF0E6117FF0E6217000E19
:1031180063170001668FFF0E00016417FF0E651725
:10312800FF0E6617000E6717000E0001686F000E8D
:10313800696F000E6A6F000E6B6F7F0E00016D5F86
:1031480000016C51A00F00016D5F200E00016C6F33
:103158000001D890683769376A376B3700016451C6
:103168000001605D0001655100016159000166516F
:10317800000162590001675100016359D8A012D0BB
:10318800000164510001605F000165510001615B4D
:10319800000166510001625B000167510001635B39
:1031A800000168810001D890603761376237633762
:1031B80000016C2FCDD700016DAF1AD000016D5101
:1031C800800A9F0FD8B00AD0000E0001606F000E71
:1031D800616F000E626F000E636F12000001D890DD
:1031E8006B336A336933683300016D3FF7D71BD0FF
:1031F8001F0E00016D6512D0000E0001606F000EF9
:10320800616F000E626F000E636F12000001D890AC
:10321800683769376A376B3700016D0700016D51F0
:103228000001D8A4F3D768C060F069C061F06AC033
:1032380062F06BC063F012000001D4AF0ED0000E34
:103248002E6E210E2D6E000E0001D16F000ED26F72
:10325800000ED36F000ED46F12000001D15100018F
:10326800D2110001D3110001D411D8A40ED0000E40
:103278002E6E220E2D6E000E0001D16F000ED26F41
:10328800000ED36F000ED46F1200000E0001AC6F59
:10329800000EAD6F000EAE6F400EAF6FD50E000181
:1032A800646F000E0001656FD1C060F0D2C061F09C
:1032B800D3C062F0D4C063F0A5EC1EF060C0A8F0E3
:1032C80061C0A9F062C0AAF063C0ABF079EC0EF05F
:1032D800A8C094F0A9C095F0AAC096F0ABC097F02A
:1032E800000E0001986F000E996F800E9A6FBF0E46
:1032F8009B6F25EC0CF094C0D1F095C0D2F096C02D
:10330800D3F097C0D4F00001D507D8A0D607D1C014
:10331800C1F0D2C0C2F0D3C0C3F0D4C0C4F0A90E6B
:103328000001C56F7E0E0001C66F000E0001C86F58
:10333800080EC76F25EC1BF0C1C0D1F0C2C0D2F097
:10334800C3C0D3F0C4C0D4F0180E0001AC6F720E25
:10335800AD6F310EAE6F3F0EAF6FD5C06DF0D6C0FA
:103368006EF00001000E6EBFFF0E6F6F706F010EE2
:10337800FEEC14F06DC0A8F06EC0A9F06FC0AAF002
:1033880070C0ABF079EC0EF0A8C094F0A9C095F02D
:10339800AAC096F0ABC097F0D1C098F0D2C099F00F
:1033A800D3C09AF0D4C09BF025EC0CF094C0D1F0B7
:1033B80095C0D2F096C0D3F097C0D4F012000001A7
:1033C8006D6F00016D518FEC22F08A928A968A9473
:1033D800000E0001676F640E666F63EC21F0000E4B
:1033E8000001686F010E0001696F010E00016A6F2C
:1033F800000E9CEC21F0000E0001676F640E666FF2
:1034080063EC21F0000E0001686F010E0001696F86
:10341800010E00016A6F000E9CEC21F0000E000105
:10342800676F0A0E666F63EC21F0000E0001686F8B
:10343800010E0001696F010E00016A6F000E9CEC1D
:1034480021F0000E0001686F010E0001696F000E87
:1034580000016A6F000E9CEC21F0000E0001686FFD
:10346800010E0001696F000E00016A6F000E9CECEE
:1034780021F0000E0001686F000E0001696F000E58
:1034880000016A6F010E9CEC21F0000E0001686FCC
:10349800000E0001696F000E00016A6F000E9CECBF
:1034A80021F0000E0001686F000E0001696F000E28
:1034B80000016A6F010E9CEC21F0000E0001686F9C
:1034C800000E0001696F000E00016A6F000E9CEC8F
:1034D80021F0000E0001686F000E0001696F010EF7
:1034E80000016A6F000E9CEC21F0000E0001686F6D
:1034F800000E0001696F000E00016A6F000E9CEC5F
:1035080021F0010E0001686F010E0001696F000EC5
:1035180000016A6F000E9CEC21F004EC22F0000E12
:1035280000016B6F000EEBEC21F01200100EE3ECC3
:1035380019F04AD0000E0001606F000E616F500E46
:10354800626F410E636FF1C064F0F2C065F0F3C0C2
:1035580066F0F4C067F094EC17F00001D8A003D02F
:103568000001ECAF15D08A8E010EAAEC1CF09E0E5D
:103578000001706F7F0E0001716F33EC22F0020EB4
:1035880020EC1DF0010E1DEC22F0D0EC09F01CD04F
:10359800D2EC21F0210E0001706F7F0E0001716FD7
:1035A80033EC22F0020EAAEC1CF0360E0001706F0C
:1035B8007F0E0001716F33EC22F0000E0001676F7F
:1035C800640E666F63EC21F0E9C060F0EAC061F058
:1035D800EBC062F0ECC063F0000E0001646F000EF7
:1035E800656F000E666FBF0E676F94EC17F00001F1
:1035F800D8A0A0D7F1C060F0F2C061F0F3C062F0CB
:10360800F4C063F0000E0001646F000E656F600E79
:10361800666F410E676F94EC17F00001D8A08AD747
:103628008A9E04EC22F0C00E0001706F7F0E00012C
:10363800716F33EC22F0010E356E050E1DEC22F091
:103648001200C7C0C9F0C8C0CAF00001D890C93775
:10365800CA370001D890C937CA37C5C0CBF0C6C031
:10366800CCF00001C9510001CB270001CA5100016B
:10367800CC23CBC0F6FFCCC0F7FF0900F5CFCDF0C7
:103688000900F5CFCEF00900F5CFCFF00A00F5CF4D
:10369800D0F050D0CDC0ACF0CEC0ADF0CFC0AEF0C1
:1036A800D0C0AFF0C1C0A8F0C2C0A9F0C3C0AAF092
:1036B800C4C0ABF079EC0EF0A8C094F0A9C095F0A6
:1036C800AAC096F0ABC097F00001C707D8A0C807FA
:1036D800C7C0C9F0C8C0CAF00001D890C937CA37F6
:1036E8000001D890C937CA37C5C0CBF0C6C0CCF0E6
:1036F8000001C9510001CB270001CA510001CC23A8
:10370800CBC0F6FFCCC0F7FF0900F5CF98F0090051
:10371800F5CF99F00900F5CF9AF00A00F5CF9BF0A4
:1037280025EC0CF094C0CDF095C0CEF096C0CFF04B
:1037380097C0D0F00001C7510001C811D8A4AAD77A
:10374800CDC0C1F0CEC0C2F0CFC0C3F0D0C0C4F06D
:1037580012000001CC35CD350001D36F0001D351E3
:10376800D8A40AD0000E0001CA6F000ECB6F000E5D
:10377800CC6F000ECD6F1200CAC0CEF0CBC0CFF018
:10378800CCC0D0F0CDC0D1F0200E06D00001D8902A
:10379800D133D033CF33CE33E82EF8D70001CE5112
:1037A8000001D26F0001CC8FFF0E0001CA17FF0E77
:1037B800CB17FF0ECC17000ECD17960E0001D35F66
:1037C8000001D3AF1AD00001D351800A970FD8B0A7
:1037D8000AD0000E0001CA6F000ECB6F000ECC6F2E
:1037E800000ECD6F12000001D890CD33CC33CB330F
:1037F800CA330001D33FF7D71BD01F0E0001D36592
:1038080012D0000E0001CA6F000ECB6F000ECC6FF5
:10381800000ECD6F12000001D890CA37CB37CC37D5
:10382800CD370001D3070001D3510001D8A4F3D745
:103838000001D2510001D8B409D00001CD1FCC1F1E
:10384800CB1FCA6D000ECB23CC23CD23CAC0CAF030
:10385800CBC0CBF0CCC0CCF0CDC0CDF01200060070
:10386800E9CF03F0EACF04F0E1CF05F0E2CF06F0AC
:10387800D9CF07F0DACF08F0F3CF09F0F4CF0AF088
:10388800F6CF0BF0F7CF0CF0F8CF0DF0F5CF0EF028
:10389800F2A423D00B0ED76EDC0ED66E010E2526B1
:1038A800000E262227222822334A342A3C0E3318B7
:1038B8003410D8A411D0000E346E000E336E2F4A87
:1038C800302A3C0E2F183010D8A406D0000E306EC7
:1038D800000E2F6E314A322AF294F2A219D081A436
:1038E80006D0050E0001F527000EF6233E8281B4AE
:1038F8000ED00001F65105E1050E0001F55DD8A0D6
:1039080006D0050E0001F55F000EF65B3E92F292BE
:103918000EC0F5FF0DC0F8FF0CC0F7FF0BC0F6FF97
:103928000AC0F4FF09C0F3FF08C0DAFF07C0D9FFD7
:1039380006C0E2FF05C0E1FF04C0EAFF03C0E9FFDB
:1039480002C0FBFF01C0FAFF4092110000016B6F3B
:1039580064D0000E0001686F000E0001696F000E50
:1039680000016A6F010E9CEC21F0000E0001686FE7
:10397800000E0001696F000E00016A6F000E9CECDA
:1039880021F01200010E0001686F000E0001696F3E
:10399800000E00016A6F010E9CEC21F0000E000180
:1039A800686F000E0001696F000E00016A6F000E5B
:1039B8009CEC21F01200000E0001686F000E00015F
:1039C800696F010E00016A6F010E9CEC21F0010E77
:1039D8000001686F000E0001696F000E00016A6F38
:1039E800000E9CEC21F01200010E0001686F000E21
:1039F8000001696F010E00016A6F010E9CEC21F055
:103A0800010E0001686F000E0001696F000E0001D1
:103A18006A6F000E9CEC21F0120000016B51010A44
:103A2800D8B497D7030AD8B4ADD7010AD8B4C3D746
:103A3800070AD8A41200D8D70001E66FD0EC09F025
:103A48000001E651AAEC1CF0360E0001D46F000EFE
:103A58000001D56FF30E0001D66F7F0E0001D76FFE
:103A6800F1C0D8F0F2C0D9F0F3C0DAF0F4C0DBF05E
:103A78005EEC00F0000E3D6E360E0001706F000E19
:103A88000001716F5DEC22F0360E0001D46F000E5C
:103A98000001D56FE40E0001D66F7F0E0001D76FCD
:103AA800E9C0D8F0EAC0D9F0EBC0DAF0ECC0DBF03E
:103AB8005EEC00F0000E3D6E360E0001706F000ED9
:103AC8000001716F5DEC22F0360E0001D46F000E1C
:103AD8000001D56FDC0E0001D66F7F0E0001D76F95
:103AE800F7C0D8F0F8C0D9F0F9C0DAF0FAC0DBF0C6
:103AF8005EEC00F0000E3D6E360E0001706F000E99
:103B08000001716F5DEC22F012006FC073F070C09D
:103B180074F073C066F074C067F071C068F072C06A
:103B280069F023EC20F066C073F067C074F0000100
:103B38006D4B6E2B0001735100017411D8A4E9D7A5
:103B48006DC0D9FF6EC0DAFF000EDF6E00016D0791
:103B5800D8A06E076FC060F070C061F071C062F0ED
:103B680072C063F0C7EC20F0000160510001756F6E
:103B78006FC066F070C067F071C068F072C069F01D
:103B880023EC20F066C06FF067C070F0090E0001EA
:103B9800756503D0070E00017527300E00017527E3
:103BA8006DC0D9FF6EC0DAFF75C0DFFF00016D0779
:103BB800D8A06E0700016F5100017011D8A4CAD7B0
:103BC80000016D4B6E2B1200000E00016B6F00019F
:103BD80069AF08D00001686D691FD8B0692B010E64
:103BE80000016B6F000167AF08D00001666D671FA9
:103BF800D8B0672B010E00016B1B000E00016D6F22
:103C0800000E6C6F0001685100016911D8B42CD006
:103C1800010E00016A6F06D00001D8906837693735
:103C280000016A2B000169AFF7D70001D8906C3703
:103C38006D37000168510001665D0001695100019E
:103C48006759D8A00AD0000168510001665F0001D9
:103C580069510001675B00016C810001D8906933EC
:103C6800683300016A2FE1D700016B510001D8B415
:103C780005D000016C6D6D1FD8B06D2B6CC066F05F
:103C88006DC067F01200000E0001686F000E696FCA
:103C9800000E6A6F000E6B6F000164510001651120
:103CA8000001661100016711D8B442D0010E00016D
:103CB8006C6F08D00001D89064376537663767376E
:103CC80000016C2B000167AFF5D70001D890683769
:103CD80069376A376B37000164510001605D000184
:103CE80065510001615900016651000162590001E6
:103CF800675100016359D8A012D000016451000136
:103D0800605F000165510001615B000166510001BF
:103D1800625B000167510001635B0001688100017B
:103D2800D890673366336533643300016C2FCDD781
:103D380068C060F069C061F06AC062F06BC063F08F
:103D480012000001605100016111000162110001BF
:103D58006311D8A412D064C0D9FF65C0DAFF000E81
:103D6800DE6E000EDD6E000E0001606F000E616FEA
:103D7800000E626F000E636F1200000163517F0B2B
:103D88000001666F676BD89000016637673764C0BB
:103D9800D9FF65C0DAFF66C0DEFF67C0DDFF00013E
:103DA80062AF04D00001666B662B02D00001666B1F
:103DB8000001665164C0D9FF65C0DAFFDE12000E4B
:103DC800DD1264C0D9FF65C0DAFF820EDE26FF0E61
:103DD800DD22000163816383638563876389638B65
:103DE800639D0001629F60C060F061C061F062C0C5
:103DF80062F063C063F01200000E0001656F0001FD
:103E080061AF08D00001606D611FD8B0612B010E51
:103E18000001656F000163AF05D00001626D631F8B
:103E2800D8B0632B0001625100016311D8B426D0C9
:103E3800010E0001646F06D00001D8906237633725
:103E48000001642B000163AFF7D700016251000144
:103E5800605D0001635100016159D8A008D00001DC
:103E680062510001605F000163510001615B000164
:103E7800D890633362330001642FE7D7000165519E
:103E88000001D8B405D00001606D611FD8B0612B66
:103E980060C060F061C061F0120000016F6F8A823B
:103EA80000016F45010B00016B6F00016F45E8468B
:103EB800030B010B00016C6F00016F39E842070B1F
:103EC800010B00016D6F00016F390F0B010B000131
:103ED8006E6F6CC068F06DC069F06EC06AF000016A
:103EE8006B519CEC21F000016F39E8461F0B010B68
:103EF80000016B6F00016F41E8423F0B010B0001AD
:103F08006C6F0001D8906F31010B00016D6F0001DB
:103F18006F51010B00016E6F6CC068F06DC069F0E5
:103F28006EC06AF000016B519CEC21F08A9212007D
:103F3800000164510001651100016611000167115B
:103F4800D8B437D0010E206E07D00001D89064375E
:103F5800653766376737202A000167AFF6D7000153
:103F680064510001605D0001655100016159000163
:103F78006651000162590001675100016359D8A0D8
:103F880010D0000164510001605F0001655100011B
:103F9800615B000166510001625B0001675100012D
:103FA800635B0001D8906733663365336433202E32
:103FB800D6D760C060F061C061F062C062F063C0D3
:103FC80063F01200100EE3EC19F03504D8A41200C7
:103FD800100EE3EC19F01AD0010EAAEC1CF04B0EEF
:103FE8000001706F7F0E0001716F33EC22F0020E3A
:103FF80020EC1DF0020E1DEC22F08D80000E000159
:10400800676F0A0E666F63EC21F08D90330E000126
:10401800606F330E616F530E626F410E636FF1C0B4
:1040280064F0F2C065F0F3C066F0F4C067F094EC99
:1040380017F00001D8A0D0D7020E356E1200000E7E
:1040480000016C6F000E6B6F00016851000169116F
:10405800D8B42CD0010E00016A6F06D00001D890A8
:104068006837693700016A2B000169AFF7D700018B
:10407800D8906B376C37000168510001665D00010C
:10408800695100016759D8A00AD0000168510001A0
:10409800665F000169510001675B00016B810001E7
:1040A800D8906933683300016A2FE1D76BC066F096
:1040B8006CC067F01200000E356E100E8FEC22F007
:1040C800000E896E9268000E8A6E7F0E936E000E47
:1040D8008B6E000E946E6D96000E8C6E000E956EB3
:1040E800000E8D6E060E966E100EE3EC19F0000EA3
:1040F800C26E0B0EC16EAD0EC06EC29AC298C29649
:10410800850ED56E0B0ED76EDC0ED66EF292F28847
:10411800F18CF184D08EF28EF28CF294F28A120035
:1041280001EE2DF00E0EEE6AE806FDE100EEE9F074
:10413800120EEE6AE806FDE13E6A00EE21F01D0E61
:10414800EE6AE806FDE1260EF66E450EF76E000EE5
:10415800F86E01EE3BF010EE04F00900F5CFEEFF2B
:10416800E550E150FAE12A0EF66E450EF76E000EA4
:10417800F86E0900F5CF3FF040904092000EF86EBF
:10418800000192EF04F00001625100016311D8B4FC
:1041980023D0010E206E05D00001D8906237633716
:1041A800202A000163AFF8D7000162510001605D69
:1041B8000001635100016159D8A008D00001625183
:1041C8000001605F000163510001615B0001D8904C
:1041D80063336233202EE8D760C060F061C061F0BD
:1041E800120000016C6F000E00016D6F19D0000EF7
:1041F8000001686F000E0001696F010E00016A6F0F
:10420800000E9CEC21F06CC068F0000E0001696F94
:10421800000E00016A6F000E9CEC21F000016D2B6E
:1042280000016B5100016D5DD8B01200E0D776C077
:104238007CF077C07DF0000179AF0ED076C0D9FF51
:1042480077C0DAFF2D0EDF6E0001764B772B000169
:10425800786D791FD8B0792B76C06DF077C06EF085
:1042680078C06FF079C070F07AC071F07BC072F0DE
:1042780089EC1DF01200000E0001AC1B000EAD1BF6
:10428800000EAE1B800EAF1BA8C094F0A9C095F01D
:10429800AAC096F0ABC097F0ACC098F0ADC099F04A
:1042A800AEC09AF0AFC09BF025EC0CF094C0A8F01B
:1042B80095C0A9F096C0AAF097C0ABF012003FC015
:1042C80060F00001616B66C062F067C063F0B7EC34
:1042D80021F060C03FF161C040F107D0500EE82ED8
:1042E800FED701013F07D8A0400701013F51010156
:1042F8004011D8B41200F2D70001605100016111D9
:104308000001621100016311D8B409D0000E000148
:10431800601B000E611B000E621B800E631B60C0D9
:1043280060F061C061F062C062F063C063F01200C7
:10433800206E00016AB102D08A9801D08A880001F3
:1043480069B102D08A9A01D08A8A000168B102D084
:104358008A9C01D08A8C20B002D08A9E01D08A8E95
:1043680070EC22F012000001605100016203F3CFEB
:1043780064F0F4CF65F00001605100016303F3506D
:10438800000165270001615100016203F35000013B
:10439800652764C060F065C061F01200000E00017E
:1043A800686F000E0001696F000E00016A6F000E51
:1043B8009CEC21F0000E0001686F010E0001696F8E
:1043C800000E00016A6F000E9CEC21F01200000143
:1043D8006C6F000E0001686F000E0001696F000E1F
:1043E80000016A6F000E9CEC21F0010E0001686F5D
:1043F8006CC069F06BC06AF0010E9CEC21F01200F1
:10440800000E0001686F000E0001696F000E0001C8
:104418006A6F000E9CEC21F0000E0001686F000E20
:104428000001696F010E00016A6F000E9CEC21F01B
:1044380012000001686F000E0001696F09D0030EB9
:104448000001676FE80E666F63EC21F00001692BCD
:10445800000168510001695DD8B01200F0D70BD097
:1044680070C0F6FF71C0F7FF0800F55051EC1FF05F
:104478000001704B712B70C0F6FF71C0F7FF080088
:10448800F5500009D8B41200EBD70001616F000E97
:104498000001606F3A0E0001616107D02F0E000124
:1044A800616503D0010E0001606F60C020F020300C
:1044B80012000AD070C0D9FF71C0DAFFDF5051EC8A
:1044C8001FF00001704B712B70C0D9FF71C0DAFF6B
:1044D800DF50D8B41200EED78A86000E0001676F4D
:1044E800010E666F63EC21F08A96000E0001676F7B
:1044F800010E666F63EC21F0120000016F6F00017E
:104508006E51AAEC1CF000016F0500016B6F010EE3
:10451800F5EC20F01200206E20C03FF012000105DB
:03452800090D1466
:107E1800000000803FCDCCCC3D0AD7233C6F1283B5
:107E28003A17B7D138ACC52737BD37863595BFD691
:107E38003377CC2B325F708930FFE6DB2E08E53CC8
:107E48001E6042A20D0000803F000020410000C8D3
:107E58004200007A4400401C460050C34700247486
:107E6800498096184B20BCBE4C286B6E4EF9021503
:107E780050EC78AD60CAF24971010000000A0000B8
:107E88000064000000E803000010270000A086013D
:107E98000040420F008096980000E1F50500CA9A5C
:107EA8003B00000000C4FF7F3F80EFFFBE90E1A9C8
:107EB8003EEC8276BE82AD2B3E0E3CC3BD87D1130D
:107EC8003D4178D3BB20202020202020202053ECC7
:107ED80020202020202020202000202020202020BA
:107EE8002020204E6F20202020202020202000202D
:107EF80020426174746572696120636172696361AB
:107F08002120200020204475726174612020736351
:107F180061726963613A2020004552524F524521EF
:107F280020436172696361206261742E200073636B
:107F38006F6C6C656761746F206F2067756173740F
:107F48006F2E0020417474657361205374616269F7
:107F58006C697A7A617A2E00656666696369656E0E
:107F68007A612062617474657269613A0073656C44
:107F7800657A696F6E6172652063617061636974A7
:107F8800610043617269636F20612066696E6520D4
:107F9800746573743F0043617269636120696E2080
:107FA800636F72736F3A007465737420636F6D70DA
:107FB8006C657461746F3A0043617269636120741F
:107FC80065726D696E617461006361706163697483
:107FD80061273A0020543A252E32660020493A2576
:107FE8002E33660074656D706F3A00563A252E324E
:087FF80066004168002500004D
:020000040020DA
:08000000FFFFFFFFFFFFFFFF00
:020000040030CA
:0E000000000C1F1EFF8081FF0FC00FE00F409D
:00000001FF
