:040000000BEF00F012
:100008005182FACF01F0FBCF02F0B7ED14F06CEF9C
:0200180016F0E0
:10030000000000803FCDCCCC3D0AD7233C6F128348
:100310003A17B7D138ACC52737BD37863595BFD624
:100320003377CC2B325F708930FFE6DB2E08E53C5B
:100330001E6042A20D0000803F000020410000C866
:100340004200007A4400401C460050C34700247419
:10035000498096184B20BCBE4C286B6E4EF9021596
:1003600050EC78AD60CAF24971010000000A00004B
:100370000064000000E803000010270000A08601D0
:100380000040420F008096980000E1F50500CA9AEF
:100390003B4369636C6F2072696361726963612EAC
:1003A0002E00436172696361207465726D696E61CC
:1003B00074610054455354455220424154544552AF
:1003C00049450020493A252E336600563A252E33FA
:0303D000660000C4
:1003D400800E00018A6F000E00018B6FF4EF05F0B0
:1003E400250E00019E19D8B407D07CC0D9FF7DC06A
:1003F400DAFF9EC0DFFFF3D3000E00018D6F000E05
:100404008C6F7EC0F6FF7FC0F7FF0800F5502E0A00
:10041400D8A434D000018D8D00017E4B7F2B000EBB
:100424000001996F000E986F1ED098C00FF099C00C
:1004340010F0000E126E0A0E116E40EC17F07EC022
:10044400F6FF7FC0F7FF0800F5500F26000E1022BC
:10045400D00E0F240001986FFF0E10200001996F39
:1004640000017E4B7F2B7EC0F6FF7FC0F7FF0800A4
:10047400F55065EC17F0D8A00CD0D7D7000E0001CA
:10048400996F000E986F00018D8903D000018D854E
:1004940013D07EC0F6FF7FC0F7FF00017E4B7F2B99
:1004A4000800F5CF9EF000019E51000AD8B4A9D3EC
:1004B400660AD8B4EBD796D3070E00018D15D8B4CD
:1004C40039D300018DA905D0000E0001996F060EE5
:1004D400986F8AC0D9FF8BC0DAFFDECF9AF0DECFE7
:1004E4009BF0DECF9CF0DECF9DF0040E00018A2746
:1004F400000E8B2300019DAF15D09AC00FF09BC056
:1005040010F09CC011F09DC012F0EDEC16F00FC07D
:100514009AF010C09BF011C09CF012C09DF0030E25
:1005240000018C13000E0001936F000E926F000106
:100534009A5100019B1100019C1100019D11D8B436
:1005440088D000019C359D35820F0001926F000117
:10055400936BFF0E932300019207D8A0930792C0D8
:100564000FF093C010F0000E126E030E116E40ECEB
:1005740017F00FC092F010C093F092C015F093C022
:1005840016F0000E186E0A0E176E11EC15F015C059
:1005940092F016C093F0000193AF04D000019207CB
:1005A400D8A093070001925100085EEC08F036C011
:1005B40094F037C095F038C096F039C097F094C0E5
:1005C4001DF095C01EF096C01FF097C020F09AC091
:1005D40021F09BC022F09CC023F09DC024F06AEC63
:1005E4000AF01DC094F01EC095F01FC096F020C004
:1005F40097F094C00FF095C010F096C011F097C01A
:1006040012F0000E136E000E146E800E156E3F0E67
:10061400166EC1EC12F0D8B005D000019207D8A034
:10062400930717D094C00FF095C010F096C011F046
:1006340097C012F0000E136E000E146E200E156E8D
:10064400410E166EC1EC12F0D8A003D00001924BFB
:10065400932B000199BF08D00001995123E10D0E9D
:100664000001985DD8B01ED09AC060F09BC061F0C4
:100674009CC062F09DC063F000019851B0EC0DF095
:1006840036C064F037C065F038C066F039C067F032
:100694000AEC06F060C09AF061C09BF062C09CF066
:1006A40063C09DF0000193BF08D0000193512AE17B
:1006B4000A0E0001925DD8B025D000019A510001C4
:1006C4009B1100019C1100019D11D8B467D09AC000
:1006D4003FF09BC040F09CC041F09DC042F0DEEC76
:1006E40013F03F50401041104210D8A457D00001DD
:1006F40093BF54D00001935105E1020E0001925DB5
:10070400D8A04CD094C00FF095C010F096C011F052
:1007140097C012F05F0E136E700E146E890E156E74
:10072400400E166EC1EC12F0D8B003D00001F70EE3
:1007340002D00001F80E9227FF0E9323000192517C
:100744005EEC08F036C094F037C095F038C096F0EF
:1007540039C097F09AC00FF09BC010F09CC011F004
:100764009DC012F094C013F095C014F096C015F01B
:1007740097C016F02DEC12F00FC08EF010C08FF061
:1007840011C090F012C091F0000E00019A6F000E9B
:100794009B6F000E9C6F000E9D6F3CD09AC03FF083
:1007A4009BC040F09CC041F09DC042F0DEEC13F0D1
:1007B4003FC08EF040C08FF041C090F042C091F035
:1007C4009AC074F09BC075F09CC076F09DC077F021
:1007D4008EC00FF08FC010F090C011F091C012F0D5
:1007E400000EECEC10F00FC078F010C079F011C0DE
:1007F4007AF012C07BF098EC16F074C09AF075C0D1
:100804009BF076C09CF077C09DF0000E0001936FC2
:10081400000E926F010E00019E6F0A0E00019E19D8
:10082400D8B41ED000019E51040D690EF324F66E57
:10083400030EF420F76E0900F55000018E5D0900E7
:10084400F55000018F590900F55000019059090035
:10085400F55000019159D8A003D000019E2BDDD79B
:10086400030E00018C150001846F000E00018D152C
:100874000001856F0001845100018511D8B454D062
:100884007CC0D9FF7DC0DAFF2D0E4CD000017C4B1B
:100894007D2B4AD08EC00FF08FC010F090C011F0A5
:1008A40091C012F000019E51040D690EF324F66EFE
:1008B400030EF420F76E0900F5CF13F00900F5CF0D
:1008C40014F00900F5CF15F00A00F5CF16F053EC3B
:1008D40015F00FC094F010C095F011C096F012C03E
:1008E40097F094C00FF095C010F096C011F097C027
:1008F40012F00A0E136E000E146E000E156E000E2A
:10090400166E39EC16F00FC094F010C095F011C0BB
:1009140096F012C097F000019451300F7CC0D9FFBB
:100924007DC0DAFFDF6EB2D700019E0700019E2969
:10093400D8B40ED0AFD77CC0D9FF7DC0DAFF300E5B
:10094400DF6E00017C4B7D2B00019207D8A093073A
:10095400000193BF07D000019351EDE1000192051E
:10096400D8B0E9D7000199BF0CD00001995105E135
:10097400090E0001985DD8A004D0080E00019E6FF6
:1009840002D098C09EF000019E510001985F000EB5
:1009940000019EBFFF0E0001995B00019E51000102
:1009A400D8B409D07CC0D9FF7DC0DAFF2E0EDF6E2B
:1009B40000017C4B7D2B00019E515EEC08F036C09B
:1009C40086F037C087F038C088F039C089F09AC003
:1009D40021F09BC022F09CC023F09DC024F086C06F
:1009E4001DF087C01EF088C01FF089C020F06AEC9B
:1009F4000AF01DC03FF01EC040F01FC041F020C0EF
:100A040042F0DEEC13F03FC08EF040C08FF041C0E6
:100A140090F042C091F073D08EC00FF08FC010F0F0
:100A240090C011F091C012F000019E51040D690EA6
:100A3400F324F66E030EF420F76E0900F5CF13F0DD
:100A44000900F5CF14F00900F5CF15F00A00F5CF31
:100A540016F053EC15F00FC094F010C095F011C0CF
:100A640096F012C097F094C00FF095C010F096C0A5
:100A740011F097C012F00A0E136E000E146E000EE1
:100A8400156E000E166E39EC16F00FC094F010C0FF
:100A940095F011C096F012C097F000019451300FF8
:100AA4007CC0D9FF7DC0DAFFDF6E00017C4B7D2B5B
:100AB4008EC00FF08FC010F090C011F091C012F0F2
:100AC40000019E51040D690EF324F66E030EF4200A
:100AD400F76E0900F5CF13F00900F5CF14F0090003
:100AE400F5CF15F00A00F5CF16F039EC16F00FC06B
:100AF4008EF010C08FF011C090F012C091F0000180
:100B04009E0700019E29D8B40ED086D77CC0D9FF99
:100B14007DC0DAFF300EDF6E00017C4B7D2B0001BF
:100B24009807D8A099070001985100019911D8B4E9
:100B340059D0ECD70001985100019911D8A40DD0D7
:100B440000018E5100018F110001901100019111DB
:100B5400D8A403D00001984B992B800E00019EBFAE
:100B64007F0E0001846F0001985100019E5D000119
:100B74009951800A00018459D8B003D098C09EF0DE
:100B840018D000019951800A0001846F00019E5120
:100B94000001985D800E00019EBF7F0E0001845904
:100BA400D8B007D000019E510001986F996B98BF8F
:100BB4009907030E00018C150001846F000E0001DB
:100BC4008D150001856F0001845100018511D8B491
:100BD40009D07CC0D9FF7DC0DAFF2D0EDF6E000185
:100BE4007C4B7D2B7EC0F6FF7FC0F7FF00017E4B60
:100BF4007F2B0800F5CF9EF000019E51D8A4F2EFA0
:100C040001F07CC0D9FF7DC0DAFF000EDF6E120058
:100C140000016351800B0001706F00016351632573
:100C24000001726F000162AF02D000017281000105
:100C340072510001D8B412D000017229D8A409D08D
:100C4400000E0001606F000E616F000E626F000EF7
:100C5400636F0001628F000E000108D0000E0001D6
:100C6400606F000E616F000E626F000E636F000113
:100C74006751800B0001716F0001705100017119FF
:100C8400D8B402D00001708D0001675167250001BE
:100C9400716F000166AF02D00001718100017151D2
:100CA4000001D8B412D000017129D8A409D0000ED3
:100CB4000001646F000E656F000E666F000E676FB3
:100CC4000001668F000E000108D0000E0001646F61
:100CD400000E656F000E666F000E676F00017251A3
:100CE4000001715DD8B024D0000170AD03D0800E36
:100CF4000001701B72C073F071C072F073C071F0A8
:100D040060C073F064C060F073C064F061C073F0DD
:100D140065C061F073C065F062C073F066C062F0D4
:100D240073C066F063C073F067C063F073C067F0AC
:100D3400000E0001736F000172510001686F696B4E
:100D44000001681F691F684B692B00017151000184
:100D54006A6F6B6B0001685100016A2700016951D9
:100D640000016B2300016BBF3DD000016B5105E115
:100D74001A0E00016A5DD8A035D00001605100014F
:100D840061110001621100016311D8B402D0010E97
:100D940001D0000E0001736F000E0001606F000EA1
:100DA400616F000E626F000E636F71C072F020D02D
:100DB400000173A107D00001D8907331010900012B
:100DC400736F03D00001D8907333000160A102D087
:100DD4000001738F00016335633362336133603321
:100DE4000001722B000171510001725DD8A0E0D79F
:100DF400000170BD3FD0000172510001D8A40AD097
:100E0400000E0001606F000E616F000E626F000E35
:100E1400636F1200000164510001602700016551F5
:100E24000001612300016651000162230001675142
:100E340000016323000163A1CCD0000173A109D098
:100E44000001D89073330001735101090001736FDD
:100E540003D00001D8907333000160A102D00001D7
:100E6400738F000163356333623361336033000190
:100E7400722BAFD0000164510001605D0001655127
:100E8400000161590001665100016259000163517A
:100E9400800A0001686F00016751800A00016859E7
:100EA400D8B050D060C068F061C069F062C06AF028
:100EB40063C06BF00001681F691F6A1F6B1F682BFA
:100EC400000E69236A236B23000164510001682525
:100ED40000016C6F000165510001692100016D6F13
:100EE4000001665100016A2100016E6F0001675123
:100EF40000016B2100016F6FFF0E00016C250001E2
:100F0400606FFF0E00016D210001616FFF0E000193
:100F14006E210001626FFF0E00016F210001636FFB
:100F2400800E0001701B0001736D000173510001FC
:100F3400D8A418D0010E00016027000E612362239B
:100F4400632310D0000164510001605F000165510A
:100F54000001615B000166510001625B00016751A1
:100F64000001635B00016051000161110001621125
:100F740000016311D8A42AD0000173510001D8A440
:100F840025D0000E0001606F000E616F000E626FCD
:100F9400000E636F12000001D8906037613762372A
:100FA4006337000173AF02D000016081000173A1B7
:100FB40003D0D880000102D00001D890733700011B
:100FC40072510001D8B402D000017207000162AF6F
:100FD400E2D7000E0001716F000173AF0DD073C032
:100FE40068F07F0E00016817D8A403D0000160A147
:100FF40003D0010E0001716F000171510001D8B4DA
:1010040026D0010E00016027000E612362236323B2
:10101400000163A11CD060C068F061C069F062C0C7
:101024006AF063C06BF000016B356B336A3369336C
:10103400683368C060F069C061F06AC062F06BC078
:1010440063F000017229D8B402D00001722B0001B0
:101054007229D8B405D0000172510001D8A411D06E
:10106400000E0001606F000E616F000E626F000ED3
:10107400636F000172510001D8A403D0000E000177
:10108400706F000172A103D00001628F02D00001D1
:10109400629F0001D89072310001636F000170AF4C
:1010A40002D00001638F60C060F061C061F062C073
:1010B40062F063C063F012003E6E3EAE05D13E6C3A
:1010C4003E50800A120FD8A098D0000E186E0A0E57
:1010D400176E000E126E640E116E3E500F6E106A83
:1010E4000FBE100694EC15F00FC015F010C016F0EA
:1010F40011EC15F0D89015361636D89015361636EC
:10110400240E1526000E1622010E1524F66E030E6B
:101114001620F76E0900F5CF21F00900F5CF22F073
:101124000900F5CF23F00A00F5CF24F0000E186E65
:10113400640E176E3E50156E166A15BE160611EC37
:1011440015F0D89015361636D89015361636480E42
:101154001526000E1622010E1524F66E030E162017
:10116400F76E0900F5CF1DF00900F5CF1EF0090058
:10117400F5CF1FF00A00F5CF20F06AEC0AF01DC08D
:101184003AF01EC03BF01FC03CF020C03DF03AC016
:101194001DF03BC01EF03CC01FF03DC020F0000E0F
:1011A400126E0A0E116E3E500F6E106A0FBE1006BC
:1011B40094EC15F0D8900F361036D8900F361036C0
:1011C400010E0F24F66E030E1020F76E0900F5CF02
:1011D40021F00900F5CF22F00900F5CF23F00A0031
:1011E400F5CF24F06AEC0AF01DC036F01EC037F0CB
:1011F4001FC038F020C039F012003E50800A750F2D
:10120400D8A04DD0000E186E0A0E176E3E50156E03
:10121400166A15BE160611EC15F0D890153616365A
:10122400D89015361636240E1526000E1622010EF9
:101234001524F66E030E1620F76E0900F5CF1DF087
:101244000900F5CF1EF00900F5CF1FF00A00F5CF15
:1012540020F0000E126E0A0E116E3E500F6E106AD0
:101264000FBE100694EC15F0D8900F361036D890B7
:101274000F361036010E0F24F66E030E1020F76E93
:101284000900F5CF21F00900F5CF22F00900F5CFD0
:1012940023F00A00F5CF24F06AEC0AF0A5D73E50FB
:1012A400040D010EF324F66E030EF420F76E09000C
:1012B400F5CF36F00900F5CF37F00900F5CF38F057
:1012C4000A00F5CF39F012003E50800A120FD8A060
:1012D40098D0000E186E0A0E176E000E126E640E71
:1012E400116E3E500F6E106A0FBE100694EC15F08E
:1012F4000FC015F010C016F011EC15F0D89015368B
:101304001636D89015361636240E1526000E1622DB
:10131400350E1524F66E030E1620F76E0900F5CF70
:1013240021F00900F5CF22F00900F5CF23F00A00DF
:10133400F5CF24F0000E186E640E176E3E50156E35
:10134400166A15BE160611EC15F0D8901536163629
:10135400D89015361636480E1526000E1622350E70
:101364001524F66E030E1620F76E0900F5CF1DF056
:101374000900F5CF1EF00900F5CF1FF00A00F5CFE4
:1013840020F06AEC0AF01DC03AF01EC03BF01FC00A
:101394003CF020C03DF03AC01DF03BC01EF03CC004
:1013A4001FF03DC020F0000E126E0A0E116E3E506A
:1013B4000F6E106A0FBE100694EC15F0D8900F361D
:1013C4001036D8900F361036350E0F24F66E030EF5
:1013D4001020F76E0900F5CF21F00900F5CF22F0B7
:1013E4000900F5CF23F00A00F5CF24F06AEC0AF0E7
:1013F4001DC036F01EC037F01FC038F020C039F0D1
:1014040012003E50800A750FD8A04DD0000E186E01
:101414000A0E176E3E50156E166A15BE160611ECAE
:1014240015F0D89015361636D89015361636240E83
:101434001526000E1622350E1524F66E030E162000
:10144400F76E0900F5CF1DF00900F5CF1EF0090075
:10145400F5CF1FF00A00F5CF20F0000E126E0A0E31
:10146400116E3E500F6E106A0FBE100694EC15F00C
:10147400D8900F361036D8900F361036350E0F240C
:10148400F66E030E1020F76E0900F5CF21F0090067
:10149400F5CF22F00900F5CF23F00A00F5CF24F0B0
:1014A4006AEC0AF0A5D73E50040D350EF324F66E0F
:1014B400030EF420F76E0900F5CF36F00900F5CFDE
:1014C40037F00900F5CF38F00A00F5CF39F01200F3
:1014D4002050800B296E205020242F6E1FBE2F8099
:1014E4002F50D8B40DD02F28D8A408D0000E1D6ECC
:1014F400000E1E6E000E1F6E000E206E1F8E08D092
:10150400000E1D6E000E1E6E000E1F6E000E206E6D
:101514002450800B291A245024242E6E23BE2E809E
:101524002E50D8B40DD02E28D8A408D0000E216E89
:10153400000E226E000E236E000E246E238E08D041
:10154400000E216E000E226E000E236E000E246E1D
:101554002E50D8B403D02F50D8A409D0000E1D6E3D
:10156400000E1E6E000E1F6E000E206E1200235021
:101574001D02F3CF34F0F4CF35F034502A6E2B6AC9
:101584002C6A2D6A3550306E316A326A336A2250C1
:101594001E02F3CF34F0F4CF35F034502A26000E77
:1015A4002B222C222D2235503026000E31223222BD
:1015B400332221501F02F3CF34F0F4CF35F03450EE
:1015C4002A26000E2B222C222D2235503026000EE6
:1015D4003122322233222CC02DF02BC02CF02AC011
:1015E4002BF02A6A21501E02F3CF34F0F4CF35F0E9
:1015F40034502A2635502B22000E2C22000E2D2288
:1016040022501D02F3CF34F0F4CF35F034502A26A3
:1016140035502B22000E2C22000E2D222CC02DF032
:101624002BC02CF02AC02BF02A6A21501D02F3CFC4
:1016340034F0F4CF35F034502A2635502B22000EE6
:101644002C22000E2D2223501E02F3CF34F0F4CFAF
:1016540035F03450302635503122000E3222000E3F
:10166400332222501F02F3CF34F0F4CF35F034503C
:10167400302635503122000E3222000E3322235000
:101684001F02F3CF34F0F4CF35F03450256E3550CB
:10169400266E276A286A27C028F026C027F025C0AE
:1016A40026F0256A25503026265031222750322232
:1016B400285033222AC025F02BC026F02CC027F056
:1016C4002DC028F0190E05D0D890283227322632A2
:1016D4002532E82EF9D725503026265031222750BE
:1016E4003222285033222CC02DF02BC02CF02AC0DB
:1016F4002BF02A6A2E502FC025F0266A2526000ECC
:101704002622820E2524346EFF0E2620356E0FD03D
:10171400D89030363136323633362DBE3080D890BC
:101724002A362B362C362D363406D8A0350632AE62
:10173400EFD7000E2E6E2DAE16D0FF0E2A14256E96
:10174400FF0E2B14266EFF0E2C14276E7F0E2D1405
:10175400286E2550261027102810D8A402D030A0B7
:1017640002D0010E2E6E2E50D8B41FD0010E30269A
:10177400000E31223222332233A017D030C025F09C
:1017840031C026F032C027F033C028F02834283284
:1017940027322632253225C030F026C031F027C04A
:1017A40032F028C033F0344A352A35BE0DD03550D6
:1017B40003E13428D8A008D0000E306E000E316E3C
:1017C400800E326E7F0E20D035BE05D035500EE12E
:1017D4003404D8B00BD0000E306E000E316E000E03
:1017E400326E000E336E000E296E0FD034C02FF00F
:1017F400FF0E3016FF0E31167F0E3216000E331612
:101804002FB0328ED8902F30336E2950331230C01F
:101814001DF031C01EF032C01FF033C020F01200A2
:101824003950800B0001606F3950392400016B6F0F
:1018340038AE02D000016B8100016B510001D8B4B5
:101844000ED000016B29D8A408D0000E366E000E0D
:10185400376E000E386E000E396E388E06D0000ECC
:10186400366E000E376E000E386E000E396E3D5027
:10187400800B0001601B3D503D2400016C6F3CAEA9
:1018840002D000016C8100016C510001D8B40ED06B
:1018940000016C29D8A408D0000E3A6E000E3B6EED
:1018A400000E3C6E000E3D6E3C8E06D0000E3A6E6D
:1018B400000E3B6E000E3C6E000E3D6E3A503B1027
:1018C4003C103D10D8A415D0000E366E000E376EB5
:1018D400000E386E000E396E800E38127F0E3912EB
:1018E40036C036F037C037F038C038F039C039F078
:1018F400120000016B510001D8A411D0000E366E05
:10190400000E376E000E386E000E396E36C036F09B
:1019140037C037F038C038F039C039F01200000150
:101924006C513E6E3F6A3E1E3F1E3E4A3F2A0001F6
:101934006B51406E416A3E5040263F5041227F0E1B
:1019440040240001656F000E41200001666F36C01F
:1019540061F037C062F038C063F039C064F0000E43
:10196400366E000E376E000E386E000E396E000EA5
:101974000001676F000E686F000E696F000E6A6FDA
:10198400000E00016C6F37D000016C510001D8B417
:1019940014D00001D8906137623763376437D89028
:1019A400363637363836393600016ABF368000019C
:1019B400D8906737683769376A373A500001615DF4
:1019C4003B50000162593C50000163593D500001F5
:1019D4006459D8A00ED000016A8D3A500001615FAD
:1019E4003B500001625B3C500001635B3D500001D1
:1019F400645B00016C2B190E00016C65C5D70001F6
:101A04006151000162110001631100016411D8B435
:101A140015D00001678112D0D89036363736383663
:101A2400393600016ABF36800001D89067376837BD
:101A340069376A3700016507D8A0660738AEECD766
:101A4400000E00016C6F00016AAF1BD0FF0E000195
:101A540067153E6EFF0E000168153F6EFF0E000114
:101A64006915406E7F0E00016A15416E3E503F10AD
:101A740040104110D8A402D036A003D0010E0001BA
:101A84006C6F00016C510001D8B420D0010E3626D1
:101A9400000E37223822392239A018D036C03EF041
:101AA40037C03FF038C040F039C041F041344132D2
:101AB40040323F323E323EC036F03FC037F040C085
:101AC40038F041C039F00001654B662B000166BF58
:101AD40013D00001665104E100016529D8A00CD09F
:101AE400000E0001666F6569000E366E000E376EDB
:101AF400000E386E000E396E000166BF07D000017B
:101B0400665114E100016505D8B010D0000E000143
:101B1400666F000E656F000E366E000E376E000E97
:101B2400386E000E396E000E0001606F65C06BF0F8
:101B340000016BA102D0388E01D0389E0001D890EC
:101B44006B31396E00016051391236C036F037C03E
:101B540037F038C038F039C039F01200426E6D0EDB
:101B64004264ACD0000E186E0A0E176E000E126E90
:101B7400640E116E42C00FF0106A94EC15F00FC0A1
:101B840015F010C016F011EC15F0D8901536163675
:101B9400D89015361636240E1526000E1622010E80
:101BA4001524F66E030E1620F76E0900F5CF21F00A
:101BB4000900F5CF22F00900F5CF23F00A00F5CF94
:101BC40024F0000E186E640E176E42C015F0166AEB
:101BD40011EC15F0D89015361636D8901536163601
:101BE400480E1526000E1622010E1524F66E030E5D
:101BF4001620F76E0900F5CF1DF00900F5CF1EF091
:101C04000900F5CF1FF00A00F5CF20F06AEC0AF0C6
:101C14001DC03EF01EC03FF01FC040F020C041F088
:101C2400000E126E0A0E116E42C00FF0106A94EC90
:101C340015F0D8900F361036D8900F361036010EA6
:101C44000F24F66E030E1020F76E0900F5CF21F075
:101C54000900F5CF22F00900F5CF23F00A00F5CFF3
:101C640024F03EC01DF03FC01EF040C01FF041C034
:101C740020F06AEC0AF01DC03AF01EC03BF01FC011
:101C84003CF020C03DF03AC01DF03BC01EF03CC00B
:101C94001FF03DC020F0000E216E000E226E000EDB
:101CA400236E3F0E246E6AEC0AF01DC036F01EC08F
:101CB40037F01FC038F020C039F012000A0E426419
:101CC40063D0000E126E0A0E116E42C00FF0106A3D
:101CD40094EC15F0D8900F361036D8900F36103695
:101CE400010E0F24F66E030E1020F76E0900F5CFD7
:101CF40021F00900F5CF22F00900F5CF23F00A0006
:101D0400F5CF24F0000E186E0A0E176E42C015F0BF
:101D1400166A11EC15F0D89015361636D89015368B
:101D24001636240E1526000E1622010E1524F66E04
:101D3400030E1620F76E0900F5CF1DF00900F5CF4C
:101D44001EF00900F5CF1FF00A00F5CF20F06AEC71
:101D54000AF01DC03EF01EC03FF01FC040F020C07E
:101D640041F03EC01DF03FC01EF040C01FF041C016
:101D740020F0000E216E000E226E000E236E3F0E28
:101D8400246E6AEC0AF091D74250040D010EF3243C
:101D9400F66E030EF420F76E0900F5CF1DF009006E
:101DA400F5CF1EF00900F5CF1FF00A00F5CF20F0A3
:101DB400000E216E000E226E000E236E3F0E246E66
:101DC4006AEC0AF01DC036F01EC037F01FC038F0B0
:101DD40020C039F01200000E00016D6F030E0001E7
:101DE4006D6501D048D000016D51010DBF0EF32483
:101DF400D96E000EF420DA6EDF50C26EC282C2B217
:101E0400FED7C450426E436A00016D51020DA50E07
:101E1400F324D96E000EF420DA6E42C0DEFF43C014
:101E2400DDFF00016D51020DA50EF324D96E000EE5
:101E3400F420DA6EDECF42F0DDCF43F042C043F04F
:101E4400426AC3504212000E431200016D51020D4A
:101E5400A50EF324D96E000EF420DA6E42C0DEFF24
:101E640043C0DDFF000E166E050E156EBCEC16F0B9
:101E740000016D2BB3D720EEA7F0DECF42F0DDCF0B
:101E840043F0421E431E424A432A0001A9514226FE
:101E94000001AA51432242C00FF043C010F0000ECB
:101EA40010BEFF0E116E126E010EECEC10F00FC09E
:101EB400ABF010C0ACF011C0ADF012C0AEF0ABC0CE
:101EC4001DF0ACC01EF0ADC01FF0AEC020F0000E7F
:101ED400216E000E226EA00E236E400E246E6AEC5C
:101EE4000AF01DC0ABF01EC0ACF01FC0ADF020C0A6
:101EF400AEF0ABC036F0ACC037F0ADC038F0AEC019
:101F040039F0000E3A6E000E3B6E800E3C6E440EAD
:101F14003D6E12EC0CF036C0ABF037C0ACF038C0FC
:101F2400ADF039C0AEF0ABC036F0ACC037F0ADC0E8
:101F340038F0AEC039F0CD0E3A6ECC0E3B6E4C0E7E
:101F44003C6E3E0E3D6E12EC0CF036C0ABF037C06A
:101F5400ACF038C0ADF039C0AEF0A5C00FF0A6C0EB
:101F640010F0000E10BEFF0E116E126E010EECEC9E
:101F740010F00FC0AFF010C0B0F011C0B1F012C03B
:101F8400B2F0000E216E000E226EA00E236E400EE3
:101F9400246EAFC01DF0B0C01EF0B1C01FF0B2C0BF
:101FA40020F06AEC0AF01DC036F01EC037F01FC0E6
:101FB40038F020C039F0000E3A6E000E3B6E800EF1
:101FC4003C6E440E3D6E12EC0CF036C0AFF037C0E0
:101FD400B0F038C0B1F039C0B2F0AFC036F0B0C024
:101FE40037F0B1C038F0B2C039F0BBC03AF0BCC071
:101FF4003BF0BDC03CF0BEC03DF012EC0CF036C06E
:10200400AFF037C0B0F038C0B1F039C0B2F0120050
:10201400100E8AEC17F0000E0001BB6F870EBC6F28
:10202400C30EBD6F470EBE6F000E366E240E376EA4
:10203400010E386E470E396EBBC03AF0BCC03BF09F
:10204400BDC03CF0BEC03DF012EC0CF036C0BBF09D
:1020540037C0BCF038C0BDF039C0BEF004EC16F097
:10206400EDEC0EF059D0818E010E5BEC14F0910E64
:10207400206E030E216E04EC17F0020E5BEC14F0DC
:10208400B30E00017C6F000E00017D6FCB0E0001CA
:102094007E6F030E00017F6FAFC080F0B0C081F08F
:1020A400B1C082F0B2C083F0EAEC01F0000E00018E
:1020B400BA6FB30E206E000E216E53EC17F0B30E00
:1020C40000017C6F000E00017D6FC30E00017E6F66
:1020D400030E00017F6FABC080F0ACC081F0ADC0D7
:1020E40082F0AEC083F0EAEC01F0000E0001BA6F9A
:1020F400B30E206E000E216E53EC17F0EDEC0EF0D3
:10210400010E166EF40E156EBCEC16F0000E166E73
:10211400010E156EBCEC16F0ABC00FF0ACC010F0A5
:10212400ADC011F0AEC012F0000E136E000E146EAE
:10213400000E156EBF0E166EC1EC12F0D8A093D728
:10214400AFC00FF0B0C010F0B1C011F0B2C012F0C7
:10215400000E136E000E146E600E156E410E166E98
:10216400C1EC12F0D8A07FD7000E0F6E000E106ED7
:10217400800E116EBF0E126EABC013F0ACC014F023
:10218400ADC015F0AEC016F0C1EC12F0D8B068D7EF
:10219400000E0F6E000E106E680E116E410E126E60
:1021A400AFC013F0B0C014F0B1C015F0B2C016F057
:1021B400C1EC12F0D8B054D7A20E206E030E216EDB
:1021C40004EC17F0819E130E166E880E156EBCEC8F
:1021D40016F046D7176E1750D8A412AE1AD00FC0F7
:1021E40013F010C014F011C015F012C016F0131E35
:1021F400141E151E161E132A000E14221522162252
:1022040013C019F014C01AF015C01BF016C01CF04E
:1022140008D00FC019F010C01AF011C01BF012C082
:102224001CF00F50101011101210D8A409D0000E79
:102234000F6E000E106E000E116E000E126E120064
:10224400960E186E06D0182AD8901C321B321A32F9
:102254001932000E1914136E000E1A14146E000EA7
:102264001B14156EFE0E1C14166E1350141015104C
:102274001610D8B40DD0E7D7182A010E1926000E6F
:102284001A221B221C22D8901C321B321A321932F9
:10229400000E1914136E000E1A14146E000E1B1483
:1022A400156EFF0E1C14166E135014101510161014
:1022B400D8B407D0E1D71806D89019361A361B3689
:1022C4001C361BBE03D0020E1860F5D718B008D018
:1022D400FF0E1916FF0E1A167F0E1B16FF0E1C1684
:1022E400D890183218C013F0146A156A166A13C00D
:1022F40016F0156A146A136A1350191214501A123C
:1023040015501B1216501C121750D8A412AE01D02F
:102314001C8E19C00FF01AC010F01BC011F01CC0A5
:1023240012F0120011C017F0186A196A1034173627
:1023340001E3188017501F6E1F50D8A409D0000E57
:102344000F6E000E106E000E116E000E126E120053
:1023540015C017F0186A196A1434173601E3188087
:1023640017501E6E1E50D8A409D0000E0F6E000E1A
:10237400106E000E116E000E126E1200108EFF0E03
:102384000F16FF0E1016000E1116148EFF0E1316E4
:10239400FF0E1416000E1516000E1A6E000E1B6E9C
:1023A400000E1C6E000E1D6E7F0E1F5E1E50980FD9
:1023B4001F5E180E1E6ED8901A361B361C361D363C
:1023C40013500F5C1450105815501158D8A007D052
:1023D40013500F5E1450105A1550115A1A80D89089
:1023E4000F36103611361E2EE6D71FAE16D01F50EC
:1023F400800A970FD8B009D0000E0F6E000E106E31
:10240400000E116E000E126E1200D8901D321C3296
:102414001B321A321F3EF9D715D0170E1F640FD086
:10242400000E0F6E000E106E000E116E000E126E76
:102434001200D8901A361B361C361D361F061F5044
:10244400D8A4F7D71AC00FF01BC010F01CC011F0AD
:102454001DC012F01200113412341C6E1C50D8A48A
:1024640009D0000E0F6E000E106E000E116E000EDD
:10247400126E1200153416341B6E1B50D8A409D0EA
:10248400000E0F6E000E106E000E116E000E126E16
:102494001200118EFF0E0F16FF0E1016FF0E1116EE
:1024A400000E1216158EFF0E1316FF0E1416FF0ED5
:1024B4001516000E1616000E176E000E186E000E7E
:1024C400196E000E1A6E7F0E1C5E1B50A00F1C5E50
:1024D400200E1B6ED8901736183619361A3613503C
:1024E4000F5C145010581550115816501258D8A09B
:1024F40009D013500F5E1450105A1550115A16502B
:10250400125A1780D8900F361036113612361B2EF9
:10251400E1D71CAE16D01C50800A9F0FD8B009D04A
:10252400000E0F6E000E106E000E116E000E126E75
:102534001200D8901A321932183217321C3EF9D7C9
:1025440015D01F0E1C640FD0000E0F6E000E106EFF
:10255400000E116E000E126E1200D8901736183647
:1025640019361A361C061C50D8A4F7D717C00FF01A
:1025740018C010F019C011F01AC012F01200000EA9
:102584000F14176E000E1014186E800E1114196EAD
:102594007F0E12141A6E1750181019101A10D8A49E
:1025A40008D0000E0F6E000E106E000E116E000E9D
:1025B400126E000E1314176E000E1414186E800E93
:1025C4001514196E7F0E16141A6E17501810191060
:1025D4001A10D8A408D0000E136E000E146E000E4C
:1025E400156E000E166E12AE1DD00FC017F010C07F
:1025F40018F011C019F012C01AF0171E181E191E77
:102604001A1E172A000E182219221A22000E172445
:102614000F6E000E1820106E000E1920116E800E21
:102624001A20126E16AE1DD013C017F014C018F085
:1026340015C019F016C01AF0171E181E191E1A1EFE
:10264400172A000E182219221A22000E1724136EBC
:10265400000E1820146E000E1920156E800E1A201C
:10266400166E000E0F1A000E101A000E111A800EAC
:10267400121A000E131A000E141A000E151A800EE8
:10268400161A13500F5C1450105815501158165048
:102694001258D8B002D0D8901200D88012001D6E03
:1026A4001D508AEC17F08C908C948C92000E166E50
:1026B400640E156EBCEC16F0000E176E010E186E4B
:1026C400010E196E000ED5EC16F0000E166E640E97
:1026D400156EBCEC16F0000E176E010E186E010E8E
:1026E400196E000ED5EC16F0000E166E0A0E156E5D
:1026F400BCEC16F0000E176E010E186E010E196E6A
:10270400000ED5EC16F0000E176E010E186E000EBA
:10271400196E000ED5EC16F0000E176E010E186E31
:10272400000E196E000ED5EC16F0000E176E000E9A
:10273400186E000E196E010ED5EC16F0000E176E11
:10274400000E186E000E196E000ED5EC16F0000E79
:10275400176E000E186E000E196E010ED5EC16F0F1
:10276400000E176E000E186E000E196E000ED5ECDA
:1027740016F0000E176E000E186E010E196E000E84
:10278400D5EC16F0000E176E000E186E000E196EC2
:10279400000ED5EC16F0010E176E010E186E000E29
:1027A400196E000ED5EC16F02DEC17F0000E1B6E12
:1027B400000E19EC17F01200413442340001656F29
:1027C40000016551D8A409D0000E3F6E000E406E82
:1027D400000E416E000E426E12003FC060F040C019
:1027E40061F041C062F042C063F0200E06D00001E7
:1027F400D8906333623361336033E82EF8D7000135
:1028040060510001646F418EFF0E3F16FF0E4016AB
:10281400FF0E4116000E4216960E0001655F000180
:1028240065AF18D000016551800A970FD8B009D060
:10283400000E3F6E000E406E000E416E000E426EA2
:102844001200D8904232413240323F320001653F9B
:10285400F8D719D01F0E0001656510D0000E3F6E29
:10286400000E406E000E416E000E426E1200D890B3
:102874003F36403641364236000165070001655156
:102884000001D8A4F4D7000164510001D8B408D0E1
:10289400421E411E401E3F6C000E40224122422235
:1028A4003FC03FF040C040F041C041F042C042F060
:1028B40012001B6E4CD0000E176E000E186E000E28
:1028C400196E010ED5EC16F0000E176E000E186E80
:1028D400000E196E000ED5EC16F01200010E176EE4
:1028E400000E186E000E196E010ED5EC16F0000ED7
:1028F400176E000E186E000E196E000ED5EC16F051
:102904001200000E176E000E186E010E196E010EE5
:10291400D5EC16F0010E176E000E186E000E196E2F
:10292400000ED5EC16F01200010E176E000E186E94
:10293400010E196E010ED5EC16F0010E176E000E85
:10294400186E000E196E000ED5EC16F012001B5016
:10295400010AD8B4B0D7030AD8B4C0D7010AD8B48E
:10296400D0D7070AD8A41200DFD70600E9CF03F0B6
:10297400EACF04F0E1CF05F0E2CF06F0D9CF07F0BB
:10298400DACF08F0F3CF09F0F4CF0AF0F6CF0BF06A
:10299400F7CF0CF0F8CF0DF0F5CF0EF0F2940B0E4C
:1029A400D76EDC0ED66E010E4426000E452246225A
:1029B40047224C4A4D2A3C0E4C184D10D8A411D035
:1029C400000E4D6E000E4C6E484A492A3C0E4818C3
:1029D4004910D8A406D0000E496E000E486E4A4A2B
:1029E4004B2A0EC0F5FF0DC0F8FF0CC0F7FF0BC05B
:1029F400F6FF0AC0F4FF09C0F3FF08C0DAFF07C0FE
:102A0400D9FF06C0E2FF05C0E1FF04C0EAFF03C02E
:102A1400E9FF02C0FBFF01C0FAFF51921100000E52
:102A24001A6E18AE06D0176C181ED8B0182A010EEC
:102A34001A6E16AE06D0156C161ED8B0162A010EE4
:102A44001A1A000E1C6E000E1B6E17501810D8B404
:102A54001CD0010E196E04D0D89017361836192AD6
:102A640018AEFAD7D8901B361C361750155C185080
:102A74001658D8A005D01750155E1850165A1B804A
:102A8400D89018321732192EEDD71A50D8B404D072
:102A94001B6C1C1ED8B01C2A1BC015F01CC016F0E1
:102AA4001200000E176E000E186E000E196E000E46
:102AB4001A6E1350141015101610D8B42AD0010E23
:102AC4001B6E06D0D89013361436153616361B2ACC
:102AD40016AEF8D7D8901736183619361A3613505A
:102AE4000F5C145010581550115816501258D8A095
:102AF40009D013500F5E1450105A1550115A165025
:102B0400125A1780D89016321532143213321B2EF3
:102B1400E1D717C00FF018C010F019C011F01AC097
:102B240012F01200000E146E10AE06D00F6C101EC0
:102B3400D8B0102A010E146E12AE04D0116C121EFD
:102B4400D8B0122A11501210D8B418D0010E136E36
:102B540004D0D89011361236132A12AEFAD7115077
:102B64000F5C12501058D8A004D011500F5E1250B0
:102B7400105AD89012321132132EF1D71450D8B4FF
:102B840004D00F6C101ED8B0102A0FC00FF010C064
:102B940010F012001F6E8C801F44010B1B6E1F442B
:102BA400E846030B010B1C6E1F38E842070B010BB0
:102BB4001D6E1F380F0B010B1E6E1CC017F01DC0BD
:102BC40018F01EC019F01B50D5EC16F01F38E8465B
:102BD4001F0B010B1B6E1F40E8423F0B010B1C6EC9
:102BE400D8901F30010B1D6E1F50010B1E6E1CC0B0
:102BF40017F01DC018F01EC019F01B50D5EC16F0CC
:102C04008C901200000E896E9268000E8A6E7F0E00
:102C1400936E000E8B6E000E946E000E8C6E000E82
:102C2400956E100E51EC13F0B30E206E030E216E50
:102C340004EC17F0010E166EF40E156EBCEC16F0D3
:102C4400010E83EC17F0000EC26E0B0EC16EB50EB2
:102C5400C06EC29AC298C296850ED56E0B0ED76E00
:102C6400DC0ED66EF28EF294F28AC28012001350F9
:102C7400141015101610D8B424D0010E176E06D0F7
:102C8400D8901336143615361636172A16AEF8D7DA
:102C940013500F5C145010581550115816501258F8
:102CA400D8A008D013500F5E1450105A1550115A62
:102CB4001650125AD8901632153214321332172E77
:102CC400E7D70FC00FF010C010F011C011F012C000
:102CD40012F0120000EE9FF01C0EEE6AE806FDE111
:102CE40000EE44F00A0EEE6AE806FDE11C0EF66EF4
:102CF4002F0EF76E000EF86E00EEBFF010EE04F02B
:102D04000900F5CFEEFFE550E150FAE1200EF66E32
:102D14002F0EF76E000EF86E0900F5CF50F05190AB
:102D24005192000EF86E00010AEF10F0000E00013F
:102D3400781B000E791B000E7A1B800E7B1B74C05F
:102D440060F075C061F076C062F077C063F078C05F
:102D540064F079C065F07AC066F07BC067F00AEC75
:102D640006F060C074F061C075F062C076F063C0B4
:102D740077F0120050C00FF0106A15C011F016C0A1
:102D840012F040EC17F00FC04EF010C04FF006D018
:102D9400500EE82EFED74E06D8A04F064E504F10C8
:102DA400D8B41200F5D71A6E19B002D08C9601D09F
:102DB4008C8618B002D08C9801D08C8817B002D0C1
:102DC4008C9A01D08C8A1AB002D08C9C01D08C8C45
:102DD40074EC17F012000F50101011101210D8B428
:102DE40008D0000E0F1A000E101A000E111A800ED1
:102DF400121A0FC00FF010C010F011C011F012C061
:102E040012F012000AD020C0F6FF21C0F7FF08001C
:102E1400F550CCEC15F0204A212A20C0F6FF21C041
:102E2400F7FF0800F5500009D8B41200ECD71C6E67
:102E3400000E176E000E186E000E196E000ED5EC03
:102E440016F0010E176E1CC018F01BC019F0010E0D
:102E5400D5EC16F01200000E176E000E186E000E60
:102E6400196E000ED5EC16F0000E176E000E186EDB
:102E7400010E196E000ED5EC16F012000F5011025F
:102E8400F3CF13F0F4CF14F00F501202F3501426C2
:102E940010501102F350142613C00FF014C010F098
:102EA400120009D020C0D9FF21C0DAFFDF50CCECDA
:102EB40015F0204A212A20C0D9FF21C0DAFFDF50B3
:102EC400D8B41200EFD7116E000E106E3A0E1160D6
:102ED40005D02F0E116402D0010E106E10C00FF039
:102EE4000F3012008C84000E166E010E156EBCECB1
:102EF40016F08C94000E166E010E156EBCEC16F0D6
:102F040012000F6E0FB002D08C9E01D08C8E120076
:0D2F14000F6E0FC050F012000105090D10E6
:020000040020DA
:08000000FFFFFFFFFFFFFFFF00
:020000040030CA
:0E000000FF021F1EFF8081FF0FC00FE00F40A8
:00000001FF
