:040000005CEF00F0C1
:0E0008004082FACF01F0FBCF02F086ED19F036
:100018004080D8CF0FF0E8CF10F0E0CF11F0FACF42
:1000280012F0FBCF13F0E9CF14F0EACF15F0E1CFCF
:1000380016F0E2CF17F0D9CF18F0DACF19F0F3CFD6
:100048001AF0F4CF1BF0F6CF1CF0F7CF1DF0F8CF65
:100058001EF0F5CF1FF09EA007D03C0ECF6EB00E5D
:10006800CE6E9E90310ECD6E1FC0F5FF1EC0F8FFFC
:100078001DC0F7FF1CC0F6FF1BC0F4FF1AC0F3FF3A
:1000880019C0DAFF18C0D9FF17C0E2FF16C0E1FF98
:1000980015C0EAFF14C0E9FF13C0FBFF12C0FAFF46
:1000A80011C0E0FF10C0E8FF0FC0D8FF409010005B
:1000B800C3EF1BF0BB0E0001C56F000E0001C66F39
:1000C8007CEF04F0250E0001D919D8B408D0B7C0C8
:1000D800D9FFB8C0DAFFD9C0DFFF79EF04F0000E0E
:1000E8000001C86F000EC76FB9C0F6FFBAC0F7FFAE
:1000F8000800F5502E0AD8A439D00001C88D000197
:10010800B94BBA2B000E0001D46F000ED36F23D069
:10011800D3C060F0D4C061F0000E0001636F0A0E16
:10012800626FD8EC1CF0B9C0F6FFBAC0F7FF080040
:10013800F55000016027000E00016123D00E000178
:1001480060250001D36FFF0E000161210001D46F0B
:100158000001B94BBA2BB9C0F6FFBAC0F7FF0800C7
:10016800F5501DEC1DF0D8A00CD0D2D7000E000120
:10017800D46F000ED36F0001C88903D00001C88571
:1001880013D0B9C0F6FFBAC0F7FF0001B94BBA2BBC
:100198000800F5CFD9F00001D951000AD8B4B7D377
:1001A800660AD8B4EBD7A4D3070E0001C815D8B493
:1001B80047D30001C8A905D0000E0001D46F060E70
:1001C800D36FC5C0D9FFC6C0DAFFDECFD5F0DECF0A
:1001D800D6F0DECFD7F0DECFD8F0040E0001C52769
:1001E800000EC6230001D8AF15D0D5C060F0D6C028
:1001F80061F0D7C062F0D8C063F071EC1CF060C049
:10020800D5F061C0D6F062C0D7F063C0D8F0030E55
:100218000001C713000E0001CE6F000ECD6F000164
:10022800D5510001D6110001D7110001D811D8B459
:100238008ED00001D735D835820F0001CD6F00016F
:10024800CE6BFF0ECE230001CD07D8A0CE07CDC0C0
:1002580060F0CEC061F0000E0001636F030E626FA4
:10026800D8EC1CF060C0CDF061C0CEF0CDC064F019
:10027800CEC065F0000E0001676F0A0E666F6AEC6B
:1002880018F064C0CDF065C0CEF00001CEAF04D048
:100298000001CD07D8A0CE070001CD51000813EC0E
:1002A80007F08EC0CFF08FC0D0F090C0D1F091C0D1
:1002B800D2F0CFC075F0D0C076F0D1C077F0D2C000
:1002C80078F0D5C079F0D6C07AF0D7C07BF0D8C026
:1002D8007CF0D0EC0BF075C0CFF076C0D0F077C0D2
:1002E800D1F078C0D2F0CFC060F0D0C061F0D1C0FA
:1002F80062F0D2C063F0000E0001646F000E656FFB
:10030800800E666F3F0E676F2BEC15F00001D8B0BA
:1003180005D00001CD07D8A0CE0719D0CFC060F016
:10032800D0C061F0D1C062F0D2C063F0000E00010D
:10033800646F000E656F200E666F410E676F2BECC1
:1003480015F00001D8A003D00001CD4BCE2B000141
:10035800D4BF08D00001D45123E10D0E0001D35DB4
:10036800D8B01ED0D5C09BF0D6C09CF0D7C09DF0A9
:10037800D8C09EF00001D35103EC10F08EC09FF05E
:100388008FC0A0F090C0A1F091C0A2F07CEC09F061
:100398009BC0D5F09CC0D6F09DC0D7F09EC0D8F0C9
:1003A8000001CEBF08D00001CE512EE10A0E000197
:1003B800CD5DD8B029D00001D5510001D61100017A
:1003C800D7110001D811D8B46DD0D5C097F0D6C0D8
:1003D80098F0D7C099F0D8C09AF06EEC17F00001E9
:1003E8009751000198110001991100019A11D8A4A0
:1003F80059D00001CEBF56D00001CE5105E1020E02
:100408000001CD5DD8A04ED0CFC060F0D0C061F063
:10041800D1C062F0D2C063F05F0E0001646F700E4D
:10042800656F890E666F400E676F2BEC15F0000143
:10043800D8B003D00001F70E02D00001F80ECD2786
:10044800FF0ECE230001CD5113EC07F08EC0CFF084
:100458008FC0D0F090C0D1F091C0D2F0D5C060F07C
:10046800D6C061F0D7C062F0D8C063F0CFC064F0E6
:10047800D0C065F0D1C066F0D2C067F0F3EC15F0DB
:1004880060C0C9F061C0CAF062C0CBF063C0CCF0F4
:10049800000E0001D56F000ED66F000ED76F000E4C
:1004A800D86F3CD0D5C097F0D6C098F0D7C099F097
:1004B800D8C09AF06EEC17F097C0C9F098C0CAF08F
:1004C80099C0CBF09AC0CCF0D5C0AFF0D6C0B0F090
:1004D800D7C0B1F0D8C0B2F0C9C067F0CAC068F0E0
:1004E800CBC069F0CCC06AF0000E95EC12F067C082
:1004F800B3F068C0B4F069C0B5F06AC0B6F0EFEC0C
:100508001BF0AFC0D5F0B0C0D6F0B1C0D7F0B2C0C4
:10051800D8F0000E0001CE6F000ECD6F010E000165
:10052800D96F0A0E0001D919D8B41ED00001D951CB
:10053800040D4D0EF324F66E3F0EF420F76E0900FD
:10054800F5500001C95D0900F5500001CA590900BC
:10055800F5500001CB590900F5500001CC59D8A03D
:1005680003D00001D92BDDD7030E0001C715000108
:10057800BF6F000E0001C8150001C06F0001BF5118
:100588000001C011D8B455D0B7C0D9FFB8C0DAFF40
:100598002D0E4DD00001B74BB82B4BD0C9C060F021
:1005A800CAC061F0CBC062F0CCC063F00001D95181
:1005B800040D4D0EF324F66E3F0EF420F76E09007D
:1005C800F5CF64F00900F5CF65F00900F5CF66F0C6
:1005D8000A00F5CF67F028EC19F060C0CFF061C0D1
:1005E800D0F062C0D1F063C0D2F0CFC060F0D0C00C
:1005F80061F0D1C062F0D2C063F00A0E0001646FEE
:10060800000E656F000E666F000E676FC8EC1AF07B
:1006180060C0CFF061C0D0F062C0D1F063C0D2F04A
:100628000001CF51300FB7C0D9FFB8C0DAFFDF6E75
:10063800B1D70001D9070001D929D8B40ED0AED757
:10064800B7C0D9FFB8C0DAFF300EDF6E0001B74B74
:10065800B82B0001CD07D8A0CE070001CEBF07D028
:100668000001CE51EDE10001CD05D8B0E9D7000178
:10067800D4BF0CD00001D45105E1090E0001D35DAF
:10068800D8A004D0080E0001D96F02D0D3C0D9F089
:100698000001D9510001D35F000E0001D9BFFF0E40
:1006A8000001D45B0001D9510001D8B409D0B7C00A
:1006B800D9FFB8C0DAFF2E0EDF6E0001B74BB82B9A
:1006C8000001D95113EC07F08EC0C1F08FC0C2F001
:1006D80090C0C3F091C0C4F0D5C079F0D6C07AF00C
:1006E800D7C07BF0D8C07CF0C1C075F0C2C076F02E
:1006F800C3C077F0C4C078F0D0EC0BF075C097F0A9
:1007080076C098F077C099F078C09AF06EEC17F040
:1007180097C0C9F098C0CAF099C0CBF09AC0CCF085
:1007280074D0C9C060F0CAC061F0CBC062F0CCC060
:1007380063F00001D951040D4D0EF324F66E3F0EFF
:10074800F420F76E0900F5CF64F00900F5CF65F0E5
:100758000900F5CF66F00A00F5CF67F028EC19F02C
:1007680060C0CFF061C0D0F062C0D1F063C0D2F0F9
:10077800CFC060F0D0C061F0D1C062F0D2C063F0E9
:100788000A0E0001646F000E656F000E666F000EA2
:10079800676FC8EC1AF060C0CFF061C0D0F062C0DB
:1007A800D1F063C0D2F00001CF51300FB7C0D9FFEC
:1007B800B8C0DAFFDF6E0001B74BB82BC9C060F0D4
:1007C800CAC061F0CBC062F0CCC063F00001D9515F
:1007D800040D4D0EF324F66E3F0EF420F76E09005B
:1007E800F5CF64F00900F5CF65F00900F5CF66F0A4
:1007F8000A00F5CF67F0C8EC1AF060C0C9F061C014
:10080800CAF062C0CBF063C0CCF00001D907000188
:10081800D929D8B40ED085D7B7C0D9FFB8C0DAFF68
:10082800300EDF6E0001B74BB82B0001D307D8A0FC
:10083800D4070001D3510001D411D8B459D0ECD752
:100848000001D3510001D411D8A40DD00001C95121
:100858000001CA110001CB110001CC11D8A403D0AA
:100868000001D34BD42B800E0001D9BF7F0E0001AD
:10087800BF6F0001D3510001D95D0001D451800A36
:100888000001BF59D8B003D0D3C0D9F018D00001A7
:10089800D451800A0001BF6F0001D9510001D35D16
:1008A800800E0001D9BF7F0E0001BF59D8B007D014
:1008B8000001D9510001D36FD46BD3BFD407030E05
:1008C8000001C7150001BF6F000E0001C815000127
:1008D800C06F0001BF510001C011D8B409D0B7C022
:1008E800D9FFB8C0DAFF2D0EDF6E0001B74BB82B69
:1008F800B9C0F6FFBAC0F7FF0001B94BBA2B080020
:10090800F5CFD9F00001D951D8A466EF00F0B7C0EF
:10091800D9FFB8C0DAFF000EDF6E1200100E5CECD3
:100928001DF0000E0001F86F870EF96FC30EFA6F05
:10093800470EFB6F000E00018E6F240E8F6F010EA5
:10094800906F470E916FF8C092F0F9C093F0FAC01B
:1009580094F0FBC095F023EC0EF08EC0F8F08FC039
:10096800F9F090C0FAF091C0FBF012EC1BF0000E09
:100978003E6E6CEC11F03E50D8B417D044D08A8E3D
:10098800010EF4EC17F0970E00016F6F3F0E000197
:10099800706FF1EC1CF0020EE0EC19F0010E000192
:1009A800656FF40E646F54EC1CF028C060F029C029
:1009B80061F02AC062F02BC063F0000E0001646F82
:1009C800000E656F000E666FBF0E676F2BEC15F09B
:1009D8000001D8A0D4D734C060F035C061F036C06B
:1009E80062F037C063F0000E0001646F000E656F9F
:1009F800600E666F410E676F2BEC15F00001D8A0F2
:100A0800BED7010E3E6E3E04D8A43ED0000E0001B3
:100A1800606F000E616F000E626FBF0E636F28C0BB
:100A280064F029C065F02AC066F02BC067F02BEC93
:100A380015F00001D8B026D0330E0001606F330ED8
:100A4800616F630E626F410E636F34C064F035C02E
:100A580065F036C066F037C067F02BEC15F0000182
:100A6800D8B010D0B90E00016F6F3F0E0001706F43
:100A7800F1EC1CF08A9E130E0001656F880E646FFE
:100A880054EC1CF0020E3E6E020E3E18D8B420D074
:100A980037D0010EF4EC17F0750E00016F6F3F0EA2
:100AA8000001706FF1EC1CF0020EF4EC17F0A80EC8
:100AB80000016F6F3F0E0001706FF1EC1CF0020E29
:100AC80007EC1DF0020EE0EC19F0020E07EC1DF029
:100AD800000E0001606F000E616F500E626F410ED4
:100AE800636F34C064F035C065F036C066F037C057
:100AF80067F02BEC15F00001D8A0CBD7030E3E6EA3
:100B0800030E3E18D8A4D8D0000E306E000E316EF9
:100B1800000E326E000E336E000E3D6E000E3C6EFF
:100B2800000E396E000E386E000E3B6E000E3A6EE7
:100B3800850ED56E0B0ED76EDC0ED66E8D80000E30
:100B48000001ED6F000EEC6F9FD0BFEC1CF0ED0EB6
:100B580000016F6F3F0E0001706FF1EC1CF03AC09E
:100B680078F03BC079F0020E00017A6F000E0001A8
:100B78007B6F7CEC13F0E30E00016F6F3F0E0001FA
:100B8800706FF1EC1CF038C078F039C079F0020EC3
:100B980000017A6F000E00017B6F7CEC13F0E30E0E
:100BA80000016F6F3F0E0001706FF1EC1CF03CC04C
:100BB80078F03DC079F0020E00017A6F000E000156
:100BC8007B6F7CEC13F0020EE0EC19F0000E0001D4
:100BD800656F640E646F54EC1CF0E8C001F1E9C065
:100BE80002F1EAC003F1EBC004F10101011F021F89
:100BF800031F041F012B000E02230323042330507C
:100C0800010101250101056F315001010221010196
:100C1800066F3250010103210101076F33500101B2
:100C280004210101086F01010851010107110101A7
:100C3800061105E13B0E0101055DD8A025D030C0A5
:100C4800E8F031C0E9F032C0EAF033C0EBF000015F
:100C5800EC4BED2B28C09BF029C09CF02AC09DF0DE
:100C68002BC09EF02CC09FF02DC0A0F02EC0A1F08C
:100C78002FC0A2F07CEC09F09BC02CF09CC02DF09A
:100C88009DC02EF09EC02FF0000E0001606F000E78
:100C9800616F200E626F410E636F34C064F035C01F
:100CA80065F036C066F037C067F02BEC15F0000130
:100CB800D8A04BD7040E3E6E040E3E18D8A459D6C1
:100CC8002CC08EF02DC08FF02EC090F02FC091F068
:100CD800ECC067F0EDC068F00001696B6A6B000E4C
:100CE80095EC12F067C092F068C093F069C094F078
:100CF8006AC095F023EC0EF08EC0E4F08FC0E5F0EA
:100D080090C0E6F091C0E7F0000E0001636F3C0E62
:100D1800626F38C060F039C061F059EC1BF060C0F8
:100D280001F161C002F10E0E0001636F100E626FD7
:100D38003CC060F03DC061F059EC1BF0000160510F
:100D48000101012700016151010102233A5001010B
:100D580001273B500101022301C167F002C168F07D
:100D68000001696B6A6B000E95EC12F067C075F0B4
:100D780068C076F069C077F06AC078F0E4C079F0AE
:100D8800E5C07AF0E6C07BF0E7C07CF0D0EC0BF071
:100D980075C0E0F076C0E1F077C0E2F078C0E3F02B
:100DA800BFEC1CF0860E00016F6F3F0E0001706FE4
:100DB800F1EC1CF0020EF4EC17F0DA0E00016F6F84
:100DC8003F0E0001706FF1EC1CF0EE0E0001B76FE2
:100DD800000E0001B86FE80E0001B96F3F0E000168
:100DE800BA6FE0C0BBF0E1C0BCF0E2C0BDF0E3C048
:100DF800BEF05EEC00F0000E0001F36FEE0E000195
:100E08006F6F000E0001706F31EC1DF0FB0E0001DA
:100E18006F6F3F0E0001706FF1EC1CF0FFD70001FF
:100E2800966F000196AF33D10001966D000196517F
:100E3800800A120FD8A0B2D0000E0001676F0A0E08
:100E4800666F000E0001636F640E626F00019651B9
:100E58000001606F616B60BF61077EEC1AF060C0D3
:100E680064F061C065F06AEC18F00001D89064374E
:100E780065370001D89064376537240E0001642770
:100E8800000E00016523E50E00016425F66E3E0E96
:100E980000016521F76E0900F5CF79F00900F5CF5B
:100EA8007AF00900F5CF7BF00A00F5CF7CF0000E50
:100EB8000001676F640E666F000196510001646F50
:100EC800656B64BF65076AEC18F00001D890643759
:100ED80065370001D89064376537480E00016427EC
:100EE800000E00016523E50E00016425F66E3E0E36
:100EF80000016521F76E0900F5CF75F00900F5CFFF
:100F080076F00900F5CF77F00A00F5CF78F0D0EC4D
:100F18000BF075C092F076C093F077C094F078C06B
:100F280095F092C075F093C076F094C077F095C0B4
:100F380078F0000E0001636F0A0E626F000196518F
:100F48000001606F616B60BF61077EEC1AF0000101
:100F5800D890603761370001D89060376137E50E67
:100F680000016025F66E3E0E00016121F76E090052
:100F7800F5CF79F00900F5CF7AF00900F5CF7BF0CD
:100F88000A00F5CF7CF0D0EC0BF075C08EF076C07F
:100F98008FF077C090F078C091F012000001965160
:100FA800800A750FD8A05DD0000E0001676F0A0E89
:100FB800666F000196510001646F656B64BF650739
:100FC8006AEC18F00001D890643765370001D890B2
:100FD80064376537240E00016427000E000165237D
:100FE800E50E00016425F66E3E0E00016521F76EE0
:100FF8000900F5CF75F00900F5CF76F00900F5CFB7
:1010080077F00A00F5CF78F0000E0001636F0A0E42
:10101800626F000196510001606F616B60BF6107EC
:101028007EEC1AF00001D890603761370001D89043
:1010380060376137E50E00016025F66E3E0E00014F
:101048006121F76E0900F5CF79F00900F5CF7AF044
:101058000900F5CF7BF00A00F5CF7CF0D0EC0BF05F
:1010680094D700019651040DE50EF324F66E3E0E5A
:10107800F420F76E0900F5CF8EF00900F5CF8FF058
:101088000900F5CF90F00A00F5CF91F012000001A9
:101098009651800A120FD8A0B2D0000E0001676FD7
:1010A8000A0E666F000E0001636F640E626F000126
:1010B80096510001606F616B60BF61077EEC1AF0AA
:1010C80060C064F061C065F06AEC18F00001D89067
:1010D800643765370001D89064376537240E0001FE
:1010E8006427000E00016523190E00016425F66EC1
:1010F8003F0E00016521F76E0900F5CF79F0090070
:10110800F5CF7AF00900F5CF7BF00A00F5CF7CF037
:10111800000E0001676F640E666F000196510001B2
:10112800646F656B64BF65076AEC18F00001D890BE
:10113800643765370001D89064376537480E000179
:101148006427000E00016523190E00016425F66E60
:101158003F0E00016521F76E0900F5CF75F0090013
:10116800F5CF76F00900F5CF77F00A00F5CF78F0E3
:10117800D0EC0BF075C092F076C093F077C094F085
:1011880078C095F092C075F093C076F094C077F06F
:1011980095C078F0000E0001636F0A0E626F0001BF
:1011A80096510001606F616B60BF61077EEC1AF0B9
:1011B8000001D890603761370001D89060376137F7
:1011C800190E00016025F66E3F0E00016121F76ED1
:1011D8000900F5CF79F00900F5CF7AF00900F5CFCD
:1011E8007BF00A00F5CF7CF0D0EC0BF075C08EF0E8
:1011F80076C08FF077C090F078C091F012000001AF
:101208009651800A750FD8A05DD0000E0001676F57
:101218000A0E666F000196510001646F656B64BF2A
:1012280065076AEC18F00001D8906437653700014B
:10123800D89064376537240E00016427000E00013A
:101248006523190E00016425F66E3F0E0001652125
:10125800F76E0900F5CF75F00900F5CF76F00900B3
:10126800F5CF77F00A00F5CF78F0000E0001636F34
:101278000A0E626F000196510001606F616B60BFDA
:1012880061077EEC1AF00001D890603761370001E1
:10129800D89060376137190E00016025F66E3F0E51
:1012A80000016121F76E0900F5CF79F00900F5CF4B
:1012B8007AF00900F5CF7BF00A00F5CF7CF0D0EC8E
:1012C8000BF094D700019651040D190EF324F66E15
:1012D8003F0EF420F76E0900F5CF8EF00900F5CF28
:1012E8008FF00900F5CF90F00A00F5CF91F01200C9
:1012F80000019E51800B0001AB6F00019E519E259D
:101308000001AD6F00019DAF02D00001AD81000169
:10131800AD510001D8B412D00001AD29D8A409D02C
:10132800000E00019B6F000E9C6F000E9D6F000E5B
:101338009E6F00019D8F000E000108D0000E000175
:101348009B6F000E9C6F000E9D6F000E9E6F00013C
:10135800A251800B0001AC6F0001AB510001AC1928
:10136800D8B402D00001AB8D0001A251A225000122
:10137800AC6F0001A1AF02D00001AC810001AC51FB
:101388000001D8B412D00001AC29D8A409D0000EAD
:1013980000019F6F000EA06F000EA16F000EA26FDC
:1013A8000001A18F000E000108D0000E00019F6F00
:1013B800000EA06F000EA16F000EA26F0001AD51CC
:1013C8000001AC5DD8B024D00001ABAD03D0800ED5
:1013D8000001AB1BADC0AEF0ACC0ADF0AEC0ACF020
:1013E8009BC0AEF09FC09BF0AEC09FF09CC0AEF01B
:1013F800A0C09CF0AEC0A0F09DC0AEF0A1C09DF012
:10140800AEC0A1F09EC0AEF0A2C09EF0AEC0A2F0E9
:10141800000E0001AE6F0001AD510001A36FA46B77
:101428000001A31FA41FA34BA42B0001AC51000172
:10143800A56FA66B0001A3510001A5270001A451C7
:101448000001A6230001A6BF3DD00001A65105E179
:101458001A0E0001A55DD8A035D000019B510001EE
:101468009C1100019D1100019E11D8B402D0010EFB
:1014780001D0000E0001AE6F000E00019B6F000E40
:101488009C6F000E9D6F000E9E6FACC0ADF020D01B
:101498000001AEA107D00001D890AE3101090001CA
:1014A800AE6F03D00001D890AE3300019BA102D0EB
:1014B8000001AE8F00019E359E339D339C339B33D4
:1014C8000001AD2B0001AC510001AD5DD8A0E0D703
:1014D8000001ABBD3FD00001AD510001D8A40AD036
:1014E800000E00019B6F000E9C6F000E9D6F000E9A
:1014F8009E6F120000019F5100019B270001A0511F
:1015080000019C230001A15100019D230001A2516B
:1015180000019E2300019EA1CCD00001AEA109D0FC
:101528000001D890AE330001AE5101090001AE6F41
:1015380003D00001D890AE3300019BA102D0000176
:10154800AE8F00019E359E339D339C339B33000143
:10155800AD2BAFD000019F5100019B5D0001A05150
:1015680000019C590001A15100019D5900019E51A3
:10157800800A0001A36F0001A251800A0001A3594B
:10158800D8B050D09BC0A3F09CC0A4F09DC0A5F0DB
:101598009EC0A6F00001A31FA41FA51FA61FA32B72
:1015A800000EA423A523A62300019F510001A32513
:1015B8000001A76F0001A0510001A4210001A86F3C
:1015C8000001A1510001A5210001A96F0001A2514C
:1015D8000001A6210001AA6FFF0E0001A725000146
:1015E8009B6FFF0E0001A82100019C6FFF0E0001F8
:1015F800A92100019D6FFF0E0001AA2100019E6F25
:10160800800E0001AB1B0001AE6D0001AE51000160
:10161800D8A418D0010E00019B27000E9C239D23FF
:101628009E2310D000019F5100019B5F0001A05133
:1016380000019C5B0001A15100019D5B0001A251CA
:1016480000019E5B00019B5100019C1100019D114E
:1016580000019E11D8A42AD00001AE510001D8A4DF
:1016680025D0000E00019B6F000E9C6F000E9D6F31
:10167800000E9E6F12000001D8909B379C379D3753
:101688009E370001AEAF02D000019B810001AEA1E0
:1016980003D0D880000102D00001D890AE370001F5
:1016A800AD510001D8B402D00001AD0700019DAFD3
:1016B800E2D7000E0001AC6F0001AEAF0DD0AEC096
:1016C800A3F07F0E0001A317D8A403D000019BA1AB
:1016D80003D0010E0001AC6F0001AC510001D8B479
:1016E80026D0010E00019B27000E9C239D239E23DC
:1016F80000019EA11CD09BC0A3F09CC0A4F09DC07B
:10170800A5F09EC0A6F00001A635A633A533A433E4
:10171800A333A3C09BF0A4C09CF0A5C09DF0A6C0B5
:101728009EF00001AD29D8B402D00001AD2B000114
:10173800AD29D8B405D00001AD510001D8A411D00D
:10174800000E00019B6F000E9C6F000E9D6F000E37
:101758009E6F0001AD510001D8A403D0000E000116
:10176800AB6F0001ADA103D000019D8F02D0000135
:101778009D9F0001D890AD3100019E6F0001ABAF75
:1017880002D000019E8F9BC09BF09CC09CF09DC026
:101798009DF09EC09EF0120000017851800B000160
:1017A800816F0001785178250001876F000177AFBC
:1017B80002D000018781000187510001D8B410D000
:1017C80000018729D8A409D0000E0001756F000E0A
:1017D800766F000E776F000E786F0001778F09D053
:1017E800000E0001756F000E766F000E776F000E09
:1017F800786F00017C51800B0001811B00017C5136
:101808007C250001826F00017BAF02D0000182813C
:10181800000182510001D8B410D000018229D8A457
:1018280009D0000E0001796F000E7A6F000E7B6FF1
:10183800000E7C6F00017B8F09D0000E0001796FCC
:10184800000E7A6F000E7B6F000E7C6F00018251D4
:101858000001D8B405D0000187510001D8A40AD0EE
:10186800000E0001756F000E766F000E776F000E88
:10187800786F120000017B5100017503F3CF8CF0E3
:10188800F4CF8DF000018C510001836F846B856B60
:10189800866B00018D510001886F896B8A6B8B6B99
:1018A80000017A5100017603F3CF8CF0F4CF8DF06C
:1018B80000018C5100018327000E84238523862391
:1018C80000018D5100018827000E89238A238B236C
:1018D8000001795100017703F3CF8CF0F4CF8DF03C
:1018E80000018C5100018327000E84238523862361
:1018F80000018D5100018827000E89238A238B233C
:1019080085C086F084C085F083C084F00001836BB5
:101918000001795100017603F3CF8CF0F4CF8DF0FC
:1019280000018C510001832700018D51000184239F
:10193800000E00018523000E0001862300017A5164
:1019480000017503F3CF8CF0F4CF8DF000018C51BA
:101958000001832700018D5100018423000E00013E
:101968008523000E0001862385C086F084C085F09B
:1019780083C084F00001836B000179510001750375
:10198800F3CF8CF0F4CF8DF000018C510001832748
:1019980000018D5100018423000E00018523000EF3
:1019A8000001862300017B5100017603F3CF8CF000
:1019B800F4CF8DF000018C510001882700018D5172
:1019C80000018923000E00018A23000E00018B23E9
:1019D80000017A5100017703F3CF8CF0F4CF8DF03A
:1019E80000018C510001882700018D5100018923D5
:1019F800000E00018A23000E00018B2300017B5199
:101A080000017703F3CF8CF0F4CF8DF000018C51F7
:101A180000017D6F00018D5100017E6F00017F6B19
:101A28000001806B7FC080F07EC07FF07DC07EF0BB
:101A380000017D6B00017D510001882700017E5166
:101A48000001892300017F5100018A230001805190
:101A580000018B2383C07DF084C07EF085C07FF0B9
:101A680086C080F0190E06D00001D89080337F33ED
:101A78007E337D33E82EF8D700017D510001882799
:101A880000017E510001892300017F5100018A2352
:101A98000001805100018B2385C086F084C085F049
:101AA80083C084F00001836B0001825187C07DF000
:101AB80000017E6B00017D27000E7E23820E00014F
:101AC8007D2500018C6FFF0E00017E2100018D6FC6
:101AD80015D00001D890883789378A378B370001AD
:101AE80086AF02D0000188810001D89083378437FF
:101AF8008537863700018C07D8A08D0700018AAF8B
:101B0800E8D7000E0001826F000186AF24D0FF0ED7
:101B18000001831500017D6FFF0E0001841500018F
:101B28007E6FFF0E0001851500017F6F7F0E00019B
:101B380086150001806F00017D5100017E110001B2
:101B48007F1100018011D8A403D0000188A103D01F
:101B5800010E0001826F000182510001D8B423D028
:101B6800010E00018827000E89238A238B23000198
:101B78008BA119D088C07DF089C07EF08AC07FF023
:101B88008BC080F00001803580337F337E337D3316
:101B98007DC088F07EC089F07FC08AF080C08BF05D
:101BA80000018C4B8D2B00018DBF10D000018D5191
:101BB80004E100018C29D8A009D0000E0001886F2B
:101BC800000E896F800E8A6F7F0E2BD000018DBFAB
:101BD80007D000018D5111E100018C05D8B00DD05E
:101BE800000E0001886F000E896F000E8A6F000ECC
:101BF8008B6F000E0001816F15D08CC087F0FF0E2F
:101C080000018817FF0E89177F0E8A17000E8B17A1
:101C1800000187A102D000018A8F0001D890873186
:101C280000018B6F0001815100018B1388C075F092
:101C380089C076F08AC077F08BC078F01200000176
:101C48009151800B00019A6F00019151912500017B
:101C5800A56F000190AF02D00001A5810001A55138
:101C68000001D8B412D00001A529D8A409D0000ECB
:101C780000018E6F000E8F6F000E906F000E916F37
:101C88000001908F000E000108D0000E00018E6F39
:101C9800000E8F6F000E906F000E916F000195512E
:101CA800800B00019A1B0001955195250001A66F34
:101CB800000194AF02D00001A6810001A6510001E5
:101CC800D8B412D00001A629D8A409D0000E00016A
:101CD800926F000E936F000E946F000E956F0001C7
:101CE800948F000E000108D0000E0001926F000EC4
:101CF800936F000E946F000E956F000192510001D2
:101D080093110001941100019511D8A417D0000E69
:101D180000018E6F000E8F6F000E906F000E916F96
:101D28000001800E90137F0E91138EC08EF08FC02D
:101D38008FF090C090F091C091F012000001A55171
:101D48000001D8A412D0000E00018E6F000E8F6F14
:101D5800000E906F000E916F8EC08EF08FC08FF0C6
:101D680090C090F091C091F012000001A6510001BE
:101D7800966F976B0001961F971F964B972B000144
:101D8800A5510001986F996B0001965100019827A1
:101D980000019751000199237F0E00019825000149
:101DA8009F6F000E000199210001A06F8EC09BF06B
:101DB8008FC09CF090C09DF091C09EF0000E000175
:101DC8008E6F000E8F6F000E906F000E916F000ED9
:101DD8000001A16F000EA26F000EA36F000EA46F8A
:101DE800000E0001A66F42D00001A6510001D8B430
:101DF80017D00001D8909B379C379D379E3700013C
:101E0800D8908E378F37903791370001A4AF02D022
:101E180000018E810001D890A137A237A337A437DB
:101E28000001925100019B5D0001935100019C59F2
:101E38000001945100019D590001955100019E59DE
:101E4800D8A012D00001A48D0001925100019B5F1F
:101E58000001935100019C5B0001945100019D5BBE
:101E68000001955100019E5B0001A62B190E00018F
:101E7800A665BAD700019B5100019C1100019D1174
:101E880000019E11D8B418D00001A18115D000011D
:101E9800D8908E378F37903791370001A4AF02D092
:101EA80000018E810001D890A137A237A337A4374B
:101EB80000019F07D8A0A007000190AFE8D7000E47
:101EC8000001A66F0001A4AF24D0FF0E0001A115E8
:101ED8000001966FFF0E0001A2150001976FFF0E1B
:101EE8000001A3150001986F7F0E0001A4150001E1
:101EF800996F000196510001971100019811000196
:101F08009911D8A403D000018EA103D0010E0001BD
:101F1800A66F0001A6510001D8B423D0010E00011C
:101F28008E27000E8F2390239123000191A119D0B1
:101F38008EC096F08FC097F090C098F091C099F03D
:101F480000019935993398339733963396C08EF0BC
:101F580097C08FF098C090F099C091F000019F4B06
:101F6800A02B0001A0BF14D00001A05104E1000182
:101F78009F29D8A00DD0000E0001A06F9F69000E08
:101F880000018E6F000E8F6F000E906F000E916F24
:101F98000001A0BF07D00001A05115E100019F0575
:101FA800D8B011D0000E0001A06F000E9F6F000E78
:101FB80000018E6F000E8F6F000E906F000E916FF4
:101FC800000E00019A6F9FC0A5F00001A5A103D0E3
:101FD8000001908F02D00001909F0001D890A53198
:101FE8000001916F00019A51000191138EC08EF08B
:101FF8008FC08FF090C090F091C091F01200000156
:102008009A6F6D0E00019A65C4D0000E0001676FCB
:102018000A0E666F000E0001636F640E626F9AC04D
:1020280060F00001616B7EEC1AF060C064F061C082
:1020380065F06AEC18F00001D89064376537000144
:10204800D89064376537240E00016427000E00011C
:102058006523E50E00016425F66E3E0E000165213C
:10206800F76E0900F5CF79F00900F5CF7AF009008D
:10207800F5CF7BF00A00F5CF7CF0000E0001676F0A
:10208800640E666F9AC064F00001656B6AEC18F024
:102098000001D890643765370001D89064376537F8
:1020A800480E00016427000E00016523E50E0001BB
:1020B8006425F66E3E0E00016521F76E0900F5CF26
:1020C80075F00900F5CF76F00900F5CF77F00A0032
:1020D800F5CF78F0D0EC0BF075C096F076C097F09D
:1020E80077C098F078C099F0000E0001636F0A0E6F
:1020F800626F9AC060F00001616B7EEC1AF000011B
:10210800D890603761370001D89060376137E50EA5
:1021180000016025F66E3E0E00016121F76E090090
:10212800F5CF79F00900F5CF7AF00900F5CF7BF00B
:102138000A00F5CF7CF096C075F097C076F098C08D
:1021480077F099C078F0D0EC0BF075C092F076C0BB
:1021580093F077C094F078C095F092C075F093C072
:1021680076F094C077F095C078F0000E0001796F92
:10217800000E7A6F000E7B6F3F0E7C6FD0EC0BF079
:1021880075C08EF076C08FF077C090F078C091F06F
:1021980012000A0E00019A6572D0000E0001636FEA
:1021A8000A0E626F9AC060F00001616B7EEC1AF053
:1021B8000001D890603761370001D89060376137E7
:1021C800E50E00016025F66E3E0E00016121F76EF6
:1021D8000900F5CF79F00900F5CF7AF00900F5CFBD
:1021E8007BF00A00F5CF7CF0000E0001676F0A0E45
:1021F800666F9AC064F00001656B6AEC18F0000124
:10220800D890643765370001D89064376537240E55
:1022180000016427000E00016523E50E0001642516
:10222800F66E3E0E00016521F76E0900F5CF75F0D8
:102238000900F5CF76F00900F5CF77F00A00F5CF61
:1022480078F0D0EC0BF075C096F076C097F077C0B8
:1022580098F078C099F096C075F097C076F098C05D
:1022680077F099C078F0000E0001796F000E7A6F50
:10227800000E7B6F3F0E7C6FD0EC0BF081D7000116
:102288009A51040DE50EF324F66E3E0EF420F76E17
:102298000900F5CF75F00900F5CF76F00900F5CF04
:1022A80077F00A00F5CF78F0000E0001796F000E84
:1022B8007A6F000E7B6F3F0E7C6FD0EC0BF075C011
:1022C8008EF076C08FF077C090F078C091F0120051
:1022D800000E0001A96F030E0001A96501D04CD0C2
:1022E8000001A951010DFC0EF324D96E000EF42053
:1022F800DA6EDF50C26EC282C2B2FED7C45000018D
:10230800A76FA86B0001A951020D220EF324D96E04
:10231800000EF420DA6EA7C0DEFFA8C0DDFF0001C2
:10232800A951020D220EF324D96E000EF420DA6EA4
:10233800DECFA7F0DDCFA8F0A7C0A8F00001A76BFB
:10234800C3500001A713000EA8130001A951020DE4
:10235800220EF324D96E000EF420DA6EA7C0DEFF39
:10236800A8C0DDFF000E0001656F050E646F54EC18
:102378001CF00001A92BAFD720EE24F0DECFA7F088
:10238800DDCFA8F00001A71FA81FA74BA82B265038
:102398000001A72727500001A823A7C067F0A8C0FD
:1023A80068F00001000E68BFFF0E696F6A6F010ECA
:1023B80095EC12F067C028F068C029F069C02AF0CF
:1023C8006AC02BF028C075F029C076F02AC077F0D3
:1023D8002BC078F0000E0001796F000E7A6FA00E06
:1023E8007B6F400E7C6FD0EC0BF075C028F076C088
:1023F80029F077C02AF078C02BF028C08EF029C0C9
:102408008FF02AC090F02BC091F0000E0001926F5F
:10241800000E936F800E946F440E956F23EC0EF0B0
:102428008EC028F08FC029F090C02AF091C02BF000
:1024380028C08EF029C08FF02AC090F02BC091F0F0
:10244800CD0E0001926FCC0E936F4C0E946F3E0E22
:10245800956F23EC0EF08EC028F08FC029F090C045
:102468002AF091C02BF022C067F023C068F0000169
:10247800000E68BFFF0E696F6A6F010E95EC12F0CF
:1024880067C034F068C035F069C036F06AC037F00C
:10249800000E0001796F000E7A6FA00E7B6F400E60
:1024A8007C6F34C075F035C076F036C077F037C031
:1024B80078F0D0EC0BF075C08EF076C08FF077C056
:1024C80090F078C091F0000E0001926F000E936FAB
:1024D800800E946F440E956F23EC0EF08EC034F08E
:1024E8008FC035F090C036F091C037F034C08EF010
:1024F80035C08FF036C090F037C091F0F8C092F038
:10250800F9C093F0FAC094F0FBC095F023EC0EF0FC
:102518008EC034F08FC035F090C036F091C037F0DF
:10252800120000016F6F00016F510001D8B41ED076
:1025380000016AAF1BD067C06BF068C06CF069C05F
:102548006DF06AC06EF000016B1F6C1F6D1F6E1F6F
:102558006B2B000E6C236D236E236BC071F06CC067
:1025680072F06DC073F06EC074F008D067C071F07F
:1025780068C072F069C073F06AC074F000016751F6
:10258800000168110001691100016A11D8A40AD07C
:10259800000E0001676F000E686F000E696F000E75
:1025A8006A6F1200960E0001706F08D00001702B40
:1025B8000001D8907433733372337133000E000105
:1025C800711500016B6F000E0001721500016C6F30
:1025D800000E0001731500016D6FFE0E00017415E9
:1025E80000016E6F00016B5100016C1100016D114B
:1025F80000016E11D8B410D0D9D70001702B010E8C
:1026080000017127000E7223732374230001D890F0
:102618007433733372337133000E00017115000186
:102628006B6F000E0001721500016C6F000E000147
:10263800731500016D6FFF0E0001741500016E6FB8
:1026480000016B5100016C1100016D1100016E1148
:10265800D8B409D0D2D7000170070001D8907137DB
:10266800723773377437000173BF04D0020E00014C
:102678007061F1D7000170B109D0FF0E0001711728
:10268800FF0E72177F0E7317FF0E74170001D89094
:10269800703370C06BF000016C6B6D6B6E6B6BC050
:1026A8006EF000016D6B6C6B6B6B00016B51000180
:1026B800711300016C510001721300016D5100018A
:1026C800731300016E510001741300016F51000172
:1026D800D8B405D000016AAF02D00001748F71C070
:1026E80067F072C068F073C069F074C06AF01200D5
:1026F80020EEDAF010EE81F0050EDBCFE3FFE806FE
:10270800FCE2810E0001706F000E0001716F78C04D
:1027180072F079C073F0000E0001756F0A0E746FC5
:1027280013EC1CF000017A510001D8B4B8D00001B4
:102738007A51010D810EF324D96E000EF420DA6E61
:10274800000EDF6E70D000017A050001876F00016E
:1027580087510001D8B467D0FF0E00017C6FFF0ECF
:1027680000017D6F0001875100017E6F7F6B0001C2
:102778007C5100017E2700017D5100017F23810EDD
:1027880000017E25D96E000E00017F21DA6E00015E
:102798008751010D810EF324E16E000EF420E26EE4
:1027A800DFCFE7FF00017B05D8A41DD0FF0E000195
:1027B8007C6FFF0E00017D6F0001875100017E6F65
:1027C8007F6B00017C5100017E2700017D510001D3
:1027D8007F23810E00017E25D96E000E00017F2126
:1027E800DA6E200E1CD0FF0E00017C6FFF0E000178
:1027F8007D6F0001875100017E6F7F6B00017C5166
:1028080000017E2700017D5100017F23810E000118
:102818007E25D96E000E00017F21DA6E300EDF6E44
:102828000001870794D7FF0E00017C6FFF0E00019F
:102838007D6F00017A5100017E6F7F6B00017C5132
:1028480000017E2700017D5100017F23810E0001D8
:102858007E25D96E000E00017F21DA6E3A0EDF6008
:1028680072D7FF0E00017C6FFF0E00017D6F000123
:102878007A5100017E6F7F6B00017C5100017E2739
:1028880000017D5100017F23810E00017E25D96E54
:10289800000E00017F21DA6E2F0EDF6454D7810EFF
:1028A80000016F6F000E0001706F31EC1DF0120017
:1028B80062C068F00001696B6A6B00016135000154
:1028C800683701E36981000168510001706F0001F8
:1028D8007051D8A40AD0000E0001606F000E616F1D
:1028E800000E626F000E636F120066C068F0000190
:1028F800696B6A6B000165350001683701E369811E
:102908000001685100016F6F00016F51D8A40AD00F
:10291800000E0001606F000E616F000E626F000E06
:10292800636F12000001618FFF0E00016017FF0E38
:1029380000016117000E000162170001658FFF0E8C
:1029480000016417FF0E00016517000E00016617ED
:10295800000E00016B6F000E6C6F000E6D6F000EA5
:102968006E6F7F0E0001705F00016F51980F0001BC
:10297800705F180E00016F6F0001D8906B376C37CD
:102988006D376E37000164510001605D00016551CB
:10299800000161590001665100016259D8A00ED0AA
:1029A800000164510001605F000165510001615B35
:1029B800000166510001625B00016B810001D89043
:1029C80060376137623700016F2FD6D7000170AFCB
:1029D8001AD000017051800A970FD8B00AD0000EA3
:1029E8000001606F000E616F000E626F000E636F72
:1029F80012000001D8906E336D336C336B330001D5
:102A0800703FF7D71BD0170E0001706512D0000E6B
:102A18000001606F000E616F000E626F000E636F41
:102A280012000001D8906B376C376D376E37000194
:102A38007007000170510001D8A4F3D76BC060F093
:102A48006CC061F06DC062F06EC063F01200000EE1
:102A5800000160150001686F000E0001611500019A
:102A6800696F800E0001621500016A6F7F0E000118
:102A7800631500016B6F00016851000169110001C5
:102A88006A1100016B11D8A409D0000E0001606F13
:102A9800000E616F000E626F000E636F000E000182
:102AA80064150001686F000E000165150001696F6B
:102AB800800E0001661500016A6F7F0E0001671520
:102AC80000016B6F000168510001691100016A1172
:102AD80000016B11D8A409D0000E0001646F000E2C
:102AE800656F000E666F000E676F000163AF26D03A
:102AF80060C068F061C069F062C06AF063C06BF0E2
:102B08000001681F691F6A1F6B1F682B000E69236D
:102B18006A236B23000E000168250001606F000E18
:102B2800000169210001616F000E00016A210001A6
:102B3800626F800E00016B210001636F000167AFB7
:102B480026D064C068F065C069F066C06AF067C0E6
:102B58006BF00001681F691F6A1F6B1F682B000E4E
:102B680069236A236B23000E000168250001646F46
:102B7800000E000169210001656F000E00016A2145
:102B88000001666F800E00016B210001676F000E67
:102B98000001601B000E611B000E621B800E631B90
:102BA800000E0001641B000E651B000E661B800EE4
:102BB800671B000164510001605D0001655100015F
:102BC8006159000166510001625900016751000115
:102BD8006359D8B002D0D8901200D88012000001F2
:102BE8006235633500016D6F00016D51D8A40AD0BC
:102BF800000E0001606F000E616F000E626F000E24
:102C0800636F120000016635673500016C6F0001C3
:102C18006C51D8A40AD0000E0001606F000E616FDD
:102C2800000E626F000E636F12000001628FFF0ECC
:102C380000016017FF0E6117FF0E6217000E631781
:102C48000001668FFF0E00016417FF0E6517FF0E67
:102C58006617000E6717000E0001686F000E696F97
:102C6800000E6A6F000E6B6F7F0E00016D5F000132
:102C78006C51A00F00016D5F200E00016C6F000108
:102C8800D890683769376A376B370001645100019B
:102C9800605D000165510001615900016651000144
:102CA80062590001675100016359D8A012D0000190
:102CB80064510001605F000165510001615B000122
:102CC80066510001625B000167510001635B00010E
:102CD80068810001D8906037613762376337000137
:102CE8006C2FCDD700016DAF1AD000016D51800A4D
:102CF8009F0FD8B00AD0000E0001606F000E616F00
:102D0800000E626F000E636F12000001D8906B33E3
:102D18006A336933683300016D3FF7D71BD01F0E44
:102D280000016D6512D0000E0001606F000E616F2A
:102D3800000E626F000E636F12000001D8906837B2
:102D480069376A376B3700016D0700016D51000163
:102D5800D8A4F3D768C060F069C061F06AC062F0B7
:102D68006BC063F0120000016C6F00016C515CECE9
:102D78001DF08C908C948C92000E0001656F640E8F
:102D8800646F54EC1CF0000E0001666F010E000128
:102D9800676F010E0001686F000E37EC1CF0000E23
:102DA8000001656F640E646F54EC1CF0000E0001A6
:102DB800666F010E0001676F010E0001686F000E5B
:102DC80037EC1CF0000E0001656F0A0E646F54ECBE
:102DD8001CF0000E0001666F010E0001676F010E06
:102DE8000001686F000E37EC1CF0000E0001666FE2
:102DF800010E0001676F000E0001686F000E37ECCE
:102E08001CF0000E0001666F010E0001676F000ED6
:102E18000001686F000E37EC1CF0000E0001666FB1
:102E2800000E0001676F000E0001686F010E37EC9D
:102E38001CF0000E0001666F000E0001676F000EA7
:102E48000001686F000E37EC1CF0000E0001666F81
:102E5800000E0001676F000E0001686F010E37EC6D
:102E68001CF0000E0001666F000E0001676F000E77
:102E78000001686F000E37EC1CF0000E0001666F51
:102E8800000E0001676F010E0001686F000E37EC3D
:102E98001CF0000E0001666F000E0001676F000E47
:102EA8000001686F000E37EC1CF0010E0001666F20
:102EB800010E0001676F000E0001686F000E37EC0D
:102EC8001CF0A6EC1CF0000E00016A6F000E8DECE1
:102ED8001CF01200000199359A350001A06F00011D
:102EE800A051D8A40AD0000E0001976F000E986F69
:102EF800000E996F000E9A6F120097C09BF098C051
:102F08009CF099C09DF09AC09EF0200E06D000015A
:102F1800D8909E339D339C339B33E82EF8D700011D
:102F28009B5100019F6F0001998FFF0E00019717B9
:102F3800FF0E9817FF0E9917000E9A17960E0001AC
:102F4800A05F0001A0AF1AD00001A051800A970F1E
:102F5800D8B00AD0000E0001976F000E986F000ECF
:102F6800996F000E9A6F12000001D8909A33993326
:102F7800983397330001A03FF7D71BD01F0E0001ED
:102F8800A06512D0000E0001976F000E986F000E1A
:102F9800996F000E9A6F12000001D89097379837F2
:102FA80099379A370001A0070001A0510001D8A461
:102FB800F3D700019F510001D8B409D000019A1F2E
:102FC800991F981F976D000E982399239A2397C0ED
:102FD80097F098C098F099C099F09AC09AF01200AA
:102FE80000016A6F64D0000E0001666F000E0001D8
:102FF800676F000E0001686F010E37EC1CF0000EC1
:103008000001666F000E0001676F000E0001686F17
:10301800000E37EC1CF01200010E0001666F000E66
:103028000001676F000E0001686F010E37EC1CF09D
:10303800000E0001666F000E0001676F000E0001B0
:10304800686F000E37EC1CF01200000E0001666F6E
:10305800000E0001676F010E0001686F010E37EC6A
:103068001CF0010E0001666F000E0001676F000E74
:103078000001686F000E37EC1CF01200010E000111
:10308800666F000E0001676F010E0001686F010E88
:1030980037EC1CF0010E0001666F000E0001676F2F
:1030A800000E0001686F000E37EC1CF012000001E2
:1030B8006A51010AD8B497D7030AD8B4ADD7010A20
:1030C800D8B4C3D7070AD8A41200D8D7000E000175
:1030D800696F000167AF08D00001666D671FD8B03F
:1030E800672B010E0001696F000165AF08D0000170
:1030F800646D651FD8B0652B010E0001691B000EB9
:1031080000016B6F000E6A6F0001665100016711C4
:10311800D8B42CD0010E0001686F06D00001D890F9
:10312800663767370001682B000167AFF7D70001E2
:10313800D8906A376B37000166510001645D000161
:10314800675100016559D8A00AD0000166510001F5
:10315800645F000167510001655B00016A8100013D
:10316800D890673366330001682FE1D700016951B1
:103178000001D8B405D000016A6D6B1FD8B06B2B65
:103188006AC064F06BC065F0120069C06DF06AC077
:103198006EF06DC060F06EC061F06BC062F06CC024
:1031A80063F059EC1BF060C06DF061C06EF0000177
:1031B800674B682B00016D5100016E11D8A4E9D747
:1031C80067C0D9FF68C0DAFF000EDF6E000167072D
:1031D800D8A0680769C060F06AC061F06BC062F08F
:1031E8006CC063F095EC1BF00001605100016F6F3B
:1031F80069C060F06AC061F06BC062F06CC063F0D7
:1032080059EC1BF060C069F061C06AF0090E00015A
:103218006F6503D0070E00016F27300E00016F277E
:1032280067C0D9FF68C0DAFF6FC0DFFF000167071A
:10323800D8A068070001695100016A11D8A4CAD74B
:103248000001674B682B1200000E0001686F000E2A
:10325800696F000E6A6F000E6B6F00016451000108
:1032680065110001661100016711D8B442D0010E42
:1032780000016C6F08D00001D89064376537663755
:10328800673700016C2B000167AFF5D70001D890B4
:10329800683769376A376B37000164510001605D30
:1032A8000001655100016159000166510001625930
:1032B8000001675100016359D8A012D00001645180
:1032C8000001605F000165510001615B000166510A
:1032D8000001625B000167510001635B00016881C6
:1032E8000001D890673366336533643300016C2F6F
:1032F800CDD768C060F069C061F06AC062F06BC089
:1033080063F012000600E9CF03F0EACF04F0E1CF42
:1033180005F0E2CF06F0D9CF07F0DACF08F0F3CF07
:1033280009F0F4CF0AF0F6CF0BF0F7CF0CF0F8CF96
:103338000DF0F5CF0EF0F2940B0ED76EDC0ED66EB4
:10334800010E3026000E3122322233223C4A3D2A19
:103358003C0E3C183D10D8A411D0000E3D6E000E56
:103368003C6E384A392A3C0E38183910D8A406D091
:10337800000E396E000E386E3A4A3B2A0EC0F5FF31
:103388000DC0F8FF0CC0F7FF0BC0F6FF0AC0F4FF32
:1033980009C0F3FF08C0DAFF07C0D9FF06C0E2FF83
:1033A80005C0E1FF04C0EAFF03C0E9FF02C0FBFF5C
:1033B80001C0FAFF409211000101006F6CEC11F09E
:1033C80001010051F4EC17F0EE0E0001B76F000E8A
:1033D8000001B86FF40E0001B96F3F0E0001BA6F1B
:1033E80034C0BBF035C0BCF036C0BDF037C0BEF04D
:1033F8005EEC00F0000E0001F56FEE0E00016F6F3D
:10340800000E0001706F31EC1DF0EE0E0001B76F79
:10341800000E0001B86FE50E0001B96F3F0E000104
:10342800BA6F28C0BBF029C0BCF02AC0BDF02BC0C1
:10343800BEF05EEC00F0000E0001F56FEE0E00012C
:103448006F6F000E0001706F31EC1DF0820E0001ED
:103458006F6F3F0E0001706FF1EC1CF0120000015D
:103468006E6F8C8000016E45010B00016A6F0001D0
:103478006E45E846030B010B00016B6F00016E39C6
:10348800E842070B010B00016C6F00016E390F0B4E
:10349800010B00016D6F6BC066F06CC067F06DC00A
:1034A80068F000016A5137EC1CF000016E39E846FB
:1034B8001F0B010B00016A6F00016E41E8423F0BD0
:1034C800010B00016B6F0001D8906E31010B0001F8
:1034D8006C6F00016E51010B00016D6F6BC066F0DF
:1034E8006CC067F06DC068F000016A5137EC1CF0E1
:1034F8008C901200000E216E000161AF07D0000110
:10350800606D611FD8B0612B010E216E000163AFA1
:1035180005D00001626D631FD8B0632B00016251B2
:1035280000016311D8B423D0010E206E05D000012C
:10353800D89062376337202A000163AFF8D70001BB
:1035480062510001605D0001635100016159D8A01A
:1035580008D0000162510001605F00016351000161
:10356800615B0001D89063336233202EE8D7215085
:10357800D8B405D00001606D611FD8B0612B60C060
:1035880060F061C061F01200000164510001651132
:103598000001661100016711D8B437D0010E206E02
:1035A80007D00001D8906437653766376737202A17
:1035B800000167AFF6D7000164510001605D0001AA
:1035C800655100016159000166510001625900010D
:1035D800675100016359D8A010D00001645100015F
:1035E800605F000165510001615B000166510001E7
:1035F800625B000167510001635B0001D89067338B
:10360800663365336433202ED6D760C060F061C05E
:1036180061F062C062F063C063F01200000E896E50
:103628009268000E8A6E7F0E936E000E8B6E000EEF
:10363800946E000E8C6E000E956E000E8D6E060E4A
:10364800966E100EB7EC16F0CA0E00016F6F3F0EA3
:103658000001706FF1EC1CF0010E0001656FF40EB3
:10366800646F54EC1CF0010E55EC1DF0000EC26E98
:103678000B0EC16EB50EC06EC29AC298C296850E68
:10368800D56E0B0ED76EDC0ED66E310ECD6E3C0E9F
:10369800CF6EB00ECE6E9E909D809F90D08EF28E93
:1036A800F28CF294F28AC2801200000E0001666F5A
:1036B800000E656F0001625100016311D8B42CD06F
:1036C800010E0001646F06D00001D890623763379D
:1036D8000001642B000163AFF7D70001D89065376C
:1036E8006637000162510001605D0001635100010D
:1036F8006159D8A00AD0000162510001605F000141
:1037080063510001615B000165810001D89063335A
:1037180062330001642FE1D765C060F066C061F0D4
:1037280012000001625100016311D8B423D0010EC8
:10373800206E05D00001D89062376337202A000137
:1037480063AFF8D7000162510001605D0001635169
:1037580000016159D8A008D0000162510001605FE2
:10376800000163510001615B0001D890633362334B
:10377800202EE8D760C060F061C061F0120000EE52
:10378800DAF01C0EEE6AE806FDE100EE22F01D0EEE
:10379800EE6AE806FDE1C00EF66E3A0EF76E000E10
:1037A800F86E00EEFCF010EE04F00900F5CFEEFF25
:1037B800E550E150FAE1C40EF66E3A0EF76E000ECF
:1037C800F86E0900F5CF3FF040904092000EF86E79
:1037D800000192EF04F0000E0001B31B000EB41BB1
:1037E800000EB51B800EB61BAFC09BF0B0C09CF09E
:1037F800B1C09DF0B2C09EF0B3C09FF0B4C0A0F0BD
:10380800B5C0A1F0B6C0A2F07CEC09F09BC0AFF047
:103818009CC0B0F09DC0B1F09EC0B2F0120070C064
:1038280076F071C077F0000173AF0ED070C0D9FF89
:1038380071C0DAFF2D0EDF6E0001704B712B000195
:10384800726D731FD8B0732B70C067F071C068F0C9
:1038580072C069F073C06AF074C06BF075C06CF028
:10386800C9EC18F012000001696F000168B102D0BC
:103878008C9601D08C86000167B102D08C9801D05B
:103888008C88000166B102D08C9A01D08C8A000124
:1038980069B102D08C9C01D08C8C44EC1DF01200D4
:1038A8003FC060F00001616B64C062F065C063F006
:1038B800D8EC1CF060C0F6F061C0F7F007D0500EED
:1038C800E82EFED70001F607D8A0F7070001F65149
:1038D8000001F711D8B41200F2D7000160510001BD
:1038E80061110001621100016311D8B409D0000E02
:1038F8000001601B000E611B000E621B800E631B23
:1039080060C060F061C061F062C062F063C063F0E3
:10391800120000016B6F000E0001666F000E0001BF
:10392800676F000E0001686F000E37EC1CF0010E87
:103938000001666F6BC067F06AC068F0010E37EC73
:103948001CF01200000E0001666F000E0001676F88
:10395800000E0001686F000E37EC1CF0000E00012D
:10396800666F000E0001676F010E0001686F000EA0
:1039780037EC1CF01200000E0001666F000E00010B
:10398800676F000E0001686F000E37EC1CF0000E28
:103998000001666F010E0001676F000E0001686F7D
:1039A800000E37EC1CF012000001605100016203A8
:1039B800F3CF20F0F4CF21F0000160510001630340
:1039C800F35021260001615100016203F3502126C2
:1039D80020C060F021C061F012000BD06FC0F6FF6C
:1039E80070C0F7FF0800F55033EC1AF000016F4B78
:1039F800702B6FC0F6FF70C0F7FF0800F550000984
:103A0800D8B41200EBD70001666F000E0001676F93
:103A180009D0030E0001656FE80E646F54EC1CF0CA
:103A28000001672B000166510001675DD8B01200E4
:103A3800F0D70001616F000E0001606F3A0E0001BF
:103A4800616107D02F0E0001616503D0010E0001EE
:103A5800606F60C020F0203012000AD06FC0D9FF1C
:103A680070C0DAFFDF5033EC1AF000016F4B702B97
:103A78006FC0D9FF70C0DAFFDF50D8B41200EED79C
:103A88008C84000E0001656F010E646F54EC1CF00D
:103A98008C94000E0001656F010E646F54EC1CF0ED
:103AA8001200206E20B002D08C9E01D08C8E1200A5
:0D3AB800206E20C03FF012000105090D1026
:103EE400000000803FCDCCCC3D0AD7233C6F128329
:103EF4003A17B7D138ACC52737BD37863595BFD605
:103F04003377CC2B325F708930FFE6DB2E08E53C3B
:103F14001E6042A20D0000803F000020410000C846
:103F24004200007A4400401C460050C347002474F9
:103F3400498096184B20BCBE4C286B6E4EF9021576
:103F440050EC78AD60CAF24971010000000A00002B
:103F54000064000000E803000010270000A08601B0
:103F64000040420F008096980000E1F50500CA9ACF
:103F74003B20202020204174746573612020202080
:103F840020002074657374207465726D696E6174A9
:103F94006F20004369636C6F2072696361726963A7
:103FA400612E2E0053746162696C697A7A617A6950
:103FB4006F6E652E00436172696361207465726D72
:103FC400696E617461005445535445522042415412
:103FD4005445524945004361706163697461273AED
:103FE4000020493A252E33660074656D706F3A00DF
:0B3FF400563A252E336600416800009D
:020000040020DA
:08000000FFFFFFFFFFFFFFFF00
:020000040030CA
:0E000000FF021F1EFF8081FF0FC00FE00F40A8
:00000001FF
