:040000005CEF00F0C1
:0E0008004082FACF01F0FBCF02F01BED17F0A3
:100018004080D8CF0FF0E8CF10F0E0CF11F0FACF42
:1000280012F0FBCF13F0E9CF14F0EACF15F0E1CFCF
:1000380016F0E2CF17F0D9CF18F0DACF19F0F3CFD6
:100048001AF0F4CF1BF0F6CF1CF0F7CF1DF0F8CF65
:100058001EF0F5CF1FF09EA007D03C0ECF6EB00E5D
:10006800CE6E9E90310ECD6E1FC0F5FF1EC0F8FFFC
:100078001DC0F7FF1CC0F6FF1BC0F4FF1AC0F3FF3A
:1000880019C0DAFF18C0D9FF17C0E2FF16C0E1FF98
:1000980015C0EAFF14C0E9FF13C0FBFF12C0FAFF46
:1000A80011C0E0FF10C0E8FF0FC0D8FF409010005B
:1000B80088EF1AF0C30E0101046F000E0101056FED
:1000C8006CEF04F0250E01011819D8B407D0BFC091
:1000D800D9FFC0C0DAFF18C1DFFFF7D3000E010156
:1000E800076F000E066FC1C0F6FFC2C0F7FF080019
:1000F800F5502E0AD8A434D00101078D0001C14B58
:10010800C22B000E0101136F000E126F1ED012C118
:1001180020F013C121F0000E236E0A0E226E7AEC35
:100128001BF0C1C0F6FFC2C0F7FF0800F55020263B
:10013800000E2122D00E20240101126FFF0E212073
:100148000101136F0001C14BC22BC1C0F6FFC2C031
:10015800F7FF0800F5509DEC1BF0D8A00CD0D7D7BE
:10016800000E0101136F000E126F0101078903D001
:100178000101078513D0C1C0F6FFC2C0F7FF000117
:10018800C14BC22B0800F5CF18F101011851000A24
:10019800D8B4ADD3660AD8B4EBD79AD3070E010109
:1001A8000715D8B43DD3010107A905D0000E0101F8
:1001B800136F060E126F04C1D9FF05C1DAFFDECF37
:1001C80014F1DECF15F1DECF16F1DECF17F1040EF4
:1001D80001010427000E0523010117AF15D014C132
:1001E80020F015C121F016C122F017C123F0FFEC51
:1001F8001AF020C014F121C015F122C016F123C055
:1002080017F1030E01010613000E01010D6F000E18
:100218000C6F0101145101011511010116110101A1
:100228001711D8B488D0010116351735820F01018E
:100238000C6F01010D6BFF0E0D2301010C07D8A0F7
:100248000D070CC120F00DC121F0000E236E030E26
:10025800226E7AEC1BF020C00CF121C00DF10CC10C
:1002680026F00DC127F0000E296E0A0E286E86ECC6
:1002780018F026C00CF127C00DF101010DAF04D014
:1002880001010C07D8A00D0701010C510008F9EC79
:100298000BF0ACC00EF1ADC00FF1AEC010F1AFC0A5
:1002A80011F10EC193F00FC194F010C195F011C176
:1002B80096F014C197F015C198F016C199F017C1BE
:1002C8009AF0A6EC09F093C00EF194C00FF195C016
:1002D80010F196C011F10EC120F00FC121F010C12C
:1002E80022F011C123F0000E246E000E256E800E40
:1002F800266E3F0E276EB2EC14F0D8B005D001017F
:100308000C07D8A00D0717D00EC120F00FC121F09F
:1003180010C122F011C123F0000E246E000E256ECC
:10032800200E266E410E276EB2EC14F0D8A003D032
:1003380001010C4B0D2B010113BF08D00101135112
:1003480023E10D0E0101125DD8B01ED014C17FF05B
:1003580015C180F016C181F017C182F00101125158
:10036800F8EC0FF0ACC083F0ADC084F0AEC085F0FF
:10037800AFC086F052EC07F07FC014F180C015F1D1
:1003880081C016F182C017F101010DBF08D001012B
:100398000D512EE10A0E01010C5DD8B029D00101E2
:1003A8001451010115110101161101011711D8B4D9
:1003B8006BD014C1B5F015C1B6F016C1B7F017C1AE
:1003C800B8F095EC16F00001B5510001B611000126
:1003D800B7110001B811D8A457D001010DBF54D0EE
:1003E80001010D5105E1020E01010C5DD8A04CD0B0
:1003F8000EC120F00FC121F010C122F011C123F06D
:100408005F0E246E700E256E890E266E400E276EC6
:10041800B2EC14F0D8B003D00101F70E02D00101FC
:10042800F80E0C27FF0E0D2301010C51F9EC0BF00F
:10043800ACC00EF1ADC00FF1AEC010F1AFC011F1FC
:1004480014C120F015C121F016C122F017C123F004
:100458000EC124F00FC125F010C126F011C127F0FC
:100468005CEC15F020C008F121C009F122C00AF1A6
:1004780023C00BF1000E0101146F000E156F000E62
:10048800166F000E176F3CD014C1B5F015C1B6F049
:1004980016C1B7F017C1B8F095EC16F0B5C008F161
:1004A800B6C009F1B7C00AF1B8C00BF114C193F096
:1004B80015C194F016C195F017C196F008C120F047
:1004C80009C121F00AC122F00BC123F0000E3DEC56
:1004D80013F020C097F021C098F022C099F023C0F3
:1004E8009AF040EC1AF093C014F194C015F195C03D
:1004F80016F196C017F1000E01010D6F000E0C6F7A
:10050800010E0101186F0A0E01011819D8B41ED086
:1005180001011851040D510EF324F66E3F0EF4201C
:10052800F76E0900F5500101085D0900F550010159
:1005380009590900F55001010A590900F55001014E
:100548000B59D8A003D00101182BDDD7030E0101E8
:1005580006150001C76F000E010107150001C86FDD
:100568000001C7510001C811D8B454D0BFC0D9FF89
:10057800C0C0DAFF2D0E4CD00001BF4BC02B4AD0B3
:1005880008C120F009C121F00AC122F00BC123F0F3
:1005980001011851040D510EF324F66E3F0EF4209C
:1005A800F76E0900F5CF24F00900F5CF25F0090012
:1005B800F5CF26F00A00F5CF27F01FEC19F020C080
:1005C8000EF121C00FF122C010F123C011F10EC1AC
:1005D80020F00FC121F010C122F011C123F00A0E42
:1005E800246E000E256E000E266E000E276EE4ECBB
:1005F80019F020C00EF121C00FF122C010F123C064
:1006080011F101010E51300FBFC0D9FFC0C0DAFF90
:10061800DF6EB2D70101180701011829D8B40ED02E
:10062800AFD7BFC0D9FFC0C0DAFF300EDF6E000100
:10063800BF4BC02B01010C07D8A00D0701010DBF4E
:1006480007D001010D51EDE101010C05D8B0E9D742
:10065800010113BF0CD00101135105E1090E01017D
:10066800125DD8A004D0080E0101186F02D012C183
:1006780018F1010118510101125F000E010118BFA4
:10068800FF0E0101135B010118510101D8B409D013
:10069800BFC0D9FFC0C0DAFF2E0EDF6E0001BF4B0E
:1006A800C02B01011851F9EC0BF0ACC000F1ADC042
:1006B80001F1AEC002F1AFC003F114C197F015C14A
:1006C80098F016C199F017C19AF000C193F001C1D2
:1006D80094F002C195F003C196F0A6EC09F093C01E
:1006E800B5F094C0B6F095C0B7F096C0B8F095ECE8
:1006F80016F0B5C008F1B6C009F1B7C00AF1B8C024
:100708000BF173D008C120F009C121F00AC122F011
:100718000BC123F001011851040D510EF324F66E9C
:100728003F0EF420F76E0900F5CF24F00900F5CF4D
:1007380025F00900F5CF26F00A00F5CF27F01FECC9
:1007480019F020C00EF121C00FF122C010F123C012
:1007580011F10EC120F00FC121F010C122F011C11A
:1007680023F00A0E246E000E256E000E266E000E73
:10077800276EE4EC19F020C00EF121C00FF122C061
:1007880010F123C011F101010E51300FBFC0D9FF84
:10079800C0C0DAFFDF6E0001BF4BC02B08C120F0DC
:1007A80009C121F00AC122F00BC123F0010118513F
:1007B800040D510EF324F66E3F0EF420F76E090077
:1007C800F5CF24F00900F5CF25F00900F5CF26F084
:1007D8000A00F5CF27F0E4EC19F020C008F121C099
:1007E80009F122C00AF123C00BF101011807010128
:1007F8001829D8B40ED086D7BFC0D9FFC0C0DAFF39
:10080800300EDF6E0001BF4BC02B01011207D8A0CC
:1008180013070101125101011311D8B459D0ECD7B3
:100828000101125101011311D8A40DD00101085181
:100838000101091101010A1101010B11D8A403D00A
:100848000101124B132B800E010118BF7F0E00010E
:10085800C76F010112510101185D01011351800A8E
:100868000001C759D8B003D012C118F118D001013E
:100878001351800A0001C76F010118510101125D6F
:10088800800E010118BF7F0E0001C759D8B007D0EC
:10089800010118510101126F136B12BF1307030EE8
:1008A800010106150001C76F000E010107150001BF
:1008B800C86F0001C7510001C811D8B409D0BFC022
:1008C800D9FFC0C0DAFF2D0EDF6E0001BF4BC02B71
:1008D800C1C0F6FFC2C0F7FF0001C14BC22B080020
:1008E800F5CF18F101011851D8A466EF00F0BFC088
:1008F800D9FFC0C0DAFF000EDF6E1200100EC2EC86
:100908001BF0000E0001FB6F870EFC6FC30EFD6F1E
:10091800470EFE6F000E0001666F240E676F010E12
:10092800686F470E696FFBC06AF0FCC06BF0FDC0D2
:100938006CF0FEC06DF018EC0EF066C0FBF067C0FE
:10094800FCF068C0FDF069C0FEF066EC19F0000E1E
:100958000001FA6F3CEC11F00001FA51D8B415D03F
:100968003FD08A8E010E7FEC17F08A0E0001666F69
:100978003F0E0001676F16EC1BF0020E35EC18F005
:10098800010E8DEC1BF03CEC11F0DCC020F0DDC05A
:1009980021F0DEC022F0DFC023F0000E246E000E2E
:1009A800256E000E266EBF0E276EB2EC14F0D8A08E
:1009B800D8D7F0C020F0F1C021F0F2C022F0F3C087
:1009C80023F0000E246E000E256E600E266E410E7A
:1009D800276EB2EC14F0D8A0C4D7010E0001FA6F4C
:1009E8000001FA05D8A43FD0000E206E000E216E3B
:1009F800000E226EBF0E236EDCC024F0DDC025F091
:100A0800DEC026F0DFC027F0B2EC14F0D8B028D052
:100A1800330E206E330E216E630E226E410E236E4E
:100A2800F0C024F0F1C025F0F2C026F0F3C027F0A2
:100A3800B2EC14F0D8B014D067EC1BF0BD0E000176
:100A4800666F3F0E0001676F16EC1BF0020E35EC67
:100A580018F08A9E130E276E880E266EE6EC1AF0A2
:100A6800020E0001FA6F020E0001FA19D8B42CD058
:100A780042D0010E7FEC17F0790E0001666F3F0E31
:100A88000001676F16EC1BF0020E7FEC17F09B0E4F
:100A98000001666F3F0E0001676F16EC1BF0010E38
:100AA8008DEC1BF0010E276EF40E266EE6EC1AF0A4
:100AB800020E35EC18F0010E8DEC1BF0010E276EBE
:100AC800F40E266EE6EC1AF0000E206E000E216E73
:100AD800500E226E410E236EF0C024F0F1C025F0B6
:100AE800F2C026F0F3C027F0B2EC14F0D8A0C1D7BA
:100AF800030E0001FA6F030E0001FA19D8A4E6D01C
:100B0800000E0001E86F000EE96F000EEA6F000E9C
:100B1800EB6F000E0001F96F000EF86F000E000178
:100B2800F56F000EF46F000E0001F76F000EF66F00
:100B3800850ED56E0B0ED76EDC0ED66E8D80000E30
:100B48000001E46F000EE56F000EE66F000EE76F20
:100B5800A6D067EC1BF0F10E0001666F3F0E000196
:100B6800676F16EC1BF0F6C06EF0F7C06FF0020E60
:100B78000001706F000E0001716F5DEC12F0E70E5E
:100B88000001666F3F0E0001676F16EC1BF0F4C0A2
:100B98006EF0F5C06FF0020E0001706F000E0001DC
:100BA800716F5DEC12F0E70E0001666F3F0E0001F9
:100BB800676F16EC1BF0F8C06EF0F9C06FF0020E0C
:100BC8000001706F000E0001716F5DEC12F0020EF3
:100BD80035EC18F0000E276E640E266EE6EC1AF05F
:100BE800ECC0CAF0EDC0CBF0EEC0CCF0EFC0CDF059
:100BF8000001CA1FCB1FCC1FCD1FCA2B000ECB2351
:100C0800CC23CD230001E8510001CA250001CE6F95
:100C18000001E9510001CB210001CF6F0001EA5129
:100C28000001CC210001D06F0001EB510001CD2162
:100C38000001D16F0001D1510001D0110001CF1185
:100C480005E13B0E0001CE5DD8A029D0E8C0ECF04C
:100C5800E9C0EDF0EAC0EEF0EBC0EFF0010E0001E4
:100C6800E427000EE523E623E723DCC07FF0DDC0A0
:100C780080F0DEC081F0DFC082F0E0C083F0E1C028
:100C880084F0E2C085F0E3C086F052EC07F07FC044
:100C9800E0F080C0E1F081C0E2F082C0E3F0000E35
:100CA800206E000E216E200E226E410E236EF0C0C3
:100CB80024F0F1C025F0F2C026F0F3C027F0B2EC22
:100CC80014F0D8A046D7040E0001FA6F040E0001F4
:100CD800FA19D8A43FD68D90E0C066F0E1C067F05D
:100CE800E2C068F0E3C069F0E4C020F0E5C021F09C
:100CF800E6C022F0E7C023F0000E3DEC13F020C060
:100D08006AF021C06BF022C06CF023C06DF018ECC3
:100D18000EF066C0E0F067C0E1F068C0E2F069C0BC
:100D2800E3F0000E00016A6F000E6B6F700E6C6FBF
:100D3800420E6D6FF4C020F0F5C021F0226A236ADC
:100D4800000E3DEC13F020C066F021C067F022C011
:100D580068F023C069F018EC0EF066C083F067C035
:100D680084F068C085F069C086F0F6C020F0F7C04E
:100D780021F0226A236A000E3DEC13F020C07FF0B8
:100D880021C080F022C081F023C082F052EC07F02D
:100D98007FC0D2F080C0D3F081C0D4F082C0D5F03B
:100DA800000E00016A6F000E6B6F610E6C6F450ECE
:100DB8006D6FF8C020F0F9C021F0226A236A000E96
:100DC8003DEC13F020C066F021C067F022C068F047
:100DD80023C069F018EC0EF066C083F067C084F099
:100DE80068C085F069C086F0D2C07FF0D3C080F0BB
:100DF800D4C081F0D5C082F052EC07F07FC093F0E8
:100E080080C094F081C095F082C096F0E0C097F061
:100E1800E1C098F0E2C099F0E3C09AF0A6EC09F0BE
:100E280093C0E0F094C0E1F095C0E2F096C0E3F022
:100E380067EC1BF0AC0E0001666F3F0E0001676F98
:100E480016EC1BF0020E7FEC17F0DE0E0001666F49
:100E58003F0E0001676F16EC1BF0310E0001BF6FEB
:100E6800000E0001C06FEC0E0001C16F3F0E0001C3
:100E7800C26FE0C0C3F0E1C0C4F0E2C0C5F0E3C097
:100E8800C6F05EEC00F0000E366E310E0001666FA3
:100E9800000E0001676F54EC1BF0FFD70001825170
:100EA800800B00018F6F0001825182250001916F34
:100EB800000181AF02D00001918100019151000130
:100EC800D8B412D000019129D8A409D0000E00018D
:100ED8007F6F000E806F000E816F000E826F000121
:100EE800818F000E000108D0000E00017F6F000EF8
:100EF800806F000E816F000E826F00018651800B9B
:100F08000001906F00018F5100019019D8B402D0F0
:100F180000018F8D0001865186250001906F000128
:100F280085AF02D000019081000190510001D8B432
:100F380012D000019029D8A409D0000E0001836FB7
:100F4800000E846F000E856F000E866F0001858F7E
:100F5800000E000108D0000E0001836F000E846FA0
:100F6800000E856F000E866F000191510001905DA3
:100F7800D8B024D000018FAD03D0800E00018F1BA4
:100F880091C092F090C091F092C090F07FC092F022
:100F980083C07FF092C083F080C092F084C080F05C
:100FA80092C084F081C092F085C081F092C085F033
:100FB80082C092F086C082F092C086F0000E0001D6
:100FC800926F000191510001876F886B0001871FA4
:100FD800881F874B882B000190510001896F8A6B0D
:100FE80000018751000189270001885100018A23E7
:100FF80000018ABF3DD000018A5105E11A0E0001A7
:10100800895DD8A035D000017F5100018011000111
:10101800811100018211D8B402D0010E01D0000E56
:101028000001926F000E00017F6F000E806F000EAE
:10103800816F000E826F90C091F020D0000192A1C4
:1010480007D00001D890923101090001926F03D0B6
:101058000001D890923300017FA102D00001928F45
:10106800000182358233813380337F330001912B35
:10107800000190510001915DD8A0E0D700018FBD1B
:101088003FD0000191510001D8A40AD0000E000100
:101098007F6F000E806F000E816F000E826F12004E
:1010A8000001835100017F27000184510001802342
:1010B800000185510001812300018651000182232E
:1010C800000182A1CCD0000192A109D00001D890E2
:1010D80092330001925101090001926F03D000017F
:1010E800D890923300017FA102D00001928F0001B5
:1010F80082358233813380337F330001912BAFD027
:101108000001835100017F5D000184510001805975
:10111800000185510001815900018251800A0001B6
:10112800876F00018651800A00018759D8B050D0D6
:101138007FC087F080C088F081C089F082C08AF0C3
:101148000001871F881F891F8A1F872B000E88238D
:1011580089238A23000183510001872500018B6FB1
:10116800000184510001882100018C6F0001855124
:101178000001892100018D6F0001865100018A213B
:1011880000018E6FFF0E00018B2500017F6FFF0E9F
:1011980000018C210001806FFF0E00018D210001EC
:1011A800816FFF0E00018E210001826F800E000109
:1011B8008F1B0001926D000192510001D8A418D034
:1011C800010E00017F27000E80238123822310D087
:1011D8000001835100017F5F000184510001805BA1
:1011E800000185510001815B000186510001825B8D
:1011F80000017F510001801100018111000182115D
:10120800D8A42AD0000192510001D8A425D0000EFC
:1012180000017F6F000E806F000E816F000E826FDD
:1012280012000001D8907F3780378137823700015C
:1012380092AF02D000017F81000192A103D0D88033
:10124800000102D00001D8909237000191510001AD
:10125800D8B402D000019107000181AFE2D7000E97
:101268000001906F000192AF0DD092C087F07F0E01
:1012780000018717D8A403D000017FA103D0010E75
:101288000001906F000190510001D8B426D0010EE2
:1012980000017F27000E802381238223000182A181
:1012A8001CD07FC087F080C088F081C089F082C0E0
:1012B8008AF000018A358A3389338833873387C0B7
:1012C8007FF088C080F089C081F08AC082F0000178
:1012D8009129D8B402D00001912B00019129D8B4EA
:1012E80005D0000191510001D8A411D0000E0001D1
:1012F8007F6F000E806F000E816F000E826F0001FD
:1013080091510001D8A403D0000E00018F6F000195
:1013180091A103D00001818F02D00001819F0001BB
:10132800D89091310001826F00018FAF02D0000187
:10133800828F7FC07FF080C080F081C081F082C042
:1013480082F0120000019651800B00019F6F00018E
:10135800965196250001A56F000195AF02D00001B6
:10136800A5810001A5510001D8B410D00001A5291C
:10137800D8A409D0000E0001936F000E946F000EE0
:10138800956F000E966F0001958F09D0000E000131
:10139800936F000E946F000E956F000E966F00010C
:1013A8009A51800B00019F1B00019A519A25000158
:1013B800A06F000199AF02D00001A0810001A051E7
:1013C8000001D8B410D00001A029D8A409D0000E7B
:1013D8000001976F000E986F000E996F000E9A6FBC
:1013E8000001998F09D0000E0001976F000E986FC9
:1013F800000E996F000E9A6F0001A0510001D8B439
:1014080005D00001A5510001D8A40AD0000E0001A2
:10141800936F000E946F000E956F000E966F12007A
:101428000001995100019303F3CFAAF0F4CFABF078
:101438000001AA510001A16FA26BA36BA46B00016C
:10144800AB510001A66FA76BA86BA96B000198515F
:1014580000019403F3CFAAF0F4CFABF00001AA5136
:101468000001A127000EA223A323A4230001AB514E
:101478000001A627000EA723A823A923000197513E
:1014880000019503F3CFAAF0F4CFABF00001AA5105
:101498000001A127000EA223A323A4230001AB511E
:1014A8000001A627000EA723A823A923A3C0A4F000
:1014B800A2C0A3F0A1C0A2F00001A16B0001975146
:1014C80000019403F3CFAAF0F4CFABF00001AA51C6
:1014D8000001A1270001AB510001A223000E000169
:1014E800A323000E0001A4230001985100019303D7
:1014F800F3CFAAF0F4CFABF00001AA510001A12765
:101508000001AB510001A223000E0001A323000E2D
:101518000001A423A3C0A4F0A2C0A3F0A1C0A2F01C
:101528000001A16B0001975100019303F3CFAAF0CA
:10153800F4CFABF00001AA510001A1270001AB5183
:101548000001A223000E0001A323000E0001A42322
:101558000001995100019403F3CFAAF0F4CFABF046
:101568000001AA510001A6270001AB510001A723E1
:10157800000E0001A823000E0001A92300019851C4
:1015880000019503F3CFAAF0F4CFABF00001AA5104
:101598000001A6270001AB510001A723000E00019E
:1015A800A823000E0001A923000199510001950309
:1015B800F3CFAAF0F4CFABF00001AA5100019B6F62
:1015C8000001AB5100019C6F00019D6B00019E6BF7
:1015D8009DC09EF09CC09DF09BC09CF000019B6B41
:1015E80000019B510001A62700019C510001A7237F
:1015F80000019D510001A82300019E510001A9236B
:10160800A1C09BF0A2C09CF0A3C09DF0A4C09EF016
:10161800190E06D00001D8909E339D339C339B331E
:10162800E82EF8D700019B510001A62700019C5124
:101638000001A72300019D510001A82300019E512C
:101648000001A923A3C0A4F0A2C0A3F0A1C0A2F0E6
:101658000001A16B0001A051A5C09BF000019C6B8B
:1016680000019B27000E9C23820E00019B25000190
:10167800AA6FFF0E00019C210001AB6F15D000017D
:10168800D890A637A737A837A9370001A4AF02D04A
:101698000001A6810001D890A137A237A337A4374B
:1016A8000001AA07D8A0AB070001A8AFE8D7000E31
:1016B8000001A06F0001A4AF24D0FF0E0001A11506
:1016C80000019B6FFF0E0001A21500019C6FFF0E29
:1016D8000001A31500019D6F7F0E0001A4150001F4
:1016E8009E6F00019B5100019C1100019D1100019A
:1016F8009E11D8A403D00001A6A103D0010E0001B9
:10170800A06F0001A0510001D8B423D0010E000140
:10171800A627000EA723A823A9230001A9A119D051
:10172800A6C09BF0A7C09CF0A8C09DF0A9C09EF0E1
:1017380000019E359E339D339C339B339BC0A6F09E
:101748009CC0A7F09DC0A8F09EC0A9F00001AA4BBC
:10175800AB2B0001ABBF10D00001AB5104E100017D
:10176800AA29D8A009D0000E0001A66F000EA76F05
:10177800800EA86F7F0E2BD00001ABBF07D00001F1
:10178800AB5111E10001AA05D8B00DD0000E00013F
:10179800A66F000EA76F000EA86F000EA96F000EAF
:1017A80000019F6F15D0AAC0A5F0FF0E0001A61773
:1017B800FF0EA7177F0EA817000EA9170001A5A1F5
:1017C80002D00001A88F0001D890A5310001A96FAF
:1017D80000019F510001A913A6C093F0A7C094F07F
:1017E800A8C095F0A9C096F012000001B46F0001DE
:1017F800B4AF0ED10001B46D0001B451800A120FCC
:10180800D8A09BD0000E296E0A0E286E000E236EFB
:10181800640E226E0001B451206E216A20BE21069A
:10182800ACEC19F020C026F021C027F086EC18F0A7
:10183800D89026362736D89026362736240E2626E0
:10184800000E2722E90E2624F66E3E0E2720F76E9C
:101858000900F5CF97F00900F5CF98F00900F5CF0A
:1018680099F00A00F5CF9AF0000E296E640E286EE2
:101878000001B451266E276A26BE270686EC18F0AA
:10188800D89026362736D89026362736480E26266C
:10189800000E2722E90E2624F66E3E0E2720F76E4C
:1018A8000900F5CF93F00900F5CF94F00900F5CFC2
:1018B80095F00A00F5CF96F0A6EC09F093C0B0F0C9
:1018C80094C0B1F095C0B2F096C0B3F0B0C093F038
:1018D800B1C094F0B2C095F0B3C096F0000E236E7C
:1018E8000A0E226E0001B451206E216A20BE210624
:1018F800ACEC19F0D89020362136D8902036213615
:10190800E90E2024F66E3E0E2120F76E0900F5CF71
:1019180097F00900F5CF98F00900F5CF99F00A0083
:10192800F5CF9AF0A6EC09F093C0ACF094C0ADF0F6
:1019380095C0AEF096C0AFF012000001B451800A15
:10194800750FD8A04FD0000E296E0A0E286E000120
:10195800B451266E276A26BE270686EC18F0D89062
:1019680026362736D89026362736240E2626000E09
:101978002722E90E2624F66E3E0E2720F76E090070
:10198800F5CF93F00900F5CF94F00900F5CF95F065
:101998000A00F5CF96F0000E236E0A0E226E0001A3
:1019A800B451206E216A20BE2106ACEC19F0D89003
:1019B80020362136D89020362136E90E2024F66EBE
:1019C8003E0E2120F76E0900F5CF97F00900F5CFFC
:1019D80098F00900F5CF99F00A00F5CF9AF0A6EC37
:1019E80009F0A2D70001B451040DE90EF324F66EF4
:1019F8003E0EF420F76E0900F5CFACF00900F5CFE4
:101A0800ADF00900F5CFAEF00A00F5CFAFF0120047
:101A18000001B451800A120FD8A09BD0000E296E85
:101A28000A0E286E000E236E640E226E0001B45159
:101A3800206E216A20BE2106ACEC19F020C026F0E9
:101A480021C027F086EC18F0D89026362736D89093
:101A580026362736240E2626000E27221D0E26247B
:101A6800F66E3F0E2720F76E0900F5CF97F00900B4
:101A7800F5CF98F00900F5CF99F00A00F5CF9AF064
:101A8800000E296E640E286E0001B451266E276A76
:101A980026BE270686EC18F0D89026362736D8902A
:101AA80026362736480E2626000E27221D0E262407
:101AB800F66E3F0E2720F76E0900F5CF93F0090068
:101AC800F5CF94F00900F5CF95F00A00F5CF96F020
:101AD800A6EC09F093C0B0F094C0B1F095C0B2F094
:101AE80096C0B3F0B0C093F0B1C094F0B2C095F016
:101AF800B3C096F0000E236E0A0E226E0001B45198
:101B0800206E216A20BE2106ACEC19F0D890203650
:101B18002136D890203621361D0E2024F66E3F0E31
:101B28002120F76E0900F5CF97F00900F5CF98F05E
:101B38000900F5CF99F00A00F5CF9AF0A6EC09F064
:101B480093C0ACF094C0ADF095C0AEF096C0AFF0C5
:101B580012000001B451800A750FD8A04FD0000EB2
:101B6800296E0A0E286E0001B451266E276A26BE19
:101B7800270686EC18F0D89026362736D8902636D1
:101B88002736240E2626000E27221D0E2624F66E42
:101B98003F0E2720F76E0900F5CF93F00900F5CF27
:101BA80094F00900F5CF95F00A00F5CF96F0000EF5
:101BB800236E0A0E226E0001B451206E216A20BEE7
:101BC8002106ACEC19F0D89020362136D890203672
:101BD80021361D0E2024F66E3F0E2120F76E0900D7
:101BE800F5CF97F00900F5CF98F00900F5CF99F0F7
:101BF8000A00F5CF9AF0A6EC09F0A2D70001B4517B
:101C0800040D1D0EF324F66E3F0EF420F76E090046
:101C1800F5CFACF00900F5CFADF00900F5CFAEF087
:101C28000A00F5CFAFF0120000016951800B0001E6
:101C3800726F00016951692500017D6F000168AF6D
:101C480002D000017D8100017D510001D8B412D07D
:101C580000017D29D8A409D0000E0001666F000E8E
:101C6800676F000E686F000E696F0001688F000EC5
:101C7800000108D0000E0001666F000E676F000EAD
:101C8800686F000E696F00016D51800B0001721BB7
:101C980000016D516D2500017E6F00016CAF02D00F
:101CA80000017E8100017E510001D8B412D00001EC
:101CB8007E29D8A409D0000E00016A6F000E6B6F50
:101CC800000E6C6F000E6D6F00016C8F000E00012E
:101CD80008D0000E00016A6F000E6B6F000E6C6F6B
:101CE800000E6D6F00016A5100016B1100016C114B
:101CF80000016D11D8A417D0000E0001666F000E08
:101D0800676F000E686F000E696F0001800E681320
:101D18007F0E691366C066F067C067F068C068F038
:101D280069C069F0120000017D510001D8A412D0E9
:101D3800000E0001666F000E676F000E686F000EE0
:101D4800696F66C066F067C067F068C068F069C010
:101D580069F0120000017E5100016E6F6F6B000187
:101D68006E1F6F1F6E4B6F2B00017D510001706F4E
:101D7800716B00016E510001702700016F51000165
:101D880071237F0E000170250001776F000E00019E
:101D980071210001786F66C073F067C074F068C085
:101DA80075F069C076F0000E0001666F000E676F6F
:101DB800000E686F000E696F000E0001796F000E4B
:101DC8007A6F000E7B6F000E7C6F000E00017E6F35
:101DD80042D000017E510001D8B417D00001D8903C
:101DE80073377437753776370001D8906637673799
:101DF8006837693700017CAF02D0000166810001B5
:101E0800D89079377A377B377C3700016A510001DF
:101E1800735D00016B510001745900016C510001A0
:101E2800755900016D5100017659D8A012D00001F2
:101E38007C8D00016A510001735F00016B51000144
:101E4800745B00016C510001755B00016D5100016C
:101E5800765B00017E2B190E00017E65BAD7000162
:101E68007351000174110001751100017611D8B485
:101E780018D00001798115D00001D89066376737EE
:101E88006837693700017CAF02D000016681000124
:101E9800D89079377A377B377C3700017707D8A015
:101EA8007807000168AFE8D7000E00017E6F0001D7
:101EB8007CAF24D0FF0E0001791500016E6FFF0E74
:101EC80000017A1500016F6FFF0E00017B150001FC
:101ED800706F7F0E00017C150001716F00016E515B
:101EE80000016F110001701100017111D8A403D015
:101EF800000166A103D0010E00017E6F00017E5132
:101F08000001D8B423D0010E00016627000E672314
:101F180068236923000169A119D066C06EF067C003
:101F28006FF068C070F069C071F0000171357133ED
:101F380070336F336E336EC066F06FC067F070C079
:101F480068F071C069F00001774B782B000178BF09
:101F580014D00001785104E100017729D8A00DD0F0
:101F6800000E0001786F7769000E0001666F000EA1
:101F7800676F000E686F000E696F000178BF07D0A9
:101F88000001785115E100017705D8B011D0000E95
:101F98000001786F000E776F000E0001666F000E6B
:101FA800676F000E686F000E696F000E0001726F98
:101FB80077C07DF000017DA103D00001688F02D0B9
:101FC8000001689F0001D8907D310001696F000110
:101FD80072510001691366C066F067C067F068C097
:101FE80068F069C069F012000001B86F6D0E000159
:101FF800B865ADD0000E296E0A0E286E000E236E4D
:10200800640E226EB8C020F0216AACEC19F020C032
:1020180026F021C027F086EC18F0D890263627360F
:10202800D89026362736240E2626000E2722E90EBB
:102038002624F66E3E0E2720F76E0900F5CF97F09E
:102048000900F5CF98F00900F5CF99F00A00F5CF0F
:102058009AF0000E296E640E286EB8C026F0276A22
:1020680086EC18F0D89026362736D89026362736AC
:10207800480E2626000E2722E90E2624F66E3E0E6E
:102088002720F76E0900F5CF93F00900F5CF94F0FB
:102098000900F5CF95F00A00F5CF96F0A6EC09F007
:1020A80093C0B4F094C0B5F095C0B6F096C0B7F040
:1020B800000E236E0A0E226EB8C020F0216AACEC26
:1020C80019F0D89020362136D89020362136E90EDE
:1020D8002024F66E3E0E2120F76E0900F5CF97F00A
:1020E8000900F5CF98F00900F5CF99F00A00F5CF6F
:1020F8009AF0B4C093F0B5C094F0B6C095F0B7C0EC
:1021080096F0A6EC09F093C0B0F094C0B1F095C079
:10211800B2F096C0B3F0B0C093F0B1C094F0B2C0C2
:1021280095F0B3C096F0000E0001976F000E986FFF
:10213800000E996F3F0E9A6FA6EC09F093C0ACF0B1
:1021480094C0ADF095C0AEF096C0AFF012000A0E84
:102158000001B86564D0000E236E0A0E226EB8C066
:1021680020F0216AACEC19F0D89020362136D890AE
:1021780020362136E90E2024F66E3E0E2120F76E19
:102188000900F5CF97F00900F5CF98F00900F5CFD1
:1021980099F00A00F5CF9AF0000E296E0A0E286E03
:1021A800B8C026F0276A86EC18F0D890263627366D
:1021B800D89026362736240E2626000E2722E90E2A
:1021C8002624F66E3E0E2720F76E0900F5CF93F011
:1021D8000900F5CF94F00900F5CF95F00A00F5CF86
:1021E80096F0A6EC09F093C0B4F094C0B5F095C091
:1021F800B6F096C0B7F0B4C093F0B5C094F0B6C0CE
:1022080095F0B7C096F0000E0001976F000E986F1A
:10221800000E996F3F0E9A6FA6EC09F08FD7000158
:10222800B851040DE90EF324F66E3E0EF420F76E55
:102238000900F5CF93F00900F5CF94F00900F5CF28
:1022480095F00A00F5CF96F0000E0001976F000E8A
:10225800986F000E996F3F0E9A6FA6EC09F093C025
:10226800ACF094C0ADF095C0AEF096C0AFF01200DF
:10227800000E2A6E030E2A6401D046D02A50010DA2
:10228800390EF324D96E000EF420DA6EDF50C26ED8
:10229800C282C2B2FED7C4500001AC6FAD6B2A50E7
:1022A800020DD60EF324D96E000EF420DA6EACC0FF
:1022B800DEFFADC0DDFF2A50020DD60EF324D96E25
:1022C800000EF420DA6EDECFACF0DDCFADF0ACC09E
:1022D800ADF00001AC6BC3500001AC13000EAD13A0
:1022E8002A50020DD60EF324D96E000EF420DA6EB1
:1022F800ACC0DEFFADC0DDFF000E276E050E266EFA
:10230800E6EC1AF02A2AB6D720EED8F0DECFACF0E9
:10231800DDCFADF00001AC1FAD1FAC4BAD2B000104
:10232800DA510001AC270001DB510001AD23ACC03C
:1023380020F0ADC021F0000E21BEFF0E226E236EEC
:10234800010E3DEC13F020C0DCF021C0DDF022C00E
:10235800DEF023C0DFF0DCC093F0DDC094F0DEC017
:1023680095F0DFC096F0000E0001976F000E986F91
:10237800A00E996F400E9A6FA6EC09F093C0DCF09E
:1023880094C0DDF095C0DEF096C0DFF0DCC066F0EA
:10239800DDC067F0DEC068F0DFC069F0000E000144
:1023A8006A6F000E6B6F800E6C6F440E6D6F18ECC9
:1023B8000EF066C0DCF067C0DDF068C0DEF069C012
:1023C800DFF0DCC066F0DDC067F0DEC068F0DFC0BB
:1023D80069F0CD0E00016A6FCC0E6B6F4C0E6C6FFE
:1023E8003E0E6D6F18EC0EF066C0DCF067C0DDF0D5
:1023F80068C0DEF069C0DFF0D6C020F0D7C021F099
:10240800000E21BEFF0E226E236E010E3DEC13F06E
:1024180020C0F0F021C0F1F022C0F2F023C0F3F0A8
:10242800000E0001976F000E986FA00E996F400E76
:102438009A6FF0C093F0F1C094F0F2C095F0F3C039
:1024480096F0A6EC09F093C066F094C067F095C0CA
:1024580068F096C069F0000E00016A6F000E6B6F9D
:10246800800E6C6F440E6D6F18EC0EF066C0F0F0C5
:1024780067C0F1F068C0F2F069C0F3F0F0C066F030
:10248800F1C067F0F2C068F0F3C069F0FBC06AF011
:10249800FCC06BF0FDC06CF0FEC06DF018EC0EF0E7
:1024A80066C0F0F067C0F1F068C0F2F069C0F3F000
:1024B800120020EE2BF010EE77F0050EDBCFE3FFD5
:1024C800E806FCE2770E0001666F000E0001676FF8
:1024D8006EC068F06FC069F0000E00016B6F0A0EE5
:1024E8006A6F64EC1AF0000170510001D8B4B8D0DA
:1024F80000017051010D770EF324D96E000EF420FF
:10250800DA6E000EDF6E70D00001700500017D6F7D
:1025180000017D510001D8B467D0FF0E0001726F31
:10252800FF0E0001736F00017D510001746F756B20
:1025380000017251000174270001735100017523D5
:10254800770E00017425D96E000E00017521DA6E30
:1025580000017D51010D770EF324E16E000EF42089
:10256800E26EDFCFE7FF00017105D8A41DD0FF0E92
:102578000001726FFF0E0001736F00017D510001B1
:10258800746F756B0001725100017427000173515B
:1025980000017523770E00017425D96E000E000125
:1025A8007521DA6E200E1CD0FF0E0001726FFF0E2F
:1025B8000001736F00017D510001746F756B00019C
:1025C8007251000174270001735100017523770EC1
:1025D80000017425D96E000E00017521DA6E300EE7
:1025E800DF6E00017D0794D7FF0E0001726FFF0EAA
:1025F8000001736F000170510001746F756B000169
:102608007251000174270001735100017523770E80
:1026180000017425D96E000E00017521DA6E3A0E9C
:10262800DF6072D7FF0E0001726FFF0E0001736F3B
:10263800000170510001746F756B00017251000147
:1026480074270001735100017523770E000174256A
:10265800D96E000E00017521DA6E2F0EDF6454D793
:10266800770E0001666F000E0001676F54EC1BF0D7
:1026780012000001606F000160510001D8A423AE70
:102688001AD020C024F021C025F022C026F023C093
:1026980027F0241E251E261E271E242A000E25226A
:1026A8002622272224C062F025C063F026C064F0E9
:1026B80027C065F008D020C062F021C063F022C0B6
:1026C80064F023C065F02050211022102310D8A4F4
:1026D80009D0000E206E000E216E000E226E000E34
:1026E800236E1200960E0001616F08D00001612B65
:1026F8000001D8906533643363336233000E000100
:102708006215246E000E00016315256E000E00018F
:102718006415266EFE0E00016515276E24502510DF
:1027280026102710D8B410D0E1D70001612B010E74
:1027380000016227000E6323642365230001D890FB
:102748006533643363336233000E00016215246E0F
:10275800000E00016315256E000E00016415266E3B
:10276800FF0E00016515276E24502510261027102E
:10277800D8B409D0DAD7000161070001D8906237D0
:10278800633764376537000164BF04D0020E000167
:102798006161F1D7000161B109D0FF0E0001621734
:1027A800FF0E63177F0E6417FF0E65170001D890A0
:1027B800613361C024F0256A266A276A24C027F09D
:1027C800266A256A246A24500001621325500001F4
:1027D800631326500001641327500001651300019C
:1027E80060510001D8A423AE02D00001658F62C0F9
:1027F80020F063C021F064C022F065C023F012000D
:1028080022C028F0296A2A6A2134283601E329805F
:1028180028500001656F00016551D8A409D0000E49
:10282800206E000E216E000E226E000E236E120026
:1028380026C028F0296A2A6A2534283601E3298027
:1028480028500001646F00016451D8A409D0000E1B
:10285800206E000E216E000E226E000E236E1200F6
:10286800218EFF0E2016FF0E2116000E2216258E31
:10287800FF0E2416FF0E2516000E2616000E000168
:10288800606F000E616F000E626F000E636F7F0E47
:102898000001655F00016451980F0001655F180E23
:1028A8000001646F0001D890603761376237633781
:1028B8002450205C2550215826502258D8A008D0F2
:1028C8002450205E2550215A2650225A000160814A
:1028D800D8902036213622360001642FE3D7000134
:1028E80065AF19D000016551800A970FD8B009D09B
:1028F800000E206E000E216E000E226E000E236E5A
:1029080012000001D89063336233613360330001F1
:10291800653FF7D71AD0170E0001656511D0000E74
:10292800206E000E216E000E226E000E236E120025
:102938000001D89060376137623763370001650757
:10294800000165510001D8A4F3D760C020F061C030
:1029580021F062C022F063C023F01200000E2014A0
:102968000001606F000E21140001616F800E2214B7
:102978000001626F7F0E23140001636F0001605134
:10298800000161110001621100016311D8A408D08F
:10299800000E206E000E216E000E226E000E236EB9
:1029A800000E24140001606F000E25140001616FF1
:1029B800800E26140001626F7F0E27140001636FDA
:1029C80000016051000161110001621100016311F1
:1029D800D8A408D0000E246E000E256E000E266EB8
:1029E800000E276E23AE22D020C060F021C061F017
:1029F80022C062F023C063F00001601F611F621FE4
:102A0800631F602B000E612362236323000E000105
:102A18006025206E000E00016121216E000E00016C
:102A28006221226E800E00016321236E27AE22D020
:102A380024C060F025C061F026C062F027C063F0B2
:102A48000001601F611F621F631F602B000E61235E
:102A580062236323000E00016025246E000E00012E
:102A68006121256E000E00016221266E800E000194
:102A78006321276E000E201A000E211A000E221A5A
:102A8800800E231A000E241A000E251A000E261A8C
:102A9800800E271A2450205C255021582650225891
:102AA80027502358D8B002D0D8901200D8801200EE
:102AB800223423340001656F00016551D8A409D080
:102AC800000E206E000E216E000E226E000E236E88
:102AD8001200263427340001646F00016451D8A421
:102AE80009D0000E206E000E216E000E226E000E20
:102AF800236E1200228EFF0E2016FF0E2116FF0EE7
:102B08002216000E2316268EFF0E2416FF0E2516FB
:102B1800FF0E2616000E2716000E0001606F000E2D
:102B2800616F000E626F000E636F7F0E0001655FBC
:102B380000016451A00F0001655F200E0001646F61
:102B48000001D89060376137623763372450205CC2
:102B5800255021582650225827502358D8A00AD04B
:102B68002450205E2550215A2650225A2750235A95
:102B780000016081D89020362136223623360001A4
:102B8800642FDED7000165AF19D000016551800AB6
:102B98009F0FD8B009D0000E206E000E216E000ED7
:102BA800226E000E236E12000001D8906333623348
:102BB800613360330001653FF7D71AD01F0E00015B
:102BC800656511D0000E206E000E216E000E226E7B
:102BD800000E236E12000001D8906037613762370B
:102BE800633700016507000165510001D8A4F3D7D8
:102BF80060C020F061C021F062C022F063C023F001
:102C080012000001636F00016351C2EC1BF08C904D
:102C18008C948C92000E276E640E266EE6EC1AF0E9
:102C2800000E286E010E296E010E2A6E000ECCECE5
:102C38001AF0000E276E640E266EE6EC1AF0000EEF
:102C4800286E010E296E010E2A6E000ECCEC1AF0C9
:102C5800000E276E0A0E266EE6EC1AF0000E286E9D
:102C6800010E296E010E2A6E000ECCEC1AF0000E31
:102C7800286E010E296E000E2A6E000ECCEC1AF09A
:102C8800000E286E010E296E000E2A6E000ECCEC86
:102C98001AF0000E286E000E296E000E2A6E010E24
:102CA800CCEC1AF0000E286E000E296E000E2A6E6B
:102CB800000ECCEC1AF0000E286E000E296E000EE5
:102CC8002A6E010ECCEC1AF0000E286E000E296E4A
:102CD800000E2A6E000ECCEC1AF0000E286E000EC4
:102CE800296E010E2A6E000ECCEC1AF0000E286E2A
:102CF800000E296E000E2A6E000ECCEC1AF0010EA2
:102D0800286E010E296E000E2A6E000ECCEC1AF009
:102D180041EC1BF0000E0001616F000E2CEC1BF063
:102D280012000001B735B8350001BE6F0001BE5171
:102D3800D8A40AD0000E0001B56F000EB66F000EC1
:102D4800B76F000EB86F1200B5C0B9F0B6C0BAF0D0
:102D5800B7C0BBF0B8C0BCF0200E06D00001D890B8
:102D6800BC33BB33BA33B933E82EF8D70001B951B5
:102D78000001BD6F0001B78FFF0E0001B517FF0EF0
:102D8800B617FF0EB717000EB817960E0001BE5FF4
:102D98000001BEAF1AD00001BE51800A970FD8B00B
:102DA8000AD0000E0001B56F000EB66F000EB76FA7
:102DB800000EB86F12000001D890B833B733B6339D
:102DC800B5330001BE3FF7D71BD01F0E0001BE650B
:102DD80012D0000E0001B56F000EB66F000EB76F6F
:102DE800000EB86F12000001D890B537B637B73764
:102DF800B8370001BE070001BE510001D8A4F3D7BF
:102E08000001BD510001D8B409D00001B81FB71F97
:102E1800B61FB56D000EB623B723B823B5C0B5F0FD
:102E2800B6C0B6F0B7C0B7F0B8C0B8F01200060028
:102E3800E9CF03F0EACF04F0E1CF05F0E2CF06F0E6
:102E4800D9CF07F0DACF08F0F3CF09F0F4CF0AF0C2
:102E5800F6CF0BF0F7CF0CF0F8CF0DF0F5CF0EF062
:102E6800F2940B0ED76EDC0ED66E010E0001E82729
:102E7800000EE923EA23EB230001F84BF92B3C0E63
:102E88000001F8190001F911D8A417D0000E0001AB
:102E9800F96F000EF86F0001F44BF52B3C0E0001A2
:102EA800F4190001F511D8A408D0000E0001F56F3F
:102EB800000EF46F0001F64BF72B0EC0F5FF0DC0A6
:102EC800F8FF0CC0F7FF0BC0F6FF0AC0F4FF09C0FB
:102ED800F3FF08C0DAFF07C0D9FF06C0E2FF05C04C
:102EE800E1FF04C0EAFF03C0E9FF02C0FBFF01C025
:102EF800FAFF409211000001616F4CD0000E286E5D
:102F0800000E296E000E2A6E010ECCEC1AF0000E8F
:102F1800286E000E296E000E2A6E000ECCEC1AF0F8
:102F28001200010E286E000E296E000E2A6E010E88
:102F3800CCEC1AF0000E286E000E296E000E2A6ED8
:102F4800000ECCEC1AF01200000E286E000E296E4E
:102F5800010E2A6E010ECCEC1AF0010E286E000E3E
:102F6800296E000E2A6E000ECCEC1AF01200010E2B
:102F7800286E000E296E010E2A6E010ECCEC1AF096
:102F8800010E286E000E296E000E2A6E000ECCEC83
:102F98001AF0120000016151010AD8B4AFD7030A30
:102FA800D8B4BFD7010AD8B4CFD7070AD8A412001B
:102FB800DED762C027F063C028F027C020F028C001
:102FC80021F064C022F065C023F017EC1AF020C08D
:102FD80027F021C028F00001604B612B27502810F2
:102FE800D8A4EBD760C0D9FF61C0DAFF000EDF6E4E
:102FF80000016007D8A0610762C020F063C021F01B
:1030080064C022F065C023F0ABEC1AF02050296EA2
:1030180062C020F063C021F064C022F065C023F0D4
:1030280017EC1AF020C062F021C063F0090E296481
:1030380002D0070E2926300E292660C0D9FF61C0AC
:10304800DAFF29C0DFFF00016007D8A0610700018F
:10305800625100016311D8A4CFD70001604B612BE6
:1030680012000001C96F3CEC11F00001C9517FEC5E
:1030780017F0310E0001BF6F000E0001C06FF80E8F
:103088000001C16F3F0E0001C26FF0C0C3F0F1C074
:10309800C4F0F2C0C5F0F3C0C6F05EEC00F0000E5C
:1030A800386E310E0001666F000E0001676F54EC38
:1030B8001BF0310E0001BF6F000E0001C06FE90E5A
:1030C8000001C16F3F0E0001C26FDCC0C3F0DDC05C
:1030D800C4F0DEC0C5F0DFC0C6F05EEC00F0000E44
:1030E800386E310E0001666F000E0001676F54ECF8
:1030F8001BF0870E0001666F3F0E0001676F16EC2C
:103108001BF01200000E0001616F29AE07D0286C79
:10311800291ED8B0292A010E0001616F27AE07D0F9
:10312800266C271ED8B0272A010E0001611B000E4D
:103138000001636F000E626F28502910D8B421D0A7
:10314800010E0001606F05D0D8902836293600019D
:10315800602B29AEF9D70001D89062376337285021
:10316800265C29502758D8A006D02850265E29501A
:10317800275A00016281D890293228320001602F35
:10318800EAD7000161510001D8B405D00001626D91
:10319800631FD8B0632B62C026F063C027F012000B
:1031A8000001656F8C8000016545010B0001616FAE
:1031B80000016545E846030B010B0001626F000141
:1031C8006539E842070B010B0001636F000165399F
:1031D8000F0B010B0001646F62C028F063C029F077
:1031E80064C02AF000016151CCEC1AF00001653985
:1031F800E8461F0B010B0001616F00016541E842C1
:103208003F0B010B0001626F0001D8906531010B83
:103218000001636F00016551010B0001646F62C01A
:1032280028F063C029F064C02AF000016151CCEC99
:103238001AF08C901200000E0001606F000E616F92
:10324800000E626F000E636F2450251026102710A1
:10325800D8B42FD0010E0001646F07D0D89024365F
:103268002536263627360001642B27AEF7D700010E
:10327800D89060376137623763372450205C255017
:1032880021582650225827502358D8A00AD0245015
:10329800205E2550215A2650225A2750235A0001D1
:1032A8006081D89027322632253224320001642FDB
:1032B800DED760C020F061C021F062C022F063C098
:1032C80023F01200000E896E9268000E8A6E7F0E3F
:1032D800936E000E8B6E000E946E000E8C6E000EB8
:1032E800956E000E8D6E060E966E100E05EC16F09D
:1032F800CE0E0001666F3F0E0001676F16EC1BF0E3
:10330800010E276EF40E266EE6EC1AF0010EBBECE9
:103318001BF0000EC26E0B0EC16EB50EC06EC29AC7
:10332800C298C296850ED56E0B0ED76EDC0ED66E81
:10333800310ECD6E3C0ECF6EB00ECE6E9E909D803F
:103348009F90D08EF28EF28CF294F28AC280120094
:10335800000E256E21AE06D0206C211ED8B0212A81
:10336800010E256E23AE04D0226C231ED8B0232A6A
:1033780022502310D8B418D0010E246E04D0D8904F
:1033880022362336242A23AEFAD72250205C235033
:103398002158D8A004D02250205E2350215AD8901A
:1033A80023322232242EF1D72550D8B404D0206CF1
:1033B800211ED8B0212A20C020F021C021F01200FF
:1033C8002450251026102710D8B424D0010E286EBA
:1033D80006D0D8902436253626362736282A27AE12
:1033E800F8D72450205C25502158265022582750C1
:1033F8002358D8A008D02450205E2550215A2650A2
:10340800225A2750235AD89027322632253224327E
:10341800282EE7D720C020F021C021F022C022F0BA
:1034280023C023F01200000E266E000E256E2250D7
:103438002310D8B41CD0010E246E04D0D8902236A4
:103448002336242A23AEFAD7D8902536263622509A
:10345800205C23502158D8A005D02250205E23504C
:10346800215A2580D89023322232242EEDD725C028
:1034780020F026C021F01200000E0001971B000E5C
:10348800981B000E991B800E9A1B93C07FF094C066
:1034980080F095C081F096C082F097C083F098C004
:1034A80084F099C085F09AC086F052EC07F07FC08E
:1034B80093F080C094F081C095F082C096F012001D
:1034C80066C06CF067C06DF0000169AF0ED066C0D1
:1034D800D9FF67C0DAFF2D0EDF6E0001664B672B40
:1034E8000001686D691FD8B0692B66C060F067C0BD
:1034F80061F068C062F069C063F06AC064F06BC0D4
:1035080065F0DDEC17F0120000EED6F0250EEE6A3D
:10351800E806FDE100EE2BF00E0EEE6AE806FDE18E
:103528008C0EF66E370EF76E000EF86E00EE39F060
:1035380010EE05F00900F5CFEEFFE550E150FAE195
:1035480040904092000EF86E000182EF04F0225085
:103558002310D8B418D0010E246E04D0D890223687
:103568002336242A23AEFAD72250205C2350215830
:10357800D8A004D02250205E2350215AD89023325C
:103588002232242EF1D720C020F021C021F01200D1
:103598000001606F2AB002D08C9601D08C8629B0C9
:1035A80002D08C9801D08C8828B002D08C9A01D097
:1035B8008C8A000160B102D08C9C01D08C8CACEC60
:1035C8001BF012003DC020F0216A26C022F027C05F
:1035D80023F07AEC1BF020C03EF021C03FF006D06B
:1035E800500EE82EFED73E06D8A03F063E503F10AC
:1035F800D8B41200F5D72050211022102310D8B4C7
:1036080008D0000E201A000E211A000E221A800E71
:10361800231A20C020F021C021F022C022F023C0AC
:1036280023F012000BD066C0F6FF67C0F7FF080052
:10363800F550D4EC18F00001664B672B66C0F6FF16
:1036480067C0F7FF0800F5500009D8B41200EBD79F
:103658000001626F000E286E000E296E000E2A6EA1
:10366800000ECCEC1AF0010E286E62C029F061C081
:103678002AF0010ECCEC1AF01200000E286E000E93
:10368800296E000E2A6E000ECCEC1AF0000E286E81
:10369800000E296E010E2A6E000ECCEC1AF01200F4
:1036A8000AD066C0D9FF67C0DAFFDF50D4EC18F043
:1036B8000001664B672B66C0D9FF67C0DAFFDF5091
:1036C800D8B41200EED7000E286E000E296E000E38
:1036D8002A6E000ECCEC1AF0000E286E010E296E30
:1036E800000E2A6E000ECCEC1AF0120020502202B6
:1036F800F3CF24F0F4CF25F020502302F3502526F1
:1037080021502202F350252624C020F025C021F0A4
:103718001200286E000E296E07D0030E276EE80EE1
:10372800266EE6EC1AF0292A2850295CD8B0120037
:10373800F4D7226E000E216E3A0E226005D02F0EAD
:10374800226402D0010E216E21C020F02030120028
:103758008C84000E276E010E266EE6EC1AF08C940F
:10376800000E276E010E266EE6EC1AF01200206E8F
:1037780020B002D08C9E01D08C8E1200206E20C00A
:093788003DF012000105090D10CD
:103EE800000000803FCDCCCC3D0AD7233C6F128325
:103EF8003A17B7D138ACC52737BD37863595BFD601
:103F08003377CC2B325F708930FFE6DB2E08E53C37
:103F18001E6042A20D0000803F000020410000C842
:103F28004200007A4400401C460050C347002474F5
:103F3800498096184B20BCBE4C286B6E4EF9021572
:103F480050EC78AD60CAF24971010000000A000027
:103F58000064000000E803000010270000A08601AC
:103F68000040420F008096980000E1F50500CA9ACB
:103F78003B2020202020417474657361202020207C
:103F880020004369636C6F207269636172696361C1
:103F98002E2E0053746162696C697A7A617A696F4E
:103FA8006E652E007465737420636F6D706C657434
:103FB80061746F3A00436172696361207465726D60
:103FC800696E61746100544553544552204241540E
:103FD8005445524945006361706163697461273AC9
:103FE8000020493A252E33660074656D706F3A00DB
:083FF800563A252E3266000046
:020000040020DA
:08000000FFFFFFFFFFFFFFFF00
:020000040030CA
:0E000000FF021F1EFF8081FF0FC00FE00F40A8
:00000001FF
