:0400000038EF11F0D4
:1003000000010000000A00000064000000E8030093
:100310000010270000A086010040420F0080969840
:100320000000E1F50500CA9A3B00803FCDCC3DD7E7
:10033000233C12833AB7D138C62737388635C0D622
:1003400033CC2B32708930E7DB2EE53C1E42A20D08
:1003500000803F00204100C842007A44401C4650C3
:10036000C34724744997184BBCBE4C6B6E4E0315A3
:100370005079AD60F349714369636C6F20726963B2
:1003800061726963612E2E0043617269636120743A
:1003900065726D696E617461005445535445522015
:1003A00042415454455249450020493A252E33666E
:1003B00000563A252E3366000000440E0001636F9C
:1003C000000E0001646FF9D3250E00017619D8B430
:1003D00007D040C0D9FF41C0DAFF76C0DFFFEAD3C3
:1003E000000E0001666F000E656F42C0F6FF43C04D
:1003F000F7FF0800F5502E0AD8A434D00001668D0E
:10040000424A432A000E0001726F000E716F1ED027
:1004100071C00FF072C010F0000E126E0A0E116E55
:10042000E1EC11F042C0F6FF43C0F7FF0800F550C1
:100430000F26000E1022D00E0F240001716FFF0E48
:1004400010200001726F424A432A00D042C0F6FFDA
:1004500043C0F7FF0800F55040EC12F0D8A010D0D0
:10046000D7D70ED0000E0001726F000E716F000121
:10047000668906D0B2D30001668514D09ED312D00F
:1004800042C0F6FF43C0F7FF424A432A0800F5CFB7
:1004900076F000017651000AD8B49FD3660AD8B42A
:1004A000EAD78BD3070E00016615D8B434D3000108
:1004B00066A906D0000E0001726F060E716F00D0A3
:1004C00063C0D9FF64C0DAFFDECF73F0DECF74F013
:1004D000DDCF75F0030E00016327000E64230001D9
:1004E00075AF12D073C001F074C002F075C003F094
:1004F0002EEC12F001C073F002C074F003C075F06E
:10050000030E0001651300D0000E00016C6F000E99
:100510006B6F000173510001741100017511D8B4A3
:100520008DD0820E476EFF0E486E73C049F074C0C6
:100530004AF075C04BF076C04CF0100E05D0D89044
:100540004C324B324A324932E82EF9D749504724CF
:1005500000016B6F000E482000016C6F00016B07FB
:10056000D8A06C076BC00FF06CC010F0000E126EBC
:10057000030E116EE1EC11F00FC06BF010C06CF0C7
:100580006BC007F06CC008F0000E0A6E0A0E096E10
:1005900047EC0FF007C06BF008C06CF000016CAFC7
:1005A00005D000016B07D8A06C0700D000016B518B
:1005B0000008F5EC05F024C06DF025C06EF026C0F3
:1005C0006FF06DC015F06EC016F06FC017F073C0FD
:1005D00018F074C019F075C01AF027EC0DF015C0B2
:1005E0006DF016C06EF017C06FF06DC001F06EC0F8
:1005F00002F06FC003F0000E046E800E056E3F0E19
:10060000066E92EC0FF0D8B005D000016B07D8A0B1
:100610006C0714D06DC001F06EC002F06FC003F023
:10062000000E046E200E056E410E066E92EC0FF069
:10063000D8A004D000016B4B6C2B00D0000172BF1E
:1006400008D0000172511EE10D0E0001715DD8B09D
:1006500019D073C02EF074C02FF075C030F00001B7
:100660007151E5EC07F024C031F025C032F026C00E
:1006700033F007EC09F02EC073F02FC074F030C0D7
:1006800075F000D000016CBF08D000016C5128E16A
:100690000A0E00016B5DD8B023D000017351000138
:1006A000741100017511D8B477D073C02BF074C0E9
:1006B0002CF075C02DF0A3EC0DF02B502C102D104C
:1006C0002E10D8A469D000016CBF66D000016C5117
:1006D00007E1020E00016B5DD8B002D05DD000D002
:1006E0006DC001F06EC002F06FC003F0700E046EBA
:1006F000890E056E400E066E92EC0FF0D8B003D056
:100700000001F70E02D00001F80E6B27FF0E6C23DC
:1007100000D000016B51F5EC05F024C06DF025C050
:100720006EF026C06FF017D073C001F074C002F0F5
:1007300075C003F06DC004F06EC005F06FC006F028
:10074000A2EC0CF001C067F002C068F003C069F0D1
:1007500004C06AF017D073C001F074C002F075C015
:1007600003F06DC004F06EC005F06FC006F01AEC27
:100770000CF001C067F002C068F003C069F004C06B
:100780006AF000D0000E0001736F000E0001746F5C
:10079000000E0001756F34D073C02BF074C02CF0C4
:1007A00075C02DF0A3EC0DF02BC067F02CC068F0E5
:1007B0002DC069F02EC06AF073C03AF074C03BF0EF
:1007C00075C03CF067C009F068C00AF069C00BF062
:1007D0006AC00CF008EC11F009C03DF00AC03EF010
:1007E0000BC03FF061EC11F03AC073F03BC074F005
:1007F0003CC075F0000E00016C6F000E6B6F00D0F6
:10080000010E0001766F0A0E00017619D8B422D0CD
:1008100001D020D000017651040D010EF324F66EB4
:10082000030EF420F76E0900F5500001675D090022
:10083000F550000168590900F55000016959090097
:10084000F55000016A59D8A005D001D003D00001AD
:10085000762BD9D7030E00016515476E000E0001F7
:100860006615486E47504810D8B453D040C0D9FFE1
:1008700041C0DAFF2D0E4BD0404A412A4AD067C012
:1008800001F068C002F069C003F06AC004F0000122
:100890007651040D010EF324F66E030EF420F76E6C
:1008A0000900F5CF05F00900F5CF06F00900F5CFF6
:1008B00007F00A00F5CF08F0DDEC0FF001C06DF095
:1008C00002C06EF003C06FF004C070F06DC001F0A4
:1008D0006EC002F06FC003F070C004F00A0E056E27
:1008E000000E066E000E076E000E086E64EC10F02F
:1008F00001C06DF002C06EF003C06FF004C070F074
:1009000000016D51300F40C0D9FF41C0DAFFDF6EEA
:10091000B3D70001760700017629D8B40FD0AFD73E
:100920000DD040C0D9FF41C0DAFF300EDF6E404A23
:10093000412A00016B07D8A06C0700D000016CBFF2
:1009400007D000016C51EDE100016B05D8B0E9D78B
:10095000000172BF0CD00001725105E1090E0001C7
:10096000715DD8A004D0080E0001766F03D071C06D
:1009700076F000D0000176510001715F000E000199
:1009800076BFFF0E0001725B000176510001D8B402
:1009900009D040C0D9FF41C0DAFF2E0EDF6E404AB9
:1009A000412A00D000017651F5EC05F024C060F03A
:1009B00025C061F026C062F073C018F074C019F051
:1009C00075C01AF060C015F061C016F062C017F073
:1009D00027EC0DF015C02BF016C02CF017C02DF031
:1009E000A3EC0DF02BC067F02CC068F02DC069F0AF
:1009F0002EC06AF073D067C001F068C002F069C011
:100A000003F06AC004F000017651040D010EF324D6
:100A1000F66E030EF420F76E0900F5CF05F009001D
:100A2000F5CF06F00900F5CF07F00A00F5CF08F082
:100A3000DDEC0FF001C06DF002C06EF003C06FF08E
:100A400004C070F06DC001F06EC002F06FC003F022
:100A500070C004F00A0E056E000E066E000E076EE2
:100A6000000E086E64EC10F001C06DF002C06EF074
:100A700003C06FF004C070F000016D51300F40C032
:100A8000D9FF41C0DAFFDF6E404A412A67C001F05A
:100A900068C002F069C003F06AC004F0000176513A
:100AA000040D010EF324F66E030EF420F76E090018
:100AB000F5CF05F00900F5CF06F00900F5CF07F0F6
:100AC0000A00F5CF08F064EC10F001C067F002C036
:100AD00068F003C069F004C06AF000D00001760736
:100AE00000017629D8B40FD086D70DD040C0D9FFE9
:100AF00041C0DAFF300EDF6E404A412A0001710723
:100B0000D8A0720700D00001715100017211D8B451
:100B100054D0ECD752D00001715100017211D8A409
:100B20000ED0000167510001681100016911000138
:100B30006A11D8A404D00001714B722B00D0800E32
:100B4000000176BF7F0E476E000171510001765D96
:100B500000017251800A4758D8B003D071C076F0B6
:100B600017D000017251800A476E000176510001D2
:100B7000715D800E000176BF7F0E4758D8B008D057
:100B8000000176510001716F726B71BF720700D066
:100B9000030E00016515476E000E00016615486ED4
:100BA00047504810D8B409D040C0D9FF41C0DAFF3F
:100BB0002D0EDF6E404A412A00D042C0F6FF43C0EE
:100BC000F7FF424A432A0800F5CF76F0000176513C
:100BD000D8B403D0E4EF01F000D040C0D9FF41C049
:100BE000DAFF000EDF6E00D012002A6E2AAEEFD0C0
:100BF0002A6C2A50800A120FD8A08DD0000E126ED7
:100C0000030E116E000E0A6E0A0E096E000E046EBF
:100C1000640E036E2A50016E026A01BE020623ECC6
:100C200010F001C007F002C008F047EC0FF0090E09
:100C300007240F6E000E0820106EE1EC11F0290E53
:100C40000F24F66E030E1020F76E0900F5CF18F092
:100C50000900F5CF19F00A00F5CF1AF0000E0A6E60
:100C6000640E096E2A50076E086A07BE080647EC34
:100C70000FF0120E07240F6E000E0820106E000EEB
:100C8000126E030E116EE1EC11F0290E0F24F66EB8
:100C9000030E1020F76E0900F5CF15F00900F5CF0F
:100CA00016F00A00F5CF17F027EC0DF015C027F06D
:100CB00016C028F017C029F027C015F028C016F07C
:100CC00029C017F0000E126E030E116E000E046E96
:100CD0000A0E036E2A50016E026A01BE020623EC60
:100CE00010F001C00FF002C010F0E1EC11F0290E7D
:100CF0000F24F66E030E1020F76E0900F5CF18F0E2
:100D00000900F5CF19F00A00F5CF1AF027EC0DF025
:100D100041D15AD154D02A50800A750FD8A04FD053
:100D2000000E0A6E0A0E096E2A50076E086A07BE88
:100D3000080647EC0FF0090E07240F6E000E08207E
:100D4000106E000E126E030E116EE1EC11F0290E02
:100D50000F24F66E030E1020F76E0900F5CF15F084
:100D60000900F5CF16F00A00F5CF17F0000E126E4D
:100D7000030E116E000E046E0A0E036E2A50016EF1
:100D8000026A01BE020623EC10F001C00FF002C09F
:100D900010F0E1EC11F0290E0F24F66E030E102076
:100DA000F76E0900F5CF18F00900F5CF19F00A0029
:100DB000F5CF1AF027EC0DF0EDD006D100D02A5077
:100DC000030D290EF324F66E030EF2D0FDD02A5047
:100DD000800A120FD8A08DD0000E126E030E116E75
:100DE000000E0A6E0A0E096E000E046E640E036E8B
:100DF0002A50016E026A01BE020623EC10F001C007
:100E000007F002C008F047EC0FF0090E07240F6E40
:100E1000000E0820106EE1EC11F0500E0F24F66E5B
:100E2000030E1020F76E0900F5CF18F00900F5CF7A
:100E300019F00A00F5CF1AF0000E0A6E640E096E62
:100E40002A50076E086A07BE080647EC0FF0120E1C
:100E500007240F6E000E0820106E000E126E030E97
:100E6000116EE1EC11F0500E0F24F66E030E1020FF
:100E7000F76E0900F5CF15F00900F5CF16F00A005E
:100E8000F5CF17F027EC0DF015C027F016C028F0AD
:100E900017C029F027C015F028C016F029C017F098
:100EA000000E126E030E116E000E046E0A0E036E1B
:100EB0002A50016E026A01BE020623EC10F001C046
:100EC0000FF002C010F0E1EC11F0500E0F24F66E9E
:100ED000030E1020F76E0900F5CF18F00900F5CFCA
:100EE00019F00A00F5CF1AF027EC0DF053D06CD0B2
:100EF00059D02A50800A750FD8A054D0000E0A6E1F
:100F00000A0E096E2A50076E086A07BE080647ECEB
:100F10000FF0090E07240F6E000E0820106E000E51
:100F2000126E030E116EE1EC11F0500E0F24F66EEE
:100F3000030E1020F76E0900F5CF15F00900F5CF6C
:100F400016F00A00F5CF17F0000E126E030E116EA8
:100F5000000E046E0A0E036E2A50016E026A01BE74
:100F6000020623EC10F001C00FF002C010F0E1EC1B
:100F700011F0500E0F24F66E030E1020F76E0900CC
:100F8000F5CF18F00900F5CF19F00A00F5CF1AF0E7
:100F900027EC0DF015C024F016C025F017C026F080
:100FA00013D000D02A50030D500EF324F66E030E1A
:100FB000F420F76E0900F5CF24F00900F5CF25F0F5
:100FC0000A00F5CF26F000D012002D6E6D0E2D64B4
:100FD0009BD0000E126E030E116E000E0A6E0A0EEA
:100FE000096E000E046E640E036E2DC001F0026ADD
:100FF00023EC10F001C007F002C008F047EC0FF03E
:10100000090E07240F6E000E0820106EE1EC11F09F
:10101000290E0F24F66E030E1020F76E0900F5CF8F
:1010200018F00900F5CF19F00A00F5CF1AF0000EFC
:101030000A6E640E096E2DC007F0086A47EC0FF0C7
:10104000120E07240F6E000E0820106E000E126E96
:10105000030E116EE1EC11F0290E0F24F66E030E53
:101060001020F76E0900F5CF15F00900F5CF16F046
:101070000A00F5CF17F027EC0DF015C02AF016C0C6
:101080002BF017C02CF0000E126E030E116E000E26
:10109000046E0A0E036E2DC001F0026A23EC10F0FC
:1010A00001C00FF002C010F0E1EC11F0290E0F2486
:1010B000F66E030E1020F76E0900F5CF18F0090048
:1010C000F5CF19F00A00F5CF1AF02AC015F02BC0A1
:1010D00016F02CC017F027EC0DF015C027F016C045
:1010E00028F017C029F027C015F028C016F029C035
:1010F00017F0000E186E000E196E3F0E1A6E27ECD8
:101100000DF07DD083D062D00A0E2D645FD0000E2A
:10111000126E030E116E000E046E0A0E036E2DC0C9
:1011200001F0026A23EC10F001C00FF002C010F0D1
:10113000E1EC11F0290E0F24F66E030E1020F76E6D
:101140000900F5CF18F00900F5CF19F00A00F5CF26
:101150001AF0000E0A6E0A0E096E2DC007F0086A1A
:1011600047EC0FF0090E07240F6E000E0820106EDA
:10117000000E126E030E116EE1EC11F0290E0F2419
:10118000F66E030E1020F76E0900F5CF15F009007A
:10119000F5CF16F00A00F5CF17F027EC0DF015C0CB
:1011A0002AF016C02BF017C02CF02AC015F02BC067
:1011B00016F02CC017F0000E186E000E196E3F0EC0
:1011C0001A6E27EC0DF01BD021D000D02D50030D4E
:1011D000290EF324F66E030EF420F76E0900F5CF06
:1011E00015F00900F5CF16F00A00F5CF17F0000E44
:1011F000186E000E196E3F0E1A6E27EC0DF015C01A
:1012000024F016C025F017C026F000D0120030C020
:1012100034F0356A366A2F34343601E33580345081
:10122000396E33C034F0356A366A3234343601E30D
:1012300035803450386E3950D8B40BD03850395CC2
:10124000D8B00ED0395000083824346E180E3464EB
:1012500007D031C02EF032C02FF033C030F0B8D0FC
:101260003850D8B40BD03950385CD8B00ED0385084
:1012700000083924346E180E346407D02EC02EF0C6
:101280002FC02FF030C030F0A3D0060E376E30AE36
:1012900002D0378E00D033BE378C2F8EFF0E2E1625
:1012A000FF0E2F16000E3016328EFF0E3116FF0E77
:1012B0003216000E33163850395CD8B01ED0D89094
:1012C000313632363336380639503818D8B40FD064
:1012D000370637C034F0070E3416D8B408D0EFD72D
:1012E00006D0D89030322F322E32392A00D03850E2
:1012F0003918D8B424D0F5D722D03950385CD8B0BA
:101300001ED0D8902E362F36303639063950381840
:10131000D8B40FD0370637C034F0070E3416D8B41F
:1013200008D0EFD706D0D890333232323132382A53
:1013300000D038503918D8B402D0F5D700D037AE25
:101340000CD0FF0E2E1AFF0E2F1AFF0E301A010EB0
:101350002E26000E2F22000E302237AC0DD0FF0EAD
:10136000311AFF0E321AFF0E331A010E3126000E0B
:101370003222000E332200D0000E376E2E5031265E
:101380002F5032223050332233AE0FD0FF0E311A9D
:10139000FF0E321AFF0E331A010E3126000E3222D2
:1013A000000E3322010E376E00D031C001F032C082
:1013B00002F033C003F039C004F037C005F087EC09
:1013C0000EF001C02EF002C02FF003C030F000D0AC
:1013D0001200000E356E020E356401D044D0355037
:1013E000010D8E0EF324D96E000EF420DA6EDF505C
:1013F000C26EC28200D0C2B2FED7C450336E346A0D
:101400003550020D4D0EF324D96E000EF420DA6E25
:1014100033C0DEFF34C0DDFF3550020D4D0EF32426
:10142000D96E000EF420DA6EDECF33F0DDCF34F06B
:1014300033C034F0336AC3503312000E34123550C7
:10144000020D4D0EF324D96E000EF420DA6E33C077
:10145000DEFF34C0DDFF000E166E050E156E83EC48
:1014600011F0352AB8D720EE4FF0DECF33F0DDCFC4
:1014700034F0331E341E334A342A4D503324096E5F
:101480004E5034200A6EF5EC11F009C053F00AC03A
:1014900054F00BC055F053C015F054C016F055C0B1
:1014A00017F0000E186EA00E196E400E1A6E27EC83
:1014B0000DF015C053F016C054F017C055F053C0CE
:1014C00024F054C025F055C026F0000E276E800E83
:1014D000286E440E296E16EC0EF024C053F025C081
:1014E00054F026C055F053C024F054C025F055C028
:1014F00026F0CD0E276E4C0E286E3E0E296E16EC91
:101500000EF024C053F025C054F026C055F051C051
:1015100009F052C00AF0F5EC11F009C056F00AC00B
:1015200057F00BC058F0000E186EA00E196E400E4A
:101530001A6E56C015F057C016F058C017F027ECB9
:101540000DF015C024F016C025F017C026F0000ECF
:10155000276E800E286E440E296E16EC0EF024C005
:1015600056F025C057F026C058F056C024F057C09A
:1015700025F058C026F08BC027F08CC028F08DC015
:1015800029F016EC0EF024C056F025C057F026C006
:1015900058F01200100E67EC12F0440E00018B6F31
:1015A000C50E00018C6F470E00018D6FE80E246E92
:1015B000000E256E470E266E8BC027F08CC028F0DB
:1015C0008DC029F016EC0EF024C08BF025C08CF0F5
:1015D00026C08DF0D4EC10F000D0E9EC09F04ED02C
:1015E000828C010EEAEC0EF0770E206E030E216E57
:1015F000B7EC11F0020EEAEC0EF0810E406E000E18
:10160000416EB10E426E030E436E56C044F057C099
:1016100045F058C046F0DDEC01F0000E0001886F87
:10162000810E206E000E216E1BEC12F0810E406EBA
:10163000000E416EA90E426E030E436E53C044F07D
:1016400054C045F055C046F0DDEC01F0000E00013D
:10165000886F810E206E000E216E1BEC12F0E9ECFB
:1016600009F0010E166EF40E156E83EC11F0000EEB
:10167000166E010E156E83EC11F000D053C001F010
:1016800054C002F055C003F0000E046E000E056E4B
:10169000BF0E066E92EC0FF0D8A0A2D756C001F094
:1016A00057C002F058C003F0000E046E580E056ECD
:1016B000410E066E92EC0FF0D8A092D7000E016E8C
:1016C000800E026EBF0E036E53C004F054C005F0CE
:1016D00055C006F092EC0FF0D8B07FD7000E016E27
:1016E000680E026E410E036E56C004F057C005F03E
:1016F00058C006F092EC0FF0D8B06FD7880E206E6D
:10170000030E216EB7EC11F0130E166E880E156ED7
:1017100083EC11F062D700EF00F01D6E1D5067ECF6
:1017200012F08C908C948C92000E166E640E156ED6
:1017300083EC11F0000E176E010E186E010E196E7B
:10174000000E9FEC11F0000E166E640E156E83EC09
:1017500011F0000E176E010E186E010E196E000EBC
:101760009FEC11F0000E166E0A0E156E83EC11F050
:10177000000E176E010E186E010E196E000E9FEC12
:1017800011F0000E176E010E186E000E196E000E8D
:101790009FEC11F0000E176E010E186E000E196E00
:1017A000000E9FEC11F0000E176E000E186E000E6A
:1017B000196E010E9FEC11F0000E176E000E186EE0
:1017C000000E196E000E9FEC11F0000E176E000E49
:1017D000186E000E196E010E9FEC11F0000E176EC0
:1017E000000E186E000E196E000E9FEC11F0000E28
:1017F000176E000E186E010E196E000E9FEC11F0A0
:10180000000E176E000E186E000E196E000E9FEC83
:1018100011F0010E176E010E186E000E196E000EFB
:101820009FEC11F008EC12F0000E1B6E000ECDECD8
:1018300011F0120003C007F0086A096A0234073683
:1018400001E3088007500F6E0F50D8A402D05DD07E
:1018500078D006C007F0086A096A0534073601E344
:10186000088007500E6E0E50D8A402D04ED069D01A
:10187000028EFF0E0116FF0E0216000E0316058ED5
:10188000FF0E0416FF0E0516000E0616000E0A6E59
:10189000000E0B6E000E0C6E000E0D6E7F0E0F5EB6
:1018A0000E50980F0F5E180E0E6ED8900A360B363B
:1018B0000C360D360450015C055002580650035892
:1018C000D8A007D00450015E0550025A0650035AB2
:1018D0000A80D8900136023603360E2EE6D700D0A5
:1018E0000FAE10D00F50800A970FD8B003D00DD094
:1018F00028D000D0D8900D320C320B320A320F3E75
:10190000F9D717D0170E0F6411D0000E016E000E1C
:10191000026E000E036E000E046E13D007D0D89036
:101920000A360B360C360D360F0600D00F50D8A4F1
:10193000F6D70AC001F00BC002F00CC003F00DC0D6
:1019400004F01200033404340C6E0C50D8A402D0FE
:1019500061D07CD0063407340B6E0B50D8A402D073
:1019600059D074D0038EFF0E0116FF0E0216FF0E23
:101970000316000E0416068EFF0E0416FF0E051643
:10198000FF0E0616000E0716000E076E000E086EFC
:10199000000E096E000E0A6E7F0E0C5E0B50A00F3B
:1019A0000C5E200E0B6E00D0D89007360836093634
:1019B0000A360450015C055002580650035807507F
:1019C0000458D8A00AD00450015E0550025A0650AF
:1019D000035A0750045A078000D0D89001360236C7
:1019E000033604360B2EE0D700D00CAE10D00C50CE
:1019F000800A9F0FD8B003D00DD028D000D0D89047
:101A00000A320932083207320C3EF9D717D01F0EBE
:101A10000C6411D0000E016E000E026E000E036EFB
:101A2000000E046E13D007D0D8900736083609365A
:101A30000A360C0600D00C50D8A4F6D707C001F027
:101A400008C002F009C003F00AC004F0120017C079
:101A50001BF01C6A1D6A16341B3601E31C801B50E8
:101A60001E6E1E50D8A402D00ED06CD01AC01BF02F
:101A70001C6A1D6A19341B3601E31C801B50236E3F
:101A80002350D8A407D0000E156E000E166E000E5F
:101A9000176E58D023507B0F1E2617C023F01A5004
:101AA000231A800E2316168E198EFF0E1816FF0E9F
:101AB0001916000E1A16000E1F6E000E206E000E74
:101AC000216E070E226E00D015A007D018501F26D9
:101AD000195020221A50212200D0D89017321632E5
:101AE0001532D890183619361A36222EEDD700D076
:101AF000090E226E00D015A007D018501F261950CD
:101B000020221A50212200D0D890173216321532D6
:101B1000D890213220321F32222EEDD700D01FC0A4
:101B200001F020C002F021C003F01EC004F023C069
:101B300005F087EC0EF001C015F002C016F003C0EE
:101B400017F000D012002DC02FF0306A316A2C340B
:101B50002F3601E330802F50396E3950D8A402D08F
:101B600039D063D0170E2F6E2BC030F02CC031F05F
:101B70002DC032F02F28336E04D0D890323231325B
:101B80003032332EFAD73050346E2C8EFF0E2B1697
:101B9000FF0E2C16000E2D162B50356E2C50366E67
:101BA0002D50376E386A8E0E395E39AE10D03950EE
:101BB000800A8F0FD8B003D00DD037D000D0D89086
:101BC0003832373236323532393EF9D719D0170E1E
:101BD000396411D0000E2B6E000E2C6E000E2D6E8F
:101BE000000E2E6E22D007D0D890353636363736D6
:101BF0003836390600D03950D8B402D0F5D700D0E5
:101C00003450D8B409D0381E371E361E356C000E3D
:101C100036223722382200D035C02BF036C02CF0C7
:101C200037C02DF038C02EF000D0120026C02AF0A8
:101C30002B6A2C6A25342A3601E32B802A50316E18
:101C40003150D8A402D00ED061D029C02AF02B6A1E
:101C50002C6A28342A3601E32B802A50326E325007
:101C6000D8A407D0000E246E000E256E000E266E3E
:101C70004DD0000E2E6E000E2F6E000E306E3250C4
:101C8000890F315E26C032F02950321A800E32168A
:101C9000258EFF0E2416FF0E2516000E2616288E02
:101CA000FF0E2716FF0E2816000E2916180E2D6E91
:101CB00000D0D8902E362F3630362750245C28504E
:101CC000255829502658D8A007D02750245E2850E0
:101CD000255A2950265A2E80D89024362536263665
:101CE0002D2EE7D700D02EC001F02FC002F030C05B
:101CF00003F031C004F032C005F087EC0EF001C0F3
:101D000024F002C025F003C026F000D012000450D9
:101D1000D8B405D0015002100310D8A40ED0000E84
:101D2000016E000E026E000E036E53D006D0042A20
:101D3000D89003320232013200D0000E0114066E38
:101D4000000E0214076EFE0E0314086E06500710F4
:101D50000810D8B40ED0EBD70CD0042A010E0126FF
:101D6000000E0222000E0322D8900332023201320A
:101D700000D0000E0114066E000E0214076EFF0E56
:101D80000314086E065007100810D8B408D0E5D721
:101D900006D00406D89001360236033600D002BEC3
:101DA00004D0020E0460F5D700D004B002D0029E29
:101DB00000D0D8900432045003120550D8B402D099
:101DC000038E00D001C001F002C002F003C003F096
:101DD00000D012001B6E4CD0000E176E000E186E55
:101DE000000E196E010E9FEC11F0000E176E000E22
:101DF000186E000E196E000E9FEC11F047D0010E08
:101E0000176E000E186E000E196E010E9FEC11F089
:101E1000000E176E000E186E000E196E000E9FEC6D
:101E200011F034D0000E176E000E186E010E196EF0
:101E3000010E9FEC11F0010E176E000E186E000ED1
:101E4000196E000E9FEC11F021D0010E176E000EDE
:101E5000186E010E196E010E9FEC11F0010E176E37
:101E6000000E186E000E196E000E9FEC11F00ED0D1
:101E70001B50010AD8B4B0D7030AD8B4C0D7010A9E
:101E8000D8B4D0D7070AD8B4E0D700D01200000EDB
:101E90000C6E0AAE07D0096C0A1ED8B00A2A010ED1
:101EA0000C6E00D008AE07D0076C081ED8B0082A08
:101EB000010E0C1A00D0000E0E6E000E0D6E0950B1
:101EC0000A10D8B421D0010E0B6E05D0D890093677
:101ED0000A360B2A00D00ABE02D0F8D700D0D8901C
:101EE0000D360E360950075C0A500858D8A006D0A7
:101EF0000950075E0A50085A0D8000D0D8900A3267
:101F000009320B2EECD700D00C50D8B405D00D6C94
:101F10000E1ED8B00E2A00D00DC007F00EC008F07B
:101F200000D0120003AE17D001C007F002C008F0C5
:101F300003C009F0071E081E091E072A000E08220A
:101F40000922000E0724016E000E0820026E800E8A
:101F50000920036E00D006AE17D004C007F005C0FC
:101F600008F006C009F0071E081E091E072A000E09
:101F700008220922000E0724046E000E0820056EB8
:101F8000800E0920066E00D0000E011A000E021A03
:101F9000800E031A000E041A000E051A800E061A8F
:101FA0000450015C0550025806500358D8B002D0C6
:101FB000D89002D0D88000D01200000E096E000E1A
:101FC0000A6E000E0B6E000E0C6E05500610071008
:101FD0000810D8B42FD0010E0D6E07D0D89005365A
:101FE0000636073608360D2A00D008BE02D0F6D7CE
:101FF00000D0D89009360A360B360C360550015CF5
:10200000065002580750035808500458D8A00AD068
:102010000550015E0650025A0750035A0850045AF0
:10202000098000D0D89008320732063205320D2ED2
:10203000E0D700D009C001F00AC002F00BC003F0E5
:102040000CC004F01200000E066E02AE07D0016C48
:10205000021ED8B0022A010E066E00D004AE05D0D2
:10206000036C041ED8B0042A00D003500410D8B466
:102070001DD0010E056E05D0D89003360436052A12
:1020800000D004BE02D0F8D700D00350015C045049
:102090000258D8A005D00350015E0450025A00D067
:1020A000D89004320332052EF0D700D00650D8B4B1
:1020B00005D0016C021ED8B0022A00D001C001F088
:1020C00002C002F000D012000550061007100810E0
:1020D000D8B429D0010E096E07D0D890053606363F
:1020E00007360836092A00D008BE02D0F6D700D03D
:1020F0000550015C06500258075003580850045818
:10210000D8A009D00550015E0650025A0750035A64
:102110000850045A00D0D8900832073206320532EF
:10212000092EE6D700D001C001F002C002F003C0C2
:1021300003F004C004F012001F6E8C801F44010BDA
:102140001B6E1F44E846030B010B1C6E1F38E84250
:10215000070B010B1D6E1F380F0B010B1E6E1CC0F1
:1021600017F01DC018F01EC019F01B509FEC11F0A5
:102170001F38E8461F0B010B1B6E1F40E8423F0B48
:10218000010B1C6ED8901F30010B1D6E1F50010BF0
:102190001E6E1CC017F01DC018F01EC019F01B5099
:1021A0009FEC11F08C901200000E896E9268000E68
:1021B0008A6E9368000E8B6E000E946E000E8C6E0D
:1021C000000E956E100E8DEC0BF0990E206E030E26
:1021D000216EB7EC11F0010E166EF40E156E83EC45
:1021E00011F0010E60EC12F0000EC26E0B0EC16E0B
:1021F000B50EC06EC29AC298C296850ED56E0B0EF1
:10220000D76EDC0ED66EF28EF294F28AC280120085
:102210008E0E116E07D0D8900C320B320A32093272
:10222000112A00D0000E09140D6E000E0A140E6E55
:10223000000E0B140F6EFF0E0C14106E0D500E10CE
:102240000F101010D8A4E7D709C001F00AC002F09F
:102250000BC003F011C004F0000E056E87EC0EF009
:1022600001C009F002C00AF003C00BF000D0120058
:1022700000EE77F0120EEE6AE806FDE100EE4DF09A
:10228000120EEE6AE806FDE1D60EF66E240EF76E2B
:10229000000EF86E0900F5CF8EF00900F5CF8FF033
:1022A0000900F5CF90F0D90EF66E240EF76E000EF1
:1022B000F86E0900F5CF5FF0000EF86E0001CAEF6E
:1022C0000AF03D503E103F10D8B407D0000E3D1A22
:1022D000000E3E1A800E3F1A00D03AC02EF03BC0CE
:1022E0002FF03CC030F03DC031F03EC032F03FC076
:1022F00033F007EC09F02EC03AF02FC03BF030C0AD
:102300003CF000D012005FC00FF0106A15C011F051
:1023100016C012F0E1EC11F00FC089F010C08AF085
:1023200007D0500EE82EFED700018907D8A08A07F3
:102330000001895100018A11D8A4F3D712001A6E46
:1023400019B002D08C9601D08C8618B002D08C982F
:1023500001D08C8817B002D08C9A01D08C8A1AB028
:1023600002D08C9C01D08C8C51EC12F012000BD05E
:1023700020C0F6FF21C0F7FF0800F5509CEC10F0DC
:10238000204A212A00D020C0F6FF21C0F7FF080014
:10239000F5500009D8A4ECD712001C6E000E176E81
:1023A000000E186E000E196E000E9FEC11F0010E5B
:1023B000176E1CC018F01BC019F0010E9FEC11F035
:1023C00012000F501102F3CF13F0F4CF14F00F509E
:1023D0001202F350142610501102F350142613C0A9
:1023E0000FF014C010F000D0120009C001F00AC0B4
:1023F00002F0036A8E0E046E000E056E87EC0EF07E
:1024000001C009F002C00AF003C00BF000D01200B6
:10241000000E176E000E186E000E196E000E9FEC67
:1024200011F0000E176E000E186E010E196E000EE0
:102430009FEC11F012000AD020C0D9FF21C0DAFFB2
:10244000DF509CEC10F0204A212A00D020C0D9FF98
:1024500021C0DAFFDF50D8A4EFD7120001500210DC
:102460000310D8B406D0000E011A000E021A800E16
:10247000031A01C001F002C002F003C003F0120011
:10248000036E000E026E3A0E036006D02F0E036438
:1024900003D0010E026E00D002C001F0013000D066
:1024A00012008C84000E166E010E156E83EC11F076
:1024B0008C94000E166E010E156E83EC11F0120056
:1024C000016E01B002D08C9E01D08C8E1200016E84
:0A24D00001C05FF0120001050910C1
:020000040020DA
:08000000FFFFFFFFFFFFFFFF00
:020000040030CA
:0E000000FF021F1EFF8081FF0FC00FE00F40A8
:00000001FF
