:040000005CEF00F0C1
:0E0008004082FACF01F0FBCF02F0D5ED15F0EB
:100018004080D8CF0FF0E8CF10F0E0CF11F0FACF42
:1000280012F0FBCF13F0E9CF14F0EACF15F0E1CFCF
:1000380016F0E2CF17F0D9CF18F0DACF19F0F3CFD6
:100048001AF0F4CF1BF0F6CF1CF0F7CF1DF0F8CF65
:100058001EF0F5CF1FF09EA007D03C0ECF6EB00E5D
:10006800CE6E9E90310ECD6E1FC0F5FF1EC0F8FFFC
:100078001DC0F7FF1CC0F6FF1BC0F4FF1AC0F3FF3A
:1000880019C0DAFF18C0D9FF17C0E2FF16C0E1FF98
:1000980015C0EAFF14C0E9FF13C0FBFF12C0FAFF46
:1000A80011C0E0FF10C0E8FF0FC0D8FF409010005B
:1000B80041EF19F0BD0E0101046F000E0101056F3B
:1000C8006CEF04F0250E01011819D8B407D0B9C097
:1000D800D9FFBAC0DAFF18C1DFFFF7D3000E01015C
:1000E800076F000E066FBBC0F6FFBCC0F7FF080025
:1000F800F5502E0AD8A434D00101078D0001BB4B5E
:10010800BC2B000E0101136F000E126F1ED012C11E
:1001180020F013C121F0000E236E0A0E226E96EC19
:100128001AF0BBC0F6FFBCC0F7FF0800F550202648
:10013800000E2122D00E20240101126FFF0E212073
:100148000101136F0001BB4BBC2BBBC0F6FFBCC049
:10015800F7FF0800F550CBEC1AF0D8A00CD0D7D791
:10016800000E0101136F000E126F0101078903D001
:100178000101078513D0BBC0F6FFBCC0F7FF000123
:10018800BB4BBC2B0800F5CF18F101011851000A30
:10019800D8B4ADD3660AD8B4EBD79AD3070E010109
:1001A8000715D8B43DD3010107A905D0000E0101F8
:1001B800136F060E126F04C1D9FF05C1DAFFDECF37
:1001C80014F1DECF15F1DECF16F1DECF17F1040EF4
:1001D80001010427000E0523010117AF15D014C132
:1001E80020F015C121F016C122F017C123F030EC20
:1001F8001AF020C014F121C015F122C016F123C055
:1002080017F1030E01010613000E01010D6F000E18
:100218000C6F0101145101011511010116110101A1
:100228001711D8B488D0010116351735820F01018E
:100238000C6F01010D6BFF0E0D2301010C07D8A0F7
:100248000D070CC120F00DC121F0000E236E030E26
:10025800226E96EC1AF020C00CF121C00DF10CC1F1
:1002680026F00DC127F0000E296E0A0E286E12EC3A
:1002780018F026C00CF127C00DF101010DAF04D014
:1002880001010C07D8A00D0701010C51000829EC49
:1002980009F0A6C00EF1A7C00FF1A8C010F1A9C0BF
:1002A80011F10EC18DF00FC18EF010C18FF011C188
:1002B80090F014C191F015C192F016C193F017C1D6
:1002C80094F0D6EC06F08DC00EF18EC00FF18FC001
:1002D80010F190C011F10EC120F00FC121F010C132
:1002E80022F011C123F0000E246E000E256E800E40
:1002F800266E3F0E276E32EC14F0D8B005D00101FF
:100308000C07D8A00D0717D00EC120F00FC121F09F
:1003180010C122F011C123F0000E246E000E256ECC
:10032800200E266E410E276E32EC14F0D8A003D0B2
:1003380001010C4B0D2B010113BF08D00101135112
:1003480023E10D0E0101125DD8B01ED014C179F061
:1003580015C17AF016C17BF017C17CF0010112516A
:1003680028EC0DF0A6C07DF0A7C07EF0A8C07FF0F5
:10037800A9C080F082EC04F079C014F17AC015F1BC
:100388007BC016F17CC017F101010DBF08D0010137
:100398000D512EE10A0E01010C5DD8B029D00101E2
:1003A8001451010115110101161101011711D8B4D9
:1003B8006BD014C1AFF015C1B0F016C1B1F017C1C0
:1003C800B2F04FEC15F00001AF510001B01100017F
:1003D800B1110001B211D8A457D001010DBF54D0FA
:1003E80001010D5105E1020E01010C5DD8A04CD0B0
:1003F8000EC120F00FC121F010C122F011C123F06D
:100408005F0E246E700E256E890E266E400E276EC6
:1004180032EC14F0D8B003D00101F70E02D001017C
:10042800F80E0C27FF0E0D2301010C5129EC09F0E1
:10043800A6C00EF1A7C00FF1A8C010F1A9C011F114
:1004480014C120F015C121F016C122F017C123F004
:100458000EC124F00FC125F010C126F011C127F0FC
:100468009EEC13F020C008F121C009F122C00AF166
:1004780023C00BF1000E0101146F000E156F000E62
:10048800166F000E176F3CD014C1AFF015C1B0F055
:1004980016C1B1F017C1B2F04FEC15F0AFC008F1BA
:1004A800B0C009F1B1C00AF1B2C00BF114C18DF0AE
:1004B80015C18EF016C18FF017C190F008C120F059
:1004C80009C121F00AC122F00BC123F0000EF6EC9D
:1004D80012F020C091F021C092F022C093F023C006
:1004E80094F0BAEC19F08DC014F18EC015F18FC0DC
:1004F80016F190C017F1000E01010D6F000E0C6F80
:10050800010E0101186F0A0E01011819D8B41ED086
:1005180001011851040D4F0EF324F66E3F0EF4201E
:10052800F76E0900F5500101085D0900F550010159
:1005380009590900F55001010A590900F55001014E
:100548000B59D8A003D00101182BDDD7030E0101E8
:1005580006150001C16F000E010107150001C26FE9
:100568000001C1510001C211D8B454D0B9C0D9FF9B
:10057800BAC0DAFF2D0E4CD00001B94BBA2B4AD0C5
:1005880008C120F009C121F00AC122F00BC123F0F3
:1005980001011851040D4F0EF324F66E3F0EF4209E
:1005A800F76E0900F5CF24F00900F5CF25F0090012
:1005B800F5CF26F00A00F5CF27F095EC18F020C00B
:1005C8000EF121C00FF122C010F123C011F10EC1AC
:1005D80020F00FC121F010C122F011C123F00A0E42
:1005E800246E000E256E000E266E000E276E0EEC91
:1005F80019F020C00EF121C00FF122C010F123C064
:1006080011F101010E51300FB9C0D9FFBAC0DAFF9C
:10061800DF6EB2D70101180701011829D8B40ED02E
:10062800AFD7B9C0D9FFBAC0DAFF300EDF6E00010C
:10063800B94BBA2B01010C07D8A00D0701010DBF5A
:1006480007D001010D51EDE101010C05D8B0E9D742
:10065800010113BF0CD00101135105E1090E01017D
:10066800125DD8A004D0080E0101186F02D012C183
:1006780018F1010118510101125F000E010118BFA4
:10068800FF0E0101135B010118510101D8B409D013
:10069800B9C0D9FFBAC0DAFF2E0EDF6E0001B94B20
:1006A800BA2B0101185129EC09F0A6C000F1A7C026
:1006B80001F1A8C002F1A9C003F114C191F015C15C
:1006C80092F016C193F017C194F000C18DF001C1EA
:1006D8008EF002C18FF003C190F0D6EC06F08DC009
:1006E800AFF08EC0B0F08FC0B1F090C0B2F04FEC58
:1006F80015F0AFC008F1B0C009F1B1C00AF1B2C03D
:100708000BF173D008C120F009C121F00AC122F011
:100718000BC123F001011851040D4F0EF324F66E9E
:100728003F0EF420F76E0900F5CF24F00900F5CF4D
:1007380025F00900F5CF26F00A00F5CF27F095EC53
:1007480018F020C00EF121C00FF122C010F123C013
:1007580011F10EC120F00FC121F010C122F011C11A
:1007680023F00A0E246E000E256E000E266E000E73
:10077800276E0EEC19F020C00EF121C00FF122C037
:1007880010F123C011F101010E51300FB9C0D9FF8A
:10079800BAC0DAFFDF6E0001B94BBA2B08C120F0EE
:1007A80009C121F00AC122F00BC123F0010118513F
:1007B800040D4F0EF324F66E3F0EF420F76E090079
:1007C800F5CF24F00900F5CF25F00900F5CF26F084
:1007D8000A00F5CF27F00EEC19F020C008F121C06F
:1007E80009F122C00AF123C00BF101011807010128
:1007F8001829D8B40ED086D7B9C0D9FFBAC0DAFF45
:10080800300EDF6E0001B94BBA2B01011207D8A0D8
:1008180013070101125101011311D8B459D0ECD7B3
:100828000101125101011311D8A40DD00101085181
:100838000101091101010A1101010B11D8A403D00A
:100848000101124B132B800E010118BF7F0E00010E
:10085800C16F010112510101185D01011351800A94
:100868000001C159D8B003D012C118F118D0010144
:100878001351800A0001C16F010118510101125D75
:10088800800E010118BF7F0E0001C159D8B007D0F2
:10089800010118510101126F136B12BF1307030EE8
:1008A800010106150001C16F000E010107150001C5
:1008B800C26F0001C1510001C211D8B409D0B9C03A
:1008C800D9FFBAC0DAFF2D0EDF6E0001B94BBA2B83
:1008D800BBC0F6FFBCC0F7FF0001BB4BBC2B080038
:1008E800F5CF18F101011851D8A466EF00F0B9C08E
:1008F800D9FFBAC0DAFF000EDF6E120000017C518A
:10090800800B0001896F00017C517C2500018B6FF1
:1009180000017BAF02D000018B8100018B510001E7
:10092800D8B412D000018B29D8A409D0000E000138
:10093800796F000E7A6F000E7B6F000E7C6F0001DE
:100948007B8F000E000108D0000E0001796F000EA9
:100958007A6F000E7B6F000E7C6F00018051800B58
:1009680000018A6F0001895100018A19D8B402D0A8
:100978000001898D00018051802500018A6F0001E6
:100988007FAF02D000018A8100018A510001D8B4EA
:1009980012D000018A29D8A409D0000E00017D6F69
:1009A800000E7E6F000E7F6F000E806F00017F8F3C
:1009B800000E000108D0000E00017D6F000E7E6F52
:1009C800000E7F6F000E806F00018B5100018A5D61
:1009D800D8B024D0000189AD03D0800E0001891B56
:1009E8008BC08CF08AC08BF08CC08AF079C08CF0F8
:1009F8007DC079F08CC07DF07AC08CF07EC07AF032
:100A08008CC07EF07BC08CF07FC07BF08CC07FF008
:100A18007CC08CF080C07CF08CC080F0000E00019F
:100A28008C6F00018B510001816F826B0001811F67
:100A3800821F814B822B00018A510001836F846BD6
:100A480000018151000183270001825100018423A4
:100A5800000184BF3DD00001845105E11A0E000158
:100A6800835DD8A035D00001795100017A110001C9
:100A78007B1100017C11D8B402D0010E01D0000E08
:100A880000018C6F000E0001796F000E7A6F000E66
:100A98007B6F000E7C6F8AC08BF020D000018CA188
:100AA80007D00001D8908C31010900018C6F03D068
:100AB8000001D8908C33000179A102D000018C8FFD
:100AC80000017C357C337B337A33793300018B2BFF
:100AD80000018A5100018B5DD8A0E0D7000189BDD3
:100AE8003FD000018B510001D8A40AD0000E0001AC
:100AF800796F000E7A6F000E7B6F000E7C6F12000C
:100B080000017D510001792700017E5100017A23FF
:100B180000017F5100017B230001805100017C23EB
:100B280000017CA1CCD000018CA109D00001D89093
:100B38008C3300018C51010900018C6F03D0000136
:100B4800D8908C33000179A102D000018C8F00016C
:100B58007C357C337B337A33793300018B2BAFD0F0
:100B680000017D510001795D00017E5100017A5933
:100B780000017F5100017B5900017C51800A00016E
:100B8800816F00018051800A00018159D8B050D08E
:100B980079C081F07AC082F07BC083F07CC084F099
:100BA8000001811F821F831F841F812B000E822357
:100BB8008323842300017D51000181250001856F75
:100BC80000017E51000182210001866F00017F51E2
:100BD800000183210001876F0001805100018421F9
:100BE8000001886FFF0E000185250001796FFF0E57
:100BF8000001862100017A6FFF0E000187210001A4
:100C08007B6FFF0E0001882100017C6F800E0001C0
:100C1800891B00018C6D00018C510001D8A418D0EB
:100C2800010E00017927000E7A237B237C2310D044
:100C380000017D510001795F00017E5100017A5B5E
:100C480000017F5100017B5B0001805100017C5B4A
:100C58000001795100017A1100017B1100017C111A
:100C6800D8A42AD000018C510001D8A425D0000EA8
:100C78000001796F000E7A6F000E7B6F000E7C6F9B
:100C880012000001D89079377A377B377C3700011A
:100C98008CAF02D00001798100018CA103D0D880EB
:100CA800000102D00001D8908C3700018B5100015F
:100CB800D8B402D000018B0700017BAFE2D7000E49
:100CC80000018A6F00018CAF0DD08CC081F07F0EBF
:100CD80000018117D8A403D0000179A103D0010E27
:100CE80000018A6F00018A510001D8B426D0010E94
:100CF80000017927000E7A237B237C2300017CA145
:100D08001CD079C081F07AC082F07BC083F07CC0AF
:100D180084F000018435843383338233813381C086
:100D280079F082C07AF083C07BF084C07CF0000147
:100D38008B29D8B402D000018B2B00018B29D8B4A1
:100D480005D000018B510001D8A411D0000E00017C
:100D5800796F000E7A6F000E7B6F000E7C6F0001BA
:100D68008B510001D8A403D0000E0001896F000147
:100D78008BA103D000017B8F02D000017B9F000173
:100D8800D8908B3100017C6F000189AF02D000013F
:100D98007C8F79C079F07AC07AF07BC07BF07CC018
:100DA8007CF0120000019051800B0001996F000146
:100DB8009051902500019F6F00018FAF02D0000174
:100DC8009F8100019F510001D8B410D000019F29D4
:100DD800D8A409D0000E00018D6F000E8E6F000E92
:100DE8008F6F000E906F00018F8F09D0000E0001E9
:100DF8008D6F000E8E6F000E8F6F000E906F0001CA
:100E08009451800B0001991B000194519425000115
:100E18009A6F000193AF02D000019A8100019A51A4
:100E28000001D8B410D000019A29D8A409D0000E26
:100E38000001916F000E926F000E936F000E946F79
:100E48000001938F09D0000E0001916F000E926F80
:100E5800000E936F000E946F00019A510001D8B4F0
:100E680005D000019F510001D8A40AD0000E00014E
:100E78008D6F000E8E6F000E8F6F000E906F120038
:100E88000001935100018D03F3CFA4F0F4CFA5F036
:100E98000001A45100019B6F9C6B9D6B9E6B000130
:100EA800A5510001A06FA16BA26BA36B0001925129
:100EB80000018E03F3CFA4F0F4CFA5F00001A451F4
:100EC80000019B27000E9C239D239E230001A55112
:100ED8000001A027000EA123A223A3230001915102
:100EE80000018F03F3CFA4F0F4CFA5F00001A451C3
:100EF80000019B27000E9C239D239E230001A551E2
:100F08000001A027000EA123A223A3239DC09EF0C9
:100F18009CC09DF09BC09CF000019B6B000191510F
:100F280000018E03F3CFA4F0F4CFA5F00001A45183
:100F380000019B270001A55100019C23000E000120
:100F48009D23000E00019E230001925100018D0394
:100F5800F3CFA4F0F4CFA5F00001A45100019B2722
:100F68000001A55100019C23000E00019D23000EE5
:100F780000019E239DC09EF09CC09DF09BC09CF0EC
:100F880000019B6B0001915100018D03F3CFA4F088
:100F9800F4CFA5F00001A45100019B270001A55141
:100FA80000019C23000E00019D23000E00019E23DA
:100FB8000001935100018E03F3CFA4F0F4CFA5F004
:100FC8000001A4510001A0270001A5510001A1239F
:100FD800000E0001A223000E0001A323000192517C
:100FE80000018F03F3CFA4F0F4CFA5F00001A451C2
:100FF8000001A0270001A5510001A123000E000156
:10100800A223000E0001A3230001935100018F03C6
:10101800F3CFA4F0F4CFA5F00001A4510001956F1F
:101028000001A5510001966F0001976B0001986BB4
:1010380097C098F096C097F095C096F00001956B10
:10104800000195510001A027000196510001A1233C
:10105800000197510001A223000198510001A32328
:101068009BC095F09CC096F09DC097F09EC098F0EC
:10107800190E06D00001D8909833973396339533DC
:10108800E82EF8D7000195510001A02700019651DC
:101098000001A123000197510001A22300019851EA
:1010A8000001A3239DC09EF09CC09DF09BC09CF0B6
:1010B80000019B6B00019A519FC095F00001966B4F
:1010C80000019527000E9623820E00019525000148
:1010D800A46FFF0E000196210001A56F15D0000135
:1010E800D890A037A137A237A33700019EAF02D00E
:1010F8000001A0810001D8909B379C379D379E370F
:101108000001A407D8A0A5070001A2AFE8D7000EE8
:1011180000019A6F00019EAF24D0FF0E00019B15BD
:101128000001956FFF0E00019C150001966FFF0EE0
:1011380000019D150001976F7F0E00019E150001AB
:10114800986F000195510001961100019711000157
:101158009811D8A403D00001A0A103D0010E00016A
:101168009A6F00019A510001D8B423D0010E0001F2
:10117800A027000EA123A223A3230001A3A119D015
:10118800A0C095F0A1C096F0A2C097F0A3C098F0B7
:1011980000019835983397339633953395C0A0F06E
:1011A80096C0A1F097C0A2F098C0A3F00001A44B8C
:1011B800A52B0001A5BF10D00001A55104E1000135
:1011C800A429D8A009D0000E0001A06F000EA16FBD
:1011D800800EA26F7F0E2BD00001A5BF07D00001A3
:1011E800A55111E10001A405D8B00DD0000E0001F1
:1011F800A06F000EA16F000EA26F000EA36F000E6D
:101208000001996F15D0A4C09FF0FF0E0001A01730
:10121800FF0EA1177F0EA217000EA31700019FA1B2
:1012280002D00001A28F0001D8909F310001A36F66
:10123800000199510001A313A0C08DF0A1C08EF048
:10124800A2C08FF0A3C090F012000001AE6F0001A1
:10125800AEAF0ED10001AE6D0001AE51800A120F83
:10126800D8A09BD0000E296E0A0E286E000E236EA1
:10127800640E226E0001AE51206E216A20BE210646
:10128800D6EC18F020C026F021C027F012EC18F098
:10129800D89026362736D89026362736240E262686
:1012A800000E2722E70E2624F66E3E0E2720F76E44
:1012B8000900F5CF91F00900F5CF92F00900F5CFBC
:1012C80093F00A00F5CF94F0000E296E640E286E94
:1012D8000001AE51266E276A26BE270612EC18F0CA
:1012E800D89026362736D89026362736480E262612
:1012F800000E2722E70E2624F66E3E0E2720F76EF4
:101308000900F5CF8DF00900F5CF8EF00900F5CF73
:101318008FF00A00F5CF90F0D6EC06F08DC0AAF059
:101328008EC0ABF08FC0ACF090C0ADF0AAC08DF00D
:10133800ABC08EF0ACC08FF0ADC090F0000E236E45
:101348000A0E226E0001AE51206E216A20BE2106CF
:10135800D6EC18F0D89020362136D8902036213691
:10136800E70E2024F66E3E0E2120F76E0900F5CF19
:1013780091F00900F5CF92F00900F5CF93F00A003B
:10138800F5CF94F0D6EC06F08DC0A6F08EC0A7F08D
:101398008FC0A8F090C0A9F012000001AE51800AD9
:1013A800750FD8A04FD0000E296E0A0E286E0001C6
:1013B800AE51266E276A26BE270612EC18F0D89082
:1013C80026362736D89026362736240E2626000EAF
:1013D8002722E70E2624F66E3E0E2720F76E090018
:1013E800F5CF8DF00900F5CF8EF00900F5CF8FF01D
:1013F8000A00F5CF90F0000E236E0A0E226E00014F
:10140800AE51206E216A20BE2106D6EC18F0D89085
:1014180020362136D89020362136E70E2024F66E65
:101428003E0E2120F76E0900F5CF91F00900F5CFA7
:1014380092F00900F5CF93F00A00F5CF94F0D6ECBE
:1014480006F0A2D70001AE51040DE70EF324F66EA4
:101458003E0EF420F76E0900F5CFA6F00900F5CF8F
:10146800A7F00900F5CFA8F00A00F5CFA9F01200FF
:101478000001AE51800A120FD8A09BD0000E296E31
:101488000A0E286E000E236E640E226E0001AE5105
:10149800206E216A20BE2106D6EC18F020C026F066
:1014A80021C027F012EC18F0D89026362736D890AD
:1014B80026362736240E2626000E27221B0E262423
:1014C800F66E3F0E2720F76E0900F5CF91F0090060
:1014D800F5CF92F00900F5CF93F00A00F5CF94F01C
:1014E800000E296E640E286E0001AE51266E276A22
:1014F80026BE270612EC18F0D89026362736D89044
:1015080026362736480E2626000E27221B0E2624AE
:10151800F66E3F0E2720F76E0900F5CF8DF0090013
:10152800F5CF8EF00900F5CF8FF00A00F5CF90F0D7
:10153800D6EC06F08DC0AAF08EC0ABF08FC0ACF030
:1015480090C0ADF0AAC08DF0ABC08EF0ACC08FF0EB
:10155800ADC090F0000E236E0A0E226E0001AE514F
:10156800206E216A20BE2106D6EC18F0D8902036CD
:101578002136D890203621361B0E2024F66E3F0ED9
:101588002120F76E0900F5CF91F00900F5CF92F010
:101598000900F5CF93F00A00F5CF94F0D6EC06F0E9
:1015A8008DC0A6F08EC0A7F08FC0A8F090C0A9F09B
:1015B80012000001AE51800A750FD8A04FD0000E5E
:1015C800296E0A0E286E0001AE51266E276A26BEC5
:1015D800270612EC18F0D89026362736D8902636EB
:1015E8002736240E2626000E27221B0E2624F66EEA
:1015F8003F0E2720F76E0900F5CF8DF00900F5CFD3
:101608008EF00900F5CF8FF00A00F5CF90F0000EAC
:10161800236E0A0E226E0001AE51206E216A20BE92
:101628002106D6EC18F0D89020362136D8902036EE
:1016380021361B0E2024F66E3F0E2120F76E09007E
:10164800F5CF91F00900F5CF92F00900F5CF93F0AE
:101658000A00F5CF94F0D6EC06F0A2D70001AE51FF
:10166800040D1B0EF324F66E3F0EF420F76E0900EE
:10167800F5CFA6F00900F5CFA7F00900F5CFA8F03F
:101688000A00F5CFA9F0120000016351800B000198
:101698006C6F0001635163250001776F000162AF31
:1016A80002D000017781000177510001D8B412D02F
:1016B80000017729D8A409D0000E0001606F000E40
:1016C800616F000E626F000E636F0001628F000E83
:1016D800000108D0000E0001606F000E616F000E5F
:1016E800626F000E636F00016751800B00016C1B75
:1016F8000001675167250001786F000166AF02D0CD
:1017080000017881000178510001D8B412D000019D
:101718007829D8A409D0000E0001646F000E656F07
:10172800000E666F000E676F0001668F000E0001E5
:1017380008D0000E0001646F000E656F000E666F22
:10174800000E676F00016451000165110001661108
:1017580000016711D8A417D0000E0001606F000EB9
:10176800616F000E626F000E636F0001800E6213DE
:101778007F0E631360C060F061C061F062C062F008
:1017880063C063F01200000177510001D8A412D0A1
:10179800000E0001606F000E616F000E626F000E98
:1017A800636F60C060F061C061F062C062F063C0E6
:1017B80063F01200000178510001686F696B000145
:1017C800681F691F684B692B0001775100016A6F18
:1017D8006B6B0001685100016A2700016951000123
:1017E8006B237F0E00016A250001716F000E000156
:1017F8006B210001726F60C06DF061C06EF062C055
:101808006FF063C070F0000E0001606F000E616F32
:10181800000E626F000E636F000E0001736F000E02
:10182800746F000E756F000E766F000E0001786FF2
:1018380042D0000178510001D8B417D00001D890E7
:101848006D376E376F3770370001D8906037613762
:1018580062376337000176AF02D000016081000172
:10186800D8907337743775377637000164510001A3
:101878006D5D0001655100016E590001665100015E
:101888006F590001675100017059D8A012D00001AA
:10189800768D0001645100016D5F00016551000102
:1018A8006E5B0001665100016F5B0001675100012A
:1018B800705B0001782B190E00017865BAD700011A
:1018C8006D5100016E1100016F1100017011D8B443
:1018D80018D00001738115D00001D89060376137A6
:1018E80062376337000176AF02D0000160810001E2
:1018F800D890733774377537763700017107D8A0D9
:101908007207000162AFE8D7000E0001786F00018E
:1019180076AF24D0FF0E000173150001686FFF0E2B
:10192800000174150001696FFF0E000175150001B3
:101938006A6F7F0E0001761500016B6F0001685118
:101948000001691100016A1100016B11D8A403D0CC
:10195800000160A103D0010E0001786F00017851E9
:101968000001D8B423D0010E00016027000E6123C6
:1019780062236323000163A119D060C068F061C0CD
:1019880069F062C06AF063C06BF000016B356B33BD
:101998006A336933683368C060F069C061F06AC04F
:1019A80062F06BC063F00001714B722B000172BFD3
:1019B80014D00001725104E100017129D8A00DD0A2
:1019C800000E0001726F7169000E0001606F000E59
:1019D800616F000E626F000E636F000172BF07D067
:1019E8000001725115E100017105D8B011D0000E47
:1019F8000001726F000E716F000E0001606F000E23
:101A0800616F000E626F000E636F000E00016C6F55
:101A180071C077F0000177A103D00001628F02D076
:101A28000001629F0001D89077310001636F0001C7
:101A38006C510001631360C060F061C061F062C066
:101A480062F063C063F012000001B26F6D0E000116
:101A5800B265ADD0000E296E0A0E286E000E236EF8
:101A6800640E226EB2C020F0216AD6EC18F020C0B5
:101A780026F021C027F012EC18F0D8902636273629
:101A8800D89026362736240E2626000E2722E70E63
:101A98002624F66E3E0E2720F76E0900F5CF91F04A
:101AA8000900F5CF92F00900F5CF93F00A00F5CFC1
:101AB80094F0000E296E640E286EB2C026F0276AD4
:101AC80012EC18F0D89026362736D89026362736C6
:101AD800480E2626000E2722E70E2624F66E3E0E16
:101AE8002720F76E0900F5CF8DF00900F5CF8EF0AD
:101AF8000900F5CF8FF00A00F5CF90F0D6EC06F08C
:101B08008DC0AEF08EC0AFF08FC0B0F090C0B1F015
:101B1800000E236E0A0E226EB2C020F0216AD6ECA7
:101B280018F0D89020362136D89020362136E70E86
:101B38002024F66E3E0E2120F76E0900F5CF91F0B5
:101B48000900F5CF92F00900F5CF93F00A00F5CF20
:101B580094F0AEC08DF0AFC08EF0B0C08FF0B1C0C1
:101B680090F0D6EC06F08DC0AAF08EC0ABF08FC016
:101B7800ACF090C0ADF0AAC08DF0ABC08EF0ACC098
:101B88008FF0ADC090F0000E0001916F000E926FC3
:101B9800000E936F3F0E946FD6EC06F08DC0A6F042
:101BA8008EC0A7F08FC0A8F090C0A9F012000A0E4E
:101BB8000001B26564D0000E236E0A0E226EB2C018
:101BC80020F0216AD6EC18F0D89020362136D8902B
:101BD80020362136E70E2024F66E3E0E2120F76EC1
:101BE8000900F5CF91F00900F5CF92F00900F5CF83
:101BF80093F00A00F5CF94F0000E296E0A0E286EB5
:101C0800B2C026F0276A12EC18F0D890263627368C
:101C1800D89026362736240E2626000E2722E70ED1
:101C28002624F66E3E0E2720F76E0900F5CF8DF0BC
:101C38000900F5CF8EF00900F5CF8FF00A00F5CF37
:101C480090F0D6EC06F08DC0AEF08EC0AFF08FC02D
:101C5800B0F090C0B1F0AEC08DF0AFC08EF0B0C0A3
:101C68008FF0B1C090F0000E0001916F000E926FDE
:101C7800000E936F3F0E946FD6EC06F08FD70001DD
:101C8800B251040DE70EF324F66E3E0EF420F76E03
:101C98000900F5CF8DF00900F5CF8EF00900F5CFDA
:101CA8008FF00A00F5CF90F0000E0001916F000E42
:101CB800926F000E936F3F0E946FD6EC06F08DC0B6
:101CC800A6F08EC0A7F08FC0A8F090C0A9F01200AF
:101CD800000E2E6E030E2E6401D046D02E50010D3C
:101CE800F50EF324D96E000EF420DA6EDF50C26EC2
:101CF800C282C2B2FED7C4500001A66FA76B2E5095
:101D0800020DD00EF324D96E000EF420DA6EA6C0B0
:101D1800DEFFA7C0DDFF2E50020DD00EF324D96ED2
:101D2800000EF420DA6EDECFA6F0DDCFA7F0A6C055
:101D3800A7F00001A66BC3500001A613000EA7135D
:101D48002E50020DD00EF324D96E000EF420DA6E58
:101D5800A6C0DEFFA7C0DDFF000E276E050E266EAB
:101D6800FFEC19F02E2AB6D720EED2F0DECFA6F07F
:101D7800DDCFA7F00001A61FA71FA64BA72B0001C8
:101D8800D4510001A6270001D5510001A723A6C000
:101D980020F0A7C021F0000E21BEFF0E226E236E98
:101DA800010EF6EC12F020C0D6F021C0D7F022C008
:101DB800D8F023C0D9F0D6C08DF0D7C08EF0D8C0E7
:101DC8008FF0D9C090F0000E0001916F000E926F55
:101DD800A00E936F400E946FD6EC06F08DC0D6F02F
:101DE8008EC0D7F08FC0D8F090C0D9F0D6C060F0C0
:101DF800D7C061F0D8C062F0D9C063F0000E00010E
:101E0800646F000E656F800E666F440E676F48EC56
:101E18000BF060C0D6F061C0D7F062C0D8F063C0E4
:101E2800D9F0D6C060F0D7C061F0D8C062F0D9C090
:101E380063F0CD0E0001646FCC0E656F4C0E666FBB
:101E48003E0E676F48EC0BF060C0D6F061C0D7F06B
:101E580062C0D8F063C0D9F0D0C020F0D1C021F062
:101E6800000E21BEFF0E226E236E010EF6EC12F05C
:101E780020C0EAF021C0EBF022C0ECF023C0EDF066
:101E8800000E0001916F000E926FA00E936F400E2E
:101E9800946FEAC08DF0EBC08EF0ECC08FF0EDC00F
:101EA80090F0D6EC06F08DC060F08EC061F08FC067
:101EB80062F090C063F0000E0001646F000E656F61
:101EC800800E666F440E676F48EC0BF060C0EAF056
:101ED80061C0EBF062C0ECF063C0EDF0EAC060F006
:101EE800EBC061F0ECC062F0EDC063F0CA0E000117
:101EF800646F140E656FA90E666F3E0E676F48EC2F
:101F08000BF060C0EAF061C0EBF062C0ECF063C0B7
:101F1800EDF01200CEEC17F06CEC0EF0EDEC16F0D4
:101F280054EC18F084EC10F0040E0001F419D8A455
:101F3800F5D78D900001DE510001DF110001E0119D
:101F48000001E111D8B425D0DAC060F0DBC061F03F
:101F5800DCC062F0DDC063F0DEC020F0DFC021F03D
:101F6800E0C022F0E1C023F0000EF6EC12F020C031
:101F780064F021C065F022C066F023C067F048EC29
:101F88000BF060C0DAF061C0DBF062C0DCF063C067
:101F9800DDF0000E0001646F000E656F700E666F55
:101FA800420E676FEEC020F0EFC021F0226A236A6C
:101FB800000EF6EC12F020C060F021C061F022C0E3
:101FC80062F023C063F048EC0BF060C07DF061C0A4
:101FD8007EF062C07FF063C080F0F0C020F0F1C0F6
:101FE80021F0226A236A000EF6EC12F020C079F084
:101FF80021C07AF022C07BF023C07CF082EC04F090
:1020080079C0CCF07AC0CDF07BC0CEF07CC0CFF0E8
:10201800000E0001646F000E656F610E666F450E5D
:10202800676FF2C020F0F3C021F0226A236A000E25
:10203800F6EC12F020C060F021C061F022C062F01E
:1020480023C063F048EC0BF060C07DF061C07EF007
:1020580062C07FF063C080F0CCC079F0CDC07AF068
:10206800CEC07BF0CFC07CF082EC04F079C08DF05C
:102078007AC08EF07BC08FF07CC090F0DAC091F00F
:10208800DBC092F0DCC093F0DDC094F0D6EC06F033
:102098008DC0DAF08EC0DBF08FC0DCF090C0DDF0D0
:1020A80070EC1AF0BB0E2C6E3F0E2D6E47EC1AF03A
:1020B800020E39EC16F0DD0E2C6E3F0E2D6E47EC3D
:1020C8001AF0350E0001B96F000E0001BA6FEB0E61
:1020D8000001BB6F3F0E0001BC6FDAC0BDF0DBC072
:1020E800BEF0DCC0BFF0DDC0C0F05EEC00F0000E5A
:1020F8003A6E350E2C6E000E2D6EA9EC1AF0FFD735
:10210800020E0001F419D8A41200000E0001E26FBB
:10211800000EE36F000EE46F000EE56F000E000185
:10212800F36F000EF26F000E0001EF6F000EEE6FFE
:10213800000E0001F16F000EF06F850ED56E0B0ECC
:10214800D76EDC0ED66E8D80000E0001DE6F000E9D
:10215800DF6F000EE06F000EE16FA0D070EC1AF098
:10216800F00E2C6E3F0E2D6E47EC1AF0F0C069F0A1
:10217800F1C06AF0020E00016B6F000E00016C6F77
:102188006AEC11F0E60E2C6E3F0E2D6E47EC1AF03D
:10219800EEC069F0EFC06AF0020E00016B6F000E2E
:1021A80000016C6F6AEC11F0E60E2C6E3F0E2D6E7E
:1021B80047EC1AF0F2C069F0F3C06AF0020E0001B1
:1021C8006B6F000E00016C6F6AEC11F0020E38ECB8
:1021D80017F0000E276E640E266EFFEC19F0E6C0AD
:1021E800C4F0E7C0C5F0E8C0C6F0E9C0C7F0000118
:1021F800C41FC51FC61FC71FC42B000EC523C62377
:10220800C7230001E2510001C4250001C86F000185
:10221800E3510001C5210001C96F0001E45100012B
:10222800C6210001CA6F0001E5510001C721000164
:10223800CB6F0001CB510001CA110001C91105E1A2
:102248003B0E0001C85DD8A029D0E2C0E6F0E3C08B
:10225800E7F0E4C0E8F0E5C0E9F0010E0001DE2790
:10226800000EDF23E023E123D6C079F0D7C07AF04F
:10227800D8C07BF0D9C07CF0DAC07DF0DBC07EF03E
:10228800DCC07FF0DDC080F082EC04F079C0DAF0C9
:102298007AC0DBF07BC0DCF07CC0DDF0000E206E85
:1022A800000E216E200E226E410E236EEAC024F02D
:1022B800EBC025F0ECC026F0EDC027F032EC14F0AE
:1022C800D8A04CD7040E0001F46F120020EE2FF0B6
:1022D80010EE72F0050EDBCFE3FFE806FCE2720EAB
:1022E8000001636F000E0001646F69C065F06AC089
:1022F80066F0000E0001686F0A0E676F96EC19F021
:1023080000016B510001D8B4B8D000016B51010D28
:10231800720EF324D96E000EF420DA6E000EDF6E12
:1023280070D000016B050001786F00017851000141
:10233800D8B467D0FF0E00016D6FFF0E00016E6FFD
:102348000001785100016F6F706B00016D51000141
:102358006F2700016E5100017023720E00016F2576
:10236800D96E000E00017021DA6E00017851010D5E
:10237800720EF324E16E000EF420E26EDFCFE7FF69
:1023880000016C05D8A41DD0FF0E00016D6FFF0E73
:1023980000016E6F0001785100016F6F706B0001D2
:1023A8006D5100016F2700016E5100017023720EFC
:1023B80000016F25D96E000E00017021DA6E200E23
:1023C8001CD0FF0E00016D6FFF0E00016E6F000143
:1023D800785100016F6F706B00016D5100016F271C
:1023E80000016E5100017023720E00016F25D96E35
:1023F800000E00017021DA6E300EDF6E00017807E2
:1024080094D7FF0E00016D6FFF0E00016E6F000183
:102418006B5100016F6F706B00016D5100016F27E8
:1024280000016E5100017023720E00016F25D96EF4
:10243800000E00017021DA6E3A0EDF6072D7FF0ECF
:1024480000016D6FFF0E00016E6F00016B510001FE
:102458006F6F706B00016D5100016F2700016E51A5
:1024680000017023720E00016F25D96E000E000165
:102478007021DA6E2F0EDF6454D7720E2C6E000EA8
:102488002D6EA9EC1AF0120022C028F0296A2A6AD7
:102498002134283601E3298028500001656F0001A6
:1024A8006551D8A409D0000E206E000E216E000ED2
:1024B800226E000E236E120026C028F0296A2A6AAE
:1024C8002534283601E3298028500001646F000173
:1024D8006451D8A409D0000E206E000E216E000EA3
:1024E800226E000E236E1200218EFF0E2016FF0EA4
:1024F8002116000E2216258EFF0E2416FF0E251615
:10250800000E2616000E0001606F000E616F000EAF
:10251800626F000E636F7F0E0001655F00016451FA
:10252800980F0001655F180E0001646F0001D890D4
:1025380060376137623763372450205C2550215853
:1025480026502258D8A008D02450205E2550215A61
:102558002650225A00016081D89020362136223632
:102568000001642FE3D7000165AF19D00001655160
:10257800800A970FD8B009D0000E206E000E216E89
:10258800000E226E000E236E12000001D8906333F5
:102598006233613360330001653FF7D71AD0170EF5
:1025A8000001656511D0000E206E000E216E000E30
:1025B800226E000E236E12000001D890603761373A
:1025C8006237633700016507000165510001D8A42F
:1025D800F3D760C020F061C021F062C022F063C070
:1025E80023F01200286E2850D8A423AE1AD020C099
:1025F80024F021C025F022C026F023C027F0241E95
:10260800251E261E271E242A000E252226222722C2
:1026180024C02AF025C02BF026C02CF027C02DF0AE
:1026280008D020C02AF021C02BF022C02CF023C0F3
:102638002DF02050211022102310D8A409D0000E0C
:10264800206E000E216E000E226E000E236E120008
:10265800960E296E06D0292AD8902D322C322B328C
:102668002A32000E2A14246E000E2B14256E000E3A
:102678002C14266EFE0E2D14276E245025102610BD
:102688002710D8B40DD0E7D7292A010E2A26000E24
:102698002B222C222D22D8902D322C322B322A326A
:1026A800000E2A14246E000E2B14256E000E2C1416
:1026B800266EFF0E2D14276E245025102610271085
:1026C800D8B407D0E1D72906D8902A362B362C362D
:1026D8002D362CBE03D0020E2960F5D729B008D0BC
:1026E800FF0E2A16FF0E2B167F0E2C16FF0E2D1628
:1026F800D890293229C024F0256A266A276A24C07E
:1027080027F0266A256A246A24502A1225502B129B
:1027180026502C1227502D122850D8A423AE01D0B1
:102728002D8E2AC020F02BC021F02CC022F02DC005
:1027380023F01200223423342D6E2D50D8A409D052
:10274800000E206E000E216E000E226E000E236E0B
:102758001200263427342C6E2C50D8A409D0000E31
:10276800206E000E216E000E226E000E236E1200E7
:10277800228EFF0E2016FF0E2116FF0E2216000EC7
:102788002316268EFF0E2416FF0E2516FF0E26167C
:10279800000E2716000E286E000E296E000E2A6EF7
:1027A800000E2B6E7F0E2D5E2C50A00F2D5E200E7E
:1027B8002C6ED890283629362A362B362450205CA1
:1027C800255021582650225827502358D8A009D0E0
:1027D8002450205E2550215A2650225A2750235A29
:1027E8002880D89020362136223623362C2EE1D761
:1027F8002DAE16D02D50800A9F0FD8B009D0000EEC
:10280800206E000E216E000E226E000E236E120046
:10281800D8902B322A32293228322D3EF9D715D0BA
:102828001F0E2D640FD0000E206E000E216E000EBC
:10283800226E000E236E1200D890283629362A36CA
:102848002B362D062D50D8A4F7D728C020F029C044
:1028580021F02AC022F02BC023F01200000E201411
:10286800286E000E2114296E800E22142A6E7F0E07
:1028780023142B6E285029102A102B10D8A408D006
:10288800000E206E000E216E000E226E000E236ECA
:10289800000E2414286E000E2514296E800E2614AE
:1028A8002A6E7F0E27142B6E285029102A102B1001
:1028B800D8A408D0000E246E000E256E000E266ED9
:1028C800000E276E23AE1DD020C028F021C029F0AD
:1028D80022C02AF023C02BF0281E291E2A1E2B1ED8
:1028E800282A000E29222A222B22000E2824206EB4
:1028F800000E2920216E000E2A20226E800E2B2029
:10290800236E27AE1DD024C028F025C029F026C08C
:102918002AF027C02BF0281E291E2A1E2B1E282A23
:10292800000E29222A222B22000E2824246E000EB3
:102938002920256E000E2A20266E800E2B20276E59
:10294800000E201A000E211A000E221A800E231AD9
:10295800000E241A000E251A000E261A800E271AB9
:102968002450205C2550215826502258275023589F
:10297800D8B002D0D8901200D88012002E6E2E50F7
:10298800F0EC1AF08C908C948C92000E276E640EEA
:10299800266EFFEC19F0000E286E010E296E010E4E
:1029A8002A6E000E18EC1AF0000E276E640E266EC2
:1029B800FFEC19F0000E286E010E296E010E2A6E2A
:1029C800000E18EC1AF0000E276E0A0E266EFFECA9
:1029D80019F0000E286E010E296E010E2A6E000EE7
:1029E80018EC1AF0000E286E010E296E000E2A6EE1
:1029F800000E18EC1AF0000E286E010E296E000E5B
:102A08002A6E000E18EC1AF0000E286E000E296EC1
:102A1800000E2A6E010E18EC1AF0000E286E000E39
:102A2800296E000E2A6E000E18EC1AF0000E286EA1
:102A3800000E296E000E2A6E010E18EC1AF0000E18
:102A4800286E000E296E000E2A6E000E18EC1AF081
:102A5800000E286E000E296E010E2A6E000E18EC6C
:102A68001AF0000E286E000E296E000E2A6E000E57
:102A780018EC1AF0010E286E010E296E000E2A6E4F
:102A8800000E18EC1AF083EC1AF0000E2C6E000EF3
:102A98005CEC1AF012000001B135B2350001B86FD4
:102AA8000001B851D8A40AD0000E0001AF6F000E83
:102AB800B06F000EB16F000EB26F1200AFC0B3F06E
:102AC800B0C0B4F0B1C0B5F0B2C0B6F0200E06D0B8
:102AD8000001D890B633B533B433B333E82EF8D702
:102AE8000001B3510001B76F0001B18FFF0E000163
:102AF800AF17FF0EB017FF0EB117000EB217960EE4
:102B08000001B85F0001B8AF1AD00001B851800ABF
:102B1800970FD8B00AD0000E0001AF6F000EB06F4B
:102B2800000EB16F000EB26F12000001D890B233E0
:102B3800B133B033AF330001B83FF7D71BD01F0E06
:102B48000001B86512D0000E0001AF6F000EB06F23
:102B5800000EB16F000EB26F12000001D890AF37AF
:102B6800B037B137B2370001B8070001B8510001DA
:102B7800D8A4F3D70001B7510001D8B409D0000197
:102B8800B21FB11FB01FAF6D000EB023B123B22327
:102B9800AFC0AFF0B0C0B0F0B1C0B1F0B2C0B2F0E9
:102BA80012000600E9CF03F0EACF04F0E1CF05F008
:102BB800E2CF06F0D9CF07F0DACF08F0F3CF09F06B
:102BC800F4CF0AF0F6CF0BF0F7CF0CF0F8CF0DF0FA
:102BD800F5CF0EF0F2940B0ED76EDC0ED66E010E0A
:102BE8000001E227000EE323E423E5230001F24B72
:102BF800F32B3C0E0001F2190001F311D8A417D0F1
:102C0800000E0001F36F000EF26F0001EE4BEF2B88
:102C18003C0E0001EE190001EF11D8A408D0000EF7
:102C28000001EF6F000EEE6F0001F04BF12B0EC0AC
:102C3800F5FF0DC0F8FF0CC0F7FF0BC0F6FF0AC088
:102C4800F4FF09C0F3FF08C0DAFF07C0D9FF06C0C8
:102C5800E2FF05C0E1FF04C0EAFF03C0E9FF02C0CC
:102C6800FBFF01C0FAFF409211002C6E4CD0000E01
:102C7800286E000E296E000E2A6E010E18EC1AF04E
:102C8800000E286E000E296E000E2A6E000E18EC3B
:102C98001AF01200010E286E000E296E000E2A6E20
:102CA800010E18EC1AF0000E286E000E296E000EA8
:102CB8002A6E000E18EC1AF01200000E286E000E94
:102CC800296E010E2A6E010E18EC1AF0010E286EFC
:102CD800000E296E000E2A6E000E18EC1AF0120073
:102CE800010E286E000E296E010E2A6E010E18ECD8
:102CF8001AF0010E286E000E296E000E2A6E000EC4
:102D080018EC1AF012002C50010AD8B4B0D7030AF4
:102D1800D8B4C0D7010AD8B4D0D7070AD8A41200AB
:102D2800DFD729C060F02AC061F060C020F061C020
:102D380021F02BC022F02CC023F06DEC19F020C03C
:102D480060F021C061F0274A282A00016051000183
:102D58006111D8A4EAD727C0D9FF28C0DAFF000E2E
:102D6800DF6E2706D8A0280629C020F02AC021F047
:102D78002BC022F02CC023F0DEEC19F0205000010B
:102D8800626F29C020F02AC021F02BC022F02CC08D
:102D980023F06DEC19F020C029F021C02AF0090EAB
:102DA8000001626503D0070E00016227300E0001A2
:102DB800622727C0D9FF28C0DAFF62C0DFFF2706D5
:102DC800D8A0280629502A10D8A4CED7274A282ABE
:102DD800120012D08A8E010E39EC16F0AA0E2C6E53
:102DE8003F0E2D6E47EC1AF0020E38EC17F0010E6C
:102DF800BBEC1AF06CEC0EF0D6C020F0D7C021F076
:102E0800D8C022F0D9C023F0000E246E000E256E23
:102E1800000E266EBF0E276E32EC14F0D8A0DAD75B
:102E2800EAC020F0EBC021F0ECC022F0EDC023F0A6
:102E3800000E246E000E256E600E266E410E276E63
:102E480032EC14F0D8A0C6D78A9E83EC1AF0CC0EC8
:102E58002C6E3F0E2D6E47EC1AF0010E0001F46F38
:102E6800050EBBEC1AF012000001C36F6CEC0EF0FB
:102E78000001C35139EC16F0350E0001B96F000E90
:102E88000001BA6FF70E0001BB6F3F0E0001BC6F67
:102E9800EAC0BDF0EBC0BEF0ECC0BFF0EDC0C0F0C2
:102EA8005EEC00F0000E3C6E350E2C6E000E2D6EA2
:102EB800A9EC1AF0350E0001B96F000E0001BA6FC7
:102EC800E80E0001BB6F3F0E0001BC6FD6C0BDF01D
:102ED800D7C0BEF0D8C0BFF0D9C0C0F05EEC00F0DB
:102EE800000E3C6E350E2C6E000E2D6EA9EC1AF0FD
:102EF800850E2C6E3F0E2D6E47EC1AF01200000165
:102F0800646F8C8000016445010B0001606F000153
:102F18006445E846030B010B0001616F0001643949
:102F2800E842070B010B0001626F000164390F0BC7
:102F3800010B0001636F61C028F062C029F063C013
:102F48002AF00001605118EC1AF000016439E846D3
:102F58001F0B010B0001606F00016441E8423F0B49
:102F6800010B0001616F0001D8906431010B000171
:102F7800626F00016451010B0001636F61C028F0AA
:102F880062C029F063C02AF00001605118EC1AF001
:102F98008C901200000E0001F46F100EF0EC1AF085
:102FA800000E896E9268000E8A6E7F0E936E000E78
:102FB8008B6E000E946E000E8C6E000E956E000ED9
:102FC8008D6E060E966E100EC2EC14F0010E276E72
:102FD800F40E266EFFEC19F0010EE9EC1AF0000E63
:102FE800C26E0B0EC16EB50EC06EC29AC298C29662
:102FF800850ED56E0B0ED76EDC0ED66E310ECD6EED
:103008003C0ECF6EB00ECE6E9E909D809F90D08E5F
:10301800F28EF28CF294F28AC2801200000E2B6EAD
:1030280029AE06D0286C291ED8B0292A010E2B6E8D
:1030380027AE06D0266C271ED8B0272A010E2B1AD9
:10304800000E2D6E000E2C6E28502910D8B41CD0FE
:10305800010E2A6E04D0D890283629362A2A29AE9D
:10306800FAD7D8902C362D362850265C2950275868
:10307800D8A005D02850265E2950275A2C80D890F1
:10308800293228322A2EEDD72B50D8B404D02C6CF4
:103098002D1ED8B02D2A2CC026F02DC027F01200E6
:1030A8000001F405D8A4120024D0010E39EC16F062
:1030B800770E2C6E3F0E2D6E47EC1AF0020E39EC8F
:1030C80016F0990E2C6E3F0E2D6E47EC1AF0030E7B
:1030D800BBEC1AF0010E39EC16F0880E2C6E3F0E80
:1030E8002D6E47EC1AF0020E38EC17F0020EBBEC0E
:1030F8001AF0000E206E000E216E500E226E410E48
:10310800236EEAC024F0EBC025F0ECC026F0EDC039
:1031180027F032EC14F0D8A0C8D7020E0001F46FE3
:103128001200000E286E000E296E000E2A6E000E88
:103138002B6E2450251026102710D8B42AD0010E43
:103148002C6E06D0D89024362536263627362C2ADB
:1031580027AEF8D7D890283629362A362B36245069
:10316800205C255021582650225827502358D8A093
:1031780009D02450205E2550215A2650225A275023
:10318800235A2880D89027322632253224322C2EF2
:10319800E1D728C020F029C021F02AC022F02BC096
:1031A80023F01200000E256E21AE06D0206C211EE1
:1031B800D8B0212A010E256E23AE04D0226C231E1E
:1031C800D8B0232A22502310D8B418D0010E246E68
:1031D80004D0D89022362336242A23AEFAD7225098
:1031E800205C23502158D8A004D02250205E2350C0
:1031F800215AD89023322232242EF1D72550D8B420
:1032080004D0206C211ED8B0212A20C020F021C073
:1032180021F012002450251026102710D8B424D0ED
:10322800010E286E06D0D890243625362636273645
:10323800282A27AEF8D72450205C2550215826503C
:10324800225827502358D8A008D02450205E255053
:10325800215A2650225A2750235AD89027322632EC
:1032680025322432282EE7D720C020F021C021F0B3
:1032780022C022F023C023F0120000EED0F0250E69
:10328800EE6AE806FDE100EE2FF00E0EEE6AE806A3
:10329800FDE1E80EF66E350EF76E000EF86E00EEE4
:1032A800F5F010EE04F00900F5CFEEFFE550E1501F
:1032B800FAE1EC0EF66E350EF76E000EF86E0900A8
:1032C800F5CF3FF040904092000EF86E00018EEF6F
:1032D8000FF0000E266E000E256E22502310D8B473
:1032E8001CD0010E246E04D0D89022362336242A0E
:1032F80023AEFAD7D890253626362250205C2350A4
:103308002158D8A005D02250205E2350215A25806C
:10331800D89023322232242EEDD725C020F026C0A3
:1033280021F0120063C02DF064C02EF0000166AFDA
:103338000ED063C0D9FF64C0DAFF2D0EDF6E000126
:10334800634B642B0001656D661FD8B0662B63C0A4
:1033580027F064C028F065C029F066C02AF067C06D
:103368002BF068C02CF095EC16F01200000E00014E
:10337800911B000E921B000E931B800E941B8DC098
:1033880079F08EC07AF08FC07BF090C07CF091C04D
:103398007DF092C07EF093C07FF094C080F082EC04
:1033A80004F079C08DF07AC08EF07BC08FF07CC0BD
:1033B80090F0120022502310D8B418D0010E246EB9
:1033C80004D0D89022362336242A23AEFAD72250A6
:1033D800205C23502158D8A004D02250205E2350CE
:1033E800215AD89023322232242EF1D720C020F03F
:1033F80021C021F012003FC020F0216A26C022F02F
:1034080027C023F096EC1AF020C03DF021C03EF012
:1034180006D0500EE82EFED73D06D8A03E063D50F9
:103428003E10D8B41200F5D72B6E2AB002D08C9675
:1034380001D08C8629B002D08C9801D08C8828B015
:1034480002D08C9A01D08C8A2BB002D08C9C01D0EF
:103458008C8CDAEC1AF01200205021102210231064
:10346800D8B408D0000E201A000E211A000E221A15
:10347800800E231A20C020F021C021F022C022F0A3
:1034880023C023F012000AD02CC0F6FF2DC0F7FF8E
:103498000800F55083EC17F02C4A2D2A2CC0F6FFB3
:1034A8002DC0F7FF0800F5500009D8B41200ECD77A
:1034B8002D6E000E286E000E296E000E2A6E000E6C
:1034C80018EC1AF0010E286E2DC029F02CC02AF035
:1034D800010E18EC1AF01200000E286E000E296E6C
:1034E800000E2A6E000E18EC1AF0000E286E010E5F
:1034F800296E000E2A6E000E18EC1AF01200000E4B
:10350800286E000E296E000E2A6E000E18EC1AF0B6
:10351800000E286E000E296E010E2A6E000E18ECA1
:103528001AF0120020502202F3CF24F0F4CF25F035
:1035380020502302F350252621502202F35025263D
:1035480024C020F025C021F0120009D02CC0D9FFDA
:103558002DC0DAFFDF5083EC17F02C4A2D2A2CC03F
:10356800D9FF2DC0DAFFDF50D8B41200EFD7286E8C
:10357800000E296E07D0030E276EE80E266EFFECAC
:1035880019F0292A2850295CD8B01200F4D7226EE5
:10359800000E216E3A0E226005D02F0E226402D052
:1035A800010E216E21C020F0203012008C84000E04
:1035B800276E010E266EFFEC19F08C94000E276E14
:1035C800010E266EFFEC19F01200206E20B002D01A
:1035D8008C9E01D08C8E1200206E20C03FF012000D
:0535E8000105090D10B2
:103EE600000000803FCDCCCC3D0AD7233C6F128327
:103EF6003A17B7D138ACC52737BD37863595BFD603
:103F06003377CC2B325F708930FFE6DB2E08E53C39
:103F16001E6042A20D0000803F000020410000C844
:103F26004200007A4400401C460050C347002474F7
:103F3600498096184B20BCBE4C286B6E4EF9021574
:103F460050EC78AD60CAF24971010000000A000029
:103F56000064000000E803000010270000A08601AE
:103F66000040420F008096980000E1F50500CA9ACD
:103F76003B2020202020417474657361202020207E
:103F860020002020496E666F726D617A696F6E69D6
:103F960020200053746162696C697A7A617A696F6C
:103FA6006E652E0043617269636120696E20636FDE
:103FB60072736F3A007465737420636F6D706C650D
:103FC6007461746F3A00436172696361207465724B
:103FD6006D696E6174610063617061636974612704
:103FE6003A0020493A252E33660074656D706F3AA3
:093FF60000563A252E3266000047
:020000040020DA
:08000000FFFFFFFFFFFFFFFF00
:020000040030CA
:0E000000FF021F1EFF8081FF0FC00FE00F40A8
:00000001FF
