:040000005CEF00F0C1
:0E0008004082FACF01F0FBCF02F0AEED18F00F
:100018004080D8CF0FF0E8CF10F0E0CF11F0FACF42
:1000280012F0FBCF13F0E9CF14F0EACF15F0E1CFCF
:1000380016F0E2CF17F0D9CF18F0DACF19F0F3CFD6
:100048001AF0F4CF1BF0F6CF1CF0F7CF1DF0F8CF65
:100058001EF0F5CF1FF09EA007D03C0ECF6EB00E5D
:10006800CE6E9E90310ECD6E1FC0F5FF1EC0F8FFFC
:100078001DC0F7FF1CC0F6FF1BC0F4FF1AC0F3FF3A
:1000880019C0DAFF18C0D9FF17C0E2FF16C0E1FF98
:1000980015C0EAFF14C0E9FF13C0FBFF12C0FAFF46
:1000A80011C0E0FF10C0E8FF0FC0D8FF409010005B
:0400B80074EF1AF0D7
:10030000000000803FCDCCCC3D0AD7233C6F128348
:100310003A17B7D138ACC52737BD37863595BFD624
:100320003377CC2B325F708930FFE6DB2E08E53C5B
:100330001E6042A20D0000803F000020410000C866
:100340004200007A4400401C460050C34700247419
:10035000498096184B20BCBE4C286B6E4EF9021596
:1003600050EC78AD60CAF24971010000000A00004B
:100370000064000000E803000010270000A08601D0
:100380000040420F008096980000E1F50500CA9AEF
:100390003B202020202041747465736120202020A0
:1003A00020004369636C6F207269636172696361E5
:1003B0002E2E0053746162696C697A7A617A696F72
:1003C0006E652E00436172696361207465726D69A8
:1003D0006E61746100544553544552204241545457
:1003E000455249450020493A252E336600563A25A4
:0503F0002E3366000041
:1003F600B20E0001BC6F000E0001BD6F19EF06F0D2
:10040600250E0001D019D8B408D0AEC0D9FFAFC0B0
:10041600DAFFD0C0DFFF16EF06F0000E0001BF6F57
:10042600000EBE6FB0C0F6FFB1C0F7FF0800F55072
:100436002E0AD8A439D00001BF8D0001B04BB12BD4
:10044600000E0001CB6F000ECA6F23D0CAC060F049
:10045600CBC061F0000E0001636F0A0E626F49ECBB
:100466001BF0B0C0F6FFB1C0F7FF0800F550000161
:100476006027000E00016123D00E000160250001F7
:10048600CA6FFF0E000161210001CB6F0001B04B66
:10049600B12BB0C0F6FFB1C0F7FF0800F5508EECE7
:1004A6001BF0D8A00CD0D2D7000E0001CB6F000EE7
:1004B600CA6F0001BF8903D00001BF8513D0B0C049
:1004C600F6FFB1C0F7FF0001B04BB12B0800F5CF26
:1004D600D0F00001D051000AD8B4B7D3660AD8B418
:1004E600EBD7A4D3070E0001BF15D8B447D300013C
:1004F600BFA905D0000E0001CB6F060ECA6FBCC0A7
:10050600D9FFBDC0DAFFDECFCCF0DECFCDF0DECF37
:10051600CEF0DECFCFF0040E0001BC27000EBD23C7
:100526000001CFAF15D0CCC060F0CDC061F0CEC019
:1005360062F0CFC063F0E1EC1AF060C0CCF061C0AD
:10054600CDF062C0CEF063C0CFF0030E0001BE1343
:10055600000E0001C56F000EC46F0001CC510001F2
:10056600CD110001CE110001CF11D8B48ED00001FB
:10057600CE35CF35820F0001C46F0001C56BFF0E6B
:10058600C5230001C407D8A0C507C4C060F0C5C014
:1005960061F0000E0001636F030E626F49EC1BF001
:1005A60060C0C4F061C0C5F0C4C064F0C5C065F0E9
:1005B600000E0001676F0A0E666FF1EC17F064C05B
:1005C600C4F065C0C5F00001C5AF04D00001C40782
:1005D600D8A0C5070001C45100082FEC06F085C05D
:1005E600C6F086C0C7F087C0C8F088C0C9F0C6C0CC
:1005F6006CF0C7C06DF0C8C06EF0C9C06FF0CCC05B
:1006060070F0CDC071F0CEC072F0CFC073F0ECECDC
:100616000AF06CC0C6F06DC0C7F06EC0C8F06FC0FF
:10062600C9F0C6C060F0C7C061F0C8C062F0C9C0FA
:1006360063F0000E0001646F000E656F800E666F3A
:100646003F0E676FB2EC14F00001D8B005D0000180
:10065600C407D8A0C50719D0C6C060F0C7C061F0EE
:10066600C8C062F0C9C063F0000E0001646F000EDE
:10067600656F200E666F410E676FB2EC14F00001D5
:10068600D8A003D00001C44BC52B0001CBBF08D0B6
:100696000001CB5123E10D0E0001CA5DD8B01ED07A
:1006A600CCC092F0CDC093F0CEC094F0CFC095F000
:1006B6000001CA511FEC0FF085C096F086C097F076
:1006C60087C098F088C099F098EC08F092C0CCF0FA
:1006D60093C0CDF094C0CEF095C0CFF00001C5BF59
:1006E60008D00001C5512EE10A0E0001C45DD8B044
:1006F60029D00001CC510001CD110001CE1100011D
:10070600CF11D8B46DD0CCC08EF0CDC08FF0CEC096
:1007160090F0CFC091F0F5EC16F000018E5100017B
:100726008F110001901100019111D8A459D0000138
:10073600C5BF56D00001C55105E1020E0001C45DDA
:10074600D8A04ED0C6C060F0C7C061F0C8C062F085
:10075600C9C063F05F0E0001646F700E656F890E8D
:10076600666F400E676FB2EC14F00001D8B003D08C
:100776000001F70E02D00001F80EC427FF0EC523B4
:100786000001C4512FEC06F085C0C6F086C0C7F044
:1007960087C0C8F088C0C9F0CCC060F0CDC061F099
:1007A600CEC062F0CFC063F0C6C064F0C7C065F0CB
:1007B600C8C066F0C9C067F07AEC15F060C0C0F03A
:1007C60061C0C1F062C0C2F063C0C3F0000E000198
:1007D600CC6F000ECD6F000ECE6F000ECF6F3CD0EB
:1007E600CCC08EF0CDC08FF0CEC090F0CFC091F0CF
:1007F600F5EC16F08EC0C0F08FC0C1F090C0C2F00C
:1008060091C0C3F0CCC0A6F0CDC0A7F0CEC0A8F072
:10081600CFC0A9F0C0C060F0C1C061F0C2C062F034
:10082600C3C063F0000EFCEC12F060C0AAF061C019
:10083600ABF062C0ACF063C0ADF0A0EC1AF0A6C09D
:10084600CCF0A7C0CDF0A8C0CEF0A9C0CFF0000E66
:100856000001C56F000EC46F010E0001D06F0A0EB5
:100866000001D019D8B41ED00001D051040D690E74
:10087600F324F66E030EF420F76E0900F55000011E
:10088600C05D0900F5500001C1590900F55000018D
:10089600C2590900F5500001C359D8A003D0000180
:1008A600D02BDDD7030E0001BE150001B66F000E7A
:1008B6000001BF150001B76F0001B6510001B71165
:1008C600D8B455D0AEC0D9FFAFC0DAFF2D0E4DD08B
:1008D6000001AE4BAF2B4BD0C0C060F0C1C061F081
:1008E600C2C062F0C3C063F00001D051040D690EAE
:1008F600F324F66E030EF420F76E0900F5CF64F0CC
:100906000900F5CF65F00900F5CF66F00A00F5CFCE
:1009160067F050EC18F060C0C6F061C0C7F062C066
:10092600C8F063C0C9F0C6C060F0C7C061F0C8C0F7
:1009360062F0C9C063F00A0E0001646F000E656FB5
:10094600000E666F000E676F9EEC19F060C0C6F071
:1009560061C0C7F062C0C8F063C0C9F00001C651EB
:10096600300FAEC0D9FFAFC0DAFFDF6EB1D70001DE
:10097600D0070001D029D8B40ED0AED7AEC0D9FF6B
:10098600AFC0DAFF300EDF6E0001AE4BAF2B0001B9
:10099600C407D8A0C5070001C5BF07D00001C551CF
:1009A600EDE10001C405D8B0E9D70001CBBF0CD0FA
:1009B6000001CB5105E1090E0001CA5DD8A004D0A3
:1009C600080E0001D06F02D0CAC0D0F00001D0518D
:1009D6000001CA5F000E0001D0BFFF0E0001CB5B15
:1009E6000001D0510001D8B409D0AEC0D9FFAFC0C4
:1009F600DAFF2E0EDF6E0001AE4BAF2B0001D05199
:100A06002FEC06F085C0B8F086C0B9F087C0BAF002
:100A160088C0BBF0CCC070F0CDC071F0CEC072F013
:100A2600CFC073F0B8C06CF0B9C06DF0BAC06EF04C
:100A3600BBC06FF0ECEC0AF06CC08EF06DC08FF0AE
:100A46006EC090F06FC091F0F5EC16F08EC0C0F05D
:100A56008FC0C1F090C0C2F091C0C3F074D0C0C0C6
:100A660060F0C1C061F0C2C062F0C3C063F00001B3
:100A7600D051040D690EF324F66E030EF420F76EC2
:100A86000900F5CF64F00900F5CF65F00900F5CF50
:100A960066F00A00F5CF67F050EC18F060C0C6F0BB
:100AA60061C0C7F062C0C8F063C0C9F0C6C060F0DC
:100AB600C7C061F0C8C062F0C9C063F00A0E000189
:100AC600646F000E656F000E666F000E676F9EEC1A
:100AD60019F060C0C6F061C0C7F062C0C8F063C05C
:100AE600C9F00001C651300FAEC0D9FFAFC0DAFF62
:100AF600DF6E0001AE4BAF2BC0C060F0C1C061F02D
:100B0600C2C062F0C3C063F00001D051040D690E8B
:100B1600F324F66E030EF420F76E0900F5CF64F0A9
:100B26000900F5CF65F00900F5CF66F00A00F5CFAC
:100B360067F09EEC19F060C0C0F061C0C1F062C001
:100B4600C2F063C0C3F00001D0070001D029D8B4B9
:100B56000ED085D7AEC0D9FFAFC0DAFF300EDF6E3C
:100B66000001AE4BAF2B0001CA07D8A0CB0700018E
:100B7600CA510001CB11D8B459D0ECD70001CA51E3
:100B86000001CB11D8A40DD00001C0510001C11144
:100B96000001C2110001C311D8A403D00001CA4B41
:100BA600CB2B800E0001D0BF7F0E0001B66F000177
:100BB600CA510001D05D0001CB51800A0001B6592F
:100BC600D8B003D0CAC0D0F018D00001CB51800AEB
:100BD6000001B66F0001D0510001CA5D800E000110
:100BE600D0BF7F0E0001B659D8B007D00001D05152
:100BF6000001CA6FCB6BCABFCB07030E0001BE153F
:100C06000001B66F000E0001BF150001B76F0001AD
:100C1600B6510001B711D8B409D0AEC0D9FFAFC0E4
:100C2600DAFF2D0EDF6E0001AE4BAF2BB0C0F6FF24
:100C3600B1C0F7FF0001B04BB12B0800F5CFD0F0E3
:100C46000001D051D8A403EF02F0AEC0D9FFAFC067
:100C5600DAFF000EDF6E120000018D6F00018DAF0E
:100C660033D100018D6D00018D51800A120FD8A07D
:100C7600B2D0000E0001676F0A0E666F000E00010B
:100C8600636F640E626F00018D510001606F616BCE
:100C960060BF610754EC19F060C064F061C065F094
:100CA600F1EC17F00001D890643765370001D89051
:100CB60064376537240E00016427000E00016523A2
:100CC600010E00016425F66E030E00016521F76E24
:100CD6000900F5CF70F00900F5CF71F00900F5CFE6
:100CE60072F00A00F5CF73F0000E0001676F640E14
:100CF600666F00018D510001646F656B64BF650707
:100D0600F1EC17F00001D890643765370001D890F0
:100D160064376537480E00016427000E000165231D
:100D2600010E00016425F66E030E00016521F76EC3
:100D36000900F5CF6CF00900F5CF6DF00900F5CF8D
:100D46006EF00A00F5CF6FF0ECEC0AF06CC089F09B
:100D56006DC08AF06EC08BF06FC08CF089C06CF0ED
:100D66008AC06DF08BC06EF08CC06FF0000E000173
:100D7600636F0A0E626F00018D510001606F616B37
:100D860060BF610754EC19F00001D89060376137F5
:100D96000001D89060376137010E00016025F66EBC
:100DA600030E00016121F76E0900F5CF70F009000E
:100DB600F5CF71F00900F5CF72F00A00F5CF73F0A8
:100DC600ECEC0AF06CC085F06DC086F06EC087F062
:100DD6006FC088F0120000018D51800A750FD8A0EF
:100DE6005DD0000E0001676F0A0E666F00018D511F
:100DF6000001646F656B64BF6507F1EC17F00001D5
:100E0600D890643765370001D89064376537240E6B
:100E160000016427000E00016523010E0001642510
:100E2600F66E030E00016521F76E0900F5CF6CF032
:100E36000900F5CF6DF00900F5CF6EF00A00F5CF89
:100E46006FF0000E0001636F0A0E626F00018D5194
:100E56000001606F616B60BF610754EC19F000011F
:100E6600D890603761370001D89060376137010E3E
:100E760000016025F66E030E00016121F76E090080
:100E8600F5CF70F00900F5CF71F00900F5CF72F0DB
:100E96000A00F5CF73F0ECEC0AF094D700018D51FF
:100EA600040D010EF324F66E030EF420F76E09000E
:100EB600F5CF85F00900F5CF86F00900F5CF87F06C
:100EC6000A00F5CF88F0120000018D51800A120F3A
:100ED600D8A0B2D0000E0001676F0A0E666F000E32
:100EE6000001636F640E626F00018D510001606F37
:100EF600616B60BF610754EC19F060C064F061C0BB
:100F060065F0F1EC17F00001D89064376537000101
:100F1600D89064376537240E00016427000E00015F
:100F26006523350E00016425F66E030E000165216A
:100F3600F76E0900F5CF70F00900F5CF71F00900E2
:100F4600F5CF72F00A00F5CF73F0000E0001676F5F
:100F5600640E666F00018D510001646F656B64BF9E
:100F66006507F1EC17F00001D8906437653700018A
:100F7600D89064376537480E00016427000E0001DB
:100F86006523350E00016425F66E030E000165210A
:100F9600F76E0900F5CF6CF00900F5CF6DF009008A
:100FA600F5CF6EF00A00F5CF6FF0ECEC0AF06CC0EE
:100FB60089F06DC08AF06EC08BF06FC08CF089C06E
:100FC6006CF08AC06DF08BC06EF08CC06FF0000EB6
:100FD6000001636F0A0E626F00018D510001606FA0
:100FE600616B60BF610754EC19F00001D89060375F
:100FF60061370001D89060376137350E00016025F2
:10100600F66E030E00016121F76E0900F5CF70F050
:101016000900F5CF71F00900F5CF72F00A00F5CF9F
:1010260073F0ECEC0AF06CC085F06DC086F06EC013
:1010360087F06FC088F0120000018D51800A750F8D
:10104600D8A05DD0000E0001676F0A0E666F000122
:101056008D510001646F656B64BF6507F1EC17F095
:101066000001D890643765370001D890643765373A
:10107600240E00016427000E00016523350E0001D1
:101086006425F66E030E00016521F76E0900F5CFA3
:101096006CF00900F5CF6DF00900F5CF6EF00A008F
:1010A600F5CF6FF0000E0001636F0A0E626F00014C
:1010B6008D510001606F616B60BF610754EC19F0E0
:1010C6000001D890603761370001D89060376137EA
:1010D600350E00016025F66E030E00016121F76EE4
:1010E6000900F5CF70F00900F5CF71F00900F5CFD2
:1010F60072F00A00F5CF73F0ECEC0AF094D7000119
:101106008D51040D350EF324F66E030EF420F76EA2
:101116000900F5CF85F00900F5CF86F00900F5CF77
:1011260087F00A00F5CF88F0120000019551800B78
:101136000001A26F0001955195250001A46F0001E1
:1011460094AF02D00001A4810001A4510001D8B4DB
:1011560012D00001A429D8A409D0000E0001926F74
:10116600000E936F000E946F000E956F0001948F22
:10117600000E000108D0000E0001926F000E936F62
:10118600000E946F000E956F00019951800B0001BF
:10119600A36F0001A2510001A319D8B402D0000127
:1011A600A28D0001995199250001A36F000198AF06
:1011B60002D00001A3810001A3510001D8B412D0CE
:1011C6000001A329D8A409D0000E0001966F000ED5
:1011D600976F000E986F000E996F0001988F000EA2
:1011E600000108D0000E0001966F000E976F000EEA
:1011F600986F000E996F0001A4510001A35DD8B04D
:1012060024D00001A2AD03D0800E0001A21BA4C011
:10121600A5F0A3C0A4F0A5C0A3F092C0A5F096C007
:1012260092F0A5C096F093C0A5F097C093F0A5C024
:1012360097F094C0A5F098C094F0A5C098F095C01A
:10124600A5F099C095F0A5C099F0000E0001A56F14
:101256000001A45100019A6F9B6B00019A1F9B1F0E
:101266009A4B9B2B0001A35100019C6F9D6B0001C3
:101276009A5100019C2700019B5100019D2300010A
:101286009DBF3DD000019D5105E11A0E00019C5DF8
:10129600D8A035D00001925100019311000194119C
:1012A60000019511D8B402D0010E01D0000E000144
:1012B600A56F000E0001926F000E936F000E946FE3
:1012C600000E956FA3C0A4F020D00001A5A107D001
:1012D6000001D890A53101090001A56F03D00001D6
:1012E600D890A533000192A102D00001A58F00017C
:1012F600953595339433933392330001A42B000133
:10130600A3510001A45DD8A0E0D70001A2BD3FD043
:101316000001A4510001D8A40AD0000E0001926F6A
:10132600000E936F000E946F000E956F1200000171
:101336009651000192270001975100019323000165
:101346009851000194230001995100019523000151
:1013560095A1CCD00001A5A109D00001D890A53354
:101366000001A55101090001A56F03D00001D89025
:10137600A533000192A102D00001A58F0001953589
:1013860095339433933392330001A42BAFD00001ED
:1013960096510001925D0001975100019359000199
:1013A60098510001945900019551800A00019A6FE5
:1013B60000019951800A00019A59D8B050D092C0C4
:1013C6009AF093C09BF094C09CF095C09DF00001EC
:1013D6009A1F9B1F9C1F9D1F9A2B000E9B239C23CD
:1013E6009D230001965100019A2500019E6F000180
:1013F600975100019B2100019F6F00019851000148
:101406009C210001A06F0001995100019D2100015E
:10141600A16FFF0E00019E250001926FFF0E0001D5
:101426009F210001936FFF0E0001A0210001946F20
:10143600FF0E0001A1210001956F800E0001A21B85
:101446000001A56D0001A5510001D8A418D0010E18
:1014560000019227000E93239423952310D00001B8
:1014660096510001925F000197510001935B0001C4
:1014760098510001945B000199510001955B0001B0
:101486009251000193110001941100019511D8A405
:101496002AD00001A5510001D8A425D0000E0001D4
:1014A600926F000E936F000E946F000E956F1200F0
:1014B6000001D89092379337943795370001A5AF3E
:1014C60002D0000192810001A5A103D0D8800001BD
:1014D60002D00001D890A5370001A4510001D8B46C
:1014E60002D00001A407000194AFE2D7000E00016C
:1014F600A36F0001A5AF0DD0A5C09AF07F0E000125
:101506009A17D8A403D0000192A103D0010E0001BE
:10151600A36F0001A3510001D8B426D0010E00012B
:101526009227000E932394239523000195A11CD0A6
:1015360092C09AF093C09BF094C09CF095C09DF029
:1015460000019D359D339C339B339A339AC092F0AC
:101556009BC093F09CC094F09DC095F00001A42917
:10156600D8B402D00001A42B0001A429D8B405D018
:101576000001A4510001D8A411D0000E0001926F01
:10158600000E936F000E946F000E956F0001A4512C
:101596000001D8A403D0000E0001A26F0001A4A18F
:1015A60003D00001948F02D00001949F0001D890CF
:1015B600A4310001956F0001A2AF02D00001958F02
:1015C60092C092F093C093F094C094F095C095F0B9
:1015D600120000016F51800B0001786F00016F51FE
:1015E6006F2500017E6F00016EAF02D000017E8183
:1015F60000017E510001D8B410D000017E29D8A484
:1016060009D0000E00016C6F000E6D6F000E6E6F3C
:10161600000E6F6F00016E8F09D0000E00016C6F17
:10162600000E6D6F000E6E6F000E6F6F000173512E
:10163600800B0001781B0001735173250001796F3F
:10164600000172AF02D000017981000179510001D9
:10165600D8B410D000017929D8A409D0000E000111
:10166600706F000E716F000E726F000E736F0001C7
:10167600728F09D0000E0001706F000E716F000EA0
:10168600726F000E736F000179510001D8B405D056
:1016960000017E510001D8A40AD0000E00016C6F33
:1016A600000E6D6F000E6E6F000E6F6F1200000160
:1016B600725100016C03F3CF83F0F4CF84F0000184
:1016C600835100017A6F7B6B7C6B7D6B00018451CB
:1016D60000017F6F806B816B826B0001715100018D
:1016E6006D03F3CF83F0F4CF84F000018351000142
:1016F6007A27000E7B237C237D2300018451000181
:101706007F27000E80238123822300017051000170
:101716006E03F3CF83F0F4CF84F000018351000110
:101726007A27000E7B237C237D2300018451000150
:101736007F27000E8023812382237CC07DF07BC01F
:101746007CF07AC07BF000017A6B000170510001D9
:101756006D03F3CF83F0F4CF84F0000183510001D1
:101766007A270001845100017B23000E00017C23AF
:10177600000E00017D230001715100016C03F3CFBF
:1017860083F0F4CF84F00001835100017A27000131
:10179600845100017B23000E00017C23000E000112
:1017A6007D237CC07DF07BC07CF07AC07BF000019D
:1017B6007A6B0001705100016C03F3CF83F0F4CF14
:1017C60084F00001835100017A2700018451000151
:1017D6007B23000E00017C23000E00017D23000107
:1017E600725100016D03F3CF83F0F4CF84F0000152
:1017F600835100017F270001845100018023000EE0
:1018060000018123000E00018223000171510001B5
:101816006E03F3CF83F0F4CF84F00001835100010F
:101826007F270001845100018023000E00018123DF
:10183600000E000182230001725100016E03F3CFF6
:1018460083F0F4CF84F0000183510001746F00012E
:1018560084510001756F0001766B0001776B76C0CD
:1018660077F075C076F074C075F00001746B0001F6
:10187600745100017F27000175510001802300018A
:1018860076510001812300017751000182237AC03D
:1018960074F07BC075F07CC076F07DC077F0190ED1
:1018A60006D00001D8907733763375337433E82E3B
:1018B600F8D70001745100017F270001755100011E
:1018C6008023000176510001812300017751000138
:1018D60082237CC07DF07BC07CF07AC07BF0000167
:1018E6007A6B000179517EC074F00001756B0001BE
:1018F6007427000E7523820E000174250001836F84
:10190600FF0E000175210001846F15D00001D890EB
:101916007F3780378137823700017DAF02D00001E3
:101926007F810001D8907A377B377C377D3700017D
:101936008307D8A08407000181AFE8D7000E000115
:10194600796F00017DAF24D0FF0E00017A150001EA
:10195600746FFF0E00017B150001756FFF0E00010D
:101966007C150001766F7F0E00017D150001776FF3
:101976000001745100017511000176110001771103
:10198600D8A403D000017FA103D0010E0001796F16
:10199600000179510001D8B423D0010E00017F2740
:1019A600000E802381238223000182A119D07FC0EB
:1019B60074F080C075F081C076F082C077F00001C7
:1019C6007735773376337533743374C07FF075C0EB
:1019D60080F076C081F077C082F00001834B842BC3
:1019E600000184BF10D00001845104E10001832965
:1019F600D8A009D0000E00017F6F000E806F800E08
:101A0600816F7F0E2BD0000184BF07D00001845167
:101A160011E100018305D8B00DD0000E00017F6FE3
:101A2600000E806F000E816F000E826F000E0001A7
:101A3600786F15D083C07EF0FF0E00017F17FF0E72
:101A460080177F0E8117000E821700017EA102D03B
:101A56000001818F0001D8907E310001826F000164
:101A66007851000182137FC06CF080C06DF081C098
:101A76006EF082C06FF0120000018851800B0001E9
:101A8600916F00018851882500019C6F000187AF86
:101A960002D000019C8100019C510001D8B412D0F3
:101AA60000019C29D8A409D0000E0001856F000E04
:101AB600866F000E876F000E886F0001878F000EFD
:101AC600000108D0000E0001856F000E866F000E23
:101AD600876F000E886F00018C51800B0001911BEF
:101AE60000018C518C2500019D6F00018BAF02D047
:101AF60000019D8100019D510001D8B412D0000162
:101B06009D29D8A409D0000E0001896F000E8A6FA6
:101B1600000E8B6F000E8C6F00018B8F000E000184
:101B260008D0000E0001896F000E8A6F000E8B6FC1
:101B3600000E8C6F0001895100018A1100018B1182
:101B460000018C11D8A417D0000E0001856F000E7D
:101B5600866F000E876F000E886F0001800E871358
:101B66007F0E881385C085F086C086F087C087F013
:101B760088C088F0120000019C510001D8A412D040
:101B8600000E0001856F000E866F000E876F000E37
:101B9600886F85C085F086C086F087C087F088C0CC
:101BA60088F0120000019D5100018D6F8E6B0001BF
:101BB6008D1F8E1F8D4B8E2B00019C5100018F6F48
:101BC600906B00018D5100018F2700018E5100019D
:101BD60090237F0E00018F250001966F000E0001F5
:101BE60090210001976F85C092F086C093F087C060
:101BF60094F088C095F0000E0001856F000E866F88
:101C0600000E876F000E886F000E0001986F000EA1
:101C1600996F000E9A6F000E9B6F000E00019D6F6C
:101C260042D000019D510001D8B417D00001D890D0
:101C360092379337943795370001D8908537863792
:101C46008737883700019BAF02D0000185810001EC
:101C5600D890983799379A379B37000189510001F8
:101C6600925D00018A510001935900018B510001D8
:101C7600945900018C5100019559D8A012D0000149
:101C86009B8D000189510001925F00018A5100017C
:101C9600935B00018B510001945B00018C510001A4
:101CA600955B00019D2B190E00019D65BAD70001B9
:101CB6009251000193110001941100019511D8B4BD
:101CC60018D00001988115D00001D8908537863745
:101CD6008737883700019BAF02D00001858100015C
:101CE600D890983799379A379B3700019607D8A02E
:101CF6009707000187AFE8D7000E00019D6F00012E
:101D06009BAF24D0FF0E0001981500018D6FFF0ECA
:101D16000001991500018E6FFF0E00019A15000152
:101D26008F6F7F0E00019B150001906F00018D5192
:101D360000018E1100018F1100019011D8A403D06B
:101D4600000185A103D0010E00019D6F00019D5188
:101D56000001D8B423D0010E00018527000E86238A
:101D660087238823000188A119D085C08DF086C0FD
:101D76008EF087C08FF088C090F0000190359033C8
:101D86008F338E338D338DC085F08EC086F08FC035
:101D960087F090C088F00001964B972B000197BF03
:101DA60014D00001975104E100019629D8A00DD066
:101DB600000E0001976F9669000E0001856F000EF8
:101DC600866F000E876F000E886F000197BF07D0E1
:101DD6000001975115E100019605D8B011D0000E0B
:101DE6000001976F000E966F000E0001856F000EC2
:101DF600866F000E876F000E886F000E0001916FD0
:101E060096C09CF000019CA103D00001878F02D0F0
:101E16000001879F0001D8909C310001886F000166
:101E260091510001881385C085F086C086F087C071
:101E360087F088C088F012000001916F6D0E0001D6
:101E46009165C4D0000E0001676F0A0E666F000E22
:101E56000001636F640E626F91C060F00001616BF8
:101E660054EC19F060C064F061C065F0F1EC17F055
:101E76000001D890643765370001D890643765371C
:101E8600240E00016427000E00016523010E0001E7
:101E96006425F66E030E00016521F76E0900F5CF85
:101EA60070F00900F5CF71F00900F5CF72F00A0065
:101EB600F5CF73F0000E0001676F640E666F91C078
:101EC60064F00001656BF1EC17F00001D8906437FF
:101ED60065370001D89064376537480E00016427DE
:101EE600000E00016523010E00016425F66E030E47
:101EF60000016521F76E0900F5CF6CF00900F5CFFA
:101F06006DF00900F5CF6EF00A00F5CF6FF0ECEC3E
:101F16000AF06CC08DF06DC08EF06EC08FF06FC091
:101F260090F0000E0001636F0A0E626F91C060F0C0
:101F36000001616B54EC19F00001D89060376137ED
:101F46000001D89060376137010E00016025F66EFA
:101F5600030E00016121F76E0900F5CF70F009004C
:101F6600F5CF71F00900F5CF72F00A00F5CF73F0E6
:101F76008DC06CF08EC06DF08FC06EF090C06FF0AB
:101F8600ECEC0AF06CC089F06DC08AF06EC08BF084
:101F96006FC08CF089C06CF08AC06DF08BC06EF09B
:101FA6008CC06FF0000E0001706F000E716F000E96
:101FB600726F3F0E736FECEC0AF06CC085F06DC06B
:101FC60086F06EC087F06FC088F012000A0E00011E
:101FD600916572D0000E0001636F0A0E626F91C0A8
:101FE60060F00001616B54EC19F00001D890603785
:101FF60061370001D89060376137010E0001602516
:10200600F66E030E00016121F76E0900F5CF70F040
:102016000900F5CF71F00900F5CF72F00A00F5CF8F
:1020260073F0000E0001676F0A0E666F91C064F0D0
:102036000001656BF1EC17F00001D8906437653745
:102046000001D89064376537240E00016427000E1E
:1020560000016523010E00016425F66E030E0001E2
:102066006521F76E0900F5CF6CF00900F5CF6DF02C
:102076000900F5CF6EF00A00F5CF6FF0ECEC0AF030
:102086006CC08DF06DC08EF06EC08FF06FC090F09A
:102096008DC06CF08EC06DF08FC06EF090C06FF08A
:1020A600000E0001706F000E716F000E726F3F0E12
:1020B600736FECEC0AF081D700019151040D010E0B
:1020C600F324F66E030EF420F76E0900F5CF6CF0DC
:1020D6000900F5CF6DF00900F5CF6EF00A00F5CFD7
:1020E6006FF0000E0001706F000E716F000E726FC0
:1020F6003F0E736FECEC0AF06CC085F06DC086F095
:102106006EC087F06FC088F01200100ECDEC1BF089
:10211600000E3B6E870E3C6EC30E3D6E470E3E6E46
:10212600000E0001856F240E866F010E876F470E25
:10213600886F3BC089F03CC08AF03DC08BF03EC042
:102146008CF03FEC0DF085C03BF086C03CF087C0BC
:102156003DF088C03EF031EC1AF0000E1DD1D1ECF6
:1021660011F03050D8B460D08DD0818E010E7BEC4A
:1021760017F0A20E00016F6F030E0001706F62EC84
:102186001BF0020E7BEC17F0310E0001AE6F000E55
:102196000001AF6FED0E0001B06F030E0001B16FCD
:1021A60026C0B2F027C0B3F028C0B4F029C0B5F0FD
:1021B600FBEC01F0000E386E310E00016F6F000E61
:1021C6000001706FA2EC1BF0310E0001AE6F000E25
:1021D6000001AF6FE50E0001B06F030E0001B16F95
:1021E60022C0B2F023C0B3F024C0B4F025C0B5F0CD
:1021F600FBEC01F0000E386E310E00016F6F000E21
:102206000001706FA2EC1BF0D1EC11F0010E000181
:10221600656FF40E646FFDEC1AF0000E0001656F39
:10222600010E646FFDEC1AF022C060F023C061F06D
:1022360024C062F025C063F0000E0001646F000E3A
:10224600656F000E666FBF0E676FB2EC14F000018B
:10225600D8A08BD726C060F027C061F028C062F0F6
:1022660029C063F0000E0001646F000E656F600EFA
:10227600666F410E676FB2EC14F00001D8A075D7F7
:10228600010E306E3004D8A43ED0000E0001606FFF
:10229600000E616F000E626FBF0E636F22C064F0A6
:1022A60023C065F024C066F025C067F0B2EC14F0D8
:1022B6000001D8B026D0330E0001606F330E616F77
:1022C600630E626F410E636F26C064F027C065F02F
:1022D60028C066F029C067F0B2EC14F00001D8B04F
:1022E60010D0C40E00016F6F030E0001706F62EC18
:1022F6001BF0819E130E0001656F880E646FFDEC66
:102306001AF0020E306E020E3018D8B42ED027D72F
:10231600010E7BEC17F0910E00016F6F030E0001AA
:10232600706F62EC1BF0020E7BEC17F0B30E00012F
:102336006F6F030E0001706F62EC1BF0010E78ECFC
:102346001BF0010E0001656FF40E646FFDEC1AF0D0
:10235600020EE8EC19F0010E78EC1BF0010E0001FC
:10236600656FF40E646FFDEC1AF0000E0001606FED
:10237600000E616F500E626F410E636F26C064F0EF
:1023860027C065F028C066F029C067F0B2EC14F0EB
:102396000001D8A0BDD7030E306EE1D6000E0001B5
:1023A600A06F030E0001A06501D04CD00001A05122
:1023B600010DE20EF324D96E000EF420DA6EDF5022
:1023C600C26EC282C2B2FED7C45000019E6F9F6B1E
:1023D6000001A051020DD80EF324D96E000EF42090
:1023E600DA6E9EC0DEFF9FC0DDFF0001A051020D28
:1023F600D80EF324D96E000EF420DA6EDECF9EF0EE
:10240600DDCF9FF09EC09FF000019E6BC350000180
:102416009E13000E9F130001A051020DD80EF32447
:10242600D96E000EF420DA6E9EC0DEFF9FC0DDFF7F
:10243600000E0001656F050E646FFDEC1AF00001D9
:10244600A02BAFD720EEDAF0DECF9EF0DDCF9FF0E7
:1024560000019E1F9F1F9E4B9F2B0001DC51000118
:102466009E270001DD5100019F239EC060F09FC0A2
:1024760061F00001000E61BFFF0E626F636F010E17
:10248600FCEC12F060C022F061C023F062C024F0C0
:1024960063C025F022C06CF023C06DF024C06EF03E
:1024A60025C06FF0000E0001706F000E716FA00E58
:1024B600726F400E736FECEC0AF06CC022F06DC0C8
:1024C60023F06EC024F06FC025F022C085F023C033
:1024D60086F024C087F025C088F0000E0001896FC1
:1024E600000E8A6F800E8B6F440E8C6F3FEC0DF0E2
:1024F60085C022F086C023F087C024F088C025F06E
:1025060022C085F023C086F024C087F025C088F05D
:10251600CD0E0001896FCC0E8A6F4C0E8B6F3E0E6E
:102526008C6F3FEC0DF085C022F086C023F087C08B
:1025360024F088C025F0D8C060F0D9C061F0000151
:10254600000E61BFFF0E626F636F010EFCEC12F0AE
:1025560060C026F061C027F062C028F063C029F091
:10256600000E0001706F000E716FA00E726F400EAC
:10257600736F26C06CF027C06DF028C06EF029C0BE
:102586006FF0ECEC0AF06CC085F06DC086F06EC0A2
:1025960087F06FC088F0000E0001896F000E8A6F09
:1025A600800E8B6F440E8C6F3FEC0DF085C026F0CD
:1025B60086C027F087C028F088C029F026C085F09D
:1025C60027C086F028C087F029C088F03BC089F074
:1025D6003CC08AF03DC08BF03EC08CF03FEC0DF065
:1025E60085C026F086C027F087C028F088C029F06D
:1025F60012000001686F000168510001D8B41ED0B6
:10260600000163AF1BD060C064F061C065F062C0BA
:1026160066F063C067F00001641F651F661F671FD1
:10262600642B000E65236623672364C06AF065C0C9
:102636006BF066C06CF067C06DF008D060C06AF0E1
:1026460061C06BF062C06CF063C06DF00001605158
:10265600000161110001621100016311D8A40AD0C2
:10266600000E0001606F000E616F000E626F000EBB
:10267600636F1200960E0001696F08D00001692B86
:102686000001D8906D336C336B336A33000E000152
:102696006A150001646F000E00016B150001656F7D
:1026A600000E00016C150001666FFE0E00016D152F
:1026B6000001676F00016451000165110001661198
:1026C60000016711D8B410D0D9D70001692B010ECB
:1026D60000016A27000E6B236C236D230001D8903E
:1026E6006D336C336B336A33000E00016A150001DB
:1026F600646F000E00016B150001656F000E00018E
:102706006C150001666FFF0E00016D150001676F05
:102716000001645100016511000166110001671195
:10272600D8B409D0D2D7000169070001D8906A371A
:102736006B376C376D3700016CBF04D0020E000199
:102746006961F1D7000169B109D0FF0E00016A176E
:10275600FF0E6B177F0E6C17FF0E6D170001D890DA
:10276600693369C064F00001656B666B676B64C0B2
:1027760067F00001666B656B646B000164510001D4
:102786006A130001655100016B13000166510001D7
:102796006C130001675100016D13000168510001BF
:1027A600D8B405D0000163AF02D000016D8F6AC0B6
:1027B60060F06BC061F06CC062F06DC063F0120037
:1027C60062C068F00001696B6A6B00016135000147
:1027D600683701E36981000168510001706F0001EB
:1027E6007051D8A40AD0000E0001606F000E616F10
:1027F600000E626F000E636F120066C068F0000183
:10280600696B6A6B000165350001683701E3698110
:102816000001685100016F6F00016F51D8A40AD002
:10282600000E0001606F000E616F000E626F000EF9
:10283600636F12000001618FFF0E00016017FF0E2B
:1028460000016117000E000162170001658FFF0E7F
:1028560000016417FF0E00016517000E00016617E0
:10286600000E00016B6F000E6C6F000E6D6F000E98
:102876006E6F7F0E0001705F00016F51980F0001AF
:10288600705F180E00016F6F0001D8906B376C37C0
:102896006D376E37000164510001605D00016551BE
:1028A600000161590001665100016259D8A00ED09D
:1028B600000164510001605F000165510001615B28
:1028C600000166510001625B00016B810001D89036
:1028D60060376137623700016F2FD6D7000170AFBE
:1028E6001AD000017051800A970FD8B00AD0000E96
:1028F6000001606F000E616F000E626F000E636F65
:1029060012000001D8906E336D336C336B330001C7
:10291600703FF7D71BD0170E0001706512D0000E5E
:102926000001606F000E616F000E626F000E636F34
:1029360012000001D8906B376C376D376E37000187
:102946007007000170510001D8A4F3D76BC060F086
:102956006CC061F06DC062F06EC063F01200000ED4
:10296600000160150001686F000E0001611500018D
:10297600696F800E0001621500016A6F7F0E00010B
:10298600631500016B6F00016851000169110001B8
:102996006A1100016B11D8A409D0000E0001606F06
:1029A600000E616F000E626F000E636F000E000175
:1029B60064150001686F000E000165150001696F5E
:1029C600800E0001661500016A6F7F0E0001671513
:1029D60000016B6F000168510001691100016A1165
:1029E60000016B11D8A409D0000E0001646F000E1F
:1029F600656F000E666F000E676F000163AF26D02D
:102A060060C068F061C069F062C06AF063C06BF0D4
:102A16000001681F691F6A1F6B1F682B000E692360
:102A26006A236B23000E000168250001606F000E0B
:102A3600000169210001616F000E00016A21000199
:102A4600626F800E00016B210001636F000167AFAA
:102A560026D064C068F065C069F066C06AF067C0D9
:102A66006BF00001681F691F6A1F6B1F682B000E41
:102A760069236A236B23000E000168250001646F39
:102A8600000E000169210001656F000E00016A2138
:102A96000001666F800E00016B210001676F000E5A
:102AA6000001601B000E611B000E621B800E631B83
:102AB600000E0001641B000E651B000E661B800ED7
:102AC600671B000164510001605D00016551000152
:102AD6006159000166510001625900016751000108
:102AE6006359D8B002D0D8901200D88012000001E5
:102AF6006235633500016D6F00016D51D8A40AD0AF
:102B0600000E0001606F000E616F000E626F000E16
:102B1600636F120000016635673500016C6F0001B6
:102B26006C51D8A40AD0000E0001606F000E616FD0
:102B3600000E626F000E636F12000001628FFF0EBF
:102B460000016017FF0E6117FF0E6217000E631774
:102B56000001668FFF0E00016417FF0E6517FF0E5A
:102B66006617000E6717000E0001686F000E696F8A
:102B7600000E6A6F000E6B6F7F0E00016D5F000125
:102B86006C51A00F00016D5F200E00016C6F0001FB
:102B9600D890683769376A376B370001645100018E
:102BA600605D000165510001615900016651000137
:102BB60062590001675100016359D8A012D0000183
:102BC60064510001605F000165510001615B000115
:102BD60066510001625B000167510001635B000101
:102BE60068810001D890603761376237633700012A
:102BF6006C2FCDD700016DAF1AD000016D51800A40
:102C06009F0FD8B00AD0000E0001606F000E616FF2
:102C1600000E626F000E636F12000001D8906B33D6
:102C26006A336933683300016D3FF7D71BD01F0E37
:102C360000016D6512D0000E0001606F000E616F1D
:102C4600000E626F000E636F12000001D8906837A5
:102C560069376A376B3700016D0700016D51000156
:102C6600D8A4F3D768C060F069C061F06AC062F0AA
:102C76006BC063F0120000016C6F00016C51CDEC6B
:102C86001BF08C908C948C92000E0001656F640E84
:102C9600646FFDEC1AF0000E0001666F010E000174
:102CA600676F010E0001686F000EC4EC1AF0000E8B
:102CB6000001656F640E646FFDEC1AF0000E0001F2
:102CC600666F010E0001676F010E0001686F000E4E
:102CD600C4EC1AF0000E0001656F0A0E646FFDEC7D
:102CE6001AF0000E0001666F010E0001676F010EFB
:102CF6000001686F000EC4EC1AF0000E0001666F4A
:102D0600010E0001676F000E0001686F000EC4EC33
:102D16001AF0000E0001666F010E0001676F000ECB
:102D26000001686F000EC4EC1AF0000E0001666F19
:102D3600000E0001676F000E0001686F010EC4EC03
:102D46001AF0000E0001666F000E0001676F000E9C
:102D56000001686F000EC4EC1AF0000E0001666FE9
:102D6600000E0001676F000E0001686F010EC4ECD3
:102D76001AF0000E0001666F000E0001676F000E6C
:102D86000001686F000EC4EC1AF0000E0001666FB9
:102D9600000E0001676F010E0001686F000EC4ECA3
:102DA6001AF0000E0001666F000E0001676F000E3C
:102DB6000001686F000EC4EC1AF0010E0001666F88
:102DC600010E0001676F000E0001686F000EC4EC73
:102DD6001AF030EC1BF0000E00016A6F000E17ECC3
:102DE6001BF012000001903591350001976F00012C
:102DF6009751D8A40AD0000E00018E6F000E8F6F77
:102E0600000E906F000E916F12008EC092F08FC070
:102E160093F090C094F091C095F0200E06D000017A
:102E2600D8909533943393339233E82EF8D7000134
:102E360092510001966F0001908FFF0E00018E17D0
:102E4600FF0E8F17FF0E9017000E9117960E0001BA
:102E5600975F000197AF1AD000019751800A970F2C
:102E6600D8B00AD0000E00018E6F000E8F6F000ED4
:102E7600906F000E916F12000001D890913390333D
:102E86008F338E330001973FF7D71BD01F0E0001FB
:102E9600976512D0000E00018E6F000E8F6F000E28
:102EA600906F000E916F12000001D8908E378F3709
:102EB6009037913700019707000197510001D8A478
:102EC600F3D7000196510001D8B409D00001911F33
:102ED600901F8F1F8E6D000E8F23902391238EC01F
:102EE6008EF08FC08FF090C090F091C091F01200DC
:102EF60000016A6F64D0000E0001666F000E0001CB
:102F0600676F000E0001686F010EC4EC1AF0000E28
:102F16000001666F000E0001676F000E0001686F0A
:102F2600000EC4EC1AF01200010E0001666F000ECE
:102F36000001676F000E0001686F010EC4EC1AF005
:102F4600000E0001666F000E0001676F000E0001A3
:102F5600686F000EC4EC1AF01200000E0001666FD6
:102F6600000E0001676F010E0001686F010EC4ECD0
:102F76001AF0010E0001666F000E0001676F000E69
:102F86000001686F000EC4EC1AF01200010E000179
:102F9600666F000E0001676F010E0001686F010E7B
:102FA600C4EC1AF0010E0001666F000E0001676F97
:102FB600000E0001686F000EC4EC1AF0120000014A
:102FC6006A51010AD8B497D7030AD8B4ADD7010A13
:102FD600D8B4C3D7070AD8A41200D8D7000E000168
:102FE600696F000167AF08D00001666D671FD8B032
:102FF600672B010E0001696F000165AF08D0000163
:10300600646D651FD8B0652B010E0001691B000EAB
:1030160000016B6F000E6A6F0001665100016711B7
:10302600D8B42CD0010E0001686F06D00001D890EC
:10303600663767370001682B000167AFF7D70001D5
:10304600D8906A376B37000166510001645D000154
:10305600675100016559D8A00AD0000166510001E8
:10306600645F000167510001655B00016A81000130
:10307600D890673366330001682FE1D700016951A4
:103086000001D8B405D000016A6D6B1FD8B06B2B58
:103096006AC064F06BC065F01200000E0001686F34
:1030A600000E696F000E6A6F000E6B6F00016451AF
:1030B600000165110001661100016711D8B442D004
:1030C600010E00016C6F08D00001D8906437653797
:1030D6006637673700016C2B000167AFF5D7000133
:1030E600D890683769376A376B3700016451000139
:1030F600605D0001655100016159000166510001E2
:1031060062590001675100016359D8A012D000012D
:1031160064510001605F000165510001615B0001BF
:1031260066510001625B000167510001635B0001AB
:1031360068810001D89067336633653364330001D4
:103146006C2FCDD768C060F069C061F06AC062F0CC
:103156006BC063F012000600E9CF03F0EACF04F07B
:10316600E1CF05F0E2CF06F0D9CF07F0DACF08F0CD
:10317600F3CF09F0F4CF0AF0F6CF0BF0F7CF0CF04F
:10318600F8CF0DF0F5CF0EF0F2940B0ED76EDC0EE5
:10319600D66E010E0001DE27000EDF23E023E123B9
:1031A6002E4A2F2A3C0E2E182F10D8A411D0000E0E
:1031B6002F6E000E2E6E2A4A2B2A3C0E2A182B1032
:1031C600D8A406D0000E2B6E000E2A6E2C4A2D2A8D
:1031D6000EC0F5FF0DC0F8FF0CC0F7FF0BC0F6FFE1
:1031E6000AC0F4FF09C0F3FF08C0DAFF07C0D9FF21
:1031F60006C0E2FF05C0E1FF04C0EAFF03C0E9FF25
:1032060002C0FBFF01C0FAFF4092110000016E6F81
:103216008C8000016E45010B00016A6F00016E454E
:10322600E846030B010B00016B6F00016E39E842A3
:10323600070B010B00016C6F00016E390F0B010BC0
:1032460000016D6F6BC066F06CC067F06DC068F012
:1032560000016A51C4EC1AF000016E39E8461F0BF2
:10326600010B00016A6F00016E41E8423F0B010B42
:1032760000016B6F0001D8906E31010B00016C6F7D
:1032860000016E51010B00016D6F6BC066F06CC0E2
:1032960067F06DC068F000016A51C4EC1AF08C90BA
:1032A6001200000E216E000161AF07D00001606DB3
:1032B600611FD8B0612B010E216E000163AF05D0EE
:1032C6000001626D631FD8B0632B000162510001DB
:1032D6006311D8B423D0010E206E05D00001D8901A
:1032E60062376337202A000163AFF8D700016251C5
:1032F6000001605D0001635100016159D8A008D04A
:10330600000162510001605F000163510001615BD1
:103316000001D89063336233202EE8D72150D8B409
:1033260005D00001606D611FD8B0612B60C060F0F0
:1033360061C061F0120000016451000165110001D5
:10334600661100016711D8B437D0010E206E07D080
:103356000001D8906437653766376737202A000141
:1033660067AFF6D7000164510001605D0001655149
:10337600000161590001665100016259000167515F
:1033860000016359D8A010D0000164510001605FAC
:10339600000165510001615B000166510001625B3D
:1033A600000167510001635B0001D8906733663303
:1033B60065336433202ED6D760C060F061C061F0FB
:1033C60062C062F063C063F012000001D16FD1ECFD
:1033D60011F00001D1517BEC17F0310E0001AE6FF8
:1033E600000E0001AF6FED0E0001B06F030E00017D
:1033F600B16F26C0B2F027C0B3F028C0B4F029C020
:10340600B5F0FBEC01F0000E386E310E00016F6F67
:10341600000E0001706FA2EC1BF0310E0001AE6FC2
:10342600000E0001AF6FE50E0001B06F030E000144
:10343600B16F22C0B2F023C0B3F024C0B4F025C0EF
:10344600B5F0FBEC01F0000E386E310E00016F6F27
:10345600000E0001706FA2EC1BF01200000E896EC8
:103466009268000E8A6E7F0E936E000E8B6E000EB3
:10347600946E000E8C6E000E956E100E3EEC16F0DD
:10348600D50E00016F6F030E0001706F62EC1BF02A
:10349600010E0001656FF40E646FFDEC1AF0010E6B
:1034A600C6EC1BF0000EC26E0B0EC16EB50EC06EE2
:1034B600C29AC298C296850ED56E0B0ED76EDC0EDA
:1034C600D66E310ECD6E3C0ECF6EB00ECE6E9E9089
:1034D6009D809F90D08EF28EF28CF294F28AC280FA
:1034E600120000EED2F0100EEE6AE806FDE100EEE4
:1034F60022F0170EEE6AE806FDE1A20EF66E370E12
:10350600F76E000EF86E00EEE2F010EE04F0090021
:10351600F5CFEEFFE550E150FAE1A60EF66E370E56
:10352600F76E000EF86E0900F5CF3FF0409040921E
:10353600000EF86E000188EF10F0000E0001AA1BC5
:10354600000EAB1B000EAC1B800EAD1BA6C092F08E
:10355600A7C093F0A8C094F0A9C095F0AAC096F0B1
:10356600ABC097F0ACC098F0ADC099F098EC08F0FD
:1035760092C0A6F093C0A7F094C0A8F095C0A9F099
:1035860012000001696F000168B102D08C9601D06B
:103596008C86000167B102D08C9801D08C8800011E
:1035A60066B102D08C9A01D08C8A000169B102D032
:1035B6008C9C01D08C8CB5EC1BF012000001605184
:1035C600000161110001621100016311D8B409D034
:1035D600000E0001601B000E611B000E621B800EB8
:1035E600631B60C060F061C061F062C062F063C0DE
:1035F60063F012003FC060F00001616B64C062F0CE
:1036060065C063F049EC1BF060C039F061C03AF068
:1036160006D0500EE82EFED73906D8A03A06395005
:103626003A10D8B41200F5D700016B6F000E0001F6
:10363600666F000E0001676F000E0001686F000ED6
:10364600C4EC1AF0010E0001666F6BC067F06AC029
:1036560068F0010EC4EC1AF01200000E0001666F4D
:10366600000E0001676F000E0001686F000EC4ECCB
:103676001AF0000E0001666F000E0001676F010E62
:103686000001686F000EC4EC1AF0120000016051D0
:1036960000016203F3CF20F0F4CF21F00001605166
:1036A60000016303F350212600016151000162030A
:1036B600F350212620C060F021C061F012000BD02B
:1036C6006FC0F6FF70C0F7FF0800F55009EC19F05F
:1036D60000016F4B702B6FC0F6FF70C0F7FF08003C
:1036E600F5500009D8B41200EBD70001666F000E42
:1036F6000001676F09D0030E0001656FE80E646F65
:10370600FDEC1AF00001672B000166510001675DB0
:10371600D8B01200F0D70001616F000E0001606F93
:103726003A0E0001616107D02F0E0001616503D0DA
:10373600010E0001606F60C020F0203012000AD038
:103746006FC0D9FF70C0DAFFDF5009EC19F0000135
:103756006F4B702B6FC0D9FF70C0DAFFDF50D8B443
:103766001200EED78C84000E0001656F010E646FA7
:10377600FDEC1AF08C94000E0001656F010E646F6B
:10378600FDEC1AF01200206E20B002D08C9E01D003
:103796008C8E1200206E20C03FF012000105090D2C
:0137A6001012
:020000040020DA
:08000000FFFFFFFFFFFFFFFF00
:020000040030CA
:0E000000FF021F1EFF8081FF0FC00FE00F40A8
:00000001FF
